:400000000080002011000000CD160000CD16000080B500AF024A034B1B68136001F088FBBC760040FA46004010B5054C237833B9044B13B10448AFF300800123237010BDCD
:40004000A881FF1F00000000A0500000084B10B51BB108480849AFF300800848036803B910BD074B002BFBD0BDE81040184700BF00000000A0500000AC81FF1F0881FF1F21
:400080000000000080B400AF0A4B1B780A4B1B78022B03D0084B1B78032B04D1074B1B680133064A1360064B01221A70BD465DF8047B7047034F00401881FF1FC481FF1FA0
:4000C000D681FF1F80B400AF1D4B1B781D4B1B78012B03D11C4B1B68002B07D1194B1B78032B03D0174B1B78042B08D1174B01221A70174B1B780133DAB2154B1A70114BC6
:400100001B78052B07D00F4B1B78012B13D1114B1B68002B0FD1104B1B780133DAB20E4B1A700D4B1B780A2B05D10C4B01221A60094B00221A70BD465DF8047B704700BF76
:40014000676400401881FF1F3082FF1FD781FF1FD981FF1F2882FF1FDA81FF1F2C82FF1F98B500AF14E00E4B1C68631C0C4A136003F0B2FB03461A460A4B1A55084B1B68FA
:40018000DA1E094B1B689A4202DD084B01221A6003F090FB034603F02003002BE3D198BD1C82FF1FDC81FF1F2482FF1F2082FF1FB0B5CEB002AF0023C7F820310023C7F850
:4001C0001C314FF00003C7F818314FF00003C7F814314FF00003C7F810314FF00003C7F82C3107F1BC0300221A60043300221A60043300221A60043300221A60043300225D
:400200001A600433BE4B07F1AC040FCB07C42370002387F8B930BB4B07F198041D460FCD0FC42B681A46228002341B0C2370B64B07F188040FCB07C42380B44B07F174042C
:400240001D460FCD0FC42B682370B14B07F160041D460FCD0FC42B682370AE4B07F150040FCB84E80F000023C7F828310023C7F824310023C7F80C310023A7F80A3100236B
:400280007B640023C7F8043162B602F04DFD01F03DFF03F0FFF8A04803F03EF99F4803F063FB03F0A9FA9E4B1B68DBB2184610210222002300F0B8FC00F0E4FC01F04CF984
:4002C00001F056F9974800F02BFE0020012100F059FD954800F024FE4FF47A7001F040FD00F03CFD01F02AFF0020002100F04AFD07F1AC03184600F013FE8C4B01221A70AF
:4003000003F0ACF98A4803F00BFA012001F026FF0346002B00F0898001F048FF0346184604F08AF80346C7F81031D7F8100103F013FD02460B46104619466FA3D3E90023F7
:4003400003F05EFD02460B461046194603F06AFF0346C7F81831774B1B78002B65D0764B1B680E2B0BDC754B1B681846D7F8181103F0AEFF03461A46704B1A6049E06E4B22
:400380001B680F2B14D16D4B1B681846D7F8181103F09EFF03461A46684B1A60674B1B681846674904F050F90346C7F82C3130E0D7F82C010F21D7F8182100F0FDFEC7F8D1
:4003C0002C01D7F82C0104F0DBF90346C7F82031D7F8200104F030F80346D7F82C01194603F074FF0346C7F81431D7F81401554904F076F80346184604F0C2F90346C7F80E
:400400001C313B1D1A463C23104600211A4604F014FA464B1B78022B02D0464B00221A70454B1B680133444A1360474B1B68012B13DD464B1B78303B7B64444B5B78303B6B
:40044000C7F804317A6C13469B0013445B001A46D7F8043113443E4A13603E4B1B68002B2DD007F1BC0339481946142201F044F8374B1A6807F1BC03D91C374B0093084605
:400480002A49364B00F0C6FE0246354B1A602E4B00221A602E4B00221A602C480021402204F0CBF907F1BC0318460021142204F0C4F92C4B00221A70264B00221A6001F03B
:4004C0008FF80346A7F8023101233B64174B1B78013B042B00F28D8301A252F823F000BF69050000F50600007D0900006B0B0000CF0B0000AFF300808FC2F5285C8F4A3F33
:4005000048510000585100006C5100007C51000090510000A451000085000000610100000C81FF1FA4500000B45000001881FF1FC5000000D681FF1F1481FF1FD081FF1F7C
:400540000000704100401C461C82FF1FDC81FF1F2482FF1F2082FF1F3482FF1F2882FF1F3082FF1FD981FF1FA84B1B68002B37D0A74B01221A60A74B00221A60A64B0022B1
:400580001A60A64B00221A80A54B4FF000021A60A44B4FF000021A60A34B00221A70A34B00221A70A24B00221A70A24B00221A60A14B00221A70A14B00221A60A04B00223C
:4005C0001A60924B00221A600023C7F824310020002100F0D7FB00F0C1FB9A4800F0A0FC994B1B68002B0BD007F1BC0207F14403104696490A2200F015FF934B00221A6073
:400600008A4B1B78002B74D00023C7F828318A4B1B78C3F10A0307F1D00210468C491A4604F014F919E011E0D7F828315A1CC7F8282107F59872134413F8603C184603F044
:4006400079F9D7F82831142B00DD06E003F066F9034603F00803002BE6D1D7F82831142BE1DD754B1B780A2B3FD1724B1B68794A82FB03129210DB17D31A03334FF47A722B
:4006800002FB03F3744A1360704B02221A700020002100F077FB00F061FB704800F040FC0023C7F8283119E011E0D7F828315A1CC7F8282107F59872134413F8983C184675
:4006C00003F038F9D7F82831122B00DD06E003F025F9034603F00803002BE6D1D7F82831122BE1DD544B00221A70504B00221A7080E27FE207F14E0107F14C0207F14A032A
:40070000084611461A4600F085FF474B1B78002B00F033813E4B1B680E2B29DCB7F902213D4B1B6813443C4A1360B7F84E301BB2184603F081FE0246494B1B6810461946F6
:4007400003F0C6FD03461A46454B1A60B7F84C301BB2184603F070FE0246424B1B681046194603F0B5FD03461A463E4B1A60BBE0274B1B680F2B7BD1B7F90221264B1B681E
:400780001344254A1360B7F84E301BB2184603F053FE0246324B1B681046194603F098FD03461A462E4B1A60B7F84C301BB2184603F042FE02462B4B1B681046194603F0D1
:4007C00087FD03461A46274B1A60134B1B68264A82FB03121A44D210DB17D31A0E4A13601F4B1B681846214903F02EFF03461A460B4B1A601B4B1B6818461C4903F024FF03
:4008000003461A46074B1A606EE000BF3482FF1F1081FF1FC481FF1FCC81FF1FD481FF1F3882FF1F3C82FF1FD681FF1FD781FF1FD881FF1F3082FF1FD981FF1F1C82FF1F58
:400840002882FF1FC05000002C82FF1F1881FF1FCC5000004FECC44EC881FF1FE45000004082FF1F4482FF1F8988888800007041824B1B881BB2184603F0DEFD0446B7F920
:400880000231184603F0D8FD034620460F211A4600F092FC0346184603F072FF03469AB2764B1A80764B1C68B7F84E301BB2184603F0C2FD034620460F211A4600F07CFC31
:4008C00002466F4B1A606F4B1C68B7F84C301BB2184603F0B1FD034620460F211A4600F06BFC0246674B1A60644B1B881BB244F6206293421ADD644B03221A7000200021F7
:4009000000F040FA00F02AFA604800F009FB604B00221A605F4B00221A605F4B00221A60564B00221A805D4B00221A70584B1B680133574A1360574B1A68594B1B689A42C4
:4009400017DB514B04221A700020002100F01AFA00F004FA534800F0E3FA4D4B00221A604C4B00221A604C4B00221A60434B00221A804D4B00221A703CE13BE1474B1B7818
:400980000F2B08D1454B00221A700123C7F82431012002F00FFE07F14E0107F14C0207F14A03084611461A4600F034FE3E4B1B78002B00F0AB80364B1B680E2B22DCB7F84B
:4009C0004E301BB2184603F037FD0246374B1B681046194603F07CFC03461A46334B1A60B7F84C301BB2184603F026FD0246304B1B681046194603F06BFC03461A462C4B38
:400A00001A607BE0224B1B680F2B55D1B7F84E301BB2184603F010FD0246244B1B681046194603F055FC03461A46204B1A60B7F84C301BB2184603F0FFFC02461C4B1B6802
:400A40001046194603F044FC03461A46184B1A60164B1B681846174903F0F6FD03461A46074B1A60124B1B681846124903F0ECFD03461A46034B1A6040E000BFD481FF1FD3
:400A80003882FF1F3C82FF1F1881FF1FF45000001081FF1FC481FF1FCC81FF1FD981FF1FC881FF1F04510000D681FF1F4082FF1F4482FF1F000070414F4B1C68B7F84E30A1
:400AC0001BB2184603F0B8FC034620460F211A4600F072FB0246484B1A60484B1C68B7F84C301BB2184603F0A7FC034620460F211A4600F061FB0246404B1A60404B0022AB
:400B00001A70404B1B6801333E4A13603E4B1B78052B0ED1D7F82431002B0AD0D7F824310133C7F82431002002F044FD364B00221A70354B1B78032B16D1D7F82431022B35
:400B400012D1324B04221A700020002100F01AF900F004F92E4800F0E3F90023C7F82431294B00221A7045E044E02A4B1B78002B02D0294800F0D4F9012002F01FFE224B82
:400B80001B78032B0ED1002002F018FE4FF47A7001F0E6F8D7F824310133C7F824311A4B00221A70D7F82431022B0FD1174B05221A700020002100F0E5F800F0CFF817488C
:400BC00000F0AEF9104B00221A7013E012E0144B1B68002B0CD007F1BC0207F1400310460A490A2200F01EFC0D4B00221A6001E000E000BFFFF789BB3882FF1F3C82FF1F57
:400C0000D681FF1F1081FF1FD981FF1F1881FF1F18510000D881FF1F2C5100003C5100002C82FF1FAFF3008090B482B000AF0446084611461A462346FB710346BB710B467A
:400C40007B7113463B710A4AFB791370094ABB791370094A7B791370084A3B791370084B08221A7000BF0837BD4690BC704700BF9482FF1F9982FF1F9A82FF1F9682FF1F34
:400C80009382FF1F80B500AF2E4B00221A702E4B1B78012B06D92B4B1B7843F00803DAB2284B1A70294B1B78002B0AD0264B1B78012B06D1234B1B7843F00403DAB2214BCB
:400CC0001A70322001F04CF8214B1B78184600F0F1F84FF47A7001F043F8302000F0D8F841F2941001F05EF8302000F0D1F841F2941001F057F8302000F0CAF8962001F05D
:400D000051F8202000F0C4F80E4B1B7843F02003DBB2184600F07EF80E4B04221A7000F063F800F01BF80C4B02221A700A4B1B7843F00403DBB2184600F06CF800F018F82E
:400D400000BF80BD9882FF1F9A82FF1F9682FF1F9382FF1F9582FF1F9782FF1F80B500AF012000F057F8022000F0FAFF00BF80BD80B500AF022000F04DF8022000F0F0FFA9
:400D800000BF80BD90B587B000AF03460A46FB711346BB71124B07F108040FCB84E80F00104B1B78BA799A4203D90E4B1B78013BBB71BB799B0007F11802134453F8103CD0
:400DC000DAB2FB791344DBB2DBB263F07F03DBB2DBB2184600F01EF800BF1C37BD4690BD585200009A82FF1F80B500AF084B1B7843F00403DAB2064B1A70054B1B7843F068
:400E00000803DBB2184600F005F800BF80BD00BF9582FF1F80B582B000AF0346FB71FB791846002100F012F800BF0837BD4680BD80B582B000AF0346FB71FB79184601212A
:400E400000F004F800BF0837BD4680BD80B584B000AF03460A46FB711346BB71FB7923F00F03FB73FB791B01BB73FA7BBB791343DBB2184600F00CF8BA7BBB791343DBB2B7
:400E8000184600F005F800BF1037BD4680BD00BF80B582B000AF0346FB71FB79184600F009F8FB79184600F01DF800BF0837BD4680BD00BF80B582B000AF0346FB71074B63
:400EC0001978074B1A78FB791343DBB20846194600F046F800BF0837BD4680BD9482FF1F9382FF1F80B582B000AF0346FB71FB7943F00403DBB21846FFF7DCFF012000F060
:400F000051FFFB7923F00403DBB21846FFF7D2FF322000F047FF00BF0837BD4680BD00BF80B584B000AF78600023FB60786803F0B1FC0346FB720023FB6009E07A68FB684C
:400F400013441B781846FFF773FFFB680133FB60FA7AFB689A42F1D800BF1037BD4680BD80B582B000AF03460A46FB711346BB71FB791846002102F0C3F8BB79184602F049
:400F80009BF902F06DF900BF0837BD4680BD00BF90B585B000AF3B600346FB710B46BB7113467B710023FB73FB791846002102F0A7F8BB79184602F07FF9FB791846012108
:400FC00002F0FCF807E03C68631C3B60012002F0B3F903462370FB7B5A1CFA731A467B79013B9A42EFDB002002F0A6F903461A463B681A7002F034F91437BD4690BD00BF3C
:4010000080B582B000AF03463A60FB710B46BB71FA79BB791046194601223B68FFF7B8FF0837BD4680BD00BF80B584B000AF3B600346FB710B46BB7113467B710023FB7306
:40104000FB791846002102F05BF8BB79184602F033F906E03B685A1C3A601B78184602F02BF9FB7B5A1CFA737A799A42F2D802F0F7F81037BD4680BD80B582B000AF03462F
:40108000FB710B46BB7113467B71F979BA797B1D084611460122FFF7C7FF0837BD4680BD90B585B000AF0446084611461A462346FB710346BB710B467B7113463B713B790A
:4010C000012202FA03F35A1E79793B79CB1A013302FA03F3FB73F979BA7907F10E03084611461A46FFF78CFF97F8202079793B79CB1A013302FA03F387F8203097F82020F2
:40110000FB7B134087F82030FB7BDB43DAB2BB7BDBB21340DBB2DBB2BB73BA7B97F820301343DBB2BB73BB7BF979BA79084611461A46FFF7A1FF1437BD4690BD90B585B0E9
:4011400000AF0446084611461A462346FB710346BB710B467B7113463B71F979BA7907F10F03084611461A46FFF74AFF3B79002B0AD07B79012202FA03F3DAB2FB7BDBB2A1
:401180001343DBB2DBB20BE07B79012202FA03F3DBB2DB43DAB2FB7BDBB21340DBB2DBB2FB73FB7BF979BA79084611461A46FFF763FF1437BD4690BD80B584B000AFF86033
:4011C0000B467A607B81B7F90A30184603F034F90346F868194603F037FA0346F868194603F074F80346FB60B7F90A30184603F023F903467868194603F026FA0346F8688E
:40120000194603F065F80346FB60FB6818461037BD4680BDB0B59AB000AFF860B9607A603B6000237B6600233B660023FB650023BB65764B07F128041D460FCD0FC40FCD6E
:401240000FC495E80F0007C42380714B07F114041D460FCD0FC42B682360F8686D49052203F020FB0346002B06D1BB6801221A70BB6F01221A60A1E0BB681B78012B22D12A
:40128000F8686549052203F00DFB0346002B1AD13B6801221A6012E00AE07B6E5A1C7A6607F16802134413F8543C184602F042FB02F034FB034603F00803002BEDD17B6E29
:4012C000132BE9DD7AE0BB681B78012B42D1F8685249022203F0E6FA0346002B3AD1FB6802331B78303BBB65FB6803331B78303BFB65FB6804331B78303B3B66BB6D002BF1
:401300000CD0FB6802331B78184602F013FBFB6803331B78184602F00DFB08E0FB6D002B05D0FB6803331B78184602F003FBFB6804331B78184602F0FDFABB6D642202FBDB
:4013400003F1FA6D13469B0013445B00CA183B6E134457E0BB681B78052B0BD1F8683049042203F09FFA0346002B03D13B6801221A6023E012E00AE07B6E5A1C7A6607F168
:401380006802134413F8403C184602F0D3FA02F0C5FA034603F00803002BEDD17B6E2D2BE9DDBB6D642202FB03F1FA6D13469B0013445B00CA183B6E134423E011E009E075
:4013C0007B6E5A1C7A661A46FB6813441B78184602F0B0FA02F0A2FA034603F00803002BEED17B68DA1C7B6E9A42E8DCBB6D642202FB03F1FA6D13469B0013445B00CA1858
:401400003B6E134418466837BD46B0BD94520000C45200007852000080520000885200008C520000B0B590B000AFF860B9607A603B600023FB632E4B07F124041D460FCD5C
:401440000FC495E8030020600434218002340B0C2370002387F83B30264B07F110041D460FCD0FC42B682380BB681B78012B17D112E00AE0FB6B5A1CFA6307F1400213449E
:4014800013F81C3C184602F055FA02F047FA034603F00803002BEDD1FB6B162BE9DD23E0BB681B78052B1FD13B681B68002B19D012E00AE0FB6B5A1CFA6307F140021344A1
:4014C00013F8303C184602F035FA02F027FA034603F00803002BEDD1FB6B102BE9DD3B6800221A600023FB634037BD46B0BD00BFDC520000F452000080B489B000AFF860FE
:40150000B9607A600023FB610023BB6100237B6118E0FB69FA6813441B78302B01D101237B617B69002B0AD0BB695A1CBA611A46BB681344FA69F9680A4412781A70FB6924
:401540000133FB61FA697B689A42E2DB2437BD465DF8047B704700BF80B400AF034B68221A70BD465DF8047B704700BF9282FF1F80B500AF012000F095F8002000F008F8FE
:40158000002000F019F8002000F07AF880BD00BF80B584B002AF0346FB71064B1A78FB79009310461B2104220223FFF779FD0837BD4680BD9282FF1F80B584B002AF034676
:4015C000FB71064B1A78FB79009310461C2104220223FFF765FD0837BD4680BD9282FF1F80B500AF094B1B7818463F210222084BFFF7CEFC064B1B781B029AB2044B5B787F
:401600009BB213439BB21BB2184680BD9282FF1F7C82FF1F80B584B000AFF860B9607A60154B1B78184643210622144BFFF7B0FC124B1B781B029AB2104B5B789BB2134399
:401640009AB2FB681A800D4B9B781B029AB20B4BDB789BB213439AB2BB681A80074B1B791B029AB2054B5B799BB213439AB27B681A801037BD4680BD9282FF1F7C82FF1F44
:4016800080B582B000AF0346FB71054B1A78FB7910466B210622FFF751FD0837BD4680BD9282FF1F80B584B002AF0346FB71064B1A78FB79009310466B2102220323FFF72F
:4016C000EFFC0837BD4680BD9282FF1F80B500AF03F07CF803461B680C2B00D1FEE7FEE780B584B000AF78600F4B1A687B6813441A460E4BD31A802B09DC0B4B1B68FB60F5
:40170000094B1A687B681344074A136007E003F05DF802460C2313604FF0FF33FB60FB6818461037BD4680BD2881FF1FC082FF1F80B586B000AF224B7B61224B3B61204BAA
:401740007B6135E03B691B68FB603B695B68BB603B699B683B6000237B600CE0FB681A68BB681A60BB680433BB60FB680433FB607B6804337B607A683B689A42EED13B69A3
:40178000DB683B6000237B6008E0BB6800221A60BB680433BB607B6804337B607A683B689A42F2D13B6910333B617B69013B7B617B69002BC6D103F00FF8FEF7F9FCFEE72A
:4017C00001000000D453000080B582B000AF174B174A1A60174A174B1B6843F40073136000237B600FE07B68032B04D8124A7B6852F8233000E0114B11497A6841F8223052
:401800007B6801337B607B682F2BECD90D4B1B78DAB20D4B1A700D4B094A1A6000F0B8F90B4B00221A600837BD4680BD0CED00E00004FA0514ED00E000000000CD16000084
:401840000080FF1FBC7600400481FF1F08ED00E00081FF1F80B582B000AF78603960786800213A6802F0E9FF0837BD4680BD00BF80B584B000AFF860B9607A60F868B9681B
:401880007A6802F0CFFF1037BD4680BD80B483B000AF0346FB71FEE780B487B000AF7860396000233B6100237B6127E07B699B007A6813441B68BB60BB68FB73BB6823F0E2
:4018C000FF03BB6014E03B695B003A6813441B781A46BB68134419463B695B003A6813445B780B703B6901333B61FB7B013BFB73FB7B002BE7D17B6901337B617B69222BBB
:40190000D4D91C37BD465DF8047B704780B582B000AF454B00221A80444B58221A70444B00221A80434B50221A70434B4D221A80424B18221A70424B40F65F121A80414B0D
:4019400018221A70404841490422FFF791FF404B02221A704FF0402308221A703D4B03221A703D4B3D4A1278D2B21A703C4B08221A803C4B41F251221A800023FB7019239C
:401980007B6014E0FB785B00DAB2374B1B78DBB203F00103DBB21343DBB203F00303FB704FF4F07002F048F87B68013B7B607B68002B02D0FB78032BE4D17B68002B02D1AB
:4019C0000320FFF763FF294B4FF480721A80274B07221A70264B00221A70264B48221A70224B00221A70244B02221A70234B04221A70234A224B1B78DBB243F00F03DBB262
:401A00001370204A1F4B1B78DBB243F00103DBB213701D4A1C4B1B78DBB263F07F03DBB213700837BD4680BD80400040824000408440004086400040884000408A40004078
:401A40008C4000408E40004000410040D00800480043004000420040A146004008010049224200402042004025420040044000400640004008400040014000400B400040A2
:401A8000A2430040A1430040A043004080B483B000AF144B1B78FB71134AFB7903F00703DBB21370114AFB791B09DBB21370104B04221A700F4B80221A700F4B04221A70CA
:401AC0000E4B20221A700E4B80221A700D4B80221A700D4B44221A700C37BD465DF8047B704700BFCF0100496E5800406F5800401D5100403D510040D85A0040DB5A004057
:401B0000005B0040585B00407658004080B483B000AF0346FB71FB79012B0ED8FB79094A52F82330FA79074951F822201178FA790548825C0A43D2B21A700C37BD465DF8E9
:401B4000047B7047085300001053000080B483B000AF0346FB71FB79012B10D8FB790A4A52F82330FA79084951F822201178FA790648825CD243D2B20A40D2B21A700C370E
:401B8000BD465DF8047B7047085300001053000080B586B000AF72B6534A534B1B78DBB243F00403DBB213700023FB7513E0FA7D13465B0013445B004C4A13443B613B6962
:401BC0001A683B699B889BB210461946FFF742FEFB7D0133FB75FB7D0A2BE8D90023FB751CE0FA7D13469B0013445B00404A1344FB60FB681B68BB60FB685B687B60FB688D
:401C00001A7A5B7A1B0213437B807B88B86879681A46FFF72DFEFB7D0133FB75FB7D022BDFD94FF090403349FFF736FE324B0A221A70324B40F203321A80314A304B1B78E0
:401C4000DBB243F00203DBB213702E4A2D4B1B78DBB243F00203DBB213702B4A2A4B1B78DBB243F04003DBB21370284A274B1B78DBB243F01003DBB2137025482549082248
:401C8000FFF7F6FD244825490A22FFF7F1FD244824490822FFF7ECFD234824490A22FFF7E7FD234823490822FFF7E2FD224A224B1B78DBB243F00803DBB213701F4B0022E8
:401CC0001A70FFF723FE1D4B80221A701C4B01221A70FFF7DBFE1B480B490E22FFF7C8FD1837BD4680BD00BFE846004014530000585300008C000048835800404E58004087
:401D00000350014013500140A0430040C243004002510040A0080048C0510040A808004812510040B408004820510040BC08004832510040C80800482243004000480040CB
:401D400004000840B043004080B483B000AF0346FB7101BE0C37BD465DF8047B704700BF80B582B000AF786008E00C4B1B68184601F062FE7B68A3F500437B607B68B3F547
:401D8000004FF2D8064B1B687A6802FB03F3184601F052FE0837BD4680BD00BF3881FF1F3081FF1F80B582B000AF0346FB80FB88044A127802FB03F3184601F03DFE0837ED
:401DC000BD4680BD3481FF1F80B584B000AF03463960FB710F4B1B68FB60FB791F2B02D90020FFF7B1FFFB7903F01F0310339B00FA6813441B68BB60FB7903F01F03103349
:401E00009B00FA6813443A681A60BB6818461037BD4680BD08ED00E080B582B000AF03460A46FB711346BB71BB79072B02D90020FFF78AFFFB791F2B02D90020FFF784FFA3
:401E4000FB7903F01F0303F1604303F56443BA795201D2B21A700837BD4680BD80B582B002AF414B01221A70404B00221A70102000F0E8FD102000F0CBFE1D200721FFF7BF
:401E8000CBFF3B4B04221A703A4B00221A703A4B00221A70394A394B1B78DBB243F01803DBB21370364B00221A70364B00221A70354B00221A70354B0A221A70344B0022DE
:401EC0001A70344B00221A70334B12221A70334B13221A70324B00221A70324B14221A7001230093022048F66B514FF400420C2300F0B6FB02230093002049F2DA014FF4F5
:401F00000042102300F0ACFB03230093002049F2DA014FF40042102300F0A2FB04230093002049F2DA014FF40042102300F098FB1D4A0D4B1B78DBB2013B1C499B000B44CC
:401F40009B7813701A4A084B1B78DBB2013B174931F823301380044B1B78DBB2184600F079F9BD4680BD00BF3C81FF1F5482FF1F96580040975800409E580040075B004017
:401F800093580040885B0040895B004080580040815800408358004088580040895800408D580040014E00400E4E00405882FF1F0C4E004080B582B000AF01F05CFD034697
:401FC000FB71444B1B78BB71434A434B1B78DBB243F00103DBB213703F4A3F4B1B78DBB243F01003DBB213703C4A3C4B1B78DBB243F00103DBB21370384A384B1B78DBB283
:4020000043F01003DBB21370354A354B1B78DBB243F00203DBB21370324A324B1B78DBB243F00203DBB213702F4A2F4B1B78DBB243F00303DBB213700320FFF7B3FE284AEA
:40204000274B1B78DBB223F00203DBB21370254A244B1B78DBB223F00203DBB21370234A224B1B78DBB243F00603DBB21370204B7A221A701F4A1F4B1B78DBB243F001037F
:40208000DBB213701C4A1C4B1B78DBB243F00103DBB21370194A194B1B78DBB243F00203DBB21370164A164B1B78DBB243F00203DBB21370134B4FF000521A60124B4FF07F
:4020C00000521A60FB79184601F0D9FC0837BD4680BD00BF3C81FF1FAA430040BA430040F8460040F9460040915800407758004082580040A1430040B1430040A24300402D
:40210000B243004080E200E000E100E080B500AF084B1B78002B09D1074B1B78DBB2002B01D1FFF79BFE034B01221A70FFF742FF80BD00BF5682FF1F5782FF1F80B400AF9C
:40214000054A054B1B78DBB243F00103DBB21370BD465DF8047B7047004E004080B485B000AF0346FB710E4B1B78DBB2002B03D00C4B1B78FB7305E00B4B1B78DBB203F053
:402180000103FB73FB7B012B02D0FB79002BEAD0FB7B18461437BD465DF8047B704700BF5582FF1F5482FF1F014E004080B483B000AF224B1B78DBB203F00303FB70FB7882
:4021C000012B0BD81E4B1B889BB27B607B681B041C4A128892B213437B6020E0FB78022B12D1174B1B889BB27B607B681B04154A1278D2B213437B60134B1B78DBB21B023A
:402200007A6813437B600AE00E4B1B889BB27B600B4B1B889BB21B047A6813437B600B4B1B78DBB2002B02D0094B00221A707B6818460C37BD465DF8047B7047144E0040DE
:40224000124E0040104E0040114E00405582FF1F5482FF1F80B582B000AF0346FB71C34B00221A70FB79012B66D1C14B38221A70C04B06221A70C04B08221A70BF4B0022A4
:402280001A70BF4B00221A70BE4B1F221A70BE4B00221A70BD4B00221A70BD4B00221A70BC4B01221A70BC4B14221A70BB4B05221A70BB4B16221A70BA4B00221A70BA4B3D
:4022C00044221A70B94B48221A70B94B01221A70B84B01221A70B84B11221A70B74B19221A70B74B97221A70522000F06FFAB54B58221A70B44B00221A70B44B05221A709F
:40230000B34B02221A70B34B00221A70B24B00221A70002000F0C6FAB04B40F233321A601220012100F0D2FA4A20012100F0B4FB1D20AB49FFF748FDFB79022B66D18C4B6C
:4023400038221A708B4B04221A708B4B06221A708A4B00221A708A4B00221A70894B3F221A70894B00221A70884B00221A70884B00221A70874B01221A70874B50221A70DF
:40238000864B27221A70864B2C221A70854B00221A70854B55221A70844B5A221A70844B05221A70834B01221A70834B11221A70824B19221A70824B97221A70442000F032
:4023C00005FA804B58221A707F4B00221A707F4B05221A707E4B02221A707E4B00221A707D4B00221A70002000F05CFA7B4B4FF47A421A600820012100F068FA2520012116
:4024000000F04AFB1D207749FFF7DEFCFB79032B66D1574B38221A70564B04221A70564B06221A70554B00221A70554B00221A70544B3F221A70544B00221A70534B00226A
:402440001A70534B00221A70524B01221A70524B50221A70514B27221A70514B2C221A70504B00221A70504B55221A704F4B5A221A704F4B05221A704E4B01221A704E4B15
:4024800011221A704D4B19221A704D4B97221A70442000F09BF94B4B58221A704A4B00221A704A4B05221A70494B02221A70494B00221A70484B00221A70002000F0F2F962
:4024C000464B4FF47A421A600820012100F0FEF92520012100F0E0FA1D204349FFF774FCFB79042B40F0A980214B38221A70214B04221A70204B06221A70204B00221A70A5
:402500001F4B00221A701F4B3F221A701E4B00221A701E4B00221A701D4B00221A701D4B01221A701C4B50221A701C4B27221A701B4B2C221A701B4B00221A701A4B552214
:402540001A701A4B5A221A70194B05221A70194B01221A70184B11221A70184B19221A70174B97221A70442040E000BF5582FF1F004E0040024E0040034E0040044E0040DA
:40258000054E0040064E0040084E0040094E00400A4E0040144E0040845800408558004086580040875800408A5800408B5800408C5800408E5800408F5800409058004039
:4025C0009158004094580040955800409A5800409B5800409C5800409D580040A082FF1F45280000512800005D28000000F0EEF8134B58221A70134B00221A70124B05221A
:402600001A70124B02221A70114B00221A70114B00221A70002000F045F90F4B4FF47A421A600820012100F051F92520012100F033FA1D200949FFF7C7FB0837BD4680BD06
:4026400094580040955800409A5800409B5800409C5800409D580040A082FF1F6928000090B587B000AF0446084611461A462346FB710346BB800B467B801346BB7197F82F
:402680002830002B00F08A8097F82830042B00F28580FB79013B092B4AD801A252F823F0C92600003127000031270000C92600003127000031270000E3260000FD26000020
:4026C0003127000017270000BB790F2B04D9364B1B78DBB2FB752EE0344B1B78DBB2FB7529E0BB790F2B04D9314B1B78DBB2FB7521E0304B1B78DBB2FB751CE0BB790F2BF5
:4027000004D92D4B1B78DBB2FB7514E02B4B1B78DBB2FB750FE0BB790F2B04D9284B1B78DBB2FB7507E0274B1B78DBB2FB7502E00023FB7500BFBA8897F917305B01134494
:402740003B617B883A6902FB03F3FB60FB68DB0BBB82BB790D2B11D8BB8ABA79C2F10E021341BB8297F82830013BBA790132D1B2154A9B0013440A469A7007E097F828309D
:40278000013B114A9B0013440F229A7097F82830013B0D49BA8A21F8232002E00020FFF7D3FA1C37BD4690BD180100491C010049190100491D0100491A0100491E01004976
:4027C0001B0100491F0100495882FF1F80B584B000AF0346FB7101F04EF90346FB73164A154B1B78DBB243F00303DBB21370134A124B1B78DBB243F00303DBB21370104AB1
:40280000FB7913700320FFF7CDFA0B4A0A4B1B78DBB223F00303DBB21370084A074B1B78DBB223F00303DBB21370FB7B184601F026F91037BD4680BDF8460040F946004079
:402840009258004080B400AFBD465DF8047B704780B400AFBD465DF8047B704780B400AFBD465DF8047B704780B400AFBD465DF8047B704780B582B000AF0023FB7106E0DF
:40288000FB791846FFF762F9FB790133FB71FB79012BF5D9024BFF221A700837BD4680BD3D81FF1F80B582B000AF0346FB71FFF7E1FFFB791846FFF729F9034AFB79137051
:4028C0000837BD4680BD00BF3D81FF1F80B584B000AF03460A46FB8013467B7100F0CCF80346FB7300F0A2F80346BB81FA88BB899A4200F08780454B1B78DBB203F0020392
:40290000FB72FB7B002B20D1BB89002B02D0FB88002B1AD1BB89002B0BD13D4AFB8813803C4A3C4B1B78DBB223F04003DBB2137068E0384A374B1B78DBB243F04003DBB2D4
:402940001370334AFB8813805CE0FB7A002B33D0314B00221A70314B02221A70304B00221A70304A2F4B1B78DBB203F07F03DBB21370284B1B78DBB203F00803002B02D0C2
:40298000FB88002B18D1284ABB891380224B07221A7000BF204B1B78DBB203F00103002BF8D11A4A194B1B78DBB223F00203DBB21370194B00221A70144B1B78DBB203F050
:4029C0000203002B13D0184AFB881380124A7B79002B01D0032300E00123137000BF0E4B1B78DBB203F00103002BF8D10AE0084AFB8813800549054B1B78DAB2FB7A134356
:402A0000DBB20B701037BD4680BD00BFA24300408440004086400040014000401040004014400040084000400240004080B400AF034B1B889BB21846BD465DF8047B70475D
:402A40008440004080B483B000AF0346FB71094B084A1278D2B2D1B2FA7922F00702D2B20A43D2B2D2B21A700C37BD465DF8047B704700BF8640004080B400AF054B1B7803
:402A8000DBB203F00703DBB21846BD465DF8047B704700BF8640004080B584B000AF03460A46FB8013467B7100F0CCF80346FB7300F0A2F80346BB81FA88BB899A4200F0D1
:402AC0008780454B1B78DBB203F00103FB72FB7B002B20D1BB89002B02D0FB88002B1AD1BB89002B0BD13D4AFB8813803C4A3C4B1B78DBB223F04003DBB2137068E0384A0A
:402B0000374B1B78DBB243F04003DBB21370334AFB8813805CE0FB7A002B33D0314B00221A70314B01221A70304B00221A70304A2F4B1B78DBB203F07F03DBB21370284B77
:402B40001B78DBB203F00803002B02D0FB88002B18D1284ABB891380224B07221A7000BF204B1B78DBB203F00103002BF8D11A4A194B1B78DBB223F00103DBB21370194B92
:402B800000221A70144B1B78DBB203F00103002B13D0184AFB881380124A7B79002B01D0032300E00123137000BF0E4B1B78DBB203F00103002BF8D10AE0084AFB881380FF
:402BC0000549054B1B78DAB2FB7A1343DBB20B701037BD4680BD00BFA14300400041004002410040014000401440004010400040084000400240004080B400AF034B1B8854
:402C00009BB21846BD465DF8047B70470041004080B483B000AF0346FB71094B084A1278D2B2D1B2FA7922F00702D2B20A43D2B2D2B21A700C37BD465DF8047B704700BF57
:402C40000241004080B400AF054B1B78DBB203F00703DBB21846BD465DF8047B704700BF0241004080B500AF134B02221A70134B81221A70124B08221A70124B0F221A7022
:402C8000114B00221A70114B4FF400421A600F200721FFF7C1F80F200D49FFF795F80D4B10221A700C4B00221A700C4B00221A700B4B00221A7080BDD6490040C84900409A
:402CC000CA490040DB490040DC49004080E100E0552D0000A482FF1FB582FF1FA882FF1FA982FF1F80B582B000AF00F0C4FE0346FB710B4A0A4B1B78DBB243F00403DBB2BD
:402D00001370084A074B1B78DBB243F00403DBB21370FB79184600F0B2FE0837BD4680BDA5430040B543004080B500AF074B1B78002B04D1FFF796FF044B01221A70FFF76B
:402D4000D1FF034B4FF400421A6080BD6882FF1F00E100E080B582B000AFA84B1B78FB71A74B1B78DBB203F04003DBB2002B00F0AC81FB7903F00103002B00F08381A04B96
:402D80001B78DBB2453B052B00F2788101A252F823F000BFAD2D0000D52E00007D3000007D300000AD2D0000C32F0000FB7923F02003FB71FB7903F00A03DBB2082B46D135
:402DC0008F4B1B78DBB2452B3AD18E4B1B78DBB2002B0FD08C4A8D4B1B681B78DBB21370864B04221A708A4B01221A70844B46221A706EE0874B1B78DBB203F00203002B60
:402E00000FD0854B1B78DBB243F00A03DAB2824B1A707B4B60221A70804B4FF400421A6057E07F4A7E4B1B78DBB243F01003DBB213707C4B10221A70704B04221A7048E0AF
:402E40006E4B00221A706E4B4A221A701AE1FB7903F00A03DBB20A2B37D16F4B1B78DBB263F05F03DAB26C4B1A706A4B1B78DBB203F00203002B19D0614B1B78DBB203F009
:402E80000803002B01D0092300E00A23DAB2624B1B78DBB21343DAB25F4B1A70584B60221A705E4B4FF400421A6012E05C4A5C4B1B78DBB243F01003DBB21370594B102281
:402EC0001A704E4B04221A70DCE00020FEF73CFFD8E0D7E0FB7903F00203002B42D14C4B1B78DAB2474B1B78DBB29A4214D2464A464B1B6846490978C9B20B441B78DBB212
:402F000013703E4B04221A70414B1B78DBB20133DAB23F4B1A7053E03E4B1B78DBB203F00203002B0FD03C4B1B78DBB243F00A03DAB2394B1A70324B60221A70374B4FF4A8
:402F400000421A603CE0364A354B1B78DBB243F01003DBB21370334B10221A70274B04221A708FE02B4B1B78DBB203F00203002B0FD0294B1B78DBB263F06503DAB2264B54
:402F80001A701F4B60221A70244B4FF400421A6016E0234A224B1B78DBB243F01003DBB21370204B10221A70144B04221A701A4B1B78DBB263F06F03DAB2174B1A7061E024
:402FC00060E0194B1B68194A1278D2B213440E4A1278D2B21A70154B1B78DBB20133DAB2124B1A70114B1B78DAB2114B1B78DBB29A421FD2014B10221A703EE0D749004081
:40300000A482FF1FAA82FF1FD8490040AC82FF1FA982FF1FB482FF1FB582FF1F80E100E0D6490040D9490040B082FF1FA882FF1FB682FF1F2C4B1B78DBB203F00203002BB9
:403040000FD02A4B1B78DBB243F00903DAB2274B1A70274B60221A70264B4FF400421A600BE0254A244B1B78DBB243F01003DBB21370224B00221A7004E003E00020FEF7F3
:4030800063FE00BFFB7903F02003002B28D0184B1B78DBB203F00803002B01D0012300E00223DAB2114B1B78DBB21343DAB20F4B1A70114A104B1B78DBB223F01003DBB246
:4030C00013700B4B10221A700AE0094B1B78DBB203F01003DBB2002B02D1054B10221A700837BD4680BD00BFB482FF1FB582FF1FA482FF1F80E100E0D6490040D749004015
:4031000080B485B000AF03460A46FB711346BB710223FB73244B1B78DBB2102B3CD1234B1B78DBB203F00803002B33D1204B4FF400421A60FB795B00FB71BB79002B07D0ED
:40314000FB7943F00103FB71174B49221A7002E0154B45221A70174AFB791370134B01221A7000BF144B1B78DBB203F00103002BF8D0114B1B78DBB203F00A03DBB20A2BE5
:4031800005D1094B10221A700323FB7304E00023FB7301E00123FB73FB7B18461437BD465DF8047B704700BFA482FF1FD949004080E100E0D8490040D749004080B485B030
:4031C00000AF03460A46FB711346BB710223FB731F4B1B78DBB203F00403002B31D0FB795B00FB71BB79002B07D0FB7943F00103FB71184B49221A7002E0164B45221A703F
:40320000154AFB791370124B12221A70134B04221A7000BF114B1B78DBB203F00103002BF8D00E4B1B78DBB203F00A03DBB20A2B05D1084B10221A700323FB7301E0002332
:40324000FB73FB7B18461437BD465DF8047B7047D9490040A482FF1FD8490040D749004080B483B000AF0223FB71104B1B78DBB203F00403002B12D00C4B10221A700C4B39
:4032800004221A700B4B10221A7000BF084B1B78DBB203F02103002BF8D00023FB71FB7918460C37BD465DF8047B7047D9490040D7490040A482FF1F80B485B000AF034677
:4032C000FB710223FB73184B1B78DBB203F00403002B22D0154AFB791370154B04221A70144B46221A7000BF114B1B78DBB203F00103002BF8D00E4B1B78DBB203F00203E8
:40330000002B05D10B4B60221A700023FB7304E0084B60221A700323FB73FB7B18461437BD465DF8047B7047D9490040D8490040D7490040A482FF1F80B485B000AF03464D
:40334000FB710023FB73174B1B78DBB203F00403002B1FD0144B1B78DBB2492B05D1134B00221A70104B4A221A7000BF0F4B1B78DBB203F00103002BF8D00D4B1B78FB731A
:40338000FB79002B03D0094B10221A7002E0064B60221A70FB7B18461437BD465DF8047B704700BFD9490040A482FF1FD7490040D849004080B500AF204A204B1B78DBB2A0
:4033C00003F00103DBB213701D4A1D4B1B78DBB223F00303DBB213701A4A1A4B1B78DBB223F03003DBB21370164A164B1B78DBB243F03003DBB21370124A124B1B78DBB23F
:4034000023F00F03DBB213700E4A0E4B1B78DBB243F00F03DBB213700B4A0B4B1B78DBB243F00103DBB21370132000F053F8132000F062F8082000F03DF880BD004F00401B
:40344000024F00400B4F0040014F004080B400AF0D4A0D4B1B78DBB243F00103DBB213700A4A0A4B1B78DBB243F00103DBB21370074A074B1B78DBB243F00103DBB213707E
:40348000BD465DF8047B7047A3430040B3430040004F004080B500AF054B1B78002B04D1FFF788FF024B01221A70FFF7CFFF80BD6982FF1F80B483B000AF0346FB71044A32
:4034C000FB7913700C37BD465DF8047B704700BF034F004080B485B000AF0346FB80FB88FB81044AFB8913801437BD465DF8047B704700BF044F004080B483B000AF0346E9
:40350000FB80044AFB8813800C37BD465DF8047B704700BF064F004080B582B000AF786000F03CF8786800F009F8072000F018F800F028F80837BD4680BD00BF80B485B0C6
:4035400000AF7860054B1B68FB60FB6884337A681A601437BD465DF8047B704708ED00E080B483B000AF0346FB71054AFB795B01DBB213700C37BD465DF8047B704700BFE8
:4035800011E400E080B400AF034B4FF400321A60BD465DF8047B704700E100E080B400AF034B4FF400321A60BD465DF8047B704780E100E080B485B000AF0346FB710B4BB5
:4035C0001B78DBB223F00803FB730849FB79DB00DBB203F00803DAB2FB7B1343DBB20B701437BD465DF8047B704700BF0051004080B582B000AF0F4800F05CF80D4800F075
:4036000073F800F038FA0346FB710B4A0A4B1B78DBB243F01003DBB21370FB79184600F02EFA00F06FF8012000F028F80837BD4680BD00BFFF356E019764004080B400AFB7
:40364000054A054B1B78DBB263F07F03DBB21370BD465DF8047B70477564004080B500AF054B1B78002B04D1FFF7C2FF024B01221A70FFF7E3FF80BD6A82FF1F80B483B001
:4036800000AF0346FB71044AFB7913700C37BD465DF8047B704700BF8764004080B400AF034B1B78DBB21846BD465DF8047B70476764004080B483B000AF7860034A7B6840
:4036C00013600C37BD465DF8047B70472464004080B400AF034B1B681846BD465DF8047B704700BF4464004080B483B000AF7860034A7B6813600C37BD465DF8047B704715
:403700000464004080B500AF01E0FFF7E1FFFFF7C5FF034603F00803002BF6D180BD00BF80B582B000AF786000F03CF8786800F009F8072000F018F800F028F80837BD46FB
:4037400080BD00BF80B485B000AF7860054B1B68FB60FB6840337A681A601437BD465DF8047B704708ED00E080B483B000AF0346FB71054AFB795B01DBB213700C37BD460F
:403780005DF8047B704700BF00E400E080B400AF034B01221A60BD465DF8047B704700BF00E100E080B400AF034B01221A60BD465DF8047B704700BF80E100E080B485B05A
:4037C00000AF0346FB710B4B1B78DBB223F00403FB730849FB799B00DBB203F00403DAB2FB7B1343DBB20B701437BD465DF8047B704700BF0051004080B500AF054B1B7830
:40380000002B04D100F008F8024B01221A7000F023F880BD6B82FF1F80B400AF094B72221A70094B20221A70084B06221A70084B47221A70074B00221A70BD465DF8047BB6
:40384000704700BF886500408B6500402A6400403A6400408B64004080B582B000AF00F00AF90346FB71104A0F4B1B78DBB243F02003DBB213700D4A0C4B1B78DBB243F0A1
:403880001003DBB213700A4A094B1B78DBB243F01003DBB2137000F0B5F8FB79184600F0EEF80837BD4680BD986500409B6500409B64004080B483B000AF064B1B78DBB2C0
:4038C00003F07F03FB71FB7918460C37BD465DF8047B70476B65004080B483B000AF0023FB710C4B1B78BB71BB7903F02003002B09D0094B1B78FB71BB7903F01E03002B65
:4039000001D00023FB71FB7918460C37BD465DF8047B70476B6500404B65004080B400AF034B1B78DBB21846BD465DF8047B70476B64004080B483B000AF0346FB7100BFAE
:40394000074B1B78DBB203F00403002BF8D1054AFB7913700C37BD465DF8047B704700BF6B6400404B64004080B582B000AF786000F03CF8786800F009F8072000F018F809
:4039800000F028F80837BD4680BD00BF80B485B000AF7860054B1B68FB60FB6848337A681A601437BD465DF8047B704708ED00E080B483B000AF0346FB71054AFB795B01C9
:4039C000DBB213700C37BD465DF8047B704700BF02E400E080B400AF034B04221A60BD465DF8047B704700BF00E100E080B400AF034B04221A60BD465DF8047B704700BF64
:403A000080E100E080B400AF094A094B1B78DBB243F00403DBB21370064A064B1B78DBB243F00403DBB21370BD465DF8047B7047A2430040B2430040142816D902B401215B
:403A400014381049097811F0C001890904B40E4A515C04BC00BF00BF00BF8841FDD500BF00BF02BC704700BF00BF70F10400FCD570470B050709EFF3108072B6704780F335
:403A80001088704700480040723A0000AFF3008081F0004102E000BF83F0004330B54FEA41044FEA430594EA050F08BF90EA020F1FBF54EA000C55EA020C7FEA645C7FEA89
:403AC000655C00F0E2804FEA5454D4EB5555B8BF6D420CDD2C4480EA020281EA030382EA000083EA010180EA020281EA0303362D88BF30BD11F0004F4FEA01314FF4801C20
:403B00004CEA113102D0404261EB410113F0004F4FEA03334CEA133302D0524263EB430394EA050F00F0A780A4F10104D5F1200E0DDB02FA0EFC22FA05F2801841F10001F1
:403B400003FA0EF2801843FA05F359410EE0A5F120050EF1200E012A03FA0EFC28BF4CF0020C43FA05F3C01851EBE37101F0004507D54FF0000EDCF1000C7EEB00006EEB11
:403B80000101B1F5801F1BD3B1F5001F0CD349085FEA30004FEA3C0C04F101044FEA445212F5800F80F09A80BCF1004F08BF5FEA500C50F1000041EB045141EA050130BDB0
:403BC0005FEA4C0C404141EB010111F4801FA4F10104E9D191F0000F04BF01460020B1FA81F308BF2033A3F10B03B3F120020CDA0C3208DD02F1140CC2F10C0201FA0CF04E
:403C000021FA02F10CE002F11402D8BFC2F1200C01FA02F120FA0CFCDCBF41EA0C019040E41AA2BF01EB0451294330BD6FEA04041F3C1CDA0C340EDC04F11404C4F120029F
:403C400020FA04F001FA02F340EA030021FA04F345EA030130BDC4F10C04C4F1200220FA02F001FA04F340EA0300294630BD21FA04F0294630BD94F0000F83F4801306BFF7
:403C800081F480110134013D4EE77FEA645C18BF7FEA655C29D094EA050F08BF90EA020F05D054EA000C04BF1946104630BD91EA030F1EBF0021002030BD5FEA545C05D164
:403CC0004000494128BF41F0004130BD14F580043CBF01F5801130BD01F0004545F0FE4141F470014FF0000030BD7FEA645C1ABF194610467FEA655C1CBF0B46024650EAAD
:403D0000013406BF52EA033591EA030F41F4002130BD00BF90F0000F04BF0021704730B54FF4806404F132044FF000054FF0000150E700BF90F0000F04BF0021704730B59C
:403D40004FF4806404F1320410F0004548BF40424FF000013EE700BF42004FEAE2014FEA31014FEA02701FBF12F07F4393F07F4F81F06051704792F0000F14BF93F07F4F0A
:403D8000704730B54FF4607401F0004521F0004120E700BF50EA010208BF704730B54FF000050AE050EA010208BF704730B511F0004502D5404261EB41014FF4806404F14B
:403DC00032045FEA915C3FF4DCAE4FF003025FEADC0C18BF03325FEADC0C18BF033202EBDC02C2F1200300FA03FC20FA02F001FA03FE40EA0E0021FA02F11444C1E600BF36
:403E000070B54FF0FF0C4CF4E06C1CEA11541DBF1CEA135594EA0C0F95EA0C0F00F0DEF82C4481EA030621EA4C5123EA4C5350EA013518BF52EA033541F4801143F4801356
:403E400038D0A0FB02CE4FF00005E1FB02E506F00042E0FB03E54FF00006E1FB03569CF0000F18BF4EF0010EA4F1FF04B6F5007F64F5407404D25FEA4E0E6D4146EB06065F
:403E800042EAC62141EA55514FEAC52040EA5E504FEACE2EB4F1FD0C88BFBCF5E06F1ED8BEF1004F08BF5FEA500E50F1000041EB045170BD06F0004646EA010140EA020013
:403EC00081EA0301B4EB5C04C2BFD4EB0C0541EA045170BD41F480114FF0000E013C00F3AB8014F1360FDEBF002001F0004170BDC4F10004203C35DA0C341BDC04F114041A
:403F0000C4F1200500FA05F320FA04F001FA05F240EA020001F0004221F0004110EBD37021FA04F642EB06015EEA430E08BF20EAD37070BDC4F10C04C4F1200500FA04F313
:403F400020FA05F001FA04F240EA020001F0004110EBD37041F100015EEA430E08BF20EAD37070BDC4F1200500FA05F24EEA020E20FA04F301FA05F243EA020321FA04F041
:403F800001F0004121FA04F220EA020000EBD3705EEA430E08BF20EAD37070BD94F0000F0FD101F00046400041EB010111F4801F08BF013CF7D041EA060195F0000F18BF86
:403FC000704703F00046520043EB030313F4801F08BF013DF7D043EA0603704794EA0C0F0CEA135518BF95EA0C0F0CD050EA410618BF52EA4306D1D181EA030101F0004188
:404000004FF0000070BD50EA410606BF1046194652EA430619D094EA0C0F02D150EA013613D195EA0C0F05D152EA03361CBF104619460AD181EA030101F0004141F0FE4189
:4040400041F470014FF0000070BD41F0FE4141F4780170BD70B54FF0FF0C4CF4E06C1CEA11541DBF1CEA135594EA0C0F95EA0C0F00F0A7F8A4EB050481EA030E52EA0335E9
:404080004FEA013100F088804FEA03334FF0805545EA131343EA12634FEA022245EA111545EA10654FEA00260EF000419D4208BF964244F1FD0404F5407402D25B084FEA5E
:4040C0003202B61A65EB03055B084FEA32024FF480104FF4002CB6EB020E75EB030E22BFB61A754640EA0C005B084FEA3202B6EB020E75EB030E22BFB61A754640EA5C00AA
:404100005B084FEA3202B6EB020E75EB030E22BFB61A754640EA9C005B084FEA3202B6EB020E75EB030E22BFB61A754640EADC0055EA060E18D04FEA051545EA16754FEA76
:4041400006164FEAC30343EA52734FEAC2025FEA1C1CC0D111F4801F0BD141EA00014FF000004FF0004CB6E711F4801F04BF01430020B4F1FD0C88BFBCF5E06F3FF6AFAEBE
:40418000B5EB030C04BFB6EB020C5FEA500C50F1000041EB045170BD0EF0004E4EEA113114EB5C04C2BFD4EB0C0541EA045170BD41F480114FF0000E013C90E645EA060E1E
:4041C0008DE60CEA135594EA0C0F08BF95EA0C0F3FF43BAF94EA0C0F0AD150EA01347FF434AF95EA0C0F7FF425AF104619462CE795EA0C0F06D152EA03353FF4FDAE1046DC
:40420000194622E750EA410618BF52EA43067FF4C5AE50EA41047FF40DAF52EA43057FF4EBAE12E74FEA4102B2F1E04324BFB3F5001CDCF1FE5C0DD901F0004C4FEAC002EE
:404240004CEA5070B2F1004F40EB830008BF20F00100704711F0804F21D113F13872BCBF01F00040704741F480114FEA5252C2F11802C2F1200C10FA0CF320FA02F018BF0B
:4042800040F001004FEAC1234FEAD32303FA0CFC40EA0C0023FA02F34FEA4303CCE77FEA625307D150EA01331EBF4FF0FE4040F44000704701F0004040F0FE4040F4000046
:4042C000704700BF80F0004002E000BF81F0004142001FBF5FEA410392EA030F7FEA226C7FEA236C6AD04FEA1262D2EB1363C1BFD218414048404140B8BF5B42192B88BF6E
:40430000704710F0004F40F4000020F07F4018BF404211F0004F41F4000121F07F4118BF494292EA030F3FD0A2F1010241FA03FC10EB0C00C3F1200301FA03F100F00043F5
:4043400002D5494260EB4000B0F5000F13D3B0F1807F06D340084FEA310102F10102FE2A51D2B1F1004F40EBC25008BF20F0010040EA03007047490040EB000010F4000FD8
:40438000A2F10102EDD1B0FA80FCACF1080CB2EB0C0200FA0CF0AABF00EBC25052421843BCBFD0401843704792F0000F81F4000106BF80F400000132013BB5E74FEA410377
:4043C0007FEA226C18BF7FEA236C21D092EA030F04D092F0000F08BF0846704790EA010F1CBF0020704712F07F4F04D1400028BF40F00040704712F100723CBF00F50000B3
:40440000704700F0004343F0FE4040F4000070477FEA226216BF08467FEA23630146420206BF5FEA412390EA010F40F4800070474FF0000304E000BF10F0004348BF404294
:404440005FEA000C08BF704743F0964301464FF000001CE050EA010208BF70474FF000030AE000BF50EA010208BF704711F0004302D5404261EB41015FEA010C02BF84466E
:404480000146002043F0B64308BFA3F18053A3F50003BCFA8CF2083AA3EBC25310DB01FA02FC634400FA02FCC2F12002BCF1004F20FA02F243EB020008BF20F00100704766
:4044C00002F1200201FA02FCC2F1200250EA4C0021FA02F243EB020008BF20EADC7070474FF0FF0C1CEAD0521EBF1CEAD15392EA0C0F93EA0C0F6FD01A4480EA010C400242
:4045000018BF5FEA41211ED04FF0006343EA501043EA5111A0FB01310CF00040B1F5000F3EBF490041EAD3715B0040EA010062F17F02FD2A1DD8B3F1004F40EBC25008BF6D
:4045400020F00100704790F0000F0CF0004C08BF49024CEA502040EA51207F3AC2BFD2F1FF0340EAC250704740F400004FF00003013A5DDC12F1190FDCBF00F000407047C0
:40458000C2F10002410021FA02F1C2F1200200FA02FC5FEA310040F1000053EA4C0308BF20EADC70704792F0000F00F0004C02BF400010F4000F013AF9D040EA0C0093F081
:4045C000000F01F0004C02BF490011F4000F013BF9D041EA0C018FE70CEAD15392EA0C0F18BF93EA0C0F0AD030F0004C18BF31F0004CD8D180EA010000F00040704790F079
:40460000000F17BF90F0004F084691F0000F91F0004F14D092EA0C0F01D142020FD193EA0C0F03D14B0218BF084608D180EA010000F0004040F0FE4040F40000704740F0CC
:40464000FE4040F4400070474FF0FF0C1CEAD0521EBF1CEAD15392EA0C0F93EA0C0F69D0A2EB030280EA010C49024FEA402037D04FF0805343EA111143EA10130CF000400F
:404680008B4238BF5B0042F17D024FF4000C8B4224BF5B1A40EA0C00B3EB510F24BFA3EB510340EA5C00B3EB910F24BFA3EB910340EA9C00B3EBD10F24BFA3EBD10340EA40
:4046C000DC001B0118BF5FEA1C1CE0D1FD2A3FF650AF8B4240EBC25008BF20F0010070470CF0004C4CEA50207F32C2BFD2F1FF0340EAC250704740F400004FF00003013A3C
:4047000037E792F0000F00F0004C02BF400010F4000F013AF9D040EA0C0093F0000F01F0004C02BF490011F4000F013BF9D041EA0C0195E70CEAD15392EA0C0F08D14202CC
:404740007FF47DAF93EA0C0F7FF470AF084676E793EA0C0F04D14B023FF44CAF08466EE730F0004C18BF31F0004CCAD130F000427FF45CAF31F000437FF43CAF5FE700BF48
:404780004FEA4002B2F1FE4F0FD34FF09E03B3EB12620DD94FEA002343F0004310F0004F23FA02F018BF404270474FF00000704712F1610F01D1420205D110F0004008BF38
:4047C0006FF0004070474FF000007047014B1868704700BFA081FF1F0E4B70B51E460E4C0025E41AA410A54204D056F8253098470135F8E700F0DCFD084B094C1E46E41AB4
:40480000A4100025A54204D056F8253098470135F8E770BDBC530000BC530000BC530000C453000010B5431E0A44914204D011F8014B03F8014FF8E710BD03460244934211
:4048400002D003F8011BFAE7704700000EB400B54FF402719CB0ADF814106FF00041049107914FF6FF711DABADF81610084953F8042B02900690086802A9019300F084F852
:40488000029B00221A701CB05DF804EB03B07047A081FF1F034613F8012B002AFBD1181A0138704770B5A2B1451E01396B7811F8014F6E1CA34206D16FF00104641B14448C
:4048C000E04202D11C46181B70BD3546002BEDD1F8E7104670BD2DE9F0478E688246B3420C469046994640D38A8912F4906F3AD02568096902236F1A656905EB450595FBBA
:40490000F3F57B1C4B449D4238BF1D4653050FD5294600F02FFB064698B121693A46FFF781FFA38923F4906343F08003A38113E02A4600F075FB064670B95046216900F0FE
:40494000D5FA0C23CAF80030A3894FF0FF3043F04003A381BDE8F08726613E4426604E466561ED1BA560B14500D24E4632462068414600F09FFAA36800209B1BA360236826
:404980001E442660BDE8F0872DE9F0439DB003938B8906461C060D4690460CD50B6953B9402100F0E7FA2860286110B90C233360CCE040236B610023099320238DF8293032
:4049C00030238DF82A3043461C4613F8012B1AB9B4EB08090FD002E0252AF5D1F8E73046294642464B46FFF776FF013000F0A980099B4B4409932378002B00F0A2800023AE
:404A00004FF0FF3204930793059206938DF853301A9304F101084446DFF8489121784846052200F039FA08F10108049B30B1C9EB00000122824013430493ECE7D80644BF8B
:404A400020228DF85320190744BF2B228DF8532022782A2A02D0079923460EE0039A0134111D12680391002ABBBF524243F0020307920792B8BF04930AE01C462278013305
:404A8000303A092A03D80A2000FB0121F5E7079123782E2B1AD163782A2B0AD1039B02341A1D1B680392002BB8BF4FF0FF3305930CE0611C00220C4623780131303B092BC2
:404AC00003D80A2000FB0232F5E70592DFF8988021784046032200F0DFF938B1049AC8EB00004023834013430493013421781A48062204F101088DF8281000F0CDF988B1C5
:404B0000164B33B9039B073323F007030833039313E003AB0093304604A92A46104BAFF3008007E003AB0093304604A92A460C4B00F092F8421C074603D0099B3B44099355
:404B400041E7AB895B0601D4099801E04FF0FF301DB0BDE8F08300BF8453000000000000D74800007A530000805300002DE9F84391461F468A680B6906469342B8BF134695
:404B8000C9F8003091F843200C46DDF8208012B10133C9F800302368990642BFD9F800300233C9F80030256815F006051CD094F843302268003318BF012392061FD5E11852
:404BC000302081F843005A1C94F845102244023382F8431013E03046394604F119020123C047013007D00135E368D9F800209B1A9D42F0DBDBE74FF0FF30BDE8F883304628
:404C0000394604F14302C0470130F4D02268D9F80050E36802F00602042A08BF5D1B2269A3680CBF25EAE57500259342C4BF9B1AED184FF00009A9450ADA3046394604F15D
:404C40001A020123C0470130D5D009F10109F2E70020BDE8F88300002DE9FF410C461746227E98466E2A06460A9B01F1430100F0B08012D8632A23D00AD8002A00F0BD80F5
:404C8000582A40F0CC8084F84520DFF804E257E0642A1ED0692A1CD0C1E0732A00F0B18009D86F2A2ED0702A40F0B980226842F0200222603FE0752A24D0782A3BD0AEE0FF
:404CC0001A6804F14205111D1960136884F84230A9E020681A6810F0800F02D0101D186008E010F0400F02F10400186002D0B2F9003000E01368002B3EDA2D225B4284F8F4
:404D0000432039E020681A6810F0800F02D0101D186007E010F0400F02F10400186001D0138800E01368227EDFF864E16F2A0CBF08220A221CE07822DFF858E184F845207E
:404D40002268186812F0800F00F104051D6003D1550601D5038800E00368D00744BF42F0200222601BB9226822F0200222601022002084F8430002E0DFF814E10A226568CA
:404D8000002DA8BF2068A560A4BF20F00400206003B965B10D46B3FBF2F002FB10331EF8033005F8013D03460028F4D100E00D46082A0BD12368DA0708D5236962689A4270
:404DC000DEBF302305F8013C05F1FF35491B21612EE025681A6815F0800F606903D0151D1D60136808E015F0400F02F104051D60136801D0188000E01860002323610D4617
:404E000016E01A68111D1960156800212846626800F042F808B1401B6060636804E004F1420584F8422001232361002384F84330CDF800803046214603AA3B46FFF796FE22
:404E4000013002D14FF0FF301FE0304639462A462369C0470130F5D023689B0705D4E068039B9842B8BF18460FE00025E368039A9B1A9D42F3DA3046394604F119020123B2
:404E8000C0470130DED00135F0E704B0BDE8F0818B5300009C53000010B5C9B202449042034605D01C7801308C42F8D1184610BD002010BD814210B501EB020301D3421ED1
:404EC0000BE09842FBD28118D21AD34204D013F8014D01F8014DF8E710BD994204D011F8014B02F8014FF8E710BD000030B500293CD051F8042C0B1F1D49002AB8BF9B18F5
:404F00000A680C4612B95A600B6030BD93420DD219685818904201BF5A5852181A60426823605A6030BD994203D80A4651680029F9D1146815199D420AD11B682344D01847
:404F40008842136012D10868034413604B680CE002D90C23036030BD1C681819884201BF08684968001918605960536030BD00BF7482FF1F70B5CC1C24F0030408340C2C35
:404F800038BF0C24002C064603DA0C233360002070BD8C42F9D3204A136810461946A1B10A68121B0ED40B2A03D90A608B188C501FE08B420BBF5A684A6802605A6018BF68
:404FC0000B4616E00B464968E9E7144D2B681BB9304600F04BF828603046214600F046F8421C0346D1D0C51C25F0030585420AD11C6003F10B001A1D20F00700821A0AD06D
:405000005142995070BD3046E91A00F02FF80130BBD02B46ECE770BD7482FF1F7082FF1FF8B5074615460E4621B91146BDE8F840FFF7A0BF1AB9FFF759FF2846F8BD00F0A6
:4050400025F8A8420ED238462946FFF793FF044650B131462A46FFF7E5FB38463146FFF745FF01E03046F8BD2046F8BD38B5064C0023054608462360FCF732FB431C02D1A6
:40508000236803B12B6038BDB882FF1F51F8040C0028BEBF091851F8043CC018043870470000000050536F4320354C503A204F2D5661630049324320576F726B696E670071
:4050C00053544154453A2057414954000A2564207365636F6E64732072656D61696E696E6700000053544154453A2044455343454E54000053544154453A204C414E444504
:405100004400000053544154453A205245535552464143450000000053544154453A205245535552464143494E470000574154455220444554454354454400005452414E82
:40514000534D49540000000053595354454D5F434845434B000000000A53544154453A2044455343454E44494E470A0053544154453A204C414E4445440A000053544154C4
:40518000453A2056414355554D494E470A00000053544154453A205245535552464143450A00000053544154453A205452414E534D49540A00000000536420766F6C207300
:4051C0007563636565640000536420766F6C206661696C6564000000666F726D61742053756363656564656400000000666F726D6174204661696C65640000007700000006
:4052000046696C6520000000776173206F70656E656400007772697474656E20746F2066696C65004661696C656420746F2077726974650066696C65206E6F74206372651A
:4052400061746564000000000A2D2D2D2D2D2D2D2D2D2D2D2D0A0000000000004000000014000000540000002564202564202564202020202000000072657365740000001A
:405280007374617274000000643A000064617461000000000A636F6D6D616E64733A200A30352C73746172740A30352C72657365740A30342C646174610A30352C643A23BB
:4052C00023230000456E74657220646573697265642064657074683A0000000053544154453A20574149545F544F5F4C41554E43480A00005472616E736D697474696E67C1
:4053000020646174610A0000035B00402443004040000000C84900401900004F00400C00405100403000F05100401000000001400010001401408004001901408001001B6D
:405340000140000100400140000A004C0140000200500140200000006052004098070048060080180140A00700488000801A014020080048800000004300232D302B200020
:40538000686C4C006566674546470030313233343536373839414243444546003031323334353637383961626364656600000000F8B500BFF8BC08BC9E4670474D000000F9
:4053C000C9170000F8B500BFF8BC08BC9E46704729000000E85300000881FF1FA00000001801000000000000000000003F0000000100000001000000010000007465737488
:405400005F312E7478740000C082FF1F00366E01C05D0000180000000000E02E01FF0000000000000000000000000000000000000000000000000000000000000000000006
:405440007853000000000000000000000000000000000000000000000000000000000000000000000000000000000000000000000000000000000000000000000000000061
:405480004081FF1F0000000000000000000000000000000000000000000000000000000000000000000000000000000000000000000000000000000000000000000000000D
:4054C00000000000000000000000000000000000000000000000000000000000000000000000000000000000000000000000000000000000000000000000000000000000AC
:40550000000000000000000000000000000000000000000000000000000000000000000000000000000000000000000000000000000000000000000000000000000000006B
:40554000000000000000000000000000000000000000000000000000000000000000000000000000000000000000000000000000000000000000000000000000000000002B
:4055800000000000000000000000000000000000000000000000000000000000000000000000000000000000000000000000000000000000000000000000000000000000EB
:020000040003F7
:0200000480007A
:40000000024F004002520040015A0040036400400365004028040140070501403306014016070140550801403E090140670A01403A0B0140281401400D1501403316014057
:40004000151701402D18014054190140151A0140491B01400440014003410140054201400B430140074401400345014007460140084701400C48014005490140194C0140AC
:400080000E4D0140085001400251014001300A2708200960DF04870D890F8B0F870D88728B38405449FF4AFF4BFF4F0150185A045D095F01604062406440654066806880E6
:4000C0006A806C806E80C041C9FFCAFFCBFFCD83CE03CF01D018D280DA04DB04DD99DF01E040E240E440E540E680E880EA80EC80EE8041014681480174017680D091D2080D
:40010000404149FF4AFF4BFF4D834E034F0150185A045D095F016040624064406540668068806A806C806E8082018E01B601BE40C054C5ECC720C823C9FFCAFFCBFFCD8340
:40014000CE03CF01D018D401D604D804DA04DB04DD99DF01E040E240E440E540E680E880EA80EC80EE8000020201194041014681480149055101520159456380834095023D
:400180009A809E01A001C009D091D208D60BD801E280010D0406050D0806090D0D110E010F621004110D1202140215021604170D1C011D401F30210D220124012552272823
:4001C000280129322B442C013206330F3401377038803B883E505440580459045B045C025F018101847F8501868088C089018A088D018E9F901F914092209480950897214B
:4002000099049A609CC09D019E02A0C0A110A201A4C0A540A604A922AAFFAB08AC90AD07AE40AF18B13FB2FFB540B922BE04BF01D602D720D804D904DB04DF0100040110CB
:40024000020103200428070209200A610C020E010F201008114413111642172819041C221F1021202201268829142A012B012C082E012F2030803128320136883702396469
:400280003A023D143E403F01628066506720688069546A016B2A7202730188138B4097109D509E01A308A701C0E7C2BFC4FFCAEFCCDFCEFFD878E28000100312045C060200
:4002C00007EC09040A030B430C700E0C10091210146C161117011DE0241429882A202B032D212F023060321F3310350F37E038023E013F404004454049FF4A074BFF4C4087
:400300004D204EF04F055008580459045A045C025D025F01604061A862406320812082088503871489138B048C218E169113930C9421960E981C9A239E1CA308A440A50A95
:40034000A603A714AB15B110B21AB40FB520B660B70FB880BA28BB80BF11C046C102C50CC7EBC831C9FFCAFFCBFFCEF0CF44D00CD401D804D904DA04DB04DC22DD22DF01BE
:40038000E6C0EA40EB020018010203010502070108240A100B840D200E1210081108150818501B081C081D201E121F50200421082280278929102B012C082F5031483701EF
:4003C00038043A013B103D013E123F0440404404470149024C084F0450085104550456025C205D015F888E80C09FC2ECC426CAECCC8ACEE7D0A1D220D6F0404649FF4AFF43
:400400004BFF4F0150185A045D095F016040624064406540668068806A806C806E80C046C9FFCAFFCBFFCD83CE03CF01D018D280DA04DB04DD99DF01E040E240E440E5404F
:40044000E680E880EA80EC80EE804280468048084C08740176809E80A008A401D081D224E602EA01404649FF4AFF4BFF4D834E034F0150185A045D095F016040624064400A
:400480006540668068806A806C806E808201AA01B601BE40C046C5ECC702C813C9FFCAFFCBFFCD83CE03CF01D018D401D604D804DA04DB04DD99DF01E040E240E440E5406A
:4004C000E680E880EA80EC80EE8000021008194042804680480849054C085008594563408740C008C402D081D224D60BD801E820EC10EE08001F010402200340041C05085E
:40050000062308040F04103F111C1321140117231833193C1A0C1B021C021D3F2008252726232718280C29182C032D10302C3140331F340F353836103A223B083E405602B0
:400540005713580459045B045C225D205F0100040162020805010604071009080A410B040C400D020E880F201080111416801769180419501A411B011D211E0A1F20215896
:400580002210231424402714282029122A022B012EA02F203080321835013640371839543C403D023E0840264148424049044A0252595E02644067806C146DA06E04762C77
:4005C00077218E0291549380942C9520966097109A029D509E51A080A308A508A711C07FC2FFC4FECA7FCCFECEDED00FD208D680E820EC10EE08040E070209020E0110084A
:400600001203150128082A052F0230073102350136083E403F115409580459045B045F010044020803040501060807110A400E0813101644170418411D421E081F062101E0
:400640002304276A2B012E082F423102320133093501375838043B103DA23E04408041014520468847084E095644588259245F02600165406748804087448A808B208D0130
:400680008F10900492449390980299259B149F48A170A309A503A710C0F5C248C472CAD8CCF2CEF6D0E0D230D68FD8B8E002E404EA01331836103702CCF09F12A610A708F3
:4006C0003E109F12A610A708CE20200171408310894096109F12A610A708C810DC20E2201101150471027C08C40CDC01DE0191059C08A50244808E0291059C08A502D00153
:40070000E0020320880891059A029C88A502C008E00123408702961097409F02A708AE10B340B401C840E640EE108708A708AA10E640EA800F01124013201620300863083D
:40074000660279017D048F0191059A02A008A502AF20B080B408C201C40ECC02D803DE03E608E804EC08122072207640830485028E209A60A502A704AB20C408DC01DE0485
:40078000E208000501010B010C05100511011B011C0500FB03C0000010300000700000002C00000040522F04085010062C0600503100420011048E0024220010C0560000F6
:4007C0002C5600002429081600312C0E001700280F00000F3130C140800830200000004032041000050EFDBC3DFFFFFF2200F0080400000000000000040404000000000153
:400800000000C00040011011C0010011400140010000000000000000000000000000000000090444009C0400049C00000480000000000003000000030000020300070038E3
:4008400000120144000301000000020000030000001C02600480010320000200000044042305060004000C0E14FFFFFF62A0F0410C0000001800040004040404222200019B
:400880000000000000004002001030100010101200000000000000000000000000000000000C0C0000000000B00040B08000B00000000000807B7B006000040004000006A8
:4008C000020000000000000000000000000080004A001801000000000000000000000000000000000000000000000000000000000000000000000000000000000000000013
:4009000000000000000000000000000000000000000000000000000000000000000000000000000000000000000000000000000000000000000000000000000000000000B7
:400940000000000000000000000000000000000000000000000000000000000000000000000000000000000000000000000000000000000000000000000000000000000077
:400980000000000000000000000000000000000000000000000000000000000000000000000000000000000000000000000000000000000000000000000000000000000037
:4009C00000000000000000000000000000000000000000000000000000000000000000000000000000000000000000000000000000000000000000000000000000000000F7
:0200000490006A
:0400000000004005B7
:0200000490105A
:04000000BC90ACAF55
:0200000490303A
:0200000024BA20
:0200000490402A
:4000000000000000000000000000000000000000000000000000000000000000000000000000000000000000000000000000000000000000000000000000000000000000C0
:400040000000000000000000000000000000000000000000000000000000000000000000000000000000000000000000000000000000000000000000000000000000000080
:400080000000000000000000000000000000000000000000000000000000000000000000000000000000000000000000000000000000000000000000000000000000000040
:4000C0000000000000000000000000000000000000000000000000000000000000000000000000000000000000000000000000000000000000000000000000000000000000
:0200000490501A
:0C00000000012E12706900012E349523BF
:00000001FF