:400000000080002011000000C90C0000C90C000080B500AF024A034B1B68136000F086FEBC760040FA46004010B5054C237833B9044B13B10448AFF300800123237010BDE9
:40004000A081FF1F00000000F0450000084B10B51BB108480849AFF300800848036803B910BD074B002BFBD0BDE81040184700BF00000000F0450000A481FF1F0881FF1FA7
:400080000000000080B400AF104B01221A60104B00221A600F4B00221A600F4B00221A800E4B00221A700E4B00221A700D4B00221A700D4B01221A700C4B01221A700C4BF4
:4000C00000221A70BD465DF8047B70471081FF1FBC81FF1FC081FF1FC481FF1FC681FF1FC781FF1FC881FF1F1481FF1F1581FF1FC981FF1F80B400AF084B1B78084B1B784A
:40010000022B07D1074B01221A70074B1B680133054A1360BD465DF8047B7047034F00401481FF1FC681FF1FBC81FF1F80B400AF0D4B1B780D4B1B78012B09D10C4B012224
:400140001A700C4B1B780133DAB20A4B1A7006E0064B1B78022B02D1054B01221A70BD465DF8047B704700BF636400401481FF1FC781FF1FC981FF1F90B5A7B000AF012064
:4001800002F016FEC24B07F13C040FCB07C423800023A7F8963062B602F0A6F801F096FA02F058FCBB4802F097FC02F0A3FEBA4B1B68DBB2184610210222002300F010FAB5
:4001C00000F03CFA00F0FCFC00F006FDB34800F083FB0020012100F0B1FAB14800F07CFB4FF47A7001F09CF800F094FA01F086FA0020002100F0A2FA07F13C03184600F065
:400200006BFB02F025FDA74802F084FD0023C7F890300023C7F88C304FF00003C7F888304FF00003C7F8843002F0B4FE0346002B01D0FFF727FF012001F070FA0346002B3F
:4002400042D001F093FA0346184603F0B5FB0346C7F880300020012100F070FAD7F8800003F03AF802460B461046194686A3D3E9002303F085F802460B461046194603F0D5
:4002800091FA0346C7F88830D7F8880003F038FD0346C7F89030D7F8900003F08DFB0346D7F88800194603F0D1FA0346C7F88430D7F884007C4903F0D3FB0346184603F0E6
:4002C0001FFD0346C7F88C3000F0BEFC0346A7F87E30764B1B78013B042B00F26E8101A252F823F0F90200006F030000FF0400005B0500009F0500006D4B1B78002B35D04F
:400300000020002100F01AFA00F004FA694B1B78C3F13C0307F14C02104667491A4603F055FD07F14C03184600F0D6FA614B1B783C2B17D15D4B02221A700020002100F0E5
:40034000FDF900F0E7F95D4800F0C6FA5C4B00221A605C4B00221A60564B09221A70012002F022FC524B00221A7027E126E1564B1B78002B00F0B480514B1B680E2B07DC3F
:40038000B7F97E20514B1B681344504A136025E04B4B1B680F2B13D1B7F97E204B4B1B6813444A4A1360494B1B68494A82FB03121A44D210DB17D31A9AB2464B1A800DE0AC
:4003C000444B1B881AB2B7F97E3010460F211A4600F0CEFB03461A463E4B1A803D4B1B881BB244F62062934223DD002002F0DCFB012002F0FBFC2D4B03221A700020002152
:4004000000F09CF900F086F9334800F065FA3B463C221846002103F0D0FC294B00221A60284B00221A60294B00221A60294B00221A80234B1B680133214A1360214B1B6890
:4004400041F2873293421ADD002002F0ADFB174B01221A700020002100F070F900F05AF91E4800F039FA164B00221A60154B00221A60164B00221A60164B00221A80124B25
:4004800000221A703AE000BF8FC2F5285C8F4A3F8C460000F50000000C81FF1FF4450000044600002D01000000401C461481FF1FC781FF1FC981FF1F1046000024460000CF
:4004C0001081FF1FBC81FF1FC681FF1FC081FF1F89888888C481FF1F3446000044460000374B1B78002B09D03B463C221846002103F063FC324B00221A705FE05EE041F204
:40050000883000F00DFF012002F034FB0020002100F014F900F0FEF82A4800F0DDF93B463C221846002103F048FC41F6583000F0F7FE002002F01EFB41F2883000F0F0FE3C
:40054000214B04221A700020002100F0F7F800F0E1F81E4800F0C0F930E01D4B1B78002B02D01C4800F0B8F9012002F059FC43F6982000F0D5FE002002F052FC41F28830F3
:4005800000F0CEFE104B05221A700020002100F0D5F800F0BFF8104800F09EF90EE0012002F002FB012002F021FC43F6982000F0B7FE054B01221A7000E000BF34E600BFB6
:4005C000C781FF1F504600001481FF1F5C460000C881FF1F7046000080460000AFF3008090B482B000AF0446084611461A462346FB710346BB710B467B7113463B710A4A51
:40060000FB791370094ABB791370094A7B791370084A3B791370084B08221A7000BF0837BD4690BC704700BF1482FF1F1982FF1F1A82FF1F1682FF1F1382FF1F80B500AF28
:400640002E4B00221A702E4B1B78012B06D92B4B1B7843F00803DAB2284B1A70294B1B78002B0AD0264B1B78012B06D1234B1B7843F00403DAB2214B1A70322000F050FE0E
:40068000214B1B78184600F0F1F84FF47A7000F047FE302000F0D8F841F2941000F062FE302000F0D1F841F2941000F05BFE302000F0CAF8962000F055FE202000F0C4F85B
:4006C0000E4B1B7843F02003DBB2184600F07EF80E4B04221A7000F063F800F01BF80C4B02221A700A4B1B7843F00403DBB2184600F06CF800F018F800BF80BD1882FF1FF6
:400700001A82FF1F1682FF1F1382FF1F1582FF1F1782FF1F80B500AF012000F057F8022000F0FEFD00BF80BD80B500AF022000F04DF8022000F0F4FD00BF80BD90B587B027
:4007400000AF03460A46FB711346BB71124B07F108040FCB84E80F00104B1B78BA799A4203D90E4B1B78013BBB71BB799B0007F11802134453F8103CDAB2FB791344DBB2AA
:40078000DBB263F07F03DBB2DBB2184600F01EF800BF1C37BD4690BD9C4600001A82FF1F80B500AF084B1B7843F00403DAB2064B1A70054B1B7843F00803DBB2184600F0F4
:4007C00005F800BF80BD00BF1582FF1F80B582B000AF0346FB71FB791846002100F012F800BF0837BD4680BD80B582B000AF0346FB71FB791846012100F004F800BF0837ED
:40080000BD4680BD80B584B000AF03460A46FB711346BB71FB7923F00F03FB73FB791B01BB73FA7BBB791343DBB2184600F00CF8BA7BBB791343DBB2184600F005F800BFDD
:400840001037BD4680BD00BF80B582B000AF0346FB71FB79184600F009F8FB79184600F01DF800BF0837BD4680BD00BF80B582B000AF0346FB71074B1978074B1A78FB79CA
:400880001343DBB20846194600F046F800BF0837BD4680BD1482FF1F1382FF1F80B582B000AF0346FB71FB7943F00403DBB21846FFF7DCFF012000F055FDFB7923F00403AF
:4008C000DBB21846FFF7D2FF322000F04BFD00BF0837BD4680BD00BF80B584B000AF78600023FB60786803F095FA0346FB720023FB6009E07A68FB6813441B781846FFF74F
:4009000073FFFB680133FB60FA7AFB689A42F1D800BF1037BD4680BD80B582B000AF03460A46FB711346BB71FB791846002101F0C7FEBB79184601F09FFF01F071FF00BF07
:400940000837BD4680BD00BF90B585B000AF3B600346FB710B46BB7113467B710023FB73FB791846002101F0ABFEBB79184601F083FFFB791846012101F000FF07E03C686C
:40098000631C3B60012001F0B7FF03462370FB7B5A1CFA731A467B79013B9A42EFDB002001F0AAFF03461A463B681A7001F038FF1437BD4690BD00BF80B582B000AF034679
:4009C0003A60FB710B46BB71FA79BB791046194601223B68FFF7B8FF0837BD4680BD00BF80B584B000AF3B600346FB710B46BB7113467B710023FB73FB791846002101F0C8
:400A00005FFEBB79184601F037FF06E03B685A1C3A601B78184601F02FFFFB7B5A1CFA737A799A42F2D801F0FBFE1037BD4680BD80B582B000AF0346FB710B46BB711346F3
:400A40007B71F979BA797B1D084611460122FFF7C7FF0837BD4680BD90B585B000AF0446084611461A462346FB710346BB710B467B7113463B713B79012202FA03F35A1E05
:400A800079793B79CB1A013302FA03F3FB73F979BA7907F10E03084611461A46FFF78CFF97F8202079793B79CB1A013302FA03F387F8203097F82020FB7B134087F820302D
:400AC000FB7BDB43DAB2BB7BDBB21340DBB2DBB2BB73BA7B97F820301343DBB2BB73BB7BF979BA79084611461A46FFF7A1FF1437BD4690BD90B585B000AF0446084611462A
:400B00001A462346FB710346BB710B467B7113463B71F979BA7907F10F03084611461A46FFF74AFF3B79002B0AD07B79012202FA03F3DAB2FB7BDBB21343DBB2DBB20BE02A
:400B40007B79012202FA03F3DBB2DB43DAB2FB7BDBB21340DBB2DBB2FB73FB7BF979BA79084611461A46FFF763FF1437BD4690BD80B483B000AF0346FB800B46BB80134685
:400B80007B80FA88B7F90610B7F9043091FBF3F39BB2D31A9BB2FB80B7F90220B7F9043092FBF3F39AB2FB8813449BB2FB80FB881BB218460C37BD465DF8047B704700BF45
:400BC00080B400AF034B68221A70BD465DF8047B704700BF1282FF1F80B500AF012000F05FF8002000F008F8002000F019F8002000F044F880BD00BF80B584B002AF034689
:400C0000FB71064B1A78FB79009310461B2104220223FFF721FF0837BD4680BD1282FF1F80B584B002AF0346FB71064B1A78FB79009310461C2104220223FFF70DFF083762
:400C4000BD4680BD1282FF1F80B500AF094B1B7818463F210222084BFFF776FE064B1B781B029AB2044B5B789BB213439BB21BB2184680BD1282FF1FFC81FF1F80B582B09D
:400C800000AF0346FB71054B1A78FB7910466B210622FFF72FFF0837BD4680BD1282FF1F80B584B002AF0346FB71064B1A78FB79009310466B2102220323FFF7CDFE083736
:400CC000BD4680BD1282FF1F80B500AF03F03EF803461B680C2B00D1FEE7FEE780B584B000AF78600F4B1A687B6813441A460E4BD31A802B09DC0B4B1B68FB60094B1A6811
:400D00007B681344074A136007E003F01FF802460C2313604FF0FF33FB60FB6818461037BD4680BD2481FF1F4082FF1F80B586B000AF224B7B61224B3B61204B7B6135E05B
:400D40003B691B68FB603B695B68BB603B699B683B6000237B600CE0FB681A68BB681A60BB680433BB60FB680433FB607B6804337B607A683B689A42EED13B69DB683B60C0
:400D800000237B6008E0BB6800221A60BB680433BB607B6804337B607A683B689A42F2D13B6910333B617B69013B7B617B69002BC6D102F0D1FFFFF7DFF9FEE70100000065
:400DC0007C47000080B582B000AF174B174A1A60174A174B1B6843F40073136000237B600FE07B68032B04D8124A7B6852F8233000E0114B11497A6841F822307B680133AA
:400E00007B607B682F2BECD90D4B1B78DAB20D4B1A700D4B094A1A6000F0A4F90B4B00221A600837BD4680BD0CED00E00004FA0514ED00E000000000C90C00000080FF1F29
:400E4000BC7600400481FF1F08ED00E00081FF1F80B582B000AF78603960786800213A6802F0ABFF0837BD4680BD00BF80B584B000AFF860B9607A60F868B9687A6802F02D
:400E800091FF1037BD4680BD80B483B000AF0346FB71FEE780B487B000AF7860396000233B6100237B6127E07B699B007A6813441B68BB60BB68FB73BB6823F0FF03BB60E1
:400EC00014E03B695B003A6813441B781A46BB68134419463B695B003A6813445B780B703B6901333B61FB7B013BFB73FB7B002BE7D17B6901337B617B69202BD4D91C37E4
:400F0000BD465DF8047B704780B582B000AF424B00221A80414B58221A70414B00221A80404B50221A70404B40F65F121A803F4B18221A703E483F490422FFF797FF3E4B02
:400F400002221A704FF0402308221A703B4B03221A703B4B3B4A1278D2B21A703A4B08221A803A4B41F251221A800023FB7019237B6014E0FB785B00DAB2354B1B78DBB2F4
:400F800003F00103DBB21343DBB203F00303FB704FF4F07002F010F87B68013B7B607B68002B02D0FB78032BE4D17B68002B02D10320FFF769FF274B4FF480721A80254B86
:400FC00007221A70244B00221A70244B48221A70204B00221A70224B02221A70214B04221A70214A204B1B78DBB243F00703DBB213701E4A1D4B1B78DBB243F00103DBB27B
:4010000013701B4A1A4B1B78DBB263F07F03DBB213700837BD4680BD80400040824000408440004086400040884000408A400040004100402C0600480043004000420040C1
:40104000A146004008010049224200402042004025420040044000400640004008400040014000400B400040A2430040A1430040A043004080B483B000AF114B1B78FB718F
:40108000104AFB7903F00703DBB213700E4AFB791B09DBB213700D4B44F204021A800C4B21221A700B4B04221A700B4B04221A700A4B44221A700C37BD465DF8047B7047E1
:4010C000CF0100496E5800406F5800401C510040DB5A0040005B0040585B00407658004080B483B000AF0346FB71FB79012B0ED8FB79094A52F82330FA79074951F8222009
:401100001178FA790548825C0A43D2B21A700C37BD465DF8047B7047AC460000B446000080B483B000AF0346FB71FB79012B10D8FB790A4A52F82330FA79084951F8222069
:401140001178FA790648825CD243D2B20A40D2B21A700C37BD465DF8047B7047AC460000B446000080B586B000AF72B6504A504B1B78DBB243F00403DBB213700023FB7525
:4011800013E0FA7D13465B0013445B00494A13443B613B691A683B699B889BB210461946FFF756FEFB7D0133FB75FB7D0B2BE8D90023FB751CE0FA7D13469B0013445B0069
:4011C0003D4A1344FB60FB681B68BB60FB685B687B60FB681A7A5B7A1B0213437B807B88B86879681A46FFF741FEFB7D0133FB75FB7D022BDFD94FF090403049FFF74AFEA2
:401200002F4B0A221A702F4B40F203321A802E4A2D4B1B78DBB243F00203DBB213702B4A2A4B1B78DBB243F00203DBB21370284A274B1B78DBB243F04003DBB21370254A60
:40124000244B1B78DBB243F01003DBB21370224822490A22FFF70AFE214822490822FFF705FE214821490A22FFF700FE204821490822FFF7FBFD204A1F4B1B78DBB243F08F
:401280000803DBB213701D4B00221A70FFF73CFE1A4B80221A701A4B01221A70FFF7EAFE18480B490E22FFF7E1FD1837BD4680BDE8460040B8460000004700008400004888
:4012C000835800404E5800400350014013500140A0430040C2430040C051004004060048125100401006004820510040180600483251004024060048224300400048004030
:4013000004000840B043004080B483B000AF0346FB7101BE0C37BD465DF8047B704700BF80B582B000AF786008E00C4B1B68184601F042FE7B68A3F500437B607B68B3F5B1
:40134000004FF2D8064B1B687A6802FB03F3184601F032FE0837BD4680BD00BF3481FF1F2C81FF1F80B582B000AF0346FB80FB88044A127802FB03F3184601F01DFE08377F
:40138000BD4680BD3081FF1F80B584B000AF03463960FB710F4B1B68FB60FB791F2B02D90020FFF7B1FFFB7903F01F0310339B00FA6813441B68BB60FB7903F01F03103397
:4013C0009B00FA6813443A681A60BB6818461037BD4680BD08ED00E080B582B000AF03460A46FB711346BB71BB79072B02D90020FFF78AFFFB791F2B02D90020FFF784FFEE
:40140000FB7903F01F0303F1604303F56443BA795201D2B21A700837BD4680BD80B582B002AF414B01221A70404B00221A70102000F0E8FD102000F0CBFE1D200721FFF709
:40144000CBFF3B4B04221A703A4B00221A703A4B00221A70394A394B1B78DBB243F01803DBB21370364B00221A70364B00221A70354B00221A70354B0A221A70344B002228
:401480001A70344B00221A70334B12221A70334B13221A70324B00221A70324B14221A7001230093022048F66B514FF400420C2300F0B6FB02230093002049F2DA014FF43F
:4014C0000042102300F0ACFB03230093002049F2DA014FF40042102300F0A2FB04230093002049F2DA014FF40042102300F098FB1D4A0D4B1B78DBB2013B1C499B000B4417
:401500009B7813701A4A084B1B78DBB2013B174931F823301380044B1B78DBB2184600F079F9BD4680BD00BF3881FF1FD881FF1F96580040975800409E580040075B0040E2
:4015400093580040885B0040895B004080580040815800408358004088580040895800408D580040014E00400E4E0040DC81FF1F0C4E004080B582B000AF01F03CFD03467E
:40158000FB71444B1B78BB71434A434B1B78DBB243F00103DBB213703F4A3F4B1B78DBB243F01003DBB213703C4A3C4B1B78DBB243F00103DBB21370384A384B1B78DBB2CD
:4015C00043F01003DBB21370354A354B1B78DBB243F00203DBB21370324A324B1B78DBB243F00203DBB213702F4A2F4B1B78DBB243F00303DBB213700320FFF7B3FE284A35
:40160000274B1B78DBB223F00203DBB21370254A244B1B78DBB223F00203DBB21370234A224B1B78DBB243F00603DBB21370204B7A221A701F4A1F4B1B78DBB243F00103C9
:40164000DBB213701C4A1C4B1B78DBB243F00103DBB21370194A194B1B78DBB243F00203DBB21370164A164B1B78DBB243F00203DBB21370134B4FF000521A60124B4FF0C9
:4016800000521A60FB79184601F0B9FC0837BD4680BD00BF3881FF1FAA430040BA430040F8460040F9460040915800407758004082580040A1430040B1430040A24300409B
:4016C000B243004080E200E000E100E080B500AF084B1B78002B09D1074B1B78DBB2002B01D1FFF79BFE034B01221A70FFF742FF80BD00BFDA81FF1FDB81FF1F80B400AFE1
:40170000054A054B1B78DBB243F00103DBB21370BD465DF8047B7047004E004080B485B000AF0346FB710E4B1B78DBB2002B03D00C4B1B78FB7305E00B4B1B78DBB203F09D
:401740000103FB73FB7B012B02D0FB79002BEAD0FB7B18461437BD465DF8047B704700BFD981FF1FD881FF1F014E004080B483B000AF224B1B78DBB203F00303FB70FB78C6
:40178000012B0BD81E4B1B889BB27B607B681B041C4A128892B213437B6020E0FB78022B12D1174B1B889BB27B607B681B04154A1278D2B213437B60134B1B78DBB21B0284
:4017C0007A6813437B600AE00E4B1B889BB27B600B4B1B889BB21B047A6813437B600B4B1B78DBB2002B02D0094B00221A707B6818460C37BD465DF8047B7047144E004029
:40180000124E0040104E0040114E0040D981FF1FD881FF1F80B582B000AF0346FB71C34B00221A70FB79012B66D1C14B38221A70C04B06221A70C04B08221A70BF4B0022E8
:401840001A70BF4B00221A70BE4B1F221A70BE4B00221A70BD4B00221A70BD4B00221A70BC4B01221A70BC4B14221A70BB4B05221A70BB4B16221A70BA4B00221A70BA4B87
:4018800044221A70B94B48221A70B94B01221A70B84B01221A70B84B11221A70B74B19221A70B74B97221A70522000F06FFAB54B58221A70B44B00221A70B44B05221A70E9
:4018C000B34B02221A70B34B00221A70B24B00221A70002000F0C6FAB04B40F233321A601220012100F0D2FA4A20012100F0B4FB1D20AB49FFF748FDFB79022B66D18C4BB7
:4019000038221A708B4B04221A708B4B06221A708A4B00221A708A4B00221A70894B3F221A70894B00221A70884B00221A70884B00221A70874B01221A70874B50221A7029
:40194000864B27221A70864B2C221A70854B00221A70854B55221A70844B5A221A70844B05221A70834B01221A70834B11221A70824B19221A70824B97221A70442000F07C
:4019800005FA804B58221A707F4B00221A707F4B05221A707E4B02221A707E4B00221A707D4B00221A70002000F05CFA7B4B4FF47A421A600820012100F068FA2520012160
:4019C00000F04AFB1D207749FFF7DEFCFB79032B66D1574B38221A70564B04221A70564B06221A70554B00221A70554B00221A70544B3F221A70544B00221A70534B0022B5
:401A00001A70534B00221A70524B01221A70524B50221A70514B27221A70514B2C221A70504B00221A70504B55221A704F4B5A221A704F4B05221A704E4B01221A704E4B5F
:401A400011221A704D4B19221A704D4B97221A70442000F09BF94B4B58221A704A4B00221A704A4B05221A70494B02221A70494B00221A70484B00221A70002000F0F2F9AC
:401A8000464B4FF47A421A600820012100F0FEF92520012100F0E0FA1D204349FFF774FCFB79042B40F0A980214B38221A70214B04221A70204B06221A70204B00221A70EF
:401AC0001F4B00221A701F4B3F221A701E4B00221A701E4B00221A701D4B00221A701D4B01221A701C4B50221A701C4B27221A701B4B2C221A701B4B00221A701A4B55225F
:401B00001A701A4B5A221A70194B05221A70194B01221A70184B11221A70184B19221A70174B97221A70442040E000BFD981FF1F004E0040024E0040034E0040044E0040A1
:401B4000054E0040064E0040084E0040094E00400A4E0040144E0040845800408558004086580040875800408A5800408B5800408C5800408E5800408F5800409058004083
:401B80009158004094580040955800409A5800409B5800409C5800409D5800402082FF1F051E0000111E00001D1E000000F0EEF8134B58221A70134B00221A70124B0522C2
:401BC0001A70124B02221A70114B00221A70114B00221A70002000F045F90F4B4FF47A421A600820012100F051F92520012100F033FA1D200949FFF7C7FB0837BD4680BD51
:401C000094580040955800409A5800409B5800409C5800409D5800402082FF1F291E000090B587B000AF0446084611461A462346FB710346BB800B467B801346BB7197F843
:401C40002830002B00F08A8097F82830042B00F28580FB79013B092B4AD801A252F823F0891C0000F11C0000F11C0000891C0000F11C0000F11C0000A31C0000BD1C0000BE
:401C8000F11C0000D71C0000BB790F2B04D9364B1B78DBB2FB752EE0344B1B78DBB2FB7529E0BB790F2B04D9314B1B78DBB2FB7521E0304B1B78DBB2FB751CE0BB790F2BD5
:401CC00004D92D4B1B78DBB2FB7514E02B4B1B78DBB2FB750FE0BB790F2B04D9284B1B78DBB2FB7507E0274B1B78DBB2FB7502E00023FB7500BFBA8897F917305B011344DF
:401D00003B617B883A6902FB03F3FB60FB68DB0BBB82BB790D2B11D8BB8ABA79C2F10E021341BB8297F82830013BBA790132D1B2154A9B0013440A469A7007E097F82830E7
:401D4000013B114A9B0013440F229A7097F82830013B0D49BA8A21F8232002E00020FFF7D3FA1C37BD4690BD180100491C010049190100491D0100491A0100491E010049C0
:401D80001B0100491F010049DC81FF1F80B584B000AF0346FB7101F02EF90346FB73164A154B1B78DBB243F00303DBB21370134A124B1B78DBB243F00303DBB21370104A98
:401DC000FB7913700320FFF7CDFA0B4A0A4B1B78DBB223F00303DBB21370084A074B1B78DBB223F00303DBB21370FB7B184601F006F91037BD4680BDF8460040F9460040E4
:401E00009258004080B400AFBD465DF8047B704780B400AFBD465DF8047B704780B400AFBD465DF8047B704780B400AFBD465DF8047B704780B582B000AF0023FB7106E029
:401E4000FB791846FFF76CF9FB790133FB71FB79012BF5D9024BFF221A700837BD4680BD3981FF1F80B582B000AF0346FB71FFF7E1FFFB791846FFF733F9034AFB7913708B
:401E80000837BD4680BD00BF3981FF1F80B584B000AF03460A46FB8013467B7100F0CCF80346FB7300F0A2F80346BB81FA88BB899A4200F08780454B1B78DBB203F00203E0
:401EC000FB72FB7B002B20D1BB89002B02D0FB88002B1AD1BB89002B0BD13D4AFB8813803C4A3C4B1B78DBB223F04003DBB2137068E0384A374B1B78DBB243F04003DBB21F
:401F00001370334AFB8813805CE0FB7A002B33D0314B00221A70314B02221A70304B00221A70304A2F4B1B78DBB203F07F03DBB21370284B1B78DBB203F00803002B02D00C
:401F4000FB88002B18D1284ABB891380224B07221A7000BF204B1B78DBB203F00103002BF8D11A4A194B1B78DBB223F00203DBB21370194B00221A70144B1B78DBB203F09A
:401F80000203002B13D0184AFB881380124A7B79002B01D0032300E00123137000BF0E4B1B78DBB203F00103002BF8D10AE0084AFB8813800549054B1B78DAB2FB7A1343A0
:401FC000DBB20B701037BD4680BD00BFA24300408440004086400040014000401040004014400040084000400240004080B400AF034B1B889BB21846BD465DF8047B7047A8
:402000008440004080B483B000AF0346FB71094B084A1278D2B2D1B2FA7922F00702D2B20A43D2B2D2B21A700C37BD465DF8047B704700BF8640004080B400AF054B1B784D
:40204000DBB203F00703DBB21846BD465DF8047B704700BF8640004080B584B000AF03460A46FB8013467B7100F0CCF80346FB7300F0A2F80346BB81FA88BB899A4200F01B
:402080008780454B1B78DBB203F00103FB72FB7B002B20D1BB89002B02D0FB88002B1AD1BB89002B0BD13D4AFB8813803C4A3C4B1B78DBB223F04003DBB2137068E0384A54
:4020C000374B1B78DBB243F04003DBB21370334AFB8813805CE0FB7A002B33D0314B00221A70314B01221A70304B00221A70304A2F4B1B78DBB203F07F03DBB21370284BC2
:402100001B78DBB203F00803002B02D0FB88002B18D1284ABB891380224B07221A7000BF204B1B78DBB203F00103002BF8D11A4A194B1B78DBB223F00103DBB21370194BDC
:4021400000221A70144B1B78DBB203F00103002B13D0184AFB881380124A7B79002B01D0032300E00123137000BF0E4B1B78DBB203F00103002BF8D10AE0084AFB88138049
:402180000549054B1B78DAB2FB7A1343DBB20B701037BD4680BD00BFA14300400041004002410040014000401440004010400040084000400240004080B400AF034B1B889E
:4021C0009BB21846BD465DF8047B70470041004080B483B000AF0346FB71094B084A1278D2B2D1B2FA7922F00702D2B20A43D2B2D2B21A700C37BD465DF8047B704700BFA2
:402200000241004080B400AF054B1B78DBB203F00703DBB21846BD465DF8047B704700BF0241004080B500AF134B02221A70134B81221A70124B08221A70124B0F221A706C
:40224000114B00221A70114B4FF400421A600F200721FFF7C1F80F200D49FFF795F80D4B10221A700C4B00221A700C4B00221A700B4B00221A7080BDD6490040C8490040E4
:40228000CA490040DB490040DC49004080E100E0152300002482FF1F3582FF1F2882FF1F2982FF1F80B582B000AF00F0A4FE0346FB710B4A0A4B1B78DBB243F00403DBB271
:4022C0001370084A074B1B78DBB243F00403DBB21370FB79184600F092FE0837BD4680BDA5430040B543004080B500AF074B1B78002B04D1FFF796FF044B01221A70FFF7D6
:40230000D1FF034B4FF400421A6080BDEC81FF1F00E100E080B582B000AFA84B1B78FB71A74B1B78DBB203F04003DBB2002B00F0AC81FB7903F00103002B00F08381A04B5D
:402340001B78DBB2453B052B00F2788101A252F823F000BF6D230000952400003D2600003D2600006D23000083250000FB7923F02003FB71FB7903F00A03DBB2082B46D13B
:402380008F4B1B78DBB2452B3AD18E4B1B78DBB2002B0FD08C4A8D4B1B681B78DBB21370864B04221A708A4B01221A70844B46221A706EE0874B1B78DBB203F00203002BAA
:4023C0000FD0854B1B78DBB243F00A03DAB2824B1A707B4B60221A70804B4FF400421A6057E07F4A7E4B1B78DBB243F01003DBB213707C4B10221A70704B04221A7048E0FA
:402400006E4B00221A706E4B4A221A701AE1FB7903F00A03DBB20A2B37D16F4B1B78DBB263F05F03DAB26C4B1A706A4B1B78DBB203F00203002B19D0614B1B78DBB203F053
:402440000803002B01D0092300E00A23DAB2624B1B78DBB21343DAB25F4B1A70584B60221A705E4B4FF400421A6012E05C4A5C4B1B78DBB243F01003DBB21370594B1022CB
:402480001A704E4B04221A70DCE00020FEF73CFFD8E0D7E0FB7903F00203002B42D14C4B1B78DAB2474B1B78DBB29A4214D2464A464B1B6846490978C9B20B441B78DBB25C
:4024C00013703E4B04221A70414B1B78DBB20133DAB23F4B1A7053E03E4B1B78DBB203F00203002B0FD03C4B1B78DBB243F00A03DAB2394B1A70324B60221A70374B4FF4F3
:4025000000421A603CE0364A354B1B78DBB243F01003DBB21370334B10221A70274B04221A708FE02B4B1B78DBB203F00203002B0FD0294B1B78DBB263F06503DAB2264B9E
:402540001A701F4B60221A70244B4FF400421A6016E0234A224B1B78DBB243F01003DBB21370204B10221A70144B04221A701A4B1B78DBB263F06F03DAB2174B1A7061E06E
:4025800060E0194B1B68194A1278D2B213440E4A1278D2B21A70154B1B78DBB20133DAB2124B1A70114B1B78DAB2114B1B78DBB29A421FD2014B10221A703EE0D7490040CB
:4025C0002482FF1F2A82FF1FD84900402C82FF1F2982FF1F3482FF1F3582FF1F80E100E0D6490040D94900403082FF1F2882FF1F3682FF1F2C4B1B78DBB203F00203002B84
:402600000FD02A4B1B78DBB243F00903DAB2274B1A70274B60221A70264B4FF400421A600BE0254A244B1B78DBB243F01003DBB21370224B00221A7004E003E00020FEF73D
:4026400063FE00BFFB7903F02003002B28D0184B1B78DBB203F00803002B01D0012300E00223DAB2114B1B78DBB21343DAB20F4B1A70114A104B1B78DBB223F01003DBB290
:4026800013700B4B10221A700AE0094B1B78DBB203F01003DBB2002B02D1054B10221A700837BD4680BD00BF3482FF1F3582FF1F2482FF1F80E100E0D6490040D7490040DF
:4026C00080B485B000AF03460A46FB711346BB710223FB73244B1B78DBB2102B3CD1234B1B78DBB203F00803002B33D1204B4FF400421A60FB795B00FB71BB79002B07D038
:40270000FB7943F00103FB71174B49221A7002E0154B45221A70174AFB791370134B01221A7000BF144B1B78DBB203F00103002BF8D0114B1B78DBB203F00A03DBB20A2B2F
:4027400005D1094B10221A700323FB7304E00023FB7301E00123FB73FB7B18461437BD465DF8047B704700BF2482FF1FD949004080E100E0D8490040D749004080B485B0FA
:4027800000AF03460A46FB711346BB710223FB731F4B1B78DBB203F00403002B31D0FB795B00FB71BB79002B07D0FB7943F00103FB71184B49221A7002E0164B45221A7089
:4027C000154AFB791370124B12221A70134B04221A7000BF114B1B78DBB203F00103002BF8D00E4B1B78DBB203F00A03DBB20A2B05D1084B10221A700323FB7301E000237D
:40280000FB73FB7B18461437BD465DF8047B7047D94900402482FF1FD8490040D749004080B483B000AF0223FB71104B1B78DBB203F00403002B12D00C4B10221A700C4B03
:4028400004221A700B4B10221A7000BF084B1B78DBB203F02103002BF8D00023FB71FB7918460C37BD465DF8047B7047D9490040D74900402482FF1F80B485B000AF034641
:40288000FB710223FB73184B1B78DBB203F00403002B22D0154AFB791370154B04221A70144B46221A7000BF114B1B78DBB203F00103002BF8D00E4B1B78DBB203F0020332
:4028C000002B05D10B4B60221A700023FB7304E0084B60221A700323FB73FB7B18461437BD465DF8047B7047D9490040D8490040D74900402482FF1F80B485B000AF034618
:40290000FB710023FB73174B1B78DBB203F00403002B1FD0144B1B78DBB2492B05D1134B00221A70104B4A221A7000BF0F4B1B78DBB203F00103002BF8D00D4B1B78FB7364
:40294000FB79002B03D0094B10221A7002E0064B60221A70FB7B18461437BD465DF8047B704700BFD94900402482FF1FD7490040D849004080B500AF204A204B1B78DBB26A
:4029800003F00103DBB213701D4A1D4B1B78DBB223F00303DBB213701A4A1A4B1B78DBB223F03003DBB21370164A164B1B78DBB243F03003DBB21370124A124B1B78DBB289
:4029C00023F00F03DBB213700E4A0E4B1B78DBB243F00F03DBB213700B4A0B4B1B78DBB243F00103DBB21370132000F053F8132000F062F8082000F03DF880BD004F004066
:402A0000024F00400B4F0040014F004080B400AF0D4A0D4B1B78DBB243F00103DBB213700A4A0A4B1B78DBB243F00103DBB21370074A074B1B78DBB243F00103DBB21370C8
:402A4000BD465DF8047B7047A3430040B3430040004F004080B500AF054B1B78002B04D1FFF788FF024B01221A70FFF7CFFF80BDED81FF1F80B483B000AF0346FB71044AF9
:402A8000FB7913700C37BD465DF8047B704700BF034F004080B485B000AF0346FB80FB88FB81044AFB8913801437BD465DF8047B704700BF044F004080B483B000AF034633
:402AC000FB80044AFB8813800C37BD465DF8047B704700BF064F004080B582B000AF786000F03CF8786800F009F8072000F018F800F028F80837BD4680BD00BF80B485B011
:402B000000AF7860054B1B68FB60FB6884337A681A601437BD465DF8047B704708ED00E080B483B000AF0346FB71054AFB795B01DBB213700C37BD465DF8047B704700BF32
:402B400011E400E080B400AF034B4FF400321A60BD465DF8047B704700E100E080B400AF034B4FF400321A60BD465DF8047B704780E100E080B485B000AF0346FB71094B01
:402B80001B78DBB203F07F03FB730649FB79DB01DAB2FB7B1343DBB20B701437BD465DF8047B70471051004080B485B000AF0346FB710B4B1B78DBB223F04003FB73084941
:402BC000FB799B01DBB203F04003DAB2FB7B1343DBB20B701437BD465DF8047B704700BFC051004080B582B000AF0F4800F05CF80D4800F073F800F0FEF90346FB710B4A67
:402C00000A4B1B78DBB243F01003DBB21370FB79184600F0F4F900F06FF8012000F028F80837BD4680BD00BFFF356E019364004080B400AF054A054B1B78DBB263F07F0303
:402C4000DBB21370BD465DF8047B70477064004080B500AF054B1B78002B04D1FFF7C2FF024B01221A70FFF7E3FF80BDEE81FF1F80B483B000AF0346FB71044AFB79137078
:402C80000C37BD465DF8047B704700BF8364004080B400AF034B1B78DBB21846BD465DF8047B70476364004080B483B000AF7860034A7B6813600C37BD465DF8047B7047B7
:402CC0002064004080B400AF034B1B681846BD465DF8047B704700BF4064004080B483B000AF7860034A7B6813600C37BD465DF8047B70470064004080B500AF01E0FFF70C
:402D0000E1FFFFF7C5FF034603F00803002BF6D180BD00BF80B582B000AF786000F03CF8786800F009F8072000F018F800F028F80837BD4680BD00BF80B485B000AF78607C
:402D4000054B1B68FB60FB6840337A681A601437BD465DF8047B704708ED00E080B483B000AF0346FB71054AFB795B01DBB213700C37BD465DF8047B704700BF00E400E0F7
:402D800080B400AF034B01221A60BD465DF8047B704700BF00E100E080B400AF034B01221A60BD465DF8047B704700BF80E100E080B485B000AF0346FB710B4B1B78DBB298
:402DC00023F00203FB730849FB795B00DBB203F00203DAB2FB7B1343DBB20B701437BD465DF8047B704700BF2051004080B485B000AF0346FB71094B1B78DBB203F07F0349
:402E0000FB730649FB79DB01DAB2FB7B1343DBB20B701437BD465DF8047B7047C051004080B485B000AF0346FB710B4B1B78DBB223F02003FB730849FB795B01DBB203F073
:402E40002003DAB2FB7B1343DBB20B701437BD465DF8047B704700BF1051004080B500AF002000F057F8144A134B1B78DBB243F02003DBB21370104A0F4B1B78DBB223F02A
:402E80000403DBB213700C4A0B4B1B78DBB243F00803DBB21370094A084B1B78DBB223F01803DBB21370054A044B1B78DBB243F00803DBB2137080BD43580040DF5A004040
:402EC00080B400AF094A094B1B78DBB243F00803DBB21370064A064B1B78DBB243F00803DBB21370BD465DF8047B7047A7430040B743004080B500AF054B1B78002B04D112
:402F0000FFF7ACFF024B01221A70FFF7D9FF80BDEF81FF1F80B483B000AF0346FB71164B154A1278D2B2D2B222F00302D1B2FA7902F00302D2B20A43D2B2D2B21A70FB7965
:402F4000012B0AD10D4B0E4A1278D2B21A700D4B0D4A1278D2B21A7009E0084B0B4A1278D2B21A70074B0A4A1278D2B21A700C37BD465DF8047B70474358004036460040EC
:402F8000130100493746004017010049B3010049BB01004980B400AF054B1B78DBB203F004039B08DBB21846BD465DF8047B70472151004000000000142816D902B4012176
:402FC00014381049097811F0C001890904B40E4A515C04BC00BF00BF00BF8841FDD500BF00BF02BC704700BF00BF70F10400FCD570470B050709EFF3108072B6704780F3C0
:403000001088704700480040F22F0000AFF3008081F0004102E000BF83F0004330B54FEA41044FEA430594EA050F08BF90EA020F1FBF54EA000C55EA020C7FEA645C7FEA9E
:40304000655C00F0E2804FEA5454D4EB5555B8BF6D420CDD2C4480EA020281EA030382EA000083EA010180EA020281EA0303362D88BF30BD11F0004F4FEA01314FF4801CAA
:403080004CEA113102D0404261EB410113F0004F4FEA03334CEA133302D0524263EB430394EA050F00F0A780A4F10104D5F1200E0DDB02FA0EFC22FA05F2801841F100017C
:4030C00003FA0EF2801843FA05F359410EE0A5F120050EF1200E012A03FA0EFC28BF4CF0020C43FA05F3C01851EBE37101F0004507D54FF0000EDCF1000C7EEB00006EEB9C
:403100000101B1F5801F1BD3B1F5001F0CD349085FEA30004FEA3C0C04F101044FEA445212F5800F80F09A80BCF1004F08BF5FEA500C50F1000041EB045141EA050130BD3A
:403140005FEA4C0C404141EB010111F4801FA4F10104E9D191F0000F04BF01460020B1FA81F308BF2033A3F10B03B3F120020CDA0C3208DD02F1140CC2F10C0201FA0CF0D8
:4031800021FA02F10CE002F11402D8BFC2F1200C01FA02F120FA0CFCDCBF41EA0C019040E41AA2BF01EB0451294330BD6FEA04041F3C1CDA0C340EDC04F11404C4F120022A
:4031C00020FA04F001FA02F340EA030021FA04F345EA030130BDC4F10C04C4F1200220FA02F001FA04F340EA0300294630BD21FA04F0294630BD94F0000F83F4801306BF82
:4032000081F480110134013D4EE77FEA645C18BF7FEA655C29D094EA050F08BF90EA020F05D054EA000C04BF1946104630BD91EA030F1EBF0021002030BD5FEA545C05D1EE
:403240004000494128BF41F0004130BD14F580043CBF01F5801130BD01F0004545F0FE4141F470014FF0000030BD7FEA645C1ABF194610467FEA655C1CBF0B46024650EA37
:40328000013406BF52EA033591EA030F41F4002130BD00BF90F0000F04BF0021704730B54FF4806404F132044FF000054FF0000150E700BF90F0000F04BF0021704730B527
:4032C0004FF4806404F1320410F0004548BF40424FF000013EE700BF42004FEAE2014FEA31014FEA02701FBF12F07F4393F07F4F81F06051704792F0000F14BF93F07F4F95
:40330000704730B54FF4607401F0004521F0004120E700BF50EA010208BF704730B54FF000050AE050EA010208BF704730B511F0004502D5404261EB41014FF4806404F1D5
:4033400032045FEA915C3FF4DCAE4FF003025FEADC0C18BF03325FEADC0C18BF033202EBDC02C2F1200300FA03FC20FA02F001FA03FE40EA0E0021FA02F11444C1E600BFC0
:4033800070B54FF0FF0C4CF4E06C1CEA11541DBF1CEA135594EA0C0F95EA0C0F00F0DEF82C4481EA030621EA4C5123EA4C5350EA013518BF52EA033541F4801143F48013E1
:4033C00038D0A0FB02CE4FF00005E1FB02E506F00042E0FB03E54FF00006E1FB03569CF0000F18BF4EF0010EA4F1FF04B6F5007F64F5407404D25FEA4E0E6D4146EB0606EA
:4034000042EAC62141EA55514FEAC52040EA5E504FEACE2EB4F1FD0C88BFBCF5E06F1ED8BEF1004F08BF5FEA500E50F1000041EB045170BD06F0004646EA010140EA02009D
:4034400081EA0301B4EB5C04C2BFD4EB0C0541EA045170BD41F480114FF0000E013C00F3AB8014F1360FDEBF002001F0004170BDC4F10004203C35DA0C341BDC04F11404A4
:40348000C4F1200500FA05F320FA04F001FA05F240EA020001F0004221F0004110EBD37021FA04F642EB06015EEA430E08BF20EAD37070BDC4F10C04C4F1200500FA04F39E
:4034C00020FA05F001FA04F240EA020001F0004110EBD37041F100015EEA430E08BF20EAD37070BDC4F1200500FA05F24EEA020E20FA04F301FA05F243EA020321FA04F0CC
:4035000001F0004121FA04F220EA020000EBD3705EEA430E08BF20EAD37070BD94F0000F0FD101F00046400041EB010111F4801F08BF013CF7D041EA060195F0000F18BF10
:40354000704703F00046520043EB030313F4801F08BF013DF7D043EA0603704794EA0C0F0CEA135518BF95EA0C0F0CD050EA410618BF52EA4306D1D181EA030101F0004112
:403580004FF0000070BD50EA410606BF1046194652EA430619D094EA0C0F02D150EA013613D195EA0C0F05D152EA03361CBF104619460AD181EA030101F0004141F0FE4114
:4035C00041F470014FF0000070BD41F0FE4141F4780170BD70B54FF0FF0C4CF4E06C1CEA11541DBF1CEA135594EA0C0F95EA0C0F00F0A7F8A4EB050481EA030E52EA033574
:403600004FEA013100F088804FEA03334FF0805545EA131343EA12634FEA022245EA111545EA10654FEA00260EF000419D4208BF964244F1FD0404F5407402D25B084FEAE8
:403640003202B61A65EB03055B084FEA32024FF480104FF4002CB6EB020E75EB030E22BFB61A754640EA0C005B084FEA3202B6EB020E75EB030E22BFB61A754640EA5C0034
:403680005B084FEA3202B6EB020E75EB030E22BFB61A754640EA9C005B084FEA3202B6EB020E75EB030E22BFB61A754640EADC0055EA060E18D04FEA051545EA16754FEA01
:4036C00006164FEAC30343EA52734FEAC2025FEA1C1CC0D111F4801F0BD141EA00014FF000004FF0004CB6E711F4801F04BF01430020B4F1FD0C88BFBCF5E06F3FF6AFAE49
:40370000B5EB030C04BFB6EB020C5FEA500C50F1000041EB045170BD0EF0004E4EEA113114EB5C04C2BFD4EB0C0541EA045170BD41F480114FF0000E013C90E645EA060EA8
:403740008DE60CEA135594EA0C0F08BF95EA0C0F3FF43BAF94EA0C0F0AD150EA01347FF434AF95EA0C0F7FF425AF104619462CE795EA0C0F06D152EA03353FF4FDAE104666
:40378000194622E750EA410618BF52EA43067FF4C5AE50EA41047FF40DAF52EA43057FF4EBAE12E74FEA4102B2F1E04324BFB3F5001CDCF1FE5C0DD901F0004C4FEAC00279
:4037C0004CEA5070B2F1004F40EB830008BF20F00100704711F0804F21D113F13872BCBF01F00040704741F480114FEA5252C2F11802C2F1200C10FA0CF320FA02F018BF96
:4038000040F001004FEAC1234FEAD32303FA0CFC40EA0C0023FA02F34FEA4303CCE77FEA625307D150EA01331EBF4FF0FE4040F44000704701F0004040F0FE4040F40000D0
:40384000704700BF80F0004002E000BF81F0004142001FBF5FEA410392EA030F7FEA226C7FEA236C6AD04FEA1262D2EB1363C1BFD218414048404140B8BF5B42192B88BFF8
:40388000704710F0004F40F4000020F07F4018BF404211F0004F41F4000121F07F4118BF494292EA030F3FD0A2F1010241FA03FC10EB0C00C3F1200301FA03F100F0004380
:4038C00002D5494260EB4000B0F5000F13D3B0F1807F06D340084FEA310102F10102FE2A51D2B1F1004F40EBC25008BF20F0010040EA03007047490040EB000010F4000F63
:40390000A2F10102EDD1B0FA80FCACF1080CB2EB0C0200FA0CF0AABF00EBC25052421843BCBFD0401843704792F0000F81F4000106BF80F400000132013BB5E74FEA410301
:403940007FEA226C18BF7FEA236C21D092EA030F04D092F0000F08BF0846704790EA010F1CBF0020704712F07F4F04D1400028BF40F00040704712F100723CBF00F500003D
:40398000704700F0004343F0FE4040F4000070477FEA226216BF08467FEA23630146420206BF5FEA412390EA010F40F4800070474FF0000304E000BF10F0004348BF40421F
:4039C0005FEA000C08BF704743F0964301464FF000001CE050EA010208BF70474FF000030AE000BF50EA010208BF704711F0004302D5404261EB41015FEA010C02BF8446F9
:403A00000146002043F0B64308BFA3F18053A3F50003BCFA8CF2083AA3EBC25310DB01FA02FC634400FA02FCC2F12002BCF1004F20FA02F243EB020008BF20F001007047F0
:403A400002F1200201FA02FCC2F1200250EA4C0021FA02F243EB020008BF20EADC7070474FF0FF0C1CEAD0521EBF1CEAD15392EA0C0F93EA0C0F6FD01A4480EA010C4002CC
:403A800018BF5FEA41211ED04FF0006343EA501043EA5111A0FB01310CF00040B1F5000F3EBF490041EAD3715B0040EA010062F17F02FD2A1DD8B3F1004F40EBC25008BFF8
:403AC00020F00100704790F0000F0CF0004C08BF49024CEA502040EA51207F3AC2BFD2F1FF0340EAC250704740F400004FF00003013A5DDC12F1190FDCBF00F0004070474B
:403B0000C2F10002410021FA02F1C2F1200200FA02FC5FEA310040F1000053EA4C0308BF20EADC70704792F0000F00F0004C02BF400010F4000F013AF9D040EA0C0093F00B
:403B4000000F01F0004C02BF490011F4000F013BF9D041EA0C018FE70CEAD15392EA0C0F18BF93EA0C0F0AD030F0004C18BF31F0004CD8D180EA010000F00040704790F003
:403B8000000F17BF90F0004F084691F0000F91F0004F14D092EA0C0F01D142020FD193EA0C0F03D14B0218BF084608D180EA010000F0004040F0FE4040F40000704740F057
:403BC000FE4040F4400070474FF0FF0C1CEAD0521EBF1CEAD15392EA0C0F93EA0C0F69D0A2EB030280EA010C49024FEA402037D04FF0805343EA111143EA10130CF000409A
:403C00008B4238BF5B0042F17D024FF4000C8B4224BF5B1A40EA0C00B3EB510F24BFA3EB510340EA5C00B3EB910F24BFA3EB910340EA9C00B3EBD10F24BFA3EBD10340EACA
:403C4000DC001B0118BF5FEA1C1CE0D1FD2A3FF650AF8B4240EBC25008BF20F0010070470CF0004C4CEA50207F32C2BFD2F1FF0340EAC250704740F400004FF00003013AC6
:403C800037E792F0000F00F0004C02BF400010F4000F013AF9D040EA0C0093F0000F01F0004C02BF490011F4000F013BF9D041EA0C0195E70CEAD15392EA0C0F08D1420257
:403CC0007FF47DAF93EA0C0F7FF470AF084676E793EA0C0F04D14B023FF44CAF08466EE730F0004C18BF31F0004CCAD130F000427FF45CAF31F000437FF43CAF5FE700BFD3
:403D00004FEA4002B2F1FE4F0FD34FF09E03B3EB12620DD94FEA002343F0004310F0004F23FA02F018BF404270474FF00000704712F1610F01D1420205D110F0004008BFC2
:403D40006FF0004070474FF000007047014B1868704700BF9C81FF1F0E4B70B51E460E4C0025E41AA410A54204D056F8253098470135F8E700F0F0FC084B094C1E46E41A2F
:403D8000A4100025A54204D056F8253098470135F8E770BD6447000064470000644700006C47000010B5431E0A44914204D011F8014B03F8014FF8E710BD0346024493422C
:403DC00002D003F8011BFAE7704700000EB400B54FF402719CB0ADF814106FF00041049107914FF6FF711DABADF81610084953F8042B02900690086802A9019300F06CF8F5
:403E0000029B00221A701CB05DF804EB03B070479C81FF1F034613F8012B002AFBD1181A013870472DE9F0478E688246B3420C469046994640D38A8912F4906F3AD0256823
:403E4000096902236F1A656905EB450595FBF3F57B1C4B449D4238BF1D4653050FD5294600F030FB064698B121693A46FFF79AFFA38923F4906343F08003A38113E02A46DC
:403E800000F076FB064670B95046216900F0D6FA0C23CAF80030A3894FF0FF3043F04003A381BDE8F08726613E4426604E466561ED1BA560B14500D24E4632462068414602
:403EC00000F0A0FAA36800209B1BA36023681E442660BDE8F08700002DE9F0439DB003938B8906461C060D4690460CD50B6953B9402100F0E7FA2860286110B90C233360BF
:403F0000CCE040236B610023099320238DF8293030238DF82A3043461C4613F8012B1AB9B4EB08090FD002E0252AF5D1F8E73046294642464B46FFF775FF013000F0A98088
:403F4000099B4B4409932378002B00F0A28000234FF0FF3204930793059206938DF853301A9304F101084446DFF8489121784846052200F039FA08F10108049B30B1C9EB12
:403F800000000122824013430493ECE7D80644BF20228DF85320190744BF2B228DF8532022782A2A02D0079923460EE0039A0134111D12680391002ABBBF524243F00203A4
:403FC00007920792B8BF04930AE01C4622780133303A092A03D80A2000FB0121F5E7079123782E2B1AD163782A2B0AD1039B02341A1D1B680392002BB8BF4FF0FF3305937C
:404000000CE0611C00220C4623780131303B092B03D80A2000FB0232F5E70592DFF8988021784046032200F0DFF938B1049AC8EB00004023834013430493013421781A4818
:40404000062204F101088DF8281000F0CDF988B1164B33B9039B073323F007030833039313E003AB0093304604A92A46104BAFF3008007E003AB0093304604A92A460C4B05
:4040800000F092F8421C074603D0099B3B44099341E7AB895B0601D4099801E04FF0FF301DB0BDE8F08300BF2C47000000000000253E000022470000284700002DE9F84324
:4040C00091461F468A680B6906469342B8BF1346C9F8003091F843200C46DDF8208012B10133C9F800302368990642BFD9F800300233C9F80030256815F006051CD094F83A
:4041000043302268003318BF012392061FD5E118302081F843005A1C94F845102244023382F8431013E03046394604F119020123C047013007D00135E368D9F800209B1AB2
:404140009D42F0DBDBE74FF0FF30BDE8F8833046394604F14302C0470130F4D02268D9F80050E36802F00602042A08BF5D1B2269A3680CBF25EAE57500259342C4BF9B1AC1
:40418000ED184FF00009A9450ADA3046394604F11A020123C0470130D5D009F10109F2E70020BDE8F88300002DE9FF410C461746227E98466E2A06460A9B01F1430100F08A
:4041C000B08012D8632A23D00AD8002A00F0BD80582A40F0CC8084F84520DFF804E257E0642A1ED0692A1CD0C1E0732A00F0B18009D86F2A2ED0702A40F0B980226842F088
:40420000200222603FE0752A24D0782A3BD0AEE01A6804F14205111D1960136884F84230A9E020681A6810F0800F02D0101D186008E010F0400F02F10400186002D0B2F963
:40424000003000E01368002B3EDA2D225B4284F8432039E020681A6810F0800F02D0101D186007E010F0400F02F10400186001D0138800E01368227EDFF864E16F2A0CBFF0
:4042800008220A221CE07822DFF858E184F845202268186812F0800F00F104051D6003D1550601D5038800E00368D00744BF42F0200222601BB9226822F02002226010223E
:4042C000002084F8430002E0DFF814E10A226568002DA8BF2068A560A4BF20F00400206003B965B10D46B3FBF2F002FB10331EF8033005F8013D03460028F4D100E00D463E
:40430000082A0BD12368DA0708D5236962689A42DEBF302305F8013C05F1FF35491B21612EE025681A6815F0800F606903D0151D1D60136808E015F0400F02F104051D608E
:40434000136801D0188000E01860002323610D4616E01A68111D1960156800212846626800F042F808B1401B6060636804E004F1420584F8422001232361002384F8433091
:40438000CDF800803046214603AA3B46FFF796FE013002D14FF0FF301FE0304639462A462369C0470130F5D023689B0705D4E068039B9842B8BF18460FE00025E368039A2D
:4043C0009B1A9D42F3DA3046394604F119020123C0470130DED00135F0E704B0BDE8F081334700004447000010B5C9B202449042034605D01C7801308C42F8D1184610BD74
:40440000002010BD814210B501EB020301D3421E0BE09842FBD28118D21AD34204D013F8014D01F8014DF8E710BD994204D011F8014B02F8014FF8E710BD000030B500298E
:404440003CD051F8042C0B1F1D49002AB8BF9B180A680C4612B95A600B6030BD93420DD219685818904201BF5A5852181A60426823605A6030BD994203D80A4651680029A9
:40448000F9D1146815199D420AD11B682344D0188842136012D10868034413604B680CE002D90C23036030BD1C681819884201BF08684968001918605960536030BD00BFB0
:4044C000F481FF1F70B5CC1C24F0030408340C2C38BF0C24002C064603DA0C233360002070BD8C42F9D3204A136810461946A1B10A68121B0ED40B2A03D90A608B188C5001
:404500001FE08B420BBF5A684A6802605A6018BF0B4616E00B464968E9E7144D2B681BB9304600F04BF828603046214600F046F8421C0346D1D0C51C25F0030585420AD179
:404540001C6003F10B001A1D20F00700821A0AD05142995070BD3046E91A00F02FF80130BBD02B46ECE770BDF481FF1FF081FF1FF8B5074615460E4621B91146BDE8F840BD
:40458000FFF7A0BF1AB9FFF759FF2846F8BD00F025F8A8420ED238462946FFF793FF044650B131462A46FFF7FDFB38463146FFF745FF01E03046F8BD2046F8BD38B5064C61
:4045C0000023054608462360FCF788FB431C02D1236803B12B6038BD3882FF1F51F8040C0028BEBF091851F8043CC018043870470000000050536F4320354C503A204F2DAE
:404600005661630049324320576F726B696E6700542D6D696E7573202564207365636F6E64730A0053544154453A2044455343454E54000053544154453A204C414E444512
:404640004400000053544154453A20574149540056414355554D494E4700000053544154453A205245535552464143494E470000574154455220444554454354454400003E
:404680005452414E534D49540000000053595354454D5F434845434B2020000000000000400000001400000054000000035B00402443004040000000C84900401900004FC0
:4046C00000400C00005100401000405100403000F0510040100000000140800000010140000180020140800D00140140000800400140000A004C01400002005001402000BF
:4047000060520040FC0400480600800001400405004880000002014084050048800000004300232D302B2000686C4C0065666745464700303132333435363738394142430E
:40474000444546003031323334353637383961626364656600000000F8B500BFF8BC08BC9E4670474D000000C50D0000F8B500BFF8BC08BC9E4670472900000090470000EB
:404780000881FF1F98000000A000000000000000000000003F0000000100000001010000746573745F312E74787400004082FF1F00366E01C05D0000180000000000E02E32
:4047C00001FF000000000000000000000000000000000000000000000000000000000000000000002047000000000000000000000000000000000000000000000000000052
:404800000000000000000000000000000000000000000000000000000000000000000000000000003C81FF1F0000000000000000000000000000000000000000000000009D
:404840000000000000000000000000000000000000000000000000000000000000000000000000000000000000000000000000000000000000000000000000000000000038
:4048800000000000000000000000000000000000000000000000000000000000000000000000000000000000000000000000000000000000000000000000000000000000F8
:4048C00000000000000000000000000000000000000000000000000000000000000000000000000000000000000000000000000000000000000000000000000000000000B8
:404900000000000000000000000000000000000000000000000000000000000000000000000000000000000000000000000000000000000000000000000000000000000077
:020000040003F7
:0200000480007A
:40000000024F004002520040015A00400264004001650040200001402E0101402A02014046030140530401404805014003070140010F0140281401400D15014032160140C1
:400040001217014002190140011B014003400140054101400A42014006430140074401400145014003460140044701400A4801400B4901400F4C0140064D01400750014022
:400080000251014001200A4B18201920DF04810F830D870D0103030409050B021104130319011B06310737073B82405449FF4AFF4BFF4F015018528059045A045B045D9966
:4000C0005F016040624064406540668068806A806C806E80041906020E4A0F201540160817141D201E0121022301240C2504262027182C082E082F01310232203615381006
:400100003B023C043D503E024101460148024C0267016D506E0A6F64700276028D80C0F0C2F0C4E0CA70CCE5CEF5D011D218D810810483038601870C89088B0399019B020B
:40014000A301AB02B001B50FB880BE40C054C5ECC720C823C9FFCAFFCBFFCD83CE03CF01D018D401D604D804D904DA04DB04DD99DF01E040E240E440E540E680E880EA807A
:40018000EC80EE8002100418060207400C080E090F4014011608170619821C111E601F412004270229022A102C012D102E402F6032203610374838143A043B023D483E0AB4
:4001C0003F6041014601480249054C025101520159055A806102858290089150920194119502964097029A029B4C9D809E01A002A124A224A320A408A610A710C0F4C2F045
:40020000C4F0CAF5CC74CEF7D011D218D60BD8010111034409290A020B100E01100215131720196E2602270E2E013001330E35703602370139203E413F4454095804590484
:400240005B045F01801B8404861A880489068A108C1B900492089703981B9F01A201A402A604A81BAC1AAE01AF05B21EB401B707BA08BE10C056C103C220C404C5DEC6B036
:40028000C7FCC83BC9FFCAFFCBFFCC22CEF0CF08D004D440D804D904DA04DB04DF01E2C0E440E501E610E711E8C0E901EB11EC40ED01EE40EF0100100201041005040602C4
:4002C00007400A400B400E48100213081551170819801A801D041F1020012210231026802A042C082D202E40310832103680370838103B023C104528464047084D094E0423
:400300004F4154095610571059A9600167297C107E04812186808710901091509240930296809A079B489E10A002A120A204A408A710C0F3C258C4F5CA12CC56CE25D0E000
:40034000D230D60FD8789E40AC01AF04E440404649FF4AFF4BFF4F01501852805A045B045D995F016040624064406540668068806A806C806E80C046C9FFCAFFCBFFCD8318
:40038000CE03CF01D018DA04DD09DF01E040E240E440E540E680E880EA80EC80EE804102450248084C0871028A409E40A008A502D081D224E480EA01404649FF4AFF4BFFE4
:4003C0004D834E034F0150185A045D095F016040624064406540668068806A806C806E8093019701B701BF40C046C5ECC702C813C9FFCAFFCBFFCD83CE03CF01D018D4019C
:40040000D904DA04DB04DD99DF01E040E240E440E540E680E880EA80EC80EE8022403008310241024502480849054C08500859055A809E40CC03D081D224D60BEC30EE086F
:40044000EC30EE08EA0130203610CC3084208640A420A610E2503E106240860287089A40A610CE20D640E210E610200196109A029B08A610C810110115047D088D04C40CAF
:40048000DE01E402910545029105D00103209105A502C008210896109A029B08A508AE10B108B401C840EE100B805B0866028B409A029B08AA10C210D640D880EA8010400A
:4004C00013201480300879017D049105A008AF20B102B408C40ECC02DE03EC0C78407C8098C0AB20DC01DE0400010101080109010A0111011B01000B03C00000203000000A
:4005000030000000041C0000071118222210080C410C0010081C2100101400084130000F410000000000000040240010010800000121401E00000030400F3F008000000801
:4005400000005000510000000000000000FFFFFF00830301180000000000022004040404000900014000400040408000800080008000800000000000000000000000000082
:400580000000000064C00001778080001000E59F6490004064000000401F0220247F408008C000020800006000C0640424C00008930060FFF0000700000008FF82000C00CB
:4005C00000000040510000000000000000FFFFFF00830301180000000000000004040400000900014000400040408000800080008000800000000000000000000000000038
:4006000000000000300000F0C00030000000000000ABAB000000440004000006020000000000000010E0E000600000004A0018010000000000000000000000000000000071
:40064000000000000000000000000000000000000000000000000000000000000000000000000000000000000000000000000000000000000000000000000000000000007A
:40068000000000000000000000000000000000000000000000000000000000000000000000000000000000000000000000000000000000000000000000000000000000003A
:4006C00000000000000000000000000000000000000000000000000000000000000000000000000000000000000000000000000000000000000000000000000000000000FA
:4007000000000000000000000000000000000000000000000000000000000000000000000000000000000000000000000000000000000000000000000000000000000000B9
:0200000490006A
:0400000000004005B7
:0200000490105A
:04000000BC90ACAF55
:0200000490303A
:0200000022716B
:0200000490402A
:4000000000000000000000000000000000000000000000000000000000000000000000000000000000000000000000000000000000000000000000000000000000000000C0
:400040000000000000000000000000000000000000000000000000000000000000000000000000000000000000000000000000000000000000000000000000000000000080
:400080000000000000000000000000000000000000000000000000000000000000000000000000000000000000000000000000000000000000000000000000000000000040
:4000C0000000000000000000000000000000000000000000000000000000000000000000000000000000000000000000000000000000000000000000000000000000000000
:0200000490501A
:0C00000000012E12706900012E2F92DA10
:00000001FF