:400000000080002011000000491700004917000080B500AF024A034B1B68136001F0C6FBBC760040FA46004010B5054C237833B9044B13B10448AFF300800123237010BD95
:40004000A881FF1F0000000000510000084B10B51BB108480849AFF300800848036803B910BD074B002BFBD0BDE81040184700BF0000000000510000AC81FF1F0881FF1F5F
:400080000000000080B400AF0A4B1B780A4B1B78022B03D0084B1B78032B04D1074B1B680133064A1360064B01221A70BD465DF8047B7047034F00401881FF1FC481FF1FA0
:4000C000D681FF1F80B400AF1D4B1B781D4B1B78012B03D11C4B1B68002B07D1194B1B78032B03D0174B1B78042B08D1174B01221A70174B1B780133DAB2154B1A70114BC6
:400100001B78052B07D00F4B1B78012B13D1114B1B68002B0FD1104B1B780133DAB20E4B1A700D4B1B780A2B05D10C4B01221A60094B00221A70BD465DF8047B704700BF76
:40014000676400401881FF1F3082FF1FD781FF1FD981FF1F2882FF1FDA81FF1F2C82FF1F98B500AF14E00E4B1C68631C0C4A136003F0E0FB03461A460A4B1A55084B1B68CC
:40018000DA1E094B1B689A4202DB084B01221A6003F0BEFB034603F02003002BE3D198BD1C82FF1FDC81FF1F2482FF1F2082FF1FB0B5CCB002AF0023C7F818310023C7F82E
:4001C00014314FF00003C7F810314FF00003C7F80C314FF00003C7F808314FF00003C7F8243107F1B80300221A60043300221A60043300221A60043300221A600433002289
:400200001A600433BC4B07F1A8040FCB07C42370002387F8B530B94B07F194041D460FCD0FC42B681A46228002341B0C2370B44B07F184040FCB07C42380B24B07F1700448
:400240001D460FCD0FC42B682370AF4B07F15C041D460FCD0FC42B682370AC4B07F14C040FCB84E80F000023C7F820310023C7F81C310023A7F8063100233B640023C7F829
:40028000003162B602F07EFD01F06EFF03F030F99F4803F06FF99F4803F094FB03F0DAFA9D4B1B68DBB2184610210222002300F00BFD00F037FD01F08DF901F097F99748DB
:4002C00000F07EFE0020012100F0ACFD944800F077FE4FF47A7001F071FD00F08FFD01F05BFF0020002100F09DFD07F1A803184600F066FE8B4B01221A7003F0DDF98A48E5
:4003000003F03CFA012001F057FF0346002B00F0898001F079FF0346184604F0BDF80346C7F80831D7F8080103F046FD02460B46104619466EA3D3E9002303F091FD0246B0
:400340000B461046194603F09DFF0346C7F81031764B1B78002B65D0754B1B680E2B0BDC744B1B681846D7F8101103F0E1FF03461A46704B1A6049E06D4B1B680F2B14D1C4
:400380006C4B1B681846D7F8101103F0D1FF03461A46684B1A60674B1B681846664904F083F90346C7F8243130E0D7F824010F21D7F8102100F050FFC7F82401D7F82401C2
:4003C00004F00EFA0346C7F81831D7F8180104F063F80346D7F82401194603F0A7FF0346C7F80C31D7F80C01544904F0A9F80346184604F0F5F90346C7F814313B461A463A
:400400003C23104600211A4604F047FA454B1B78022B02D0454B00221A70454B1B680133434A1360464B1B68012B13DD454B1B78303B3B64434B5B78303BC7F800313A6CED
:4004400013469B0013445B001A46D7F8003113443D4A13603D4B1B68002B2DD007F1B80338481946142201F097F8374B1A6807F1B803D91C364B009308462A49354B00F0B9
:4004800019FF0246344B1A602D4B00221A602E4B00221A602B480021402204F0FEF907F1B80318460021142204F0F7F92B4B00221A70264B00221A6001F0D0F80346A7F8BD
:4004C000FE300123FB63174B1B78013B042B00F2DA8301A252F823F061050000ED060000AF090000E90B00004D0C0000AFF300808FC2F5285C8F4A3FB0510000C051000029
:40050000D4510000E4510000F85100000C52000085000000610100000C81FF1F04510000145100001881FF1FC5000000D681FF1F1481FF1FD081FF1F0000704100401C4608
:400540001C82FF1FDC81FF1F2482FF1F2082FF1F3482FF1F2882FF1F3082FF1FD981FF1FA84B1B68002B37D0A74B01221A60A74B00221A60A64B00221A60A64B00221A80DD
:40058000A54B4FF000021A60A44B4FF000021A60A34B00221A70A34B00221A70A24B00221A70A24B00221A60A14B00221A70A14B00221A60A04B00221A60924B00221A6070
:4005C0000023C7F81C310020002100F02BFC00F015FC9A4800F0F4FC994B1B68002B0BD007F1B80207F14003104696490A2200F069FF934B00221A608A4B1B78002B74D04D
:400600000023C7F820318A4B1B78C3F10A0307F1CC0210468C491A4604F048F919E011E0D7F820315A1CC7F8202107F59472134413F85C3C184603F0ABF9D7F82031142B08
:4006400000DD06E003F098F9034603F00803002BE6D1D7F82031142BE1DD754B1B780A2B3FD1724B1B68794A82FB03129210DB17D31A03334FF47A7202FB03F3744A1360B6
:40068000704B02221A700020002100F0CBFB00F0B5FB704800F094FC0023C7F8203119E011E0D7F820315A1CC7F8202107F59472134413F8943C184603F06AF9D7F8203147
:4006C000122B00DD06E003F057F9034603F00803002BE6D1D7F82031122BE1DD544B00221A70504B00221A70CEE2CDE207F14A0107F1480207F14603084611461A4600F0C7
:40070000C7FF474B1B78002B00F050813E4B1B680E2B29DCB7F9FE203D4B1B6813443C4A1360B7F84A301BB2184603F0B5FE0246494B1B681046194603F0FAFD03461A46CE
:40074000454B1A60B7F848301BB2184603F0A4FE0246424B1B681046194603F0E9FD03461A463E4B1A60D8E0274B1B680F2B7BD1B7F9FE20264B1B681344254A1360B7F819
:400780004A301BB2184603F087FE0246324B1B681046194603F0CCFD03461A462E4B1A60B7F848301BB2184603F076FE02462B4B1B681046194603F0BBFD03461A46274B52
:4007C0001A60134B1B68264A82FB03121A44D210DB17D31A9AB20F4B1A801F4B1B681846204903F061FF03461A460B4B1A601B4B1B6818461B4903F057FF03461A46074BCE
:400800001A608AE03482FF1F1081FF1FC481FF1FCC81FF1FD481FF1F3882FF1F3C82FF1FD681FF1FD781FF1FD881FF1F3082FF1FD981FF1F1C82FF1F2882FF1F20510000BD
:400840002C82FF1F1881FF1F2C5100004FECC44EC881FF1F445100004082FF1F4482FF1F8988888800007041904B1B881BB2184603F012FE0446B7F9FE30184603F00CFE6A
:40088000034620460F211A4600F0E6FC0346184603F0A6FF03469AB2844B1A80844B1C68B7F84A301BB2184603F0F6FD034620460F211A4600F0D0FC02467D4B1A607D4B10
:4008C0001C68B7F848301BB2184603F0E5FD034620460F211A4600F0BFFC0246754B1A60734B1B68184603F07BFF0346002BB8BF5B4241F6961293420CDC6E4B1B68184617
:4009000003F06EFF0346002BB8BF5B4241F69612934202DD684B04221A70644B1B881BB244F6206293421ADD634B03221A700020002100F077FA00F061FA604800F040FB15
:400940005F4B00221A605F4B00221A605E4B00221A60564B00221A805C4B00221A70584B1B680133564A1360564B1A68584B1B689A4217DB504B04221A700020002100F0F6
:4009800051FA00F03BFA534800F01AFB4C4B00221A604C4B00221A604B4B00221A60434B00221A804C4B00221A706DE16CE1474B1B78072B08D1454B00221A700123C7F818
:4009C0001C31012002F024FE07F14A0107F1480207F14603084611461A4600F059FE3E4B1B78002B00F0D180354B1B680E2B22DCB7F84A301BB2184603F04EFD0246374B45
:400A00001B681046194603F093FC03461A46334B1A60B7F848301BB2184603F03DFD02462F4B1B681046194603F082FC03461A462B4B1A607AE0224B1B680F2B54D1B7F880
:400A40004A301BB2184603F027FD0246234B1B681046194603F06CFC03461A461F4B1A60B7F848301BB2184603F016FD02461C4B1B681046194603F05BFC03461A46184B4F
:400A80001A60164B1B681846164903F00DFE03461A46074B1A60124B1B681846114903F003FE03461A46034B1A603FE0D481FF1F3882FF1F3C82FF1F1881FF1F5451000009
:400AC0001081FF1FC481FF1FCC81FF1FD981FF1FC881FF1F64510000D681FF1F4082FF1F4482FF1F00007041684B1C68B7F84A301BB2184603F0D0FC034620460F211A4672
:400B000000F0AAFB0246614B1A60614B1C68B7F848301BB2184603F0BFFC034620460F211A4600F099FB0246594B1A60574B1B68184603F055FE0346002BB8BF5B4240F6D2
:400B40005A7293420CDC524B1B68184603F048FE0346002BB8BF5B4240F65A7293420CDD4C4B04221A7000F049F94B4800F028FA00F044F9494800F023FA494B00221A70C4
:400B8000484B1B680133474A1360474B1B78052B0ED1D7F81C31002B0AD0D7F81C310133C7F81C31002002F033FD3F4B00221A703D4B1B78032B16D1D7F81C31022B12D162
:400BC000344B04221A700020002100F02BF900F015F9324800F0F4F90023C7F81C31324B00221A7050E04FE0304B1B78002B02D02F4800F0E5F9012002F00EFE2A4B1B78EE
:400C0000032B0ED1002002F007FE4FF47A7001F0D5F8D7F81C310133C7F81C31224B00221A70D7F81C31022B0FD11A4B05221A700020002100F0F6F800F0E0F81D4800F0B5
:400C4000BFF9194B00221A701EE01DE01A4B1B68002B0BD007F1B80207F13C0310460D490A2200F02FFC144B00221A60134B00221A600D4B00221A700023C7F81C31104B64
:400C800000221A6000E000BFFFF73CBB3882FF1F3C82FF1F1881FF1F7851000080510000D681FF1F1081FF1FD981FF1FD881FF1F94510000A45100002C82FF1FC481FF1FEB
:400CC0003082FF1FAFF3008090B482B000AF0446084611461A462346FB710346BB710B467B7113463B710A4AFB791370094ABB791370094A7B791370084A3B791370084B07
:400D000008221A7000BF0837BD4690BC704700BF9482FF1F9982FF1F9A82FF1F9682FF1F9382FF1F80B500AF2E4B00221A702E4B1B78012B06D92B4B1B7843F00803DAB239
:400D4000284B1A70294B1B78002B0AD0264B1B78012B06D1234B1B7843F00403DAB2214B1A70322001F02AF8214B1B78184600F0F1F84FF47A7001F021F8302000F0D8F8C4
:400D800041F2941001F03CF8302000F0D1F841F2941001F035F8302000F0CAF8962001F02FF8202000F0C4F80E4B1B7843F02003DBB2184600F07EF80E4B04221A7000F0F1
:400DC00063F800F01BF80C4B02221A700A4B1B7843F00403DBB2184600F06CF800F018F800BF80BD9882FF1F9A82FF1F9682FF1F9382FF1F9582FF1F9782FF1F80B500AF08
:400E0000012000F057F8022000F0D8FF00BF80BD80B500AF022000F04DF8022000F0CEFF00BF80BD90B587B000AF03460A46FB711346BB71124B07F108040FCB84E80F00EC
:400E4000104B1B78BA799A4203D90E4B1B78013BBB71BB799B0007F11802134453F8103CDAB2FB791344DBB2DBB263F07F03DBB2DBB2184600F01EF800BF1C37BD4690BD50
:400E8000C05200009A82FF1F80B500AF084B1B7843F00403DAB2064B1A70054B1B7843F00803DBB2184600F005F800BF80BD00BF9582FF1F80B582B000AF0346FB71FB7953
:400EC0001846002100F012F800BF0837BD4680BD80B582B000AF0346FB71FB791846012100F004F800BF0837BD4680BD80B584B000AF03460A46FB711346BB71FB7923F029
:400F00000F03FB73FB791B01BB73FA7BBB791343DBB2184600F00CF8BA7BBB791343DBB2184600F005F800BF1037BD4680BD00BF80B582B000AF0346FB71FB79184600F06C
:400F400009F8FB79184600F01DF800BF0837BD4680BD00BF80B582B000AF0346FB71074B1978074B1A78FB791343DBB20846194600F046F800BF0837BD4680BD9482FF1F66
:400F80009382FF1F80B582B000AF0346FB71FB7943F00403DBB21846FFF7DCFF012000F02FFFFB7923F00403DBB21846FFF7D2FF322000F025FF00BF0837BD4680BD00BFE7
:400FC00080B584B000AF78600023FB60786803F091FC0346FB720023FB6009E07A68FB6813441B781846FFF773FFFB680133FB60FA7AFB689A42F1D800BF1037BD4680BD5D
:4010000080B582B000AF03460A46FB711346BB71FB791846002102F0A1F8BB79184602F079F902F04BF900BF0837BD4680BD00BF90B585B000AF3B600346FB710B46BB7173
:4010400013467B710023FB73FB791846002102F085F8BB79184602F05DF9FB791846012102F0DAF807E03C68631C3B60012002F091F903462370FB7B5A1CFA731A467B79DB
:40108000013B9A42EFDB002002F084F903461A463B681A7002F012F91437BD4690BD00BF80B582B000AF03463A60FB710B46BB71FA79BB791046194601223B68FFF7B8FFE1
:4010C0000837BD4680BD00BF80B584B000AF3B600346FB710B46BB7113467B710023FB73FB791846002102F039F8BB79184602F011F906E03B685A1C3A601B78184602F0D7
:4011000009F9FB7B5A1CFA737A799A42F2D802F0D5F81037BD4680BD80B582B000AF0346FB710B46BB7113467B71F979BA797B1D084611460122FFF7C7FF0837BD4680BDA8
:4011400090B585B000AF0446084611461A462346FB710346BB710B467B7113463B713B79012202FA03F35A1E79793B79CB1A013302FA03F3FB73F979BA7907F10E0308460F
:4011800011461A46FFF78CFF97F8202079793B79CB1A013302FA03F387F8203097F82020FB7B134087F82030FB7BDB43DAB2BB7BDBB21340DBB2DBB2BB73BA7B97F82030AF
:4011C0001343DBB2BB73BB7BF979BA79084611461A46FFF7A1FF1437BD4690BD90B585B000AF0446084611461A462346FB710346BB710B467B7113463B71F979BA7907F12C
:401200000F03084611461A46FFF74AFF3B79002B0AD07B79012202FA03F3DAB2FB7BDBB21343DBB2DBB20BE07B79012202FA03F3DBB2DB43DAB2FB7BDBB21340DBB2DBB2FC
:40124000FB73FB7BF979BA79084611461A46FFF763FF1437BD4690BD80B584B000AFF8600B467A607B81B7F90A30184603F014F90346F868194603F017FA0346F8681946FA
:4012800003F054F80346FB60B7F90A30184603F003F903467868194603F006FA0346F868194603F045F80346FB60FB6818461037BD4680BDB0B59AB000AFF860B9607A60CC
:4012C0003B6000237B6600233B660023FB650023BB65764B07F128041D460FCD0FC40FCD0FC495E80F0007C42380714B07F114041D460FCD0FC42B682360F8686D490522F4
:4013000003F000FB0346002B06D1BB6801221A70BB6F01221A60A1E0BB681B78012B22D1F8686549052203F0EDFA0346002B1AD13B6801221A6012E00AE07B6E5A1C7A66BE
:4013400007F16802134413F8543C184602F020FB02F012FB034603F00803002BEDD17B6E132BE9DD7AE0BB681B78012B42D1F8685249022203F0C6FA0346002B3AD1FB688F
:4013800002331B78303BBB65FB6803331B78303BFB65FB6804331B78303B3B66BB6D002B0CD0FB6802331B78184602F0F1FAFB6803331B78184602F0EBFA08E0FB6D002B39
:4013C00005D0FB6803331B78184602F0E1FAFB6804331B78184602F0DBFABB6D642202FB03F1FA6D13469B0013445B00CA183B6E134457E0BB681B78052B0BD1F86830490F
:40140000042203F07FFA0346002B03D13B6801221A6023E012E00AE07B6E5A1C7A6607F16802134413F8403C184602F0B1FA02F0A3FA034603F00803002BEDD17B6E2D2B39
:40144000E9DDBB6D642202FB03F1FA6D13469B0013445B00CA183B6E134423E011E009E07B6E5A1C7A661A46FB6813441B78184602F08EFA02F080FA034603F00803002B99
:40148000EED17B68DA1C7B6E9A42E8DCBB6D642202FB03F1FA6D13469B0013445B00CA183B6E134418466837BD46B0BDFC5200002C530000E0520000E8520000F052000095
:4014C000F4520000B0B590B000AFF860B9607A603B600023FB632E4B07F124041D460FCD0FC495E8030020600434218002340B0C2370002387F83B30264B07F110041D469A
:401500000FCD0FC42B682380BB681B78012B17D112E00AE0FB6B5A1CFA6307F14002134413F81C3C184602F033FA02F025FA034603F00803002BEDD1FB6B162BE9DD23E0C5
:40154000BB681B78052B1FD13B681B68002B19D012E00AE0FB6B5A1CFA6307F14002134413F8303C184602F013FA02F005FA034603F00803002BEDD1FB6B102BE9DD3B68B6
:4015800000221A600023FB634037BD46B0BD00BF445300005C53000080B487B000AFF860B9607A6000237B610AE07B69BA6813447A69F9680A4412781A707B6901337B61DD
:4015C0007A697B689A42F0DB1C37BD465DF8047B704700BF80B400AF034B68221A70BD465DF8047B704700BF9282FF1F80B500AF012000F095F8002000F008F8002000F078
:4016000019F8002000F07AF880BD00BF80B584B002AF0346FB71064B1A78FB79009310461B2104220223FFF78BFD0837BD4680BD9282FF1F80B584B002AF0346FB71064B36
:401640001A78FB79009310461C2104220223FFF777FD0837BD4680BD9282FF1F80B500AF094B1B7818463F210222084BFFF7E0FC064B1B781B029AB2044B5B789BB21343F4
:401680009BB21BB2184680BD9282FF1F7C82FF1F80B584B000AFF860B9607A60154B1B78184643210622144BFFF7C2FC124B1B781B029AB2104B5B789BB213439AB2FB68FB
:4016C0001A800D4B9B781B029AB20B4BDB789BB213439AB2BB681A80074B1B791B029AB2054B5B799BB213439AB27B681A801037BD4680BD9282FF1F7C82FF1F80B582B00C
:4017000000AF0346FB71054B1A78FB7910466B210622FFF763FD0837BD4680BD9282FF1F80B584B002AF0346FB71064B1A78FB79009310466B2102220323FFF701FD0837C6
:40174000BD4680BD9282FF1F80B500AF03F06EF803461B680C2B00D1FEE7FEE780B584B000AF78600F4B1A687B6813441A460E4BD31A802B09DC0B4B1B68FB60094B1A68D6
:401780007B681344074A136007E003F04FF802460C2313604FF0FF33FB60FB6818461037BD4680BD2881FF1FC082FF1F80B586B000AF224B7B61224B3B61204B7B6135E01D
:4017C0003B691B68FB603B695B68BB603B699B683B6000237B600CE0FB681A68BB681A60BB680433BB60FB680433FB607B6804337B607A683B689A42EED13B69DB683B6036
:4018000000237B6008E0BB6800221A60BB680433BB607B6804337B607A683B689A42F2D13B6910333B617B69013B7B617B69002BC6D103F001F8FEF7BBFCFEE701000000D2
:401840001C54000080B582B000AF174B174A1A60174A174B1B6843F40073136000237B600FE07B68032B04D8124A7B6852F8233000E0114B11497A6841F822307B68013372
:401880007B607B682F2BECD90D4B1B78DAB20D4B1A700D4B094A1A6000F0B2F90B4B00221A600837BD4680BD0CED00E00004FA0514ED00E000000000491700000080FF1F06
:4018C000BC7600400481FF1F08ED00E00081FF1F80B582B000AF78603960786800213A6802F0DBFF0837BD4680BD00BF80B584B000AFF860B9607A60F868B9687A6802F073
:40190000C1FF1037BD4680BD80B483B000AF0346FB71FEE780B487B000AF7860396000233B6100237B6127E07B699B007A6813441B68BB60BB68FB73BB6823F0FF03BB6026
:4019400014E03B695B003A6813441B781A46BB68134419463B695B003A6813445B780B703B6901333B61FB7B013BFB73FB7B002BE7D17B6901337B617B69232BD4D91C3756
:40198000BD465DF8047B704780B582B000AF454B00221A80444B58221A70444B00221A80434B50221A70434B4D221A80424B18221A70424B40F65F121A80414B18221A70C9
:4019C000404841490422FFF791FF404B02221A704FF0402308221A703D4B03221A703D4B3D4A1278D2B21A703C4B08221A803C4B41F251221A800023FB7019237B6014E011
:401A0000FB785B00DAB2374B1B78DBB203F00103DBB21343DBB203F00303FB704FF4F07002F03AF87B68013B7B607B68002B02D0FB78032BE4D17B68002B02D10320FFF7EE
:401A400063FF294B4FF480721A80274B07221A70264B00221A70264B48221A70224B00221A70244B02221A70234B04221A70234A224B1B78DBB243F00F03DBB21370204A0D
:401A80001F4B1B78DBB243F00103DBB213701D4A1C4B1B78DBB263F07F03DBB213700837BD4680BD80400040824000408440004086400040884000408A4000408C400040D9
:401AC0008E40004000410040A00800480043004000420040A146004008010049224200402042004025420040044000400640004008400040014000400B400040A243004039
:401B0000A1430040A043004080B483B000AF124B1B78FB71114AFB7903F00703DBB213700F4AFB791B09DBB213700E4B10221A700D4B04221A700D4B04221A700C4B202251
:401B40001A700C4B10221A700B4B44221A700C37BD465DF8047B7047CF0100496E5800406F5800400D5100401D510040C85A0040CB5A0040005B00407658004080B483B068
:401B800000AF0346FB71FB79012B0ED8FB79094A52F82330FA79074951F822201178FA790548825C0A43D2B21A700C37BD465DF8047B7047705300007853000080B483B041
:401BC00000AF0346FB71FB79012B10D8FB790A4A52F82330FA79084951F822201178FA790648825CD243D2B20A40D2B21A700C37BD465DF8047B70477053000078530000CD
:401C000080B586B000AF72B6504A504B1B78DBB243F00403DBB213700023FB7513E0FA7D13465B0013445B00494A13443B613B691A683B699B889BB210461946FFF748FEAF
:401C4000FB7D0133FB75FB7D082BE8D90023FB751CE0FA7D13469B0013445B003D4A1344FB60FB681B68BB60FB685B687B60FB681A7A5B7A1B0213437B807B88B8687968B7
:401C80001A46FFF733FEFB7D0133FB75FB7D002BDFD04FF090403049FFF73CFE2F4B0A221A702F4B40F203121A802E4A2D4B1B78DBB243F00203DBB213702B4A2A4B1B7817
:401CC000DBB243F00203DBB21370284A274B1B78DBB243F04003DBB21370254A244B1B78DBB243F01003DBB21370224822490822FFF7FCFD214822490A22FFF7F7FD2148F0
:401D000021490822FFF7F2FD204821490A22FFF7EDFD204A1F4B1B78DBB243F00803DBB213701D4B00221A70FFF72EFE1A4B80221A701A4B01221A70FFF7E6FE18480B49A3
:401D40000E22FFF7D3FD1837BD4680BDE84600407C530000B453000090000048835800404A5800400350014013500140A0430040C24300400251004078080048C051004079
:401D800080080048125100408C0800482051004094080048224300400048004004000840B043004080B483B000AF0346FB7101BE0C37BD465DF8047B704700BF80B582B012
:401DC00000AF786008E00C4B1B68184601F064FE7B68A3F500437B607B68B3F5004FF2D8064B1B687A6802FB03F3184601F054FE0837BD4680BD00BF3881FF1F3081FF1F7E
:401E000080B582B000AF0346FB80FB88044A127802FB03F3184601F03FFE0837BD4680BD3481FF1F80B584B000AF03463960FB710F4B1B68FB60FB791F2B02D90020FFF74F
:401E4000B1FFFB7903F01F0310339B00FA6813441B68BB60FB7903F01F0310339B00FA6813443A681A60BB6818461037BD4680BD08ED00E080B582B000AF03460A46FB71C0
:401E80001346BB71BB79072B02D90020FFF78AFFFB791F2B02D90020FFF784FFFB7903F01F0303F1604303F56443BA795201D2B21A700837BD4680BD80B582B002AF414B15
:401EC00001221A70404B00221A70102000F0E8FD102000F0CBFE1D200721FFF7CBFF3B4B04221A703A4B00221A703A4B00221A70394A394B1B78DBB243F01803DBB21370CE
:401F0000364B00221A70364B00221A70354B00221A70354B0A221A70344B00221A70344B00221A70334B12221A70334B13221A70324B00221A70324B14221A7001230093F9
:401F4000022048F66B514FF400420C2300F0B6FB02230093002049F2DA014FF40042102300F0ACFB03230093002049F2DA014FF40042102300F0A2FB04230093002049F26A
:401F8000DA014FF40042102300F098FB1D4A0D4B1B78DBB2013B1C499B000B449B7813701A4A084B1B78DBB2013B174931F823301380044B1B78DBB2184600F079F9BD4657
:401FC00080BD00BF3C81FF1F5482FF1F96580040975800409E580040075B004093580040885B0040895B004080580040815800408358004088580040895800408D580040BD
:40200000014E00400E4E00405882FF1F0C4E004080B582B000AF01F05EFD0346FB71444B1B78BB71434A434B1B78DBB243F00103DBB213703F4A3F4B1B78DBB243F0100383
:40204000DBB213703C4A3C4B1B78DBB243F00103DBB21370384A384B1B78DBB243F01003DBB21370354A354B1B78DBB243F00203DBB21370324A324B1B78DBB243F00203A9
:40208000DBB213702F4A2F4B1B78DBB243F00303DBB213700320FFF7B3FE284A274B1B78DBB223F00203DBB21370254A244B1B78DBB223F00203DBB21370234A224B1B782B
:4020C000DBB243F00603DBB21370204B7A221A701F4A1F4B1B78DBB243F00103DBB213701C4A1C4B1B78DBB243F00103DBB21370194A194B1B78DBB243F00203DBB21370D9
:40210000164A164B1B78DBB243F00203DBB21370134B4FF000521A60124B4FF000521A60FB79184601F0DBFC0837BD4680BD00BF3C81FF1FAA430040BA430040F84600400A
:40214000F9460040915800407758004082580040A1430040B1430040A2430040B243004080E200E000E100E080B500AF084B1B78002B09D1074B1B78DBB2002B01D1FFF7A5
:402180009BFE034B01221A70FFF742FF80BD00BF5682FF1F5782FF1F80B400AF054A054B1B78DBB243F00103DBB21370BD465DF8047B7047004E004080B485B000AF034605
:4021C000FB710E4B1B78DBB2002B03D00C4B1B78FB7305E00B4B1B78DBB203F00103FB73FB7B012B02D0FB79002BEAD0FB7B18461437BD465DF8047B704700BF5582FF1FB6
:402200005482FF1F014E004080B483B000AF224B1B78DBB203F00303FB70FB78012B0BD81E4B1B889BB27B607B681B041C4A128892B213437B6020E0FB78022B12D1174B02
:402240001B889BB27B607B681B04154A1278D2B213437B60134B1B78DBB21B027A6813437B600AE00E4B1B889BB27B600B4B1B889BB21B047A6813437B600B4B1B78DBB249
:40228000002B02D0094B00221A707B6818460C37BD465DF8047B7047144E0040124E0040104E0040114E00405582FF1F5482FF1F80B582B000AF0346FB71C34B00221A7022
:4022C000FB79012B66D1C14B38221A70C04B06221A70C04B08221A70BF4B00221A70BF4B00221A70BE4B1F221A70BE4B00221A70BD4B00221A70BD4B00221A70BC4B012214
:402300001A70BC4B14221A70BB4B05221A70BB4B16221A70BA4B00221A70BA4B44221A70B94B48221A70B94B01221A70B84B01221A70B84B11221A70B74B19221A70B74B45
:4023400097221A70522000F06FFAB54B58221A70B44B00221A70B44B05221A70B34B02221A70B34B00221A70B24B00221A70002000F0C6FAB04B40F233321A6012200121C1
:4023800000F0D2FA4A20012100F0B4FB1D20AB49FFF748FDFB79022B66D18C4B38221A708B4B04221A708B4B06221A708A4B00221A708A4B00221A70894B3F221A70894B94
:4023C00000221A70884B00221A70884B00221A70874B01221A70874B50221A70864B27221A70864B2C221A70854B00221A70854B55221A70844B5A221A70844B05221A70F7
:40240000834B01221A70834B11221A70824B19221A70824B97221A70442000F005FA804B58221A707F4B00221A707F4B05221A707E4B02221A707E4B00221A707D4B00220B
:402440001A70002000F05CFA7B4B4FF47A421A600820012100F068FA2520012100F04AFB1D207749FFF7DEFCFB79032B66D1574B38221A70564B04221A70564B06221A7025
:40248000554B00221A70554B00221A70544B3F221A70544B00221A70534B00221A70534B00221A70524B01221A70524B50221A70514B27221A70514B2C221A70504B002298
:4024C0001A70504B55221A704F4B5A221A704F4B05221A704E4B01221A704E4B11221A704D4B19221A704D4B97221A70442000F09BF94B4B58221A704A4B00221A704A4B9F
:4025000005221A70494B02221A70494B00221A70484B00221A70002000F0F2F9464B4FF47A421A600820012100F0FEF92520012100F0E0FA1D204349FFF774FCFB79042BF0
:4025400040F0A980214B38221A70214B04221A70204B06221A70204B00221A701F4B00221A701F4B3F221A701E4B00221A701E4B00221A701D4B00221A701D4B01221A70A4
:402580001C4B50221A701C4B27221A701B4B2C221A701B4B00221A701A4B55221A701A4B5A221A70194B05221A70194B01221A70184B11221A70184B19221A70174B9722D4
:4025C0001A70442040E000BF5582FF1F004E0040024E0040034E0040044E0040054E0040064E0040084E0040094E00400A4E0040144E0040845800408558004086580040F3
:40260000875800408A5800408B5800408C5800408E5800408F580040905800409158004094580040955800409A5800409B5800409C5800409D580040A082FF1FA128000044
:40264000AD280000B928000000F0EEF8134B58221A70134B00221A70124B05221A70124B02221A70114B00221A70114B00221A70002000F045F90F4B4FF47A421A600820F0
:40268000012100F051F92520012100F033FA1D200949FFF7C7FB0837BD4680BD94580040955800409A5800409B5800409C5800409D580040A082FF1FC528000090B587B0A4
:4026C00000AF0446084611461A462346FB710346BB800B467B801346BB7197F82830002B00F08A8097F82830042B00F28580FB79013B092B4AD801A252F823F02527000047
:402700008D2700008D270000252700008D2700008D2700003F270000592700008D27000073270000BB790F2B04D9364B1B78DBB2FB752EE0344B1B78DBB2FB7529E0BB7993
:402740000F2B04D9314B1B78DBB2FB7521E0304B1B78DBB2FB751CE0BB790F2B04D92D4B1B78DBB2FB7514E02B4B1B78DBB2FB750FE0BB790F2B04D9284B1B78DBB2FB75A4
:4027800007E0274B1B78DBB2FB7502E00023FB7500BFBA8897F917305B0113443B617B883A6902FB03F3FB60FB68DB0BBB82BB790D2B11D8BB8ABA79C2F10E021341BB82F9
:4027C00097F82830013BBA790132D1B2154A9B0013440A469A7007E097F82830013B114A9B0013440F229A7097F82830013B0D49BA8A21F8232002E00020FFF7D3FA1C375F
:40280000BD4690BD180100491C010049190100491D0100491A0100491E0100491B0100491F0100495882FF1F80B584B000AF0346FB7101F050F90346FB73164A154B1B7813
:40284000DBB243F00303DBB21370134A124B1B78DBB243F00303DBB21370104AFB7913700320FFF7CDFA0B4A0A4B1B78DBB223F00303DBB21370084A074B1B78DBB223F064
:402880000303DBB21370FB7B184601F028F91037BD4680BDF8460040F94600409258004080B400AFBD465DF8047B704780B400AFBD465DF8047B704780B400AFBD465DF851
:4028C000047B704780B400AFBD465DF8047B704780B582B000AF0023FB7106E0FB791846FFF76CF9FB790133FB71FB79012BF5D9024BFF221A700837BD4680BD3D81FF1FA4
:4029000080B582B000AF0346FB71FFF7E1FFFB791846FFF733F9034AFB7913700837BD4680BD00BF3D81FF1F80B584B000AF03460A46FB8013467B7100F0CCF80346FB73C8
:4029400000F0A2F80346BB81FA88BB899A4200F08780454B1B78DBB203F00203FB72FB7B002B20D1BB89002B02D0FB88002B1AD1BB89002B0BD13D4AFB8813803C4A3C4B39
:402980001B78DBB223F04003DBB2137068E0384A374B1B78DBB243F04003DBB21370334AFB8813805CE0FB7A002B33D0314B00221A70314B02221A70304B00221A70304A3A
:4029C0002F4B1B78DBB203F07F03DBB21370284B1B78DBB203F00803002B02D0FB88002B18D1284ABB891380224B07221A7000BF204B1B78DBB203F00103002BF8D11A4A91
:402A0000194B1B78DBB223F00203DBB21370194B00221A70144B1B78DBB203F00203002B13D0184AFB881380124A7B79002B01D0032300E00123137000BF0E4B1B78DBB2AC
:402A400003F00103002BF8D10AE0084AFB8813800549054B1B78DAB2FB7A1343DBB20B701037BD4680BD00BFA243004084400040864000400140004010400040144000406F
:402A8000084000400240004080B400AF034B1B889BB21846BD465DF8047B70478440004080B483B000AF0346FB71094B084A1278D2B2D1B2FA7922F00702D2B20A43D2B216
:402AC000D2B21A700C37BD465DF8047B704700BF8640004080B400AF054B1B78DBB203F00703DBB21846BD465DF8047B704700BF8640004080B584B000AF03460A46FB8078
:402B000013467B7100F0CCF80346FB7300F0A2F80346BB81FA88BB899A4200F08780454B1B78DBB203F00103FB72FB7B002B20D1BB89002B02D0FB88002B1AD1BB89002B4E
:402B40000BD13D4AFB8813803C4A3C4B1B78DBB223F04003DBB2137068E0384A374B1B78DBB243F04003DBB21370334AFB8813805CE0FB7A002B33D0314B00221A70314B41
:402B800001221A70304B00221A70304A2F4B1B78DBB203F07F03DBB21370284B1B78DBB203F00803002B02D0FB88002B18D1284ABB891380224B07221A7000BF204B1B785D
:402BC000DBB203F00103002BF8D11A4A194B1B78DBB223F00103DBB21370194B00221A70144B1B78DBB203F00103002B13D0184AFB881380124A7B79002B01D0032300E0F0
:402C00000123137000BF0E4B1B78DBB203F00103002BF8D10AE0084AFB8813800549054B1B78DAB2FB7A1343DBB20B701037BD4680BD00BFA143004000410040024100407A
:402C4000014000401440004010400040084000400240004080B400AF034B1B889BB21846BD465DF8047B70470041004080B483B000AF0346FB71094B084A1278D2B2D1B215
:402C8000FA7922F00702D2B20A43D2B2D2B21A700C37BD465DF8047B704700BF0241004080B400AF054B1B78DBB203F00703DBB21846BD465DF8047B704700BF0241004005
:402CC00080B500AF134B02221A70134B81221A70124B08221A70124B0F221A70114B00221A70114B4FF400421A600F200721FFF7C1F80F200D49FFF795F80D4B10221A70AB
:402D00000C4B00221A700C4B00221A700B4B00221A7080BDD6490040C8490040CA490040DB490040DC49004080E100E0B12D0000A482FF1FB582FF1FA882FF1FA982FF1F39
:402D400080B582B000AF00F0C6FE0346FB710B4A0A4B1B78DBB243F00403DBB21370084A074B1B78DBB243F00403DBB21370FB79184600F0B4FE0837BD4680BDA543004097
:402D8000B543004080B500AF074B1B78002B04D1FFF796FF044B01221A70FFF7D1FF034B4FF400421A6080BD6882FF1F00E100E080B582B000AFA84B1B78FB71A74B1B78E5
:402DC000DBB203F04003DBB2002B00F0AC81FB7903F00103002B00F08381A04B1B78DBB2453B052B00F2788101A252F823F000BF092E0000312F0000D9300000D9300000A3
:402E0000092E00001F300000FB7923F02003FB71FB7903F00A03DBB2082B46D18F4B1B78DBB2452B3AD18E4B1B78DBB2002B0FD08C4A8D4B1B681B78DBB21370864B042268
:402E40001A708A4B01221A70844B46221A706EE0874B1B78DBB203F00203002B0FD0854B1B78DBB243F00A03DAB2824B1A707B4B60221A70804B4FF400421A6057E07F4A94
:402E80007E4B1B78DBB243F01003DBB213707C4B10221A70704B04221A7048E06E4B00221A706E4B4A221A701AE1FB7903F00A03DBB20A2B37D16F4B1B78DBB263F05F03E1
:402EC000DAB26C4B1A706A4B1B78DBB203F00203002B19D0614B1B78DBB203F00803002B01D0092300E00A23DAB2624B1B78DBB21343DAB25F4B1A70584B60221A705E4B5E
:402F00004FF400421A6012E05C4A5C4B1B78DBB243F01003DBB21370594B10221A704E4B04221A70DCE00020FEF73CFFD8E0D7E0FB7903F00203002B42D14C4B1B78DAB259
:402F4000474B1B78DBB29A4214D2464A464B1B6846490978C9B20B441B78DBB213703E4B04221A70414B1B78DBB20133DAB23F4B1A7053E03E4B1B78DBB203F00203002B04
:402F80000FD03C4B1B78DBB243F00A03DAB2394B1A70324B60221A70374B4FF400421A603CE0364A354B1B78DBB243F01003DBB21370334B10221A70274B04221A708FE04A
:402FC0002B4B1B78DBB203F00203002B0FD0294B1B78DBB263F06503DAB2264B1A701F4B60221A70244B4FF400421A6016E0234A224B1B78DBB243F01003DBB21370204BCE
:4030000010221A70144B04221A701A4B1B78DBB263F06F03DAB2174B1A7061E060E0194B1B68194A1278D2B213440E4A1278D2B21A70154B1B78DBB20133DAB2124B1A70BC
:40304000114B1B78DAB2114B1B78DBB29A421FD2014B10221A703EE0D7490040A482FF1FAA82FF1FD8490040AC82FF1FA982FF1FB482FF1FB582FF1F80E100E0D649004039
:40308000D9490040B082FF1FA882FF1FB682FF1F2C4B1B78DBB203F00203002B0FD02A4B1B78DBB243F00903DAB2274B1A70274B60221A70264B4FF400421A600BE0254A83
:4030C000244B1B78DBB243F01003DBB21370224B00221A7004E003E00020FEF763FE00BFFB7903F02003002B28D0184B1B78DBB203F00803002B01D0012300E00223DAB2F7
:40310000114B1B78DBB21343DAB20F4B1A70114A104B1B78DBB223F01003DBB213700B4B10221A700AE0094B1B78DBB203F01003DBB2002B02D1054B10221A700837BD46F2
:4031400080BD00BFB482FF1FB582FF1FA482FF1F80E100E0D6490040D749004080B485B000AF03460A46FB711346BB710223FB73244B1B78DBB2102B3CD1234B1B78DBB2CC
:4031800003F00803002B33D1204B4FF400421A60FB795B00FB71BB79002B07D0FB7943F00103FB71174B49221A7002E0154B45221A70174AFB791370134B01221A7000BF44
:4031C000144B1B78DBB203F00103002BF8D0114B1B78DBB203F00A03DBB20A2B05D1094B10221A700323FB7304E00023FB7301E00123FB73FB7B18461437BD465DF8047BD0
:40320000704700BFA482FF1FD949004080E100E0D8490040D749004080B485B000AF03460A46FB711346BB710223FB731F4B1B78DBB203F00403002B31D0FB795B00FB7150
:40324000BB79002B07D0FB7943F00103FB71184B49221A7002E0164B45221A70154AFB791370124B12221A70134B04221A7000BF114B1B78DBB203F00103002BF8D00E4B78
:403280001B78DBB203F00A03DBB20A2B05D1084B10221A700323FB7301E00023FB73FB7B18461437BD465DF8047B7047D9490040A482FF1FD8490040D749004080B483B0C6
:4032C00000AF0223FB71104B1B78DBB203F00403002B12D00C4B10221A700C4B04221A700B4B10221A7000BF084B1B78DBB203F02103002BF8D00023FB71FB7918460C3700
:40330000BD465DF8047B7047D9490040D7490040A482FF1F80B485B000AF0346FB710223FB73184B1B78DBB203F00403002B22D0154AFB791370154B04221A70144B4622D2
:403340001A7000BF114B1B78DBB203F00103002BF8D00E4B1B78DBB203F00203002B05D10B4B60221A700023FB7304E0084B60221A700323FB73FB7B18461437BD465DF8EB
:40338000047B7047D9490040D8490040D7490040A482FF1F80B485B000AF0346FB710023FB73174B1B78DBB203F00403002B1FD0144B1B78DBB2492B05D1134B00221A70A9
:4033C000104B4A221A7000BF0F4B1B78DBB203F00103002BF8D00D4B1B78FB73FB79002B03D0094B10221A7002E0064B60221A70FB7B18461437BD465DF8047B704700BFD3
:40340000D9490040A482FF1FD7490040D849004080B500AF204A204B1B78DBB203F00103DBB213701D4A1D4B1B78DBB223F00303DBB213701A4A1A4B1B78DBB223F03003FE
:40344000DBB21370164A164B1B78DBB243F03003DBB21370124A124B1B78DBB223F00F03DBB213700E4A0E4B1B78DBB243F00F03DBB213700B4A0B4B1B78DBB243F00103AF
:40348000DBB21370132000F053F8132000F062F8082000F03DF880BD004F0040024F00400B4F0040014F004080B400AF0D4A0D4B1B78DBB243F00103DBB213700A4A0A4B9B
:4034C0001B78DBB243F00103DBB21370074A074B1B78DBB243F00103DBB21370BD465DF8047B7047A3430040B3430040004F004080B500AF054B1B78002B04D1FFF788FF9E
:40350000024B01221A70FFF7CFFF80BD6982FF1F80B483B000AF0346FB71044AFB7913700C37BD465DF8047B704700BF034F004080B485B000AF0346FB80FB88FB81044A2C
:40354000FB8913801437BD465DF8047B704700BF044F004080B483B000AF0346FB80044AFB8813800C37BD465DF8047B704700BF064F004080B582B000AF786000F03CF894
:40358000786800F009F8072000F018F800F028F80837BD4680BD00BF80B485B000AF7860054B1B68FB60FB6884337A681A601437BD465DF8047B704708ED00E080B483B01C
:4035C00000AF0346FB71054AFB795B01DBB213700C37BD465DF8047B704700BF11E400E080B400AF034B4FF400321A60BD465DF8047B704700E100E080B400AF034B4FF4F0
:4036000000321A60BD465DF8047B704780E100E080B485B000AF0346FB710B4B1B78DBB223F00803FB730849FB79DB00DBB203F00803DAB2FB7B1343DBB20B701437BD4667
:403640005DF8047B704700BF0051004080B582B000AF0F4800F05CF80D4800F073F800F03AFA0346FB710B4A0A4B1B78DBB243F01003DBB21370FB79184600F030FA00F039
:403680006FF8012000F028F80837BD4680BD00BFFF356E019764004080B400AF054A054B1B78DBB263F07F03DBB21370BD465DF8047B70477464004080B500AF054B1B7862
:4036C000002B04D1FFF7C2FF024B01221A70FFF7E3FF80BD6A82FF1F80B483B000AF0346FB71044AFB7913700C37BD465DF8047B704700BF8764004080B400AF034B1B786B
:40370000DBB21846BD465DF8047B70476764004080B483B000AF7860034A7B6813600C37BD465DF8047B70472464004080B400AF034B1B681846BD465DF8047B704700BF7C
:403740004464004080B483B000AF7860034A7B6813600C37BD465DF8047B70470464004080B500AF01E0FFF7E1FFFFF7C5FF034603F00803002BF6D180BD00BF80B582B066
:4037800000AF786000F03CF8786800F009F8072000F018F800F028F80837BD4680BD00BF80B485B000AF7860054B1B68FB60FB6840337A681A601437BD465DF8047B7047EF
:4037C00008ED00E080B483B000AF0346FB71054AFB795B01DBB213700C37BD465DF8047B704700BF00E400E080B400AF034B01221A60BD465DF8047B704700BF00E100E0CA
:4038000080B400AF034B01221A60BD465DF8047B704700BF80E100E080B485B000AF0346FB710B4B1B78DBB223F00403FB730849FB799B00DBB203F00403DAB2FB7B134322
:40384000DBB20B701437BD465DF8047B704700BF0051004080B500AF054B1B78002B04D100F008F8024B01221A7000F023F880BD6B82FF1F80B400AF094B72221A70094B6A
:4038800020221A70084B06221A70084B47221A70074B00221A70BD465DF8047B704700BF8A6500408B6500402A6400403A6400408B64004080B582B000AF00F00CF9034618
:4038C000FB71104A0F4B1B78DBB243F02003DBB213700D4A0C4B1B78DBB243F01003DBB213700A4A094B1B78DBB243F01003DBB2137000F0B5F8FB79184600F0F0F808375A
:40390000BD4680BD9A6500409B6500409B64004080B483B000AF064B1B78DBB203F07F03FB71FB7918460C37BD465DF8047B70476B65004080B483B000AF0023FB710C4B72
:403940001B78BB71BB7903F02003002B09D0094B1B78FB71BB7903F01E03002B01D00023FB71FB7918460C37BD465DF8047B70476B6500404965004080B400AF034B1B78AF
:40398000DBB21846BD465DF8047B70476B64004080B483B000AF0346FB7100BF074B1B78DBB203F00403002BF8D1054AFB7913700C37BD465DF8047B704700BF6B640040B0
:4039C0004B64004080B582B000AF786000F03CF8786800F009F8072000F018F800F028F80837BD4680BD00BF80B485B000AF7860054B1B68FB60FB6848337A681A601437DD
:403A0000BD465DF8047B704708ED00E080B483B000AF0346FB71054AFB795B01DBB213700C37BD465DF8047B704700BF02E400E080B400AF034B04221A60BD465DF8047B2B
:403A4000704700BF00E100E080B400AF034B04221A60BD465DF8047B704700BF80E100E080B400AF094A094B1B78DBB243F00403DBB21370064A064B1B78DBB243F00403C1
:403A8000DBB21370BD465DF8047B7047A2430040B243004000000000142816D902B4012114381049097811F0C001890904B40E4A515C04BC00BF00BF00BF8841FDD500BF7D
:403AC00000BF02BC704700BF00BF70F10400FCD570470B050709EFF3108072B6704780F31088704700480040D23A0000AFF3008081F0004102E000BF83F0004330B54FEA17
:403B000041044FEA430594EA050F08BF90EA020F1FBF54EA000C55EA020C7FEA645C7FEA655C00F0E2804FEA5454D4EB5555B8BF6D420CDD2C4480EA020281EA030382EAAD
:403B4000000083EA010180EA020281EA0303362D88BF30BD11F0004F4FEA01314FF4801C4CEA113102D0404261EB410113F0004F4FEA03334CEA133302D0524263EB430335
:403B800094EA050F00F0A780A4F10104D5F1200E0DDB02FA0EFC22FA05F2801841F1000103FA0EF2801843FA05F359410EE0A5F120050EF1200E012A03FA0EFC28BF4CF073
:403BC000020C43FA05F3C01851EBE37101F0004507D54FF0000EDCF1000C7EEB00006EEB0101B1F5801F1BD3B1F5001F0CD349085FEA30004FEA3C0C04F101044FEA445233
:403C000012F5800F80F09A80BCF1004F08BF5FEA500C50F1000041EB045141EA050130BD5FEA4C0C404141EB010111F4801FA4F10104E9D191F0000F04BF01460020B1FA6F
:403C400081F308BF2033A3F10B03B3F120020CDA0C3208DD02F1140CC2F10C0201FA0CF021FA02F10CE002F11402D8BFC2F1200C01FA02F120FA0CFCDCBF41EA0C0190404E
:403C8000E41AA2BF01EB0451294330BD6FEA04041F3C1CDA0C340EDC04F11404C4F1200220FA04F001FA02F340EA030021FA04F345EA030130BDC4F10C04C4F1200220FA38
:403CC00002F001FA04F340EA0300294630BD21FA04F0294630BD94F0000F83F4801306BF81F480110134013D4EE77FEA645C18BF7FEA655C29D094EA050F08BF90EA020FD5
:403D000005D054EA000C04BF1946104630BD91EA030F1EBF0021002030BD5FEA545C05D14000494128BF41F0004130BD14F580043CBF01F5801130BD01F0004545F0FE41E2
:403D400041F470014FF0000030BD7FEA645C1ABF194610467FEA655C1CBF0B46024650EA013406BF52EA033591EA030F41F4002130BD00BF90F0000F04BF0021704730B5D6
:403D80004FF4806404F132044FF000054FF0000150E700BF90F0000F04BF0021704730B54FF4806404F1320410F0004548BF40424FF000013EE700BF42004FEAE2014FEA4D
:403DC00031014FEA02701FBF12F07F4393F07F4F81F06051704792F0000F14BF93F07F4F704730B54FF4607401F0004521F0004120E700BF50EA010208BF704730B54FF085
:403E000000050AE050EA010208BF704730B511F0004502D5404261EB41014FF4806404F132045FEA915C3FF4DCAE4FF003025FEADC0C18BF03325FEADC0C18BF033202EBD6
:403E4000DC02C2F1200300FA03FC20FA02F001FA03FE40EA0E0021FA02F11444C1E600BF70B54FF0FF0C4CF4E06C1CEA11541DBF1CEA135594EA0C0F95EA0C0F00F0DEF8E0
:403E80002C4481EA030621EA4C5123EA4C5350EA013518BF52EA033541F4801143F4801338D0A0FB02CE4FF00005E1FB02E506F00042E0FB03E54FF00006E1FB03569CF004
:403EC000000F18BF4EF0010EA4F1FF04B6F5007F64F5407404D25FEA4E0E6D4146EB060642EAC62141EA55514FEAC52040EA5E504FEACE2EB4F1FD0C88BFBCF5E06F1ED860
:403F0000BEF1004F08BF5FEA500E50F1000041EB045170BD06F0004646EA010140EA020081EA0301B4EB5C04C2BFD4EB0C0541EA045170BD41F480114FF0000E013C00F3DD
:403F4000AB8014F1360FDEBF002001F0004170BDC4F10004203C35DA0C341BDC04F11404C4F1200500FA05F320FA04F001FA05F240EA020001F0004221F0004110EBD3708D
:403F800021FA04F642EB06015EEA430E08BF20EAD37070BDC4F10C04C4F1200500FA04F320FA05F001FA04F240EA020001F0004110EBD37041F100015EEA430E08BF20EA15
:403FC000D37070BDC4F1200500FA05F24EEA020E20FA04F301FA05F243EA020321FA04F001F0004121FA04F220EA020000EBD3705EEA430E08BF20EAD37070BD94F0000F10
:404000000FD101F00046400041EB010111F4801F08BF013CF7D041EA060195F0000F18BF704703F00046520043EB030313F4801F08BF013DF7D043EA0603704794EA0C0F81
:404040000CEA135518BF95EA0C0F0CD050EA410618BF52EA4306D1D181EA030101F000414FF0000070BD50EA410606BF1046194652EA430619D094EA0C0F02D150EA0136C3
:4040800013D195EA0C0F05D152EA03361CBF104619460AD181EA030101F0004141F0FE4141F470014FF0000070BD41F0FE4141F4780170BD70B54FF0FF0C4CF4E06C1CEA5D
:4040C00011541DBF1CEA135594EA0C0F95EA0C0F00F0A7F8A4EB050481EA030E52EA03354FEA013100F088804FEA03334FF0805545EA131343EA12634FEA022245EA111538
:4041000045EA10654FEA00260EF000419D4208BF964244F1FD0404F5407402D25B084FEA3202B61A65EB03055B084FEA32024FF480104FF4002CB6EB020E75EB030E22BFFB
:40414000B61A754640EA0C005B084FEA3202B6EB020E75EB030E22BFB61A754640EA5C005B084FEA3202B6EB020E75EB030E22BFB61A754640EA9C005B084FEA3202B6EB05
:40418000020E75EB030E22BFB61A754640EADC0055EA060E18D04FEA051545EA16754FEA06164FEAC30343EA52734FEAC2025FEA1C1CC0D111F4801F0BD141EA00014FF084
:4041C00000004FF0004CB6E711F4801F04BF01430020B4F1FD0C88BFBCF5E06F3FF6AFAEB5EB030C04BFB6EB020C5FEA500C50F1000041EB045170BD0EF0004E4EEA1131CA
:4042000014EB5C04C2BFD4EB0C0541EA045170BD41F480114FF0000E013C90E645EA060E8DE60CEA135594EA0C0F08BF95EA0C0F3FF43BAF94EA0C0F0AD150EA01347FF4DA
:4042400034AF95EA0C0F7FF425AF104619462CE795EA0C0F06D152EA03353FF4FDAE1046194622E750EA410618BF52EA43067FF4C5AE50EA41047FF40DAF52EA43057FF4C9
:40428000EBAE12E74FEA4102B2F1E04324BFB3F5001CDCF1FE5C0DD901F0004C4FEAC0024CEA5070B2F1004F40EB830008BF20F00100704711F0804F21D113F13872BCBF2E
:4042C00001F00040704741F480114FEA5252C2F11802C2F1200C10FA0CF320FA02F018BF40F001004FEAC1234FEAD32303FA0CFC40EA0C0023FA02F34FEA4303CCE77FEA36
:40430000625307D150EA01331EBF4FF0FE4040F44000704701F0004040F0FE4040F40000704700BF80F0004002E000BF81F0004142001FBF5FEA410392EA030F7FEA226C7F
:404340007FEA236C6AD04FEA1262D2EB1363C1BFD218414048404140B8BF5B42192B88BF704710F0004F40F4000020F07F4018BF404211F0004F41F4000121F07F4118BF08
:40438000494292EA030F3FD0A2F1010241FA03FC10EB0C00C3F1200301FA03F100F0004302D5494260EB4000B0F5000F13D3B0F1807F06D340084FEA310102F10102FE2A34
:4043C00051D2B1F1004F40EBC25008BF20F0010040EA03007047490040EB000010F4000FA2F10102EDD1B0FA80FCACF1080CB2EB0C0200FA0CF0AABF00EBC2505242184308
:40440000BCBFD0401843704792F0000F81F4000106BF80F400000132013BB5E74FEA41037FEA226C18BF7FEA236C21D092EA030F04D092F0000F08BF0846704790EA010F17
:404440001CBF0020704712F07F4F04D1400028BF40F00040704712F100723CBF00F50000704700F0004343F0FE4040F4000070477FEA226216BF08467FEA23630146420262
:4044800006BF5FEA412390EA010F40F4800070474FF0000304E000BF10F0004348BF40425FEA000C08BF704743F0964301464FF000001CE050EA010208BF70474FF0000386
:4044C0000AE000BF50EA010208BF704711F0004302D5404261EB41015FEA010C02BF84460146002043F0B64308BFA3F18053A3F50003BCFA8CF2083AA3EBC25310DB01FAF1
:4045000002FC634400FA02FCC2F12002BCF1004F20FA02F243EB020008BF20F00100704702F1200201FA02FCC2F1200250EA4C0021FA02F243EB020008BF20EADC707047C4
:404540004FF0FF0C1CEAD0521EBF1CEAD15392EA0C0F93EA0C0F6FD01A4480EA010C400218BF5FEA41211ED04FF0006343EA501043EA5111A0FB01310CF00040B1F5000F51
:404580003EBF490041EAD3715B0040EA010062F17F02FD2A1DD8B3F1004F40EBC25008BF20F00100704790F0000F0CF0004C08BF49024CEA502040EA51207F3AC2BFD2F1EA
:4045C000FF0340EAC250704740F400004FF00003013A5DDC12F1190FDCBF00F000407047C2F10002410021FA02F1C2F1200200FA02FC5FEA310040F1000053EA4C0308BF60
:4046000020EADC70704792F0000F00F0004C02BF400010F4000F013AF9D040EA0C0093F0000F01F0004C02BF490011F4000F013BF9D041EA0C018FE70CEAD15392EA0C0F01
:4046400018BF93EA0C0F0AD030F0004C18BF31F0004CD8D180EA010000F00040704790F0000F17BF90F0004F084691F0000F91F0004F14D092EA0C0F01D142020FD193EA76
:404680000C0F03D14B0218BF084608D180EA010000F0004040F0FE4040F40000704740F0FE4040F4400070474FF0FF0C1CEAD0521EBF1CEAD15392EA0C0F93EA0C0F69D052
:4046C000A2EB030280EA010C49024FEA402037D04FF0805343EA111143EA10130CF000408B4238BF5B0042F17D024FF4000C8B4224BF5B1A40EA0C00B3EB510F24BFA3EBEF
:40470000510340EA5C00B3EB910F24BFA3EB910340EA9C00B3EBD10F24BFA3EBD10340EADC001B0118BF5FEA1C1CE0D1FD2A3FF650AF8B4240EBC25008BF20F001007047B4
:404740000CF0004C4CEA50207F32C2BFD2F1FF0340EAC250704740F400004FF00003013A37E792F0000F00F0004C02BF400010F4000F013AF9D040EA0C0093F0000F01F0F4
:40478000004C02BF490011F4000F013BF9D041EA0C0195E70CEAD15392EA0C0F08D142027FF47DAF93EA0C0F7FF470AF084676E793EA0C0F04D14B023FF44CAF08466EE709
:4047C00030F0004C18BF31F0004CCAD130F000427FF45CAF31F000437FF43CAF5FE700BF4FEA4002B2F1FE4F0FD34FF09E03B3EB12620DD94FEA002343F0004310F0004F81
:4048000023FA02F018BF404270474FF00000704712F1610F01D1420205D110F0004008BF6FF0004070474FF000007047014B1868704700BFA081FF1F0E4B70B51E460E4CF4
:404840000025E41AA410A54204D056F8253098470135F8E700F0D0FD084B094C1E46E41AA4100025A54204D056F8253098470135F8E770BD045400000454000004540000E8
:404880000C54000010B5431E0A44914204D011F8014B03F8014FF8E710BD03460244934202D003F8011BFAE7704700000EB400B54FF402719CB0ADF814106FF000410491D5
:4048C00007914FF6FF711DABADF81610084953F8042B02900690086802A9019300F084F8029B00221A701CB05DF804EB03B07047A081FF1F034613F8012B002AFBD1181A20
:404900000138704770B5A2B1451E01396B7811F8014F6E1CA34206D16FF00104641B1444E04202D11C46181B70BD3546002BEDD1F8E7104670BD2DE9F0478E688246B34238
:404940000C469046994640D38A8912F4906F3AD02568096902236F1A656905EB450595FBF3F57B1C4B449D4238BF1D4653050FD5294600F02FFB064698B121693A46FFF715
:4049800081FFA38923F4906343F08003A38113E02A4600F075FB064670B95046216900F0D5FA0C23CAF80030A3894FF0FF3043F04003A381BDE8F08726613E4426604E46BC
:4049C0006561ED1BA560B14500D24E4632462068414600F09FFAA36800209B1BA36023681E442660BDE8F0872DE9F0439DB003938B8906461C060D4690460CD50B6953B9CD
:404A0000402100F0E7FA2860286110B90C233360CCE040236B610023099320238DF8293030238DF82A3043461C4613F8012B1AB9B4EB08090FD002E0252AF5D1F8E73046EB
:404A4000294642464B46FFF776FF013000F0A980099B4B4409932378002B00F0A28000234FF0FF3204930793059206938DF853301A9304F101084446DFF84891217848464A
:404A8000052200F039FA08F10108049B30B1C9EB00000122824013430493ECE7D80644BF20228DF85320190744BF2B228DF8532022782A2A02D0079923460EE0039A0134C5
:404AC000111D12680391002ABBBF524243F0020307920792B8BF04930AE01C4622780133303A092A03D80A2000FB0121F5E7079123782E2B1AD163782A2B0AD1039B0234BF
:404B00001A1D1B680392002BB8BF4FF0FF3305930CE0611C00220C4623780131303B092B03D80A2000FB0232F5E70592DFF8988021784046032200F0DFF938B1049AC8EB56
:404B400000004023834013430493013421781A48062204F101088DF8281000F0CDF988B1164B33B9039B073323F007030833039313E003AB0093304604A92A46104BAFF349
:404B8000008007E003AB0093304604A92A460C4B00F092F8421C074603D0099B3B44099341E7AB895B0601D4099801E04FF0FF301DB0BDE8F08300BFCC5300000000000067
:404BC00037490000C2530000C85300002DE9F84391461F468A680B6906469342B8BF1346C9F8003091F843200C46DDF8208012B10133C9F800302368990642BFD9F8003069
:404C00000233C9F80030256815F006051CD094F843302268003318BF012392061FD5E118302081F843005A1C94F845102244023382F8431013E03046394604F119020123A2
:404C4000C047013007D00135E368D9F800209B1A9D42F0DBDBE74FF0FF30BDE8F8833046394604F14302C0470130F4D02268D9F80050E36802F00602042A08BF5D1B2269F1
:404C8000A3680CBF25EAE57500259342C4BF9B1AED184FF00009A9450ADA3046394604F11A020123C0470130D5D009F10109F2E70020BDE8F88300002DE9FF410C4617463B
:404CC000227E98466E2A06460A9B01F1430100F0B08012D8632A23D00AD8002A00F0BD80582A40F0CC8084F84520DFF804E257E0642A1ED0692A1CD0C1E0732A00F0B18087
:404D000009D86F2A2ED0702A40F0B980226842F0200222603FE0752A24D0782A3BD0AEE01A6804F14205111D1960136884F84230A9E020681A6810F0800F02D0101D186044
:404D400008E010F0400F02F10400186002D0B2F9003000E01368002B3EDA2D225B4284F8432039E020681A6810F0800F02D0101D186007E010F0400F02F10400186001D0D8
:404D8000138800E01368227EDFF864E16F2A0CBF08220A221CE07822DFF858E184F845202268186812F0800F00F104051D6003D1550601D5038800E00368D00744BF42F007
:404DC000200222601BB9226822F0200222601022002084F8430002E0DFF814E10A226568002DA8BF2068A560A4BF20F00400206003B965B10D46B3FBF2F002FB10331EF820
:404E0000033005F8013D03460028F4D100E00D46082A0BD12368DA0708D5236962689A42DEBF302305F8013C05F1FF35491B21612EE025681A6815F0800F606903D0151D59
:404E40001D60136808E015F0400F02F104051D60136801D0188000E01860002323610D4616E01A68111D1960156800212846626800F042F808B1401B6060636804E004F1B8
:404E8000420584F8422001232361002384F84330CDF800803046214603AA3B46FFF796FE013002D14FF0FF301FE0304639462A462369C0470130F5D023689B0705D4E0688C
:404EC000039B9842B8BF18460FE00025E368039A9B1A9D42F3DA3046394604F119020123C0470130DED00135F0E704B0BDE8F081D3530000E453000010B5C9B2024490426D
:404F0000034605D01C7801308C42F8D1184610BD002010BD814210B501EB020301D3421E0BE09842FBD28118D21AD34204D013F8014D01F8014DF8E710BD994204D011F82E
:404F4000014B02F8014FF8E710BD000030B500293CD051F8042C0B1F1D49002AB8BF9B180A680C4612B95A600B6030BD93420DD219685818904201BF5A5852181A60426860
:404F800023605A6030BD994203D80A4651680029F9D1146815199D420AD11B682344D0188842136012D10868034413604B680CE002D90C23036030BD1C681819884201BF5D
:404FC00008684968001918605960536030BD00BF7482FF1F70B5CC1C24F0030408340C2C38BF0C24002C064603DA0C233360002070BD8C42F9D3204A136810461946A1B126
:405000000A68121B0ED40B2A03D90A608B188C501FE08B420BBF5A684A6802605A6018BF0B4616E00B464968E9E7144D2B681BB9304600F04BF828603046214600F046F8DB
:40504000421C0346D1D0C51C25F0030585420AD11C6003F10B001A1D20F00700821A0AD05142995070BD3046E91A00F02FF80130BBD02B46ECE770BD7482FF1F7082FF1F7F
:40508000F8B5074615460E4621B91146BDE8F840FFF7A0BF1AB9FFF759FF2846F8BD00F025F8A8420ED238462946FFF793FF044650B131462A46FFF7E5FB38463146FFF761
:4050C00045FF01E03046F8BD2046F8BD38B5064C0023054608462360FCF740FB431C02D1236803B12B6038BDB882FF1F51F8040C0028BEBF091851F8043CC01804387047DD
:405100000000000050536F4320354C503A204F2D5661630049324320576F726B696E670053544154453A2057414954000A2564207365636F6E64732072656D61696E696E55
:405140006700000053544154453A2044455343454E54000053544154453A204C414E44454400000053544154453A205245535552464143450000000054696C746564000083
:4051800053544154453A205245535552464143494E470000574154455220444554454354454400005452414E534D49540000000053595354454D5F434845434B00000000E2
:4051C0000A53544154453A2044455343454E44494E470A0053544154453A204C414E4445440A000053544154453A2056414355554D494E470A00000053544154453A20529E
:4052000045535552464143450A00000053544154453A205452414E534D49540A00000000536420766F6C20737563636565640000536420766F6C206661696C6564000000EE
:40524000666F726D61742053756363656564656400000000666F726D6174204661696C65640000007700000046696C6520000000776173206F70656E65640000777269744F
:4052800074656E20746F2066696C65004661696C656420746F2077726974650066696C65206E6F742063726561746564000000000A2D2D2D2D2D2D2D2D2D2D2D2D0A000018
:4052C000000000004000000014000000540000002564202564202564202020202000000072657365740000007374617274000000643A000064617461000000000A636F6DB9
:405300006D616E64733A200A30352C73746172740A30352C72657365740A30342C646174610A30352C64657074680000456E74657220646573697265642064657074683A28
:405340000000000053544154453A20574149545F544F5F4C41554E43480A00005472616E736D697474696E6720646174610A0000035B00402443004040000000C849004059
:405380001900004F00400C00305100404000F0510040100000000140001000140140000800400140000A004C01400002005001402000000060520040700800480600000076
:4053C0004300232D302B2000686C4C006566674546470030313233343536373839414243444546003031323334353637383961626364656600000000F8B500BFF8BC08BC93
:405400009E4670474D00000045180000F8B500BFF8BC08BC9E46704729000000305400000881FF1FA00000001801000000000000000000003F00000001000000010000005A
:4054400001000000746573745F312E7478740000C082FF1F00366E01C05D0000180000000000E02E01FF000000000000000000000000000000000000000000000000000005
:405480000000000000000000C053000000000000000000000000000000000000000000000000000000000000000000000000000000000000000000000000000000000000D9
:4054C00000000000000000004081FF1F00000000000000000000000000000000000000000000000000000000000000000000000000000000000000000000000000000000CD
:40550000000000000000000000000000000000000000000000000000000000000000000000000000000000000000000000000000000000000000000000000000000000006B
:40554000000000000000000000000000000000000000000000000000000000000000000000000000000000000000000000000000000000000000000000000000000000002B
:4055800000000000000000000000000000000000000000000000000000000000000000000000000000000000000000000000000000000000000000000000000000000000EB
:4055C00000000000000000000000000000000000000000000000000000000000000000000000000000000000000000000000000000000000000000000000000000000000AB
:020000040003F7
:0200000480007A
:40000000024F004002520040015A00400264004004650040280401400A050140330601401707014063080140400901406A0A0140390B0140020D0140281401400D1501407B
:4000400036160140151701406C18014048190140411A0140421B014003400140024101400942014007430140074401400745014009460140064701400A480140054901406D
:40008000134C01400B4D0140085001400251014001300A4B08200940CF04870D8B0F870D880F8A728B38405449FF4AFF4BFF4F01501852805A045B045D995F0160406240AA
:4000C00064406540668068806A806C806E80C051C9FFCAFFCBFFCD83CE03CF01D018DA04DD09DF01E040E240E440E540E680E880EA80EC80EE804101460148024C0270020C
:400100008B10D011D218E220EA02405149FF4AFF4BFF4D834E034F0150185A045D095F016040624064406540668068806A806C806E808E01AE01B601BE40C054C5ECC72046
:40014000C823C9FFCAFFCBFFCD83CE03CF01D018D401D604D804DA04DB04DD99DF01E040E240E440E540E680E880EA80EC80EE8002011002194041014601480249054C0248
:4001800051015201594563808340950297209E01A002C001C401D011D218D60BD80100560450060608520A041429150116161702182219011A101B021C042056241726284C
:4001C000283129032A0E2C062E5030403102320F34303640370138083A203E413F415409580459045B045F01800181C0872C880189248B088D2C8E019540972F98019924B7
:400200009D089F10A001A12CA511A78EA931AA01AB42AD2CB201B331B50FB7C1B980BB0CBE04C036C102C240C405C5BEC6FCC70DC81FC9FFCAFFCBFFCC22CEF0CF08D004FB
:40024000D440D804D904DA04DB04DF01E2C0E440E501E610E711E8C0E901EB11EC40ED01EE40EF01015003400428064007400A040C800E2810091180130214401540172AEE
:4002800018101D0C1E6A1F2820052208232825402780284829042A402F08308032083320372838293940400C41084240490A4A0A508852105D085E025F90601062106301D2
:4002C000640194059D06A608B010B201B420B602C07BC2E2C4FACA2FCC6ECE0FD007D20CD6F0D81E01E0046C0521060307020BEC0E4C0F0115881608170318311A0E23122D
:4003000024312504264627432A1330303110320F33E0344A350F38023A283E013F044004464049FF4A074BFF4C404D204EF04F055008580459045A045C025D025F016040F3
:4003400061A86240632081038314841C85538602870C880C89208A118C098E1093089420950A960397549814A410A553A704A810A980AA0CAB15B110B21FB30FB520B620CB
:40038000B7C0B980BB08BE40BF11C032C106C50BC6E0C7C0C829C9FFCAFFCBFFCEF0CF44D00CD401D804D904DA04DB04DC22DD22DF01E6C0EA40EB02010803010528070126
:4003C0000A040B200D080F08100811081610172019281A441D081F4020402114250427A929062C082E04320835083701384539203C203D083E024240450446044D204F0885
:40040000500852145310541056025C205E015F8885049780C0E5C266C466CA63CCC2CEEFD061D220D6F0E028EA029780B340404649FF4AFF4BFF4F0150185A045D095F01EA
:400440006040624064406540668068806A806C806E80C046C9FFCAFFCBFFCD83CE03CF01D018D280DA04DB04DD99DF01E040E240E440E540E680E880EA80EC80EE80428061
:40048000468048084C08740176809E80A008A401D081D224E602EA0138203E10404649FF4AFF4BFF4D834E034F01501858045A045D095F0160406240644065406680688029
:4004C0006A806C806E808201AA01B601BE40C046C5ECC702C813C9FFCAFFCBFFCD83CE03CF01D018D401D604D804DA04DB04DD99DF01E040E240E440E540E680E880EA8065
:40050000EC80EE800002100819401F1042804680480849064C0850085946634087409720C008C402D081D224D60BD801EC600121029F03C204C005020608070D08C009800B
:400540000A040B600CC00D0D0E01110D126015A216FF1748188019621B841CC01D0D1E02209021102240241F250D2620287F290D2A802D10330F35E036FF371039803B28C9
:400580003E4056025728580459045B045F018010840189888A408B628C018D028F1C9001940895CE9661980199CEA004A407A544A6D8A7A3A8A2AA08AC01B10EB2E0B3C0D6
:4005C000B530B63FB701B880BE40BF10C034C106C205C402C50CC70EC811C9FFCAFFCBFFCC62CDA0CEF0CF41D00CD804D904DA04DC20DD02DF01E640E702E910EA30EB108E
:40060000ED10EE10EF1200900102032004280502070209090A040EAA1140128813081729181019801F80204021502310251426C028202D902E042F803314361837413844BC
:4006400039083B903C803D283E01411443024510460848054B04530466086C146D526E066F417440770294289550960499029B289F42A108A21CA320A602A808AB01B08008
:40068000B310C0FFC2FEC47FCAF2CCF6CEFCD007D20CD840EC60004104F30518060C09080C1F0EE00F0410C3113C1342140C18FF197F1D101EE32008211C23612404250404
:4006C000288229672B182C1C2EE32F2330C0311F32103340340F362C373839083AA03B223E0456025712580459045B045C225D205F0184018701880197029F01AB02AC01B2
:40070000B001B302B701BF44D418D604D804D904DB04DC02DD20DF01000401800380071409200A100B821202131A1540180419961B401F03200A2120228A250827012820FA
:4007400029102B422F043080312032023688382839803F04450846A0470159045D0266A0674069406B1470947210730A87408C208F809180939C94049C209F14A405A70227
:40078000A810AE02B201B308C06DC20FC48FCA2FCC5DCE4ED682D8B0EA03EC0133183722CCF09F32A7083E105A028A019F12A708AF20CE20D640EA402004831096109F129A
:4007C000A708C810E220110114207B027F10C40CDC01DE011304910197209820B302C408EC01450286408B10910197209820AF04D001E0043D08910198209A40A502CE011C
:400800002202870296109F02A602A708B202B404C840E6408708A708AA10E640EA800D101040132014806320664079017C20910198209A40B102B504C201C40ED601D80202
:40084000DE03EC06128078407C808E8098C0AB30AD10C408DC01DE04E202000501010B010C05100511011B011C0500FB03C000002030000070000000000F0F0000001000BE
:40088000B00040B08000B00000000000807B7B00600004000400000602000000000000004A001801000000000000000000000000000000000000000000000000000000001F
:4008C00000000000000000000000000000000000000000000000000000000000000000000000000000000000000000000000000000000000000000000000000000000000F8
:4009000000000000000000000000000000000000000000000000000000000000000000000000000000000000000000000000000000000000000000000000000000000000B7
:400940000000000000000000000000000000000000000000000000000000000000000000000000000000000000000000000000000000000000000000000000000000000077
:400980000000000000000000000000000000000000000000000000000000000000000000000000000000000000000000000000000000000000000000000000000000000037
:0200000490006A
:0400000000004005B7
:0200000490105A
:04000000BC90ACAF55
:0200000490303A
:02000000993C29
:0200000490402A
:4000000000000000000000000000000000000000000000000000000000000000000000000000000000000000000000000000000000000000000000000000000000000000C0
:400040000000000000000000000000000000000000000000000000000000000000000000000000000000000000000000000000000000000000000000000000000000000080
:400080000000000000000000000000000000000000000000000000000000000000000000000000000000000000000000000000000000000000000000000000000000000040
:4000C0000000000000000000000000000000000000000000000000000000000000000000000000000000000000000000000000000000000000000000000000000000000000
:0200000490501A
:0C00000000012E12706900012E3509A5C8
:00000001FF