:400000000080002011000000291100002911000080B500AF024A034B1B68136001F0B6F8BC760040FA46004010B5054C237833B9044B13B10448AFF300800123237010BDF4
:40004000B081FF1F00000000A8830000084B10B51BB108480849AFF300800848036803B910BD074B002BFBD0BDE81040184700BF00000000A8830000B481FF1F0881FF1F9B
:400080000000000080B400AF084B1B78084B1B78022B07D1074B01221A70074B1B680133054A1360BD465DF8047B7047034F00401881FF1FDA81FF1FCC81FF1F80B400AF24
:4000C0000A4B1B780A4B1B78022B07D0084B1B78032B03D0064B1B78042B02D1054B01221A70BD465DF8047B704700BF6D6400401881FF1FDB81FF1F80B400AFBD465DF898
:40010000047B704780B400AF094B1B78094B1B78012B08D1084B01221A70084B1B780133DAB2064B1A70BD465DF8047B704700BF676500401881FF1FDB81FF1FDD81FF1F4C
:40014000B0B5B2B002AF0023C7F8BC300023C7F8B8304FF00003C7F8AC304FF00003C7F8A8304FF00003C7F8B4304FF00003C7F8B03007F1580300221A60043300221A6031
:40018000043300221A60043300221A60043300221A600433C24B07F148040FCB07C42370002387F855300023A7F8A63000237B640023C7F8A03062B602F0DAFA01F0CAFCFE
:4001C00002F08CFEB74802F0CBFEB74803F06EF903F0E8F8B54B1B68DBB2184610210222002300F0C1FB00F0EDFB00F019FF00F023FFAF4800F034FD0020012100F062FC71
:40020000AC4800F02DFD4FF47A7001F0CDFA00F045FC01F0B7FC05F05FF8A74805F093FA0020A549092205F0B9F90346002B03D0A24800F015FD02E0A14800F011FD4FF41A
:40024000FA7001F0B1FA00F029FC9B4803F046FB0346002B03D19B4800F002FD02E09A4800F0FEFC4FF4FA7001F09EFA00F016FC9648974905F030F90246964B1A60954BED
:400280001B68002B27D0944800F0EAFC934800F0E7FC4FF4FA7001F087FA00F0FFFB8D4B1C688A4807F092FC0346204687491A4605F072FA0346002B03D0894800F0D0FC69
:4002C00002E0884800F0CCFC00F0E8FB4FF4FA7001F06AFA02E0844800F0C2FC7D4B1B68184682490E2205F057FA0020002100F0E9FB07F14803184600F0B2FC7C4B01223B
:400300001A7002F0E9FE02F0CDFF7A4802F046FF794803F033F9012001F044FC0346002B00F0A08001F066FC0346184607F020FA0346C7F8B430D7F8B40006F0A9FE02468E
:400340000B461046194654A3D3E9002306F0F4FE02460B461046194607F000F90346C7F8AC30664B1B78002B7CD0654B1B680E2B0BDC644B1B681846D7F8AC1007F044F93A
:4003800003461A465F4B1A6064E05D4B1B680F2B14D15C4B1B681846D7F8AC1007F034F903461A46574B1A60564B1B681846564907F0E6FA0346C7F8B0304BE0D7F8B0005C
:4003C0000F21D7F8AC2000F097FDC7F8B000D7F8B00007F071FB0346C7F8BC30D7F8BC0007F0C6F90346D7F8B000194607F00AF90346C7F8A830D7F8A800444907F00CFA26
:400400000346184607F058FB0346C7F8B8303B1D3C221846002107F0ACFBD7F8B40007F04BFB03469BB21BB23A1D009310463849D7F8BC20D7F8B83007F0A4FB254B1C6838
:400440003B1D184607F0C2FB02463B1D2046194605F0A2F9294B00221A70294B1B680133274A136000F020FE0346A7F89E3001233B641F4B1B78013B042B00F25B8201A28D
:4004800052F823F015050000CF050000C907000095080000110900008FC2F5285C8F4A3F7885000085000000F90000000C81FF1FAC830000BC8300003482FF1FC8830000D5
:4004C000D8830000E8830000FC8300001C81FF1F0C8400008892FF1F1084000018840000248400003484000044840000588400001881FF1FBD00000005010000DB81FF1F0C
:400500001481FF1FD481FF1F0000704100401C4668840000994B01221A60994B00221A60984B00221A60984B00221A80974B00221A70974B00221A70964B01221A70964BAC
:400540001B68002B0BD007F1580207F14403104692490A2200F0FEFC8F4B00221A60904B1B78002B32D00020002100F0ABFA00F095FA8C4B1B78C3F10F0307F16C021046C8
:4005800089491A4607F0FEFA07F16C03184600F067FB844B1B780F2B14D1804B02221A700020002100F08EFA00F078FA7F4800F057FB724B00221A60714B00221A60794B70
:4005C00009221A70764B00221A70B4E1B3E16F4B1B78002B00F0A680684B1B680E2B07DCB7F99E20674B1B681344664A136031E0624B1B680F2B13D1B7F99E20614B1B68B7
:400600001344604A13605F4B1B68694A82FB03121A44D210DB17D31A9AB25B4B1A8019E0594B1B881BB2184607F0A2F80446B7F99E30184607F09CF8034620460F211A463D
:4006400000F05AFC0346184607F036FA03469AB24D4B1A804C4B1B881BB244F62062934236DD4E4B03221A700020002100F02AFA00F014FA4F4800F0F3FA3B1D3C221846D1
:40068000002107F076FA3B1D4B4A1C4615460FCD0FC495E8070003C422800234130C2370464B1C683B1D184607F090FA02463B1D2046194605F070F8304B00221A60304BE4
:4006C00000221A602F4B00221A602F4B00221A802A4B1B680133294A1360294B1B6841F2873293421ADD002002F0A2FC2B4B01221A700020002100F0E5F900F0CFF930483F
:4007000000F0AEFA1D4B00221A601D4B00221A601C4B00221A601C4B00221A801B4B00221A702AE01E4B1B78002B26D03B1D3C221846002107F01DFAD7F8B40007F0BCF948
:4007400003469BB21BB23A1D009310461D49D7F8BC20D7F8B83007F015FA184B1C683B1D184607F033FA02463B1D2046194605F013F80B4B00221A70DDE0DCE01081FF1FB8
:40078000CC81FF1FD081FF1FD881FF1FDA81FF1FDC81FF1F1981FF1F3082FF1F1881FF1FDB81FF1FDD81FF1F808400009484000089888888A4840000B48400008892FF1FEA
:4007C000D08400006884000041F2883000F0ECFF012002F013FC0020002100F073F900F05DF9554800F03CFA3B1D3C221846002107F0BFF93B1D18460021282207F0B9F97D
:400800003B1D4E4A1C4615460FCD0FC495E80F0007C423804A4B1C683B1D184607F0D6F902463B1D2046194604F0B6FF41F2883000F0BAFF002002F0E1FB41F2883000F062
:40084000B3FF404B04221A700020002100F03AF900F024F93C4800F003FA3B1D18460021282207F086F93B1D384A1C4615460FCD0FC495E80F0084E80F00314B1C683B1D6D
:40088000184607F0A3F902463B1D2046194604F083FF50E02E4B1B78002B02D02D4800F0DFF9012002F060FD42F2107000F07CFF002002F059FD41F2883000F075FF214B44
:4008C00005221A700020002100F0FCF800F0E6F8214800F0C5F93B1D18460021282207F048F93B1D1D4A1C4615460FCD0FC495E80F0007C42370124B1C683B1D184607F041
:4009000065F902463B1D2046194604F045FF12E0134B1B68002B0CD007F1580207F14003104608490A2200F015FB0D4B00221A6001E000E000BFEEE4DC840000E884000070
:400940008892FF1F1881FF1F088500001C850000DC81FF1F3C8500004C850000588500003082FF1FAFF3008090B482B000AF0446084611461A462346FB710346BB710B466F
:400980007B7113463B710A4AFB791370094ABB791370094A7B791370084A3B791370084B08221A7000BF0837BD4690BC704700BFA492FF1FA992FF1FAA92FF1FA692FF1F77
:4009C000A392FF1F80B500AF2E4B00221A702E4B1B78012B06D92B4B1B7843F00803DAB2284B1A70294B1B78002B0AD0264B1B78012B06D1234B1B7843F00403DAB2214B6E
:400A00001A70322000F0D0FE214B1B78184600F0F1F84FF47A7000F0C7FE302000F0D8F841F2941000F0E2FE302000F0D1F841F2941000F0DBFE302000F0CAF8962000F0FC
:400A4000D5FE202000F0C4F80E4B1B7843F02003DBB2184600F07EF80E4B04221A7000F063F800F01BF80C4B02221A700A4B1B7843F00403DBB2184600F06CF800F018F867
:400A800000BF80BDA892FF1FAA92FF1FA692FF1FA392FF1FA592FF1FA792FF1F80B500AF012000F057F8022000F07EFE00BF80BD80B500AF022000F04DF8022000F074FEA6
:400AC00000BF80BD90B587B000AF03460A46FB711346BB71124B07F108040FCB84E80F00104B1B78BA799A4203D90E4B1B78013BBB71BB799B0007F11802134453F8103C93
:400B0000DAB2FB791344DBB2DBB263F07F03DBB2DBB2184600F01EF800BF1C37BD4690BD88850000AA92FF1F80B500AF084B1B7843F00403DAB2064B1A70054B1B7843F0A7
:400B40000803DBB2184600F005F800BF80BD00BFA592FF1F80B582B000AF0346FB71FB791846002100F012F800BF0837BD4680BD80B582B000AF0346FB71FB7918460121CD
:400B800000F004F800BF0837BD4680BD80B584B000AF03460A46FB711346BB71FB7923F00F03FB73FB791B01BB73FA7BBB791343DBB2184600F00CF8BA7BBB791343DBB27A
:400BC000184600F005F800BF1037BD4680BD00BF80B582B000AF0346FB71FB79184600F009F8FB79184600F01DF800BF0837BD4680BD00BF80B582B000AF0346FB71074B26
:400C00001978074B1A78FB791343DBB20846194600F046F800BF0837BD4680BDA492FF1FA392FF1F80B582B000AF0346FB71FB7943F00403DBB21846FFF7DCFF012000F0E2
:400C4000D5FDFB7923F00403DBB21846FFF7D2FF322000F0CBFD00BF0837BD4680BD00BF80B584B000AF78600023FB60786806F0ADFF0346FB720023FB6009E07A68FB6809
:400C800013441B781846FFF773FFFB680133FB60FA7AFB689A42F1D800BF1037BD4680BD80B582B000AF03460A46FB711346BB71FB791846002101F047FFBB79184602F082
:400CC0001FF801F0F1FF00BF0837BD4680BD00BF90B585B000AF3B600346FB710B46BB7113467B710023FB73FB791846002101F02BFFBB79184602F003F8FB7918460121B2
:400D000001F080FF07E03C68631C3B60012002F037F803462370FB7B5A1CFA731A467B79013B9A42EFDB002002F02AF803461A463B681A7001F0B8FF1437BD4690BD00BFE5
:400D400080B582B000AF03463A60FB710B46BB71FA79BB791046194601223B68FFF7B8FF0837BD4680BD00BF80B584B000AF3B600346FB710B46BB7113467B710023FB73C9
:400D8000FB791846002101F0DFFEBB79184601F0B7FF06E03B685A1C3A601B78184601F0AFFFFB7B5A1CFA737A799A42F2D801F07BFF1037BD4680BD80B582B000AF0346CD
:400DC000FB710B46BB7113467B71F979BA797B1D084611460122FFF7C7FF0837BD4680BD90B585B000AF0446084611461A462346FB710346BB710B467B7113463B713B79CD
:400E0000012202FA03F35A1E79793B79CB1A013302FA03F3FB73F979BA7907F10E03084611461A46FFF78CFF97F8202079793B79CB1A013302FA03F387F8203097F82020B4
:400E4000FB7B134087F82030FB7BDB43DAB2BB7BDBB21340DBB2DBB2BB73BA7B97F820301343DBB2BB73BB7BF979BA79084611461A46FFF7A1FF1437BD4690BD90B585B0AC
:400E800000AF0446084611461A462346FB710346BB710B467B7113463B71F979BA7907F10F03084611461A46FFF74AFF3B79002B0AD07B79012202FA03F3DAB2FB7BDBB264
:400EC0001343DBB2DBB20BE07B79012202FA03F3DBB2DB43DAB2FB7BDBB21340DBB2DBB2FB73FB7BF979BA79084611461A46FFF763FF1437BD4690BD80B584B000AFF860F6
:400F00000B467A607B81B7F90A30184606F030FC0346F868194606F033FD0346F868194606F070FB0346FB60B7F90A30184606F01FFC03467868194606F022FD0346F86846
:400F4000194606F061FB0346FB60FB6818461037BD4680BDB0B590B000AFF860B9607A603B600023FB632C4B07F124041D460FCD0FC495E8030020600434218002340B0C4A
:400F80002370264B07F110041D460FCD0FC42B682370BB681B78012B17D112E00AE0FB6B5A1CFA6307F14002134413F81C3C184602F062FA02F054FA034603F00803002BB8
:400FC000EDD1FB6B162BE9DD23E0BB681B78052B1FD13B681B68002B19D012E00AE0FB6B5A1CFA6307F14002134413F8303C184602F042FA02F034FA034603F00803002B78
:40100000EDD1FB6B102BE9DD3B6800221A600023FB634037BD46B0BDE88500000086000080B400AF034B68221A70BD465DF8047B704700BFA292FF1F80B500AF012000F018
:401040005FF8002000F008F8002000F019F8002000F044F880BD00BF80B584B002AF0346FB71064B1A78FB79009310461B2104220223FFF7B5FE0837BD4680BDA292FF1F90
:4010800080B584B002AF0346FB71064B1A78FB79009310461C2104220223FFF7A1FE0837BD4680BDA292FF1F80B500AF094B1B7818463F210222084BFFF70AFE064B1B7851
:4010C0001B029AB2044B5B789BB213439BB21BB2184680BDA292FF1F8C92FF1F80B582B000AF0346FB71054B1A78FB7910466B210622FFF7C3FE0837BD4680BDA292FF1FCC
:4011000080B584B002AF0346FB71064B1A78FB79009310466B2102220323FFF761FE0837BD4680BDA292FF1F80B500AF06F0EAFC03461B680C2B00D1FEE7FEE780B584B0DD
:4011400000AF78600F4B1A687B6813441A460E4BD31A802B09DC0B4B1B68FB60094B1A687B681344074A136007E006F0CBFC02460C2313604FF0FF33FB60FB681846103732
:40118000BD4680BD2881FF1F5893FF1F80B586B000AF224B7B61224B3B61204B7B6135E03B691B68FB603B695B68BB603B699B683B6000237B600CE0FB681A68BB681A60A5
:4011C000BB680433BB60FB680433FB607B6804337B607A683B689A42EED13B69DB683B6000237B6008E0BB6800221A60BB680433BB607B6804337B607A683B689A42F2D1BB
:401200003B6910333B617B69013B7B617B69002BC6D106F07DFCFEF793FFFEE7010000003C89000080B582B000AF174B174A1A60174A174B1B6843F40073136000237B6034
:401240000FE07B68032B04D8124A7B6852F8233000E0114B11497A6841F822307B6801337B607B682F2BECD90D4B1B78DAB20D4B1A700D4B094A1A6000F0AEF90B4B002232
:401280001A600837BD4680BD0CED00E00004FA0514ED00E000000000291100000080FF1FBC7600400481FF1F08ED00E00081FF1F80B582B000AF78603960786800213A68ED
:4012C00006F057FC0837BD4680BD00BF80B584B000AFF860B9607A60F868B9687A6806F03DFC1037BD4680BD80B483B000AF0346FB71FEE780B487B000AF7860396000238D
:401300003B6100237B6127E07B699B007A6813441B68BB60BB68FB73BB6823F0FF03BB6014E03B695B003A6813441B781A46BB68134419463B695B003A6813445B780B70D3
:401340003B6901333B61FB7B013BFB73FB7B002BE7D17B6901337B617B69242BD4D91C37BD465DF8047B704780B582B000AF454B00221A80444B58221A70444B00221A808B
:40138000434B50221A70434B4D221A80424B18221A70424B40F65F121A80414B18221A70404841490422FFF791FF404B02221A704FF0402308221A703D4B03221A703D4B91
:4013C0003D4A1278D2B21A703C4B08221A803C4B41F251221A800023FB7019237B6014E0FB785B00DAB2374B1B78DBB203F00103DBB21343DBB203F00303FB704FF4F070B9
:4014000002F00AF97B68013B7B607B68002B02D0FB78032BE4D17B68002B02D10320FFF763FF294B4FF480721A80274B07221A70264B00221A70264B48221A70224B0022B2
:401440001A70244B02221A70234B04221A70234A224B1B78DBB243F00F03DBB21370204A1F4B1B78DBB243F00103DBB213701D4A1C4B1B78DBB263F07F03DBB2137008370B
:40148000BD4680BD80400040824000408440004086400040884000408A4000408C4000408E40004000410040A40A00480043004000420040A146004008010049224200401B
:4014C0002042004025420040044000400640004008400040014000400B400040A2430040A1430040A043004080B483B000AF114B1B78FB71104AFB7903F00703DBB213704D
:401500000E4AFB791B09DBB213700D4B44F204021A800C4B21221A700B4B04221A700B4B04221A700A4B44221A700C37BD465DF8047B7047CF0100496E5800406F58004011
:401540001C510040DB5A0040005B0040585B00407658004080B483B000AF0346FB71FB79012B0ED8FB79094A52F82330FA79074951F822201178FA790548825C0A43D2B2B2
:401580001A700C37BD465DF8047B7047148600001C86000080B483B000AF0346FB71FB79012B10D8FB790A4A52F82330FA79084951F822201178FA790648825CD243D2B2CC
:4015C0000A40D2B21A700C37BD465DF8047B7047148600001C86000080B586B000AF72B6534A534B1B78DBB243F00403DBB213700023FB7513E0FA7D13465B0013445B003C
:401600004C4A13443B613B691A683B699B889BB210461946FFF74CFEFB7D0133FB75FB7D092BE8D90023FB751CE0FA7D13469B0013445B00404A1344FB60FB681B68BB6080
:40164000FB685B687B60FB681A7A5B7A1B0213437B807B88B86879681A46FFF737FEFB7D0133FB75FB7D012BDFD94FF090403349FFF740FE324B0A221A70324B40F2033252
:401680001A80314A304B1B78DBB243F00203DBB213702E4A2D4B1B78DBB243F00203DBB213702B4A2A4B1B78DBB243F04003DBB21370284A274B1B78DBB243F01003DBB273
:4016C0001370254825490822FFF700FE244825490A22FFF7FBFD244824490822FFF7F6FD234824490A22FFF7F1FD234823490822FFF7ECFD224A224B1B78DBB243F008038F
:40170000DBB213701F4B00221A70FFF72DFE1D4B80221A701C4B01221A70FFF7E5FE1B480B490E22FFF7D2FD1837BD4680BD00BFE8460040208600005C8600009400004815
:40174000835800404E5800400350014013500140A0430040C243004002510040740A0048C05100407C0A004812510040880A004820510040900A0048325100409C0A00488F
:40178000224300400048004004000840B043004080B483B000AF0346FB7101BE0C37BD465DF8047B704700BF80B582B000AF786008E00C4B1B68184601F02EFF7B68A3F5BC
:4017C00000437B607B68B3F5004FF2D8064B1B687A6802FB03F3184601F01EFF0837BD4680BD00BF3881FF1F3081FF1F80B582B000AF0346FB80FB88044A127802FB03F306
:40180000184601F009FF0837BD4680BD3481FF1F80B584B000AF03463960FB710F4B1B68FB60FB791F2B02D90020FFF7B1FFFB7903F01F0310339B00FA6813441B68BB6044
:40184000FB7903F01F0310339B00FA6813443A681A60BB6818461037BD4680BD08ED00E080B582B000AF03460A46FB711346BB71BB79072B02D90020FFF78AFFFB791F2B11
:4018800002D90020FFF784FFFB7903F01F0303F1604303F56443BA795201D2B21A700837BD4680BD80B582B002AF414B01221A70404B00221A70102000F0E8FD102000F035
:4018C000CBFE1D200721FFF7CBFF3B4B04221A703A4B00221A703A4B00221A70394A394B1B78DBB243F01803DBB21370364B00221A70364B00221A70354B00221A70354BD7
:401900000A221A70344B00221A70344B00221A70334B12221A70334B13221A70324B00221A70324B14221A7001230093022048F66B514FF400420C2300F0B6FB02230093DC
:40194000002049F2DA014FF40042102300F0ACFB03230093002049F2DA014FF40042102300F0A2FB04230093002049F2DA014FF40042102300F098FB1D4A0D4B1B78DBB2A4
:40198000013B1C499B000B449B7813701A4A084B1B78DBB2013B174931F823301380044B1B78DBB2184600F079F9BD4680BD00BF3C81FF1F4082FF1F96580040975800403E
:4019C0009E580040075B004093580040885B0040895B004080580040815800408358004088580040895800408D580040014E00400E4E00404482FF1F0C4E004080B582B0DB
:401A000000AF01F028FE0346FB71444B1B78BB71434A434B1B78DBB243F00103DBB213703F4A3F4B1B78DBB243F01003DBB213703C4A3C4B1B78DBB243F00103DBB213705E
:401A4000384A384B1B78DBB243F01003DBB21370354A354B1B78DBB243F00203DBB21370324A324B1B78DBB243F00203DBB213702F4A2F4B1B78DBB243F00303DBB21370C7
:401A80000320FFF7B3FE284A274B1B78DBB223F00203DBB21370254A244B1B78DBB223F00203DBB21370234A224B1B78DBB243F00603DBB21370204B7A221A701F4A1F4B60
:401AC0001B78DBB243F00103DBB213701C4A1C4B1B78DBB243F00103DBB21370194A194B1B78DBB243F00203DBB21370164A164B1B78DBB243F00203DBB21370134B4FF056
:401B000000521A60124B4FF000521A60FB79184601F0A5FD0837BD4680BD00BF3C81FF1FAA430040BA430040F8460040F9460040915800407758004082580040A143004016
:401B4000B1430040A2430040B243004080E200E000E100E080B500AF084B1B78002B09D1074B1B78DBB2002B01D1FFF79BFE034B01221A70FFF742FF80BD00BF4282FF1FF7
:401B80004382FF1F80B400AF054A054B1B78DBB243F00103DBB21370BD465DF8047B7047004E004080B485B000AF0346FB710E4B1B78DBB2002B03D00C4B1B78FB7305E0BC
:401BC0000B4B1B78DBB203F00103FB73FB7B012B02D0FB79002BEAD0FB7B18461437BD465DF8047B704700BF4182FF1F4082FF1F014E004080B483B000AF224B1B78DBB2DE
:401C000003F00303FB70FB78012B0BD81E4B1B889BB27B607B681B041C4A128892B213437B6020E0FB78022B12D1174B1B889BB27B607B681B04154A1278D2B213437B60C3
:401C4000134B1B78DBB21B027A6813437B600AE00E4B1B889BB27B600B4B1B889BB21B047A6813437B600B4B1B78DBB2002B02D0094B00221A707B6818460C37BD465DF8E1
:401C8000047B7047144E0040124E0040104E0040114E00404182FF1F4082FF1F80B582B000AF0346FB71C34B00221A70FB79012B66D1C14B38221A70C04B06221A70C04B9A
:401CC00008221A70BF4B00221A70BF4B00221A70BE4B1F221A70BE4B00221A70BD4B00221A70BD4B00221A70BC4B01221A70BC4B14221A70BB4B05221A70BB4B16221A70D9
:401D0000BA4B00221A70BA4B44221A70B94B48221A70B94B01221A70B84B01221A70B84B11221A70B74B19221A70B74B97221A70522000F06FFAB54B58221A70B44B0022E8
:401D40001A70B44B05221A70B34B02221A70B34B00221A70B24B00221A70002000F0C6FAB04B40F233321A601220012100F0D2FA4A20012100F0B4FB1D20AB49FFF748FDA7
:401D8000FB79022B66D18C4B38221A708B4B04221A708B4B06221A708A4B00221A708A4B00221A70894B3F221A70894B00221A70884B00221A70884B00221A70874B01224E
:401DC0001A70874B50221A70864B27221A70864B2C221A70854B00221A70854B55221A70844B5A221A70844B05221A70834B01221A70834B11221A70824B19221A70824B37
:401E000097221A70442000F005FA804B58221A707F4B00221A707F4B05221A707E4B02221A707E4B00221A707D4B00221A70002000F05CFA7B4B4FF47A421A6008200121FD
:401E400000F068FA2520012100F04AFB1D207749FFF7DEFCFB79032B66D1574B38221A70564B04221A70564B06221A70554B00221A70554B00221A70544B3F221A70544BE3
:401E800000221A70534B00221A70534B00221A70524B01221A70524B50221A70514B27221A70514B2C221A70504B00221A70504B55221A704F4B5A221A704F4B05221A704E
:401EC0004E4B01221A704E4B11221A704D4B19221A704D4B97221A70442000F09BF94B4B58221A704A4B00221A704A4B05221A70494B02221A70494B00221A70484B0022CE
:401F00001A70002000F0F2F9464B4FF47A421A600820012100F0FEF92520012100F0E0FA1D204349FFF774FCFB79042B40F0A980214B38221A70214B04221A70204B062286
:401F40001A70204B00221A701F4B00221A701F4B3F221A701E4B00221A701E4B00221A701D4B00221A701D4B01221A701C4B50221A701C4B27221A701B4B2C221A701B4BC1
:401F800000221A701A4B55221A701A4B5A221A70194B05221A70194B01221A70184B11221A70184B19221A70174B97221A70442040E000BF4182FF1F004E0040024E00404F
:401FC000034E0040044E0040054E0040064E0040084E0040094E00400A4E0040144E0040845800408558004086580040875800408A5800408B5800408C5800408E5800402B
:402000008F580040905800409158004094580040955800409A5800409B5800409C5800409D580040B092FF1F8D22000099220000A522000000F0EEF8134B58221A70134BDA
:4020400000221A70124B05221A70124B02221A70114B00221A70114B00221A70002000F045F90F4B4FF47A421A600820012100F051F92520012100F033FA1D200949FFF7DD
:40208000C7FB0837BD4680BD94580040955800409A5800409B5800409C5800409D580040B092FF1FB122000090B587B000AF0446084611461A462346FB710346BB800B4661
:4020C0007B801346BB7197F82830002B00F08A8097F82830042B00F28580FB79013B092B4AD801A252F823F011210000792100007921000011210000792100007921000075
:402100002B21000045210000792100005F210000BB790F2B04D9364B1B78DBB2FB752EE0344B1B78DBB2FB7529E0BB790F2B04D9314B1B78DBB2FB7521E0304B1B78DBB25E
:40214000FB751CE0BB790F2B04D92D4B1B78DBB2FB7514E02B4B1B78DBB2FB750FE0BB790F2B04D9284B1B78DBB2FB7507E0274B1B78DBB2FB7502E00023FB7500BFBA880A
:4021800097F917305B0113443B617B883A6902FB03F3FB60FB68DB0BBB82BB790D2B11D8BB8ABA79C2F10E021341BB8297F82830013BBA790132D1B2154A9B0013440A46B1
:4021C0009A7007E097F82830013B114A9B0013440F229A7097F82830013B0D49BA8A21F8232002E00020FFF7D3FA1C37BD4690BD180100491C010049190100491D01004930
:402200001A0100491E0100491B0100491F0100494482FF1F80B584B000AF0346FB7101F01AFA0346FB73164A154B1B78DBB243F00303DBB21370134A124B1B78DBB243F061
:402240000303DBB21370104AFB7913700320FFF7CDFA0B4A0A4B1B78DBB223F00303DBB21370084A074B1B78DBB223F00303DBB21370FB7B184601F0F2F91037BD4680BD00
:40228000F8460040F94600409258004080B400AFBD465DF8047B704780B400AFBD465DF8047B704780B400AFBD465DF8047B704780B400AFBD465DF8047B704780B582B0CC
:4022C00000AF0023FB7106E0FB791846FFF762F9FB790133FB71FB79012BF5D9024BFF221A700837BD4680BD3D81FF1F80B582B000AF0346FB71FFF7E1FFFB791846FFF759
:4023000029F9034AFB7913700837BD4680BD00BF3D81FF1F80B584B000AF03460A46FB8013467B7100F0CCF80346FB7300F0A2F80346BB81FA88BB899A4200F08780454B09
:402340001B78DBB203F00203FB72FB7B002B20D1BB89002B02D0FB88002B1AD1BB89002B0BD13D4AFB8813803C4A3C4B1B78DBB223F04003DBB2137068E0384A374B1B7812
:40238000DBB243F04003DBB21370334AFB8813805CE0FB7A002B33D0314B00221A70314B02221A70304B00221A70304A2F4B1B78DBB203F07F03DBB21370284B1B78DBB2F3
:4023C00003F00803002B02D0FB88002B18D1284ABB891380224B07221A7000BF204B1B78DBB203F00103002BF8D11A4A194B1B78DBB223F00203DBB21370194B00221A708D
:40240000144B1B78DBB203F00203002B13D0184AFB881380124A7B79002B01D0032300E00123137000BF0E4B1B78DBB203F00103002BF8D10AE0084AFB8813800549054B93
:402440001B78DAB2FB7A1343DBB20B701037BD4680BD00BFA24300408440004086400040014000401040004014400040084000400240004080B400AF034B1B889BB21846C7
:40248000BD465DF8047B70478440004080B483B000AF0346FB71094B084A1278D2B2D1B2FA7922F00702D2B20A43D2B2D2B21A700C37BD465DF8047B704700BF8640004001
:4024C00080B400AF054B1B78DBB203F00703DBB21846BD465DF8047B704700BF8640004080B584B000AF03460A46FB8013467B7100F0CCF80346FB7300F0A2F80346BB8163
:40250000FA88BB899A4200F08780454B1B78DBB203F00103FB72FB7B002B20D1BB89002B02D0FB88002B1AD1BB89002B0BD13D4AFB8813803C4A3C4B1B78DBB223F0400317
:40254000DBB2137068E0384A374B1B78DBB243F04003DBB21370334AFB8813805CE0FB7A002B33D0314B00221A70314B01221A70304B00221A70304A2F4B1B78DBB203F068
:402580007F03DBB21370284B1B78DBB203F00803002B02D0FB88002B18D1284ABB891380224B07221A7000BF204B1B78DBB203F00103002BF8D11A4A194B1B78DBB223F0CB
:4025C0000103DBB21370194B00221A70144B1B78DBB203F00103002B13D0184AFB881380124A7B79002B01D0032300E00123137000BF0E4B1B78DBB203F00103002BF8D19F
:402600000AE0084AFB8813800549054B1B78DAB2FB7A1343DBB20B701037BD4680BD00BFA1430040004100400241004001400040144000401040004008400040024000409B
:4026400080B400AF034B1B889BB21846BD465DF8047B70470041004080B483B000AF0346FB71094B084A1278D2B2D1B2FA7922F00702D2B20A43D2B2D2B21A700C37BD4693
:402680005DF8047B704700BF0241004080B400AF054B1B78DBB203F00703DBB21846BD465DF8047B704700BF0241004080B500AF134B02221A70134B81221A70124B082240
:4026C0001A70124B0F221A70114B00221A70114B4FF400421A600F200721FFF7C1F80F200D49FFF795F80D4B10221A700C4B00221A700C4B00221A700B4B00221A7080BD6E
:40270000D6490040C8490040CA490040DB490040DC49004080E100E09D270000B492FF1FC592FF1FB892FF1FB992FF1F80B582B000AF00F090FF0346FB710B4A0A4B1B7897
:40274000DBB243F00403DBB21370084A074B1B78DBB243F00403DBB21370FB79184600F07EFF0837BD4680BDA5430040B543004080B500AF074B1B78002B04D1FFF796FF02
:40278000044B01221A70FFF7D1FF034B4FF400421A6080BD5482FF1F00E100E080B582B000AFA84B1B78FB71A74B1B78DBB203F04003DBB2002B00F0AC81FB7903F0010388
:4027C000002B00F08381A04B1B78DBB2453B052B00F2788101A252F823F000BFF52700001D290000C52A0000C52A0000F52700000B2A0000FB7923F02003FB71FB7903F047
:402800000A03DBB2082B46D18F4B1B78DBB2452B3AD18E4B1B78DBB2002B0FD08C4A8D4B1B681B78DBB21370864B04221A708A4B01221A70844B46221A706EE0874B1B78F1
:40284000DBB203F00203002B0FD0854B1B78DBB243F00A03DAB2824B1A707B4B60221A70804B4FF400421A6057E07F4A7E4B1B78DBB243F01003DBB213707C4B10221A7058
:40288000704B04221A7048E06E4B00221A706E4B4A221A701AE1FB7903F00A03DBB20A2B37D16F4B1B78DBB263F05F03DAB26C4B1A706A4B1B78DBB203F00203002B19D0FB
:4028C000614B1B78DBB203F00803002B01D0092300E00A23DAB2624B1B78DBB21343DAB25F4B1A70584B60221A705E4B4FF400421A6012E05C4A5C4B1B78DBB243F010036E
:40290000DBB21370594B10221A704E4B04221A70DCE00020FEF73CFFD8E0D7E0FB7903F00203002B42D14C4B1B78DAB2474B1B78DBB29A4214D2464A464B1B6846490978DB
:40294000C9B20B441B78DBB213703E4B04221A70414B1B78DBB20133DAB23F4B1A7053E03E4B1B78DBB203F00203002B0FD03C4B1B78DBB243F00A03DAB2394B1A70324B55
:4029800060221A70374B4FF400421A603CE0364A354B1B78DBB243F01003DBB21370334B10221A70274B04221A708FE02B4B1B78DBB203F00203002B0FD0294B1B78DBB201
:4029C00063F06503DAB2264B1A701F4B60221A70244B4FF400421A6016E0234A224B1B78DBB243F01003DBB21370204B10221A70144B04221A701A4B1B78DBB263F06F03EB
:402A0000DAB2174B1A7061E060E0194B1B68194A1278D2B213440E4A1278D2B21A70154B1B78DBB20133DAB2124B1A70114B1B78DAB2114B1B78DBB29A421FD2014B102295
:402A40001A703EE0D7490040B492FF1FBA92FF1FD8490040BC92FF1FB992FF1FC492FF1FC592FF1F80E100E0D6490040D9490040C092FF1FB892FF1FC692FF1F2C4B1B7807
:402A8000DBB203F00203002B0FD02A4B1B78DBB243F00903DAB2274B1A70274B60221A70264B4FF400421A600BE0254A244B1B78DBB243F01003DBB21370224B00221A70E5
:402AC00004E003E00020FEF763FE00BFFB7903F02003002B28D0184B1B78DBB203F00803002B01D0012300E00223DAB2114B1B78DBB21343DAB20F4B1A70114A104B1B7870
:402B0000DBB223F01003DBB213700B4B10221A700AE0094B1B78DBB203F01003DBB2002B02D1054B10221A700837BD4680BD00BFC492FF1FC592FF1FB492FF1F80E100E0F9
:402B4000D6490040D749004080B485B000AF03460A46FB711346BB710223FB73244B1B78DBB2102B3CD1234B1B78DBB203F00803002B33D1204B4FF400421A60FB795B0096
:402B8000FB71BB79002B07D0FB7943F00103FB71174B49221A7002E0154B45221A70174AFB791370134B01221A7000BF144B1B78DBB203F00103002BF8D0114B1B78DBB2CB
:402BC00003F00A03DBB20A2B05D1094B10221A700323FB7304E00023FB7301E00123FB73FB7B18461437BD465DF8047B704700BFB492FF1FD949004080E100E0D8490040DD
:402C0000D749004080B485B000AF03460A46FB711346BB710223FB731F4B1B78DBB203F00403002B31D0FB795B00FB71BB79002B07D0FB7943F00103FB71184B49221A706F
:402C400002E0164B45221A70154AFB791370124B12221A70134B04221A7000BF114B1B78DBB203F00103002BF8D00E4B1B78DBB203F00A03DBB20A2B05D1084B10221A705C
:402C80000323FB7301E00023FB73FB7B18461437BD465DF8047B7047D9490040B492FF1FD8490040D749004080B483B000AF0223FB71104B1B78DBB203F00403002B12D0B1
:402CC0000C4B10221A700C4B04221A700B4B10221A7000BF084B1B78DBB203F02103002BF8D00023FB71FB7918460C37BD465DF8047B7047D9490040D7490040B492FF1F14
:402D000080B485B000AF0346FB710223FB73184B1B78DBB203F00403002B22D0154AFB791370154B04221A70144B46221A7000BF114B1B78DBB203F00103002BF8D00E4B64
:402D40001B78DBB203F00203002B05D10B4B60221A700023FB7304E0084B60221A700323FB73FB7B18461437BD465DF8047B7047D9490040D8490040D7490040B492FF1F3C
:402D800080B485B000AF0346FB710023FB73174B1B78DBB203F00403002B1FD0144B1B78DBB2492B05D1134B00221A70104B4A221A7000BF0F4B1B78DBB203F00103002BA0
:402DC000F8D00D4B1B78FB73FB79002B03D0094B10221A7002E0064B60221A70FB7B18461437BD465DF8047B704700BFD9490040B492FF1FD7490040D849004080B500AF1A
:402E0000204A204B1B78DBB203F00103DBB213701D4A1D4B1B78DBB223F00303DBB213701A4A1A4B1B78DBB223F03003DBB21370164A164B1B78DBB243F03003DBB21370E8
:402E4000124A124B1B78DBB223F00F03DBB213700E4A0E4B1B78DBB243F00F03DBB213700B4A0B4B1B78DBB243F00103DBB21370132000F053F8132000F062F8082000F009
:402E80003DF880BD004F0040024F00400B4F0040014F004080B400AF0D4A0D4B1B78DBB243F00103DBB213700A4A0A4B1B78DBB243F00103DBB21370074A074B1B78DBB28A
:402EC00043F00103DBB21370BD465DF8047B7047A3430040B3430040004F004080B500AF054B1B78002B04D1FFF788FF024B01221A70FFF7CFFF80BD5582FF1F80B483B077
:402F000000AF0346FB71044AFB7913700C37BD465DF8047B704700BF034F004080B485B000AF0346FB80FB88FB81044AFB8913801437BD465DF8047B704700BF044F00405B
:402F400080B483B000AF0346FB80044AFB8813800C37BD465DF8047B704700BF064F004080B582B000AF786000F03CF8786800F009F8072000F018F800F028F80837BD4692
:402F800080BD00BF80B485B000AF7860054B1B68FB60FB6884337A681A601437BD465DF8047B704708ED00E080B483B000AF0346FB71054AFB795B01DBB213700C37BD4693
:402FC0005DF8047B704700BF11E400E080B400AF034B4FF400321A60BD465DF8047B704700E100E080B400AF034B4FF400321A60BD465DF8047B704780E100E080B485B0EB
:4030000000AF0346FB71094B1B78DBB203F07F03FB730649FB79DB01DAB2FB7B1343DBB20B701437BD465DF8047B70471051004080B485B000AF0346FB710B4B1B78DBB219
:4030400023F00203FB730849FB795B00DBB203F00203DAB2FB7B1343DBB20B701437BD465DF8047B704700BF0051004080B582B000AF0F4800F05CF80D4800F073F800F04B
:40308000EAFA0346FB710B4A0A4B1B78DBB243F01003DBB21370FB79184600F0E0FA00F06FF8012000F028F80837BD4680BD00BFFFA50E009D64004080B400AF054A054B80
:4030C0001B78DBB263F07F03DBB21370BD465DF8047B70477B64004080B500AF054B1B78002B04D1FFF7C2FF024B01221A70FFF7E3FF80BD5682FF1F80B483B000AF03463C
:40310000FB71044AFB7913700C37BD465DF8047B704700BF8D64004080B400AF034B1B78DBB21846BD465DF8047B70476D64004080B483B000AF7860034A7B6813600C37FB
:40314000BD465DF8047B70472A64004080B400AF034B1B681846BD465DF8047B704700BF4A64004080B483B000AF7860034A7B6813600C37BD465DF8047B70470A64004096
:4031800080B500AF01E0FFF7E1FFFFF7C5FF034603F00803002BF6D180BD00BF80B582B000AF786000F03CF8786800F009F8072000F018F800F028F80837BD4680BD00BF2D
:4031C00080B485B000AF7860054B1B68FB60FB6840337A681A601437BD465DF8047B704708ED00E080B483B000AF0346FB71054AFB795B01DBB213700C37BD465DF8047BBD
:40320000704700BF00E400E080B400AF034B01221A60BD465DF8047B704700BF00E100E080B400AF034B01221A60BD465DF8047B704700BF80E100E080B582B000AF0F48AF
:4032400000F05CF80D4800F073F800F004FA0346FB710B4A0A4B1B78DBB243F01003DBB21370FB79184600F0FAF900F06FF8012000F028F80837BD4680BD00BFFF356E0179
:403280009765004080B400AF054A054B1B78DBB263F07F03DBB21370BD465DF8047B70477465004080B500AF054B1B78002B04D1FFF7C2FF024B01221A70FFF7E3FF80BD17
:4032C0005782FF1F80B483B000AF0346FB71044AFB7913700C37BD465DF8047B704700BF8765004080B400AF034B1B78DBB21846BD465DF8047B70476765004080B483B05B
:4033000000AF7860034A7B6813600C37BD465DF8047B70472465004080B400AF034B1B681846BD465DF8047B704700BF4465004080B483B000AF7860034A7B6813600C37AD
:40334000BD465DF8047B70470465004080B500AF01E0FFF7E1FFFFF7C5FF034603F00803002BF6D180BD00BF80B485B000AF0346FB710B4B1B78DBB223F02003FB73084954
:40338000FB795B01DBB203F02003DAB2FB7B1343DBB20B701437BD465DF8047B704700BF1051004080B500AF054B1B78002B04D100F008F8024B01221A7000F023F880BD08
:4033C0005882FF1F80B400AF094B72221A70094B20221A70084B06221A70084B47221A70074B00221A70BD465DF8047B704700BF88650040896500402764004037640040C9
:403400008664004080B582B000AF00F024F90346FB71104A0F4B1B78DBB243F02003DBB213700D4A0C4B1B78DBB243F01003DBB213700A4A094B1B78DBB243F01003DBB291
:40344000137000F081F8FB79184600F008F90837BD4680BD98650040996500409664004080B400AF034B1B78DBB21846BD465DF8047B70476664004080B483B000AF0346C3
:40348000FB7100BF074B1B78DBB203F00403002BF8D1054AFB7913700C37BD465DF8047B704700BF666400404664004080B582B000AF786000F03CF8786800F009F80720AD
:4034C00000F018F800F028F80837BD4680BD00BF80B485B000AF7860054B1B68FB60FB6848337A681A601437BD465DF8047B704708ED00E080B483B000AF0346FB71054A5E
:40350000FB795B01DBB213700C37BD465DF8047B704700BF02E400E080B400AF034B04221A60BD465DF8047B704700BF00E100E080B400AF034B04221A60BD465DF8047BCE
:40354000704700BF80E100E080B400AF094A094B1B78DBB243F00403DBB21370064A064B1B78DBB243F00403DBB21370BD465DF8047B7047A2430040B243004080B582B046
:4035800000AF786000F03CF8786800F009F8072000F018F800F028F80837BD4680BD00BF80B485B000AF7860054B1B68FB60FB684C337A681A601437BD465DF8047B7047E5
:4035C00008ED00E080B483B000AF0346FB71054AFB795B01DBB213700C37BD465DF8047B704700BF03E400E080B400AF034B08221A60BD465DF8047B704700BF00E100E0C2
:4036000080B400AF034B08221A60BD465DF8047B704700BF80E100E0142816D902B4012114381049097811F0C001890904B40E4A515C04BC00BF00BF00BF8841FDD500BF96
:4036400000BF02BC704700BF00BF70F10400FCD570470B050709EFF3108072B6704780F3108870470048004052360000AFF30080F0B505468DB0002800F0248100210C220D
:40368000684601F071FB00210C2203A801F06CFB0021142206A801F067FB002328460B9301F087FC00286C46C0F20C81284601F093FC2846694601F02FFD0028C0F2028114
:4036C000824B019903F1480218681E46884202D80C339342F8D1B388019F0B96B7FBF3F7384600F039F9BDF808100446C900784301F0B6FB202C4FEA4000B3680CD02130BE
:403700001A461446D218D11A8142FAD9241A5A1E22421DD0E4181BE01C4601301A460127D118824202D801370A46F9E70198B188C31A9A1AB2FBF1F0BDF808104001C90094
:4037400001F08EFBB36840005F433F1AADF81070019B47F6A7721B1B934201D801220EE0B3F5803F01D2042209E0B3F5800F01D2062204E0564A934294BF0B220C228DF866
:403780002020544A019E0693079402F1500017681146B74202D808328242F8D1621E0879D2184B79ADF8000000FB03F1B4FBF1FC01FB1C4EADF824C0B2FBF1FC01FB1C2104
:4037C000BEFBF3FEB1FBF3F18DF821E08DF82610B4FBF3FEB2FBF3F103FB1E4403FB1122013401328DF822408DF82720ADF828C0ADF8023001F034FD0446002862D0364BC6
:4038000000271A8A002101F0AFFA84F8BE719DF8212004F5DE7384F8BF21BDF824009DF8221000F4407001F03F01033341EA90015970BDF824105A1C5170531C9DF8202047
:403840005E1C5A709DF82620731C7270BDF828109DF8272001F4407102F03F0242EA91025A70581CBDF8283043700799023001F01DFB06F10800069901F018FB04F5FF7074
:403880004AF6552101F01CFB2846394622463B4601F00CFCB84214BF4FF0FF363E46204601F0F4FC76B94FF40073ADF80E300B9B0CA99B88284621F8243DCDF814D002F0A6
:4038C000ABF901E04FF0FF300DB0F0BD70860000FF03FB00B8860000C892FF1F10B5002101F08CFEBDE81040FFF7C2BE0C2802D0102805D102E001EB51007047480070470D
:4039000088007047036840689B685B6AB0FBF3F0704710B5046D836CE4B199421AD3E318994217D2013B99420CBF4FF0FF31013172B190F836300C2B02D0102B05D102E057
:403940000905090D03E089B201E021F070411160012010BD002010BD40F6F473984201D80C2070474FF6F473984294BF102020207047027F8368023902FB01307047431EF6
:40398000DBB21F2B13D92F2811D007D826280ED002D8222809D10AE02A3804E03A2804D33F2804D95B38022801D90120704700207047034638B30B2A01DD0B2200E0013A81
:4039C00000201CE0082809D191F808C0BCF1200F0DD04FF02E0C03F801CB08E038B991F800C0BCF1050F02D1ACF1200C04E011F800C0BCF1200F01D003F801CB01309042B4
:403A0000E0DB00221A7070472DE9F04788B005AE04460D463046114600229A469DF84490BDF84C80BDF8507000F01EFD08B1002413E020462946524600F00FFE044660B1C5
:403A4000129B31460093109A4B46CDF80480029700F0C6FF284601F02DFC204608B0BDE8F08710B59DF80C400394BDE8104000F0D9BD00002DE9F04F144E87B0109DDDF8D3
:403A800048809DF84440376800950194CDF8088005937F68934682468946B84732680C4BDDF814C09A420DD060B9504649465A46634610951194CDF8488007B0BDE8F04FD5
:403AC000FFF7CFBF07B0BDE8F08F00BF4081FF1F0887000070B5C37A04460B7010300D4601F0F2F9064604F10E0001F0EDF940EA0640686004F1120001F0E6F90004A86063
:403B000004F1180001F0E0F9064604F1160001F0DBF940EA0640E86004F11C0001F0BBF9286170BD2DE9F845038A04460E46924687692BB907F118002146626900F064FCB2
:403B400038465146224600F0E7FC0546204600F065FCD5B12B78C3B1E52BF1D095F80B80B8F10F0FECD018F00808E9D170692946B269FFF71EFF28463146FFF7ABFF238A70
:403B8000404601332382BDE8F8854FF0FF30BDE8F885022201F0C6BC2DE9F04790F8366005460C46304611469146FFF79FFEB5F81E80AB6A20FA08F89845824602D300200A
:403BC000BDE8F0876B8E05F118079844204641463A46FFF7DEFF204601F0C3FC18B14FF0FF30BDE8F087AA8BA168013A0AEA020A1FFA8AFA92450AEB01031AF8015001D0FC
:403C0000013309E0204608F101013A46FFF7C1FF204601F0A6FCA36818780C2E45EA002009D0202E0FD15D7840EA05409D7840EA0560BDE8F08719F0010F02D00009BDE80F
:403C4000F0870005000DBDE8F08700002DE9F34190F83630144603FB02F7828B8846D200511E0F40D71B0546B7FBF3F7002618E00E4B93F88030022B05D12846214601AA9D
:403C8000FFF747FE28B9284641462246FFF784FF0190019B0134A34205D10136B6B2013F1C46002FE4DC3046BDE8FC81C892FF1F2DE9F34105460E46144698461F681CE011
:403CC000114B93F88030022B05D12846214601AAFFF71FFE28B9284631462246FFF75CFF0190737B0BB100240BE0AA6B019B0132934204D81BB1013F1C46002FE0D1C8F82B
:403D000000702046BDE8FC81C892FF1F73B504680E4623681BB9FFF7F5FD013039E0FFF7F1FD236998423CBF4FF0FF3323612369B3F1FF3F04D12268013323616261E383B2
:403D40002169E28B451A954234BF2B4613463BB16069C918C018D21A60612161E283ED1A0DB9284615E002AB43F8045D31466269A068FFF79DFF6061019B21690246C91AF0
:403D80004D19256123B9A0683146FFF75FFFE08301987CBD13B502AC44F8043D2346FFF787FF019B002B18BF00201CBD2DE9F0410746884615461E460024384641462A460A
:403DC0000123FFF7E7FF30B1BA6B0134944201D80546F2E7002406B134602846BDE8F0812DE9F74F04460D461E461746002A00F0B98090F836001146FFF778FDB4F81EA0CB
:403E0000A36A20FA0AFA9A45814680F0AB80638E04F118089A44284651464246FFF7B9FE284601F09EFB6B7B002B40F09B80A38BAA68013B09EA03091FFA89F303EB02099B
:403E400026B9216C8F4203D2276401E0791C216494F8361010290AD0202911D1484601F01AF831460746484601F020F84EE0484601F02AF8B1B20746484601F021F845E072
:403E800028460092019301F015FA009A019B17F0010F13F802B01BD00BF00F0141EA06119954A28B013A934202D009F1010309E028460AF101014246FFF76BFE284601F098
:403EC00050FBAB681F7832093F0147EA1B171CE09E54A28B013A934202D009F1010309E028460AF101014246FFF753FE284601F038FBAB681A78310A02F00F0701F00F0156
:403F000022F00F024BEA07270A431A70284601F0D1F994F83630202B18D1B4F84620AAB9B4F84410284601F0FDFA284601F019FBA8684FF0FF3100F5F47000F0B7FF2846AB
:403F400001F0B8F94FF00103A4F84630E36BB3F1FF3F09D00FB10133E3632EB1E36B013BE36301E0012000E00020BDE8FE8F6FF07043FFF735BF70B5036D04460E4693B1B1
:403F8000002506E0AA1820463146531CFFF728FF0135236DA26C013B9D42F3D320463146AA18FFF7E4FF0023A3642365E364636570BD70B506460D461C460AB1FFF710FFCA
:403FC000304629462246BDE87040FFF7D0BF00002DE9F84504460E4615461F46002B36D01C4B93F88030022B31D190F8368011464046FFF77BFCB4F81CA00AF1FF3A2AEAAF
:40400000000A4FEACA0ABAFBF8FAAA44A8460EE0204631464246FFF7BFFD50B9A36C0BB9C4F84880E36C08F101080133E364D045EED9E36C5BB167653B685A6922B1204613
:4040400031462B46FFF7CCFE236D01332365BDE8F88500BFC892FF1F2DE9F8459846274B054693F880300F46022B1646846B19D1436D984503D0C36C0BB1FFF77CFFB8F1AE
:40408000000F0FD06B6D43450CD12B6DEA6C9A4204D9AC6C1C1901332B652CE028463946FFF769FF012E04F1010A01D9564505D92E6C012E01D9564500D90226344628461D
:4040C00039462246FFF768FD50B101345445F6D902240DE0284639462246FFF75DFD30B92846394622464346FFF772FF03E00134B442EFD300242046BDE8F885C892FF1F06
:40410000F8B507460E461546FFF7A6FF044628B1384631462A462346FFF74BFF2046F8BDB2F1FF3F73B504460D4614D0561A013611D001F007FA084B00211A8AA06800F0DB
:4041400013FE022300936068A3682946324600F0A3FF0023E3737CBDC892FF1F2DE9F84F984690F8363004460C2B0D4616465AD04FF0FF3AD1463CE094F836003146FFF7A3
:40418000B5FBB4F81CB0678E0BF1FF3B10EA0B0BE38B1DD1D840013F3F1802222846394601F0C0F9A38BAA689B0852F80B1079B9013B0BF1040BF8D13BE04946284652469C
:4041C000FFF7AEFFB946BB46284601F076F8DA462946324601232046FFF7DCFD29460746324620460023FFF7FBFD2FB108F1FF383E46B8F1000FBFD1284649465246FFF7DD
:404200008FFF13E02946324601232046FFF7C2FD29460746324620460023FFF7E1FD2FB108F1FF383E46B8F1000FEBD14046BDE8F88F0AF1010B5F45BFD1C5E72DE9F84552
:40424000054601F00DF8044608B90546D0E0284600F04EFF684E338A834208D338B10021284622460B4600F0D6FE002804DA204601F00CF80025BBE004F5FF7000F024FEA9
:404280004AF65523984240F0AD8004F10B0000F01BFE10F47E4F074600F0A480338A8342C0F0A080237C022B40F09C8094F80D80B8F1000F00F096800021402205F1180002
:4042C00000F052FD04F1130000F0FEFD064620B904F1200000F0DFFD064604F1160000F0F3FD824680B904F1280000F0EDFD10F08F0F77D104F1240000F0CDFD824604F1E1
:404300002C0000F0C8FDE862022385F83530C5F828A0AE6185F8348004F10E0000F0D4FD688604F1110000F0CFFD95F835206B8E288602FB0A3A7A0992B2B0FBF2F252445C
:40434000AF832A62092301219940B94201D1EB8302E00133102BF6D108FB07F7B61AB6FBF8F6AE636F623046FFF7F6FA202818BFC5F82CA04FF0FF33202885F83600EB63F5
:4043800032D104F1300000F09FFD00230146A5F844002246284600F03EFE002822DB204600F079FD804604F5F27000F074FD074604F5FE7000F06FFD104B984514D1104B01
:4043C0009F4211D10F4B98420ED104F5F67000F062FD286404F5F47000F05DFDB04203D8E86301E0002500E00125204600F04EFF2846BDE8F88500BFC892FF1F5252614132
:4044000072724161000055AA00238B60837F202B01D102B942694A600A60704783680133836070472DE9F0410C46202105461F469DF818604FF0000800F096FC10E014F884
:40444000080036B9E52804D1B8F1000F01D1E03802E000F0FEFCC0B205F8080008F10108B845ECDBBDE8F0812DE9F74506460D4608462849002A14BF92464FF0FF3A00F0B5
:40448000A9FC804650B930462946022200F057FEB01C2021092200F067FC37E04FF0FF34002715F80780B8F1000F01D0574505D1B4F1FF3F08BF3C4664B925E04046FFF7A6
:4044C0005EFA08B3B8F12E0F08BF3C4601370D2FE7D119E0082C17DC3F1B042F14DC30462946082223464FF00008CDF80080FFF799FF0123611C009306F108006918032246
:404500007B1EFFF78FFF01E04FF001084046BDE8FE8500BF188700002DE9F74FD2F808B0436A4FEA4B18B8FBF3F8D368054698450E461446D2F8009001D20023D360B5F823
:404540001EA0E368AAF1050A0BB9D4F804902BFA0AF7B9F1000F17D095F83420B8EB0303019206D04A4628463146FFF713FC814640B3494605F11800FFF7FBF9019B591EDD
:4045800001EA0707C11906E02B8E43FA0AF39F4218D2E96A79183046C4F80090C4F80C80012200F0BFFF304600F0DBFF50B9013000FA0AFAB3680AF1FF3A0AEA0B0B03EB06
:4045C0004B1000E00020BDE8FE8F2DE9FF4107460E4601A811461A460A9D9DF82C40FFF743FFC8B9384631462A46FFF795FF8046A0B1037883B101A90B2200F0A5FB38B969
:4046000098F80B3004EA0302A24201D1082B05D12846FFF703FFE5E74FF00008404604B0BDE8F0812DE9F04587B002AF04460E46154698469DF83CA039460E9A1830FFF754
:40464000E3FE204631462A4643460097CDF804A0FFF7BBFF07B0BDE8F0852DE9F04500F1180785B005460C46384669469246FFF7CBFE284621466A46FFF74EFF064668464F
:40468000E846FFF7CBFE002E37D1BAF1000F02D12B8E002B35D12146009A00232846FFF785FB2146024600232846FFF729FD8046204600F052FFB8F1000F22D0AA8B00218F
:4046C000A06800F051FB38464146FFF752F995F8347000257E1E361808E031462046012200F020FF204600F0F9FE013E01357B1BB3F1FF3FF1D1A66803E033780BB1E52B95
:40470000B7D1304605B0BDE8F08538B504461A3000F0DAFB054604F1140000F0D5FB45EA004038BD2DE9F0451D4685B007460E462A6010465C21904600F097FB4FF0000A6C
:404740000446A04508D108F10108C5F8008040465C2100F08AFB044694B1C8EB0403002B0EDD10220192103A0292384631464246CDF800A0FFF77EF970B1FFF7C6FF824685
:4047800028685C2100F071FBA04604460028D8D10C9B0130C3F800A005B0BDE8F085F8B505460C461E461746DAB16FF01A031370084600F07FFD16B94FF47A7608E007F15C
:4047C0001C0000F068FB6B6A5E1E3618B6FBF3F63846FFF79AFF2146024633462846FFF7BDFC607BF8BD00002DE9F04FD1F8008093B0D8F808700BAD044608930E464FF0D6
:40480000FF333946284609920F939DF870A000F08FFD10AB009338462946224611ABFFF781FFD0B1F27A109B07920FAA00930292002338462946119A0193FFF71BF9044672
:4048400080B1C37A13F0100F07D10D9BDDF82CB0C3EB00094FEA691906E0284600F074FE0125A3E083468146099B002B3CD0002C33D0524B5D6912E02B687BB1AA7A6AB1B9
:404880009A8B4A450AD19A695A4507D19B68BB4204D14FF6F772328100257EE0ED68002DEAD10DF12C0C6146384622460123CDF818C0FFF774FFDDF818C018B14FF0FF3325
:4048C00033816AE03E4B1B68DC6824B138466146109A0F9BA0472C4606E0BAF1000F03D1089A002A44D065E0089BEBB1CCB1E37A13F0010F0BD0079A12F0150F07D04FF640
:40490000FA733381BAF1000F01D1012500E000252046FFF7FAFE074604F11C0000F0BBFA29E0BAF1000F45D0BAF1010F01D000251BE0ECB901F034FA214B20221B6801923C
:4049400082B2000C03920490009402949D6838460BA9119A109BA84750B10D9ADDF82CB0C2EB00094FEA6919254628462F4602E00125002007464FF0FF33C8F81030C8F86A
:4049800018B0A8F81C90079AC8F8040012F0010308BF1846C8F800707060B6F908300BA835EA230528BF012500F0CEFD284613B0BDE8F08F01255046DCE700BFC892FF1F9F
:4049C0004081FF1F70B505460C461A3089B200F077FA05F11400210CBDE8704000F070BA2DE9F0470446BDF824700D469146002120229A46BDF82860DDF8208000F0B4F9EE
:404A00000B222046294600F09AFB04F10E00394684F80BA000F054FA04F11000314600F04FFA04F11600394600F04AFA04F11800314600F045FA20464946FFF7C3FF04F140
:404A40001C004146BDE8F04700F030BA07B5426803460AB910460AE081680020009048681968DB6800F0F6FA003818BF01200EBD2DE9F047046805460F46A668FFF746F9A7
:404A800081468246002841D0D4F80080B8F1000F1BD14246304639462B46FFF7DDFA0246D8B11C4B6061C4F8108093F880302060022B07D030463946FFF759FA10B101205F
:404AC000BDE8F087B9F1010A20D03046394662692B46FFF7C1FA804628B94FF6FE732B810130BDE8F0870B4B93F88030022B05D03046394662694346FFF75BFA2369C4F84E
:404B0000148001332361BAF1010ADDE70020BDE8F08700BFC892FF1F2DE9F041836804460D4608460122A1699E8B00F0FBFC2846B4F81C80AF6800F014FDF8B9013E06EA34
:404B40004816B6B2BE1906F11C00616800F0AEF921683046FFF736FF01F022F90446A1B206F1160000F0ACF906F11800210C00F0A7F92846BDE8F04100F0EFBCBDE8F081EF
:404B800003682DE9F04F9F68038995B001339BB2012B04460E46059201D90025CEE0394610AD0CA800F0C4FB3946284600F0C0FB039626680023D6F808909A4609F11801F4
:404BC0000791D9F82420059906924FF0FF32099308920A950291049320460CA9FFF748FF38B108A8FFF732FF5546002818BF00258FE03269069901324A43B9F81CB06368DB
:404C00000BF1FF3BD21A0BEA030B029B0798934228BF134601937169FEF7ABFE99F83430B9F81C206768013BB7FBF2F703EA0707C719B9F81C300199CBEB03058D4228BF84
:404C40000D469D4228D0BBF1000F03D1626873689A420FD00DF1400840463946002200F061FC404600F07DFC20B14FF6F9725546228154E01298039958442A460DF14008E7
:404C800000F05DFA40463946002200F04BFC404600F024FC90B141E0099B089A9A1897420AD008A8FFF7D2FE002837D101230993039B08970B9301E001330993029B039981
:404CC0005B1B019A029363684919521BAA44ED186560736803919D42019207D91BB1194B93F880300BB9012104917560019A1AB101374FF0000B9CE7029B002B7FF46CAF7F
:404D000008A8FFF7A3FE04995546002818BF002529B1304610A9FFF7FFFE00E05546059A954205D0B4F9083013B94FF6F87323810CA800F009FC10A800F006FC284615B083
:404D4000BDE8F08FC892FF1F10B5002308E0C45C11F803C0013A0133644501D0012010BD002AF4D1104610BD70B5034602E003F8011C013A1C4622B103F003050133002DBE
:404D8000F5D193081ED04FF001354D4308E044F8105C44F80C5C44F8085C44F8045C043B032BA44604F11004F1DC1C46002603E04CF80650013B0436002BF9D102F003029B
:404DC0000CEB8404002302E0E154013A0133002AFAD170BD002310F803C0CA5C624501D0012070470133002AF5D110467047002300E00133C25C002AFBD11846704710B5AF
:404E000000230BE0C45C11F803C0644501D0012010BDC4186478013314B1013A002AF1DC002010BD10B5002302E0C454013A013303EB000C0AB9002308E0CC5C002CF4D10E
:404E4000F9E700210CF80310013A0133002AF8D110BDA0F16103192B98BF00F0DF00704701384018B0FBF1F07047C9B203E00BB918467047013003788B42F8D17047427817
:404E80000178431C42EA01205A789B7842EA002043EA002070478378C27803EB0222437803EB0222037803EB0220704703460A0A03F8011B42700A0C090E5A709970704765
:404EC0000170090A417070474278037843EA022070470000094A0A4BC11C10B5146821F0030118680919814201D9002010BD11609A685868013220189A6010BD4C93FF1F22
:404F00005C82FF1F08B5FFF7E5FF00B9FEE708BDFFF7E0BF30B1044A9368013B93600BB9024A1360704700BF5C82FF1F4C93FF1F014B5860196070475C82FF1F38B5054633
:404F4000FFF7E0FF002104462A46FFF70DFF204638BD000010B5084CA37C0BB1002010BD4FF40073238200F00BFFA37C012043F00103A37410BD00BFC892FF1F08B58368B4
:404F80000BB10020984708BD08B583680BB10120984708BD10B504680079A468A04710BD37B59DF81850046800790095E468A0473EBD08B5036800799B69984708BD036899
:404FC00010B55B69044623B10079984708B1002000E00120607110BD10B5437904460BB9FFF7EDFF607910BDF7B504461F460E461546FFF7F1FF2046FFF7C6FF2A4631462B
:40500000012320460097FFF7C5FF05462046FFF7B5FF2846FEBD10B504690919BDE81040FFF7E2BFF7B5044615461F460E46FFF7D3FF2046FFF7A8FF0023009331462B46BE
:405040003A462046FFF7ACFF05462046FFF796FF2846FEBD30B504699DF80C5009190395BDE83040FFF7DEBFF7B5044615461F460E46FFF7B1FF2046FFF786FF0123009357
:4050800031462B463A462046FFF78AFF05462046FFF774FF2846FEBD30B504699DF80C5009190395BDE83040FFF7DEBF73B504460E461546FFF790FF2046FFF765FF002332
:4050C0002A460093314601332046FFF769FF05462046FFF753FF002D14BF4FF0FF3000207CBD10B504690919BDE81040FFF7DEBF30B5054685B0FFF76FFF2B6828791C6920
:405100004FF47B71002201ABA04708B1002001E0BDF80C0005B030BD70B506460D46FFF75BFF336830791C694FF47B7100222B46A047002814BF4FF0FF30002070BD11F031
:40514000030F70B584460B4632D110F0030F2FD195100446AC4611E053F8106CACF1040C44F8106C53F80C6C44F80C6C53F8086C44F8086C53F8046C44F8046C10341033F6
:40518000BCF1030FE8D8AB081B0100EB030CCB1815F003050AD0284600215C584CF8014004310138F9D1AD00AC445B1902F0030213F0010F19462FD11CF0010F60462BD1A5
:4051C0005410254610E031F8086C043D20F8086C31F8066C20F8066C31F8046C20F8046C31F8026C20F8026C08300831032DEAD8A108C9005B1814F003048C440AD02046C0
:4052000000215D5A2CF8015002310138F9D16400A4441B1902F00102614610E013F8040C043A01F8040C13F8030C01F8030C13F8020C01F8020C13F8010C01F8010C1846BF
:405240000433032A8C4601F10401E7DC32B10023C15C0CF8031001339342F9D170BD0000094B10B5D8689A68002308E0114652F8084B1CB901230B60486810BD01338342D0
:40528000F4D3002010BD00BFC892FF1F084B30B50022DC689B6808E05D6819460833854202D100230B6030BD0132A242F4D330BDC892FF1F01230373704700230373704722
:4052C00010B1002282720260704718B1027B0AB1013A02737047000038B5FFF73BFE20B3124C4200E2600001FFF728FE238AA060E0685843FFF722FEA568E168228A00239D
:4053000004E005EBC3046060013380188B42F8D31020FFF713FE054C60612820FFF70EFEA37CA06143F00203A37438BDC892FF1F38B510220D4600210446FFF715FDFFF764
:405340008FFF08B9013038BDA0604FF0FF33002065602360A07338BD38B5104B9C69217B59B921606160A16004F110001422FFF7FBFC237B013323730DE0656A45B9282007
:40538000FFF7C6FD606218B129462822FFF7ECFC646A002CE3D1204638BD00BFC892FF1F38B50E4B5C69A17AE56839B920461022FFF7DAFC0123A372E5600CE045B9102071
:4053C000FFF7A6FDE06018B129461022FFF7CCFCE468002CE7D1204638BD00BFC892FF1F2DE9F74F06460020884691469B469DF830A09DF83470FFF7AFFF054608B9044604
:4054000010E0FFF7CDFF044660B180F80B900560AE604046214652463B46CDF800B0FFF7E3F930B12046FFF74BFF2846FFF74DFF00242046BDE8FE8F2DE9FF410C461F468C
:4054400004A9002341F8043D15469DF8286000F0D5F88046B8B1039B0BB11B789BB1404600F055F900280EDD14F0150F01D0032809D1039939B1404622462B46009701965D
:40548000FFF7AEFF00E0002004B0BDE8F08100002DE9F3410646884600240E4D404655F83410E700FFF796FC10B9002C04DA0DE001340F2CF1D109E07D19A8792979009052
:4054C000EA796B793046FFF7B7FF00E00020BDE8FC8100BF1C870000FFF7DABF10B5437B04460BB1012010BD40682168A268A37BFFF7F7FD10B10120607310BD207310BD94
:4055000010B5437B044663B9037B53B140682168A268A37BFFF7E5FD08B1012363730023237310BD036870B5994204460D46164607D0037B0BB1FFF7E3FF00232560A67388
:40554000E37370BDFFF7DCBF10B50446FFF7D8FFA068BDE81040FFF799BE01230373FFF7CFBF10B50446407B08B1012010BDE37B5BB960682168A268A37BFFF74CFD10B177
:405580000120607310BD0122E27310BD08B5436813B94FF0FF3008BD984708BDF8B50C4617460023144D01E0ED6D01338342FBDB2B6828791B68984706460CB92046F8BD2E
:4055C000FFF715FC0530B84214DC22460020335C013223540130315C0029F8D113464FF03A0C03F801CB2C7903303034547083F801C09970F8BD00BFE492FF1F2DE9F047D5
:405600000F463A210646FFF730FC044610B93446174D27E00378C6EB000A5BB114F8013F43B162783A2A05D1A3F130085FFA88F8023401E04FF000080D4D2B6828791B68AA
:4056400098478146FFF7D3FB504508D1484631465246FFF7D4FB10B92B79434502D0ED6D002DEAD107B13C602846BDE8F08700BFE492FF1FF8B5174C064694F85B10E56D11
:4056800069B9602201272046FFF76EFB84F85B70E5653046FFF77AFF00280EDA18E045B96020FFF735FCE06518B129466022FFF75BFBE46D002CE0D10AE0074B2660DA6FB2
:4056C0000132DA670323207184F85B7084F85A302046F8BDE492FF1FC892FF1FFFF7CABF38B504460D46FFF764FC08B9013838BD2046FFF771FC204600F020FB2046FEF728
:405700009DFD08B184F8595094F8590038BD90F8593023B990F85A1009B1FFF7E1BF1846704710B590F8592004463AB931B1FFF7D7FF002802DC4FF0FF3010BD94F85900FC
:4057400010BDFFF7EEBF10B50021FFF757FF08B9013010BD0321BDE81040FFF7F2BF30B51346BAB1B0B10268857A0AB1946804B900247DB172B16CB1C27A12F0100204D16A
:405780004FF6FA730381104630BD1A46BDE83040FFF7F6B9002030BDFFF7E1BF2DE9F04F8FB08B469DF86010069207930991BDF86420BDF86C309DF8701005460B92BDF841
:4057C00068800C930D91FFF7F4FB0028C0F2DF81002385F85930FFF743FD0446002800F0D481AC4B1B8A4345C0F0CF81B8F1000F00F0CB81079A06994FEAC803002A08BF02
:40580000FF220A93A44B0792002908BF3F2102220C9F144606912A4684461D460C996B698F422E7C00D13FB9202E03D0DDF82CA0012708E0374604E0202E02D0DDF82CA0C4
:4058400001E04FF0000A41464FEA4A1003920593CDF810C0FFF704FBC7EB0B090999C0EB090999FBF1F070430A99FFF7F9FA09994000C0EB090999FBF1F906FB09F00A999A
:40588000FFF7EEFA039A0890059BDDF810C02CB940F6F471894508DD894601E0994504DA013C083DB4F1FF3FB8D164466046002115464246FFF758FA6FF01603204600F891
:4058C000033B08227549FFF7ADFA04F10B004146FFF7F6FA099A04F10E0062733946FFF7EFFA0223237404F111005146FFF7E8FABBF5803F06D204F113001FFA8BF1FFF794
:40590000DFFA04E004F120005946FFF7CFFA6FF00703637504F118000699FFF7D1FA04F11A000799FFF7CCFA04F11C002969FFF7BDFA202E6FF07F031DD084F82430A93306
:4059400084F8263004F127005549FFF7AFFA089B04F1160099B2FFF7B3FA524904F12B000B22FFF75FFA504B504904F136000C2E18BF194624E084F84030A93384F84230A0
:4059800004F124000899FFF791FA04F12C000221FFF78CFA04F130000121FFF791FA062384F8323004F143003D49FFF77FFA3D4904F147000B22FFF735FA3D4904F152000F
:4059C0000822FFF72FFA04F5FF71084607914AF65521FFF775FA0021284622460B46FFF780FB0028C0F29F80202E08D10621002328462246FFF775FB0028C0F29480002186
:405A000042462046FFF7B0F9089A0223520000932846394623460692FFF73EFB0028C0F282806FF00703237007330C2E6370A3700DD0202EE3700AD1201D6FF07041FFF742
:405A400035FA04F108006FF07041FFF72FFA0223284639462246FFF744FB002863DB089B2846D91922460223FFF73BFB00285ADB002142462046FFF777F9069AD119BAF1F3
:405A8000000F17D04FEA4A12012300932846B2FBF8F213E0C892FF1FC48700005088000067452301DC87000059880000628800006B8800000123099A009328462346FFF7F9
:405AC000EBFA00282FDB202E31D1424600212046FFF74AF920462F49FFF7E8F904F5F2702D49FFF7E3F904F5F47009F1FF31FFF7DDF9032104F5F670FFF7D8F907984AF623
:405B00005521FFF7DDF90121002328462246FFF7E8FA002807DB0721002328462246FFF7E0FA002803DA2046FFF7B0FB2DE02B6933B30D9B23B30021284622460B46FFF7E6
:405B400053FAE8B90C2E94F8C23102D0102E06D002E04FF0010B09E04FF00B0B06E0BBF5803F34BF4FF0040B4FF0060B5B4507D0002184F8C2B1284622460B46FFF796FA13
:405B80002046FFF783FB002001E04FF0FF300FB0BDE8F08F5252614172724161F0B58BB007AD044600210C222846FFF7DDF8204600F0C4F820462946FFF7AEFA23690BB1BA
:405BC00063690893089911B94FF0FF3020E0BDF81E20BDF81C30BDF82460002000E001300C4D4FEAC00C05F1240757F83070B942F5D80CEB050090F82850408D00950190E2
:405C0000002003900130049020460296FFF7C6FD0BB0F0BDC487000030B504468BB00D4600292FD0FFF7C5F9002802DA4FF0FF302AE0204600F082F8AA6807AB22B9204698
:405C40001946FFF769FA02E007CA83E80700236923B16369089A9A4288BF08932978BDF81E2000916988BDF81C300191BDF8241020460291A9880391A97904910899FFF71D
:405C80008DFD01E0FFF78AFF0BB030BD0378E92B01D101207047EB2B01D0002070478078902814BF00200120704708B500F5FF70FFF70AF94AF65523984214BF0020012020
:405CC00008BD01EB001000F5E370FFF7E4B8F0B50D4685B01446064658B352B300210B46FFF782F9002824DB2046FFF7DEFF00B32046FFF7CBFF10B10024274616E021465B
:405D0000FFF7DFFF074604F5E570FFF7C4F801A904463046FFF700FA5CB157B1E219FF23120AB2FBF3F2029B9A4202D81DB12C6001E04FF0FF37384605B0F0BD73B50446B3
:405D4000FFF7D6F90646FFF78BFA0C4B05461B8AB3420DD366B1204601A92A46FFF7B7FFB0F1FF3F04D02061019B6361002400E0FF242846FFF78AFA60B27CBDC892FF1FD2
:405D800080B500AF04484FF48051FFF7D1F80348FFF7A4FC80BD00BF6882FF1FBC88000080B485B000AF0023FB810023BB8100237B8101233B810123FB800023BB80FB8921
:405DC0005B089BB21A46BB895B011A447B89DB0213443B603A89FB885B011A44BB885B0213441B043A6813433B603B6818461437BD465DF8047B70474FF6FF7070470000D4
:405E0000014B1868704700BF6892FF1F00487047DC88000000F096BD37B501220DF10701054600F0A7FD9DF80740FF2C14BF0A240724284601220DF1070100F09BFD9DF887
:405E40000700FF2803D1013CE4B2002CF1D13EBD37B50469857828460DF10701012200F089FD9DF807300BB1002003E0013CF2D14FF0FF303EBD37B54FF0FF3305460C4613
:405E80008DF8073006E028460DF10701012200F08BFD013C002CF6DC3EBD000038B5094C2368032B02DD4FF0FF3509E0DDB2013323601420FFF742F804EB850460608570EE
:405EC000284638BD6892FF1F08B5034B4FF400711B68984708BD00BF4481FF1F4FEAD20CACEBD103CCF10F0C10B501336044002410F801CB013B4CEA0424F9D101F0070351
:405F0000511A02228A40DC40013A04EA020010BD7FB5130E85788DF80530130C01F03F018DF80630130A41F040018DF8073000238DF808208DF804101A4601A911F802C054
:405F400000215B00DBB283EA0C0E1EF0800F18BF83F009030131082904D04FEA4C0C5FFA8CFCEEE70132052AE7D15B0043F001038DF809308678C4680122304603A900F057
:405F8000F9FC9DF80C30FF2B04D00CB9FF2009E0013CF1E7284601A9062200F005FD2846FFF73AFF04B070BDF7B5847806460F4620460121FFF75FFF204600F00DFC304691
:405FC00009210022FFF7A4FF8DF8070028BBF6680546012220460DF1060100F0CBFC9DF80630FE2B06D0FC2B04D00135ADB2B542EFD112E00DF1070520463946102200F04B
:40600000B9FC29462046012200F0B4FC29462046012200F0AFFC002500E0FF25204600F0EFFB20460121FFF726FF2846FEBD00002DE9F04F9B46494B89B003EB8003059240
:406040005C684A02029103924FF00309029AA578E678039B2846022E08BF13461E4600F0CFFB01212846FFF706FFBBF1010F0CBF4FF0110A4FF0120A284600F0ADFB2046D9
:4060800051463246FFF744FF002851D1059F5E46A378E268B44604924FF000081E460FE0012230460DF11F01CDF804C000F062FC9DF81F20DDF804C0FE2A05D008F101087D
:4060C000049B9845ECD333E0284639464FF40072664600F04FFC0222284607A900F04AFC9DF81C30384601939DF81D80FFF7ECFE4FF6FF729042019B0CD048EA032840456A
:4061000008D0BAF1120F13D120460C210022FFF7FFFE0DE0013E02D007F50077B8E7BAF1120F07D120460C213246FFF7F1FE01E04FF0FF36284600F063FB28460121FFF7F4
:406140009AFE3EB1B9F1000F02D009F1FF397DE74FF0FF36304609B0BDE8F08F6892FF1F2DE9F04F99464C4B87B0029203EB80039DF840205D68009103926B78002B40F073
:4061800085804B0201930327009BAC78EE78019A2046022E08BF1A46164600F031FB01212046FFF768FEB9F1010F0CBF4FF0180A4FF0190A204600F00FFB284651463246D1
:4061C000FFF7A6FE8DF81700002850D120460121FFF751FE029ECB46B8463046FFF774FE0DF11707BAF1180F0CBFFE23FC2301228DF817308DF81500030A394620468DF8CD
:40620000143000F0D1FB204631464FF4007200F0CBFB0222204605A900F0C6FB01222046394600F0A7FB9DF8173003F01F03052B1CD12846FFF70CFEC0B9039A0AB906F543
:406240000076BBF1010BC8D1BAF1190F474611D106A96FF00203204601F8013D012200F0A3FB2846FFF7F4FD20B100E047464FF0FF3600E00026204600F0C2FA204601210D
:40628000FFF7F9FD26B10FB1013F7DE74FF0FF36304607B0BDE8F08F6892FF1F2DE9F04F877887B0044638460D4600F095FA20463A210022FFF72CFE064638B1384600F00F
:4062C0009FFA38460121FFF7D6FD58E00DF1140804224146384600F04DFB4046FEF7CFFD8046384600F08CFA01213846FFF7C3FDB8F1000F28F07F02B8BF4FEA987BD2B2F8
:4063000040F272634FEA1828B8BF0BF0010B1FFA88F8002A14BF1A460022012111EA080F05D10136F6B24900102E89B2F6D140F27260824233460DD06422724302F5FA6229
:4063400008E011EA080F07D049000133013689B2DBB2F6B20F2EF4D964214B434FF6FE7103F5FA6302EA01014FF6FC72384603EA020200F0B3FA10F0FF0F40F099804FF0BF
:40638000FF3092E028467E217F22FFF7A7FD8246EB78DFF82C8103F0030203F0780308EBD30358F822101B7C3846594389B200F051FA0646002877D06B7803F00702DB10E8
:4063C00003F00F0308EB82024344126A93F810800292B8F1000F67D0A978284603911C221A21FFF77BFD0190BAF1000F1FD1502153222846FFF772FD4FF0010909FA00F93D
:406400002F2131222846FFF769FD1FFA89F982463E21284649224FEA5929FFF75FFD0AF1020A09FA0AF9013000FB09F910E0BAF1010F01D0012038E0284630214522FFF73B
:406440004DFD4FEA8029BBF1000F01D00223E37008FB06F2029B0399B2FBF3F2642303FB01225A437343D208DB089A4294BFE260E360FA235E43019BF6089A400C21B24267
:4064800094BF2261266128460D22FFF727FD0546384600F0C9F94FF4007128436070A180C4F80890002000E0FF2007B0BDE8F08FE378A778012B3FF465AF4FF0000A67E76B
:4064C00074880000F0B5857887B004464FF4C871284600F0BFF9B0F5C87F00F2CC804CF25033E3600026284600F08AF90A212846FFF7C1FC624B93E8030001902846ADF89B
:40650000081000F069F9062201A9284600F04CFA2846FFF781FC0746284600F071F901212846FFF7A8FC17F0010F03D10136052ED9D1A0E0284600F04FF9082120464FF464
:40654000D572FFF7E5FC10F0040F52D0284600F057F9A5784FF4FA66284600F03DF9002237212046FFF7D4FC28460121FFF783FC292100222046FFF7CBFC0746284600F0E1
:406580003FF928460121FFF776FC17B90123E3701EE017F0040F01D1013EDDD14FF4FA66284600F019F9012100222046FFF7B0FC0746284600F024F928460121FFF75BFC89
:4065C0000FB9E77004E0012F55D1013EE8D152E001AD20462946FFF7E7FC00284BD120462946FFF75BFEC0B2002844D10123237043E00422A07805A900F0BCF9284600F0DC
:40660000FFF89DF81730AA2B35D19DF8163003F00F03012B2FD1A5784FF4FA66284600F0DBF8002237212046FFF772FC28460121FFF721FC29214FF080422046FFF768FCBD
:406640000746284600F0DCF828460121FFF713FC0FB1013EE2D101AE20463146FFF7A4FC48B90125E57020463146FFF717FEC0B208B9257001E04FF0FF3007B0F0BD00BF94
:40668000B488000010B5084B03EB80035C6823783BB9FFF7BFFB20B12046BDE81040FFF711BF4FF0FF3010BD6892FF1F38B51D46154BA1F57B7103EB80035C68072918D846
:4066C000DFE801F00A17171704041719204600211422FEF749FB0CE0237833B92046FFF7F1FE10B14FF0FF3038BDA3882B81A3686B60002038BD2046FEF70CFC024B0020F1
:406700001A68013A1A6038BD6892FF1F80B582B000AF0346FB71FB79002B12D1134B1B78002B0DD1114B01221A7000F04DFA3B20012100F063FA00F02DFA00F097F912E03B
:4067400011E00A4B1B78002B0CD1084B01221A7000F03AFA3B20012100F050FA00F01AFA00F084F900BF0837BD4680BD7C92FF1F80B584B000AF03460A46FB711346BB71E0
:40678000FB79002B11D1BB79184600F0ABF900BF00F088F9034603F00103DBB2002BF7D000F0BAF90346FB7311E0BB79184600F099F900BF00F076F9034603F00103DBB2F9
:4067C000002BF7D000F0A8F90346FB7300BFFB7B18461037BD4680BD80B582B000AF0346FB71FB79002B03D1002000F0D3FA03E0002000F0CFFA00BF0837BD4680BD00BF71
:4068000080B582B000AF0346FB71FB79002B03D1012000F0BFFA03E0012000F0BBFA00BF0837BD4680BD00BF80B485B000AF0346FB71FB79002B02D10023FB6002E00023E8
:40684000FB6000BFFB6818461437BD465DF8047B704700BF80B584B000AF03460A46FB711346BB80BB88B3F5C87F03D24FF4C873BB8006E0BB88B3F5FA5F02D94FF4FA539F
:40688000BB80BB885B00FB81FB8945F6C052B2FBF3F39BB2BB60FB79002B0CD100F094F9BB689BB2013B9BB21846012100F0A6F900F070F90CE000F087F9BB689BB2013B55
:4068C0009BB21846012100F099F900F063F900BFBB8818461037BD4680BD00BF80B485B000AF0346FB710B46BB8013467B80FB790033032B0FD8BB8840F6E442934207D89B
:406900007B8840F6E342934202D90123FB6012E00023FB600FE0BB8840F6E442934207D87B8840F6E342934202D90123FB6001E00023FB6000BFFB6818461437BD465DF809
:40694000047B704780B584B000AF0346FB71FB791846FFF7DBFEFB790033032B02D80223FB6002E00223FB6000BFFB6818461037BD4680BD90B585B000AF0346B9607A6076
:40698000FB73BC68631CBB60FB7B1846FF21FFF7EFFE034623707B68013B7B607B68002BEFD11437BD4690BD80B584B000AF0346B9607A60FB73BB685A1CBA601B78FA7B18
:4069C00010461946FFF7D4FE7B68013B7B607B68002BF0D11037BD4680BD00BF80B500AF074B0F221A7000F0A7F800F05BF800F069F8044B00221A70034B00221A7080BDC5
:406A00008A640040886400408964004080B582B000AFFCF720FE0346FB71114A104B1B78DBB243F02003DBB213700E4A0D4B1B78DBB243F01003DBB213700B4A0A4B1B7854
:406A4000DBB243F01003DBB21370FB791846FCF706FE00F01BF800F01FF80837BD4680BD9A640040986400409964004080B500AF054B1B78002B04D1FFF7B0FF024B01224E
:406A80001A70FFF7C3FF80BD7D92FF1F80B400AFBD465DF8047B704780B400AFBD465DF8047B704780B483B000AF054B1B78FB71FB7918460C37BD465DF8047B704700BF81
:406AC0006864004080B483B000AF054B1B78FB71FB7918460C37BD465DF8047B704700BF6964004080B483B000AF0346FB7100BF074B1B78DBB203F00403002BF8D0054A7E
:406B0000FB7913700C37BD465DF8047B704700BF686400404864004080B483B000AF054B1B78FB71FB7918460C37BD465DF8047B704700BF5864004080B582B000AF01E01C
:406B4000114B1B78114B1B78DBB203F02003002BF6D1FCF780FD0346FB710D4A0C4B1B78DBB243F00103DBB21370094A084B1B78DBB223F00103DBB21370FB791846FCF7B6
:406B80006EFD0837BD4680BD58640040696400409864004080B400AF094A094B1B78DBB243F00103DBB21370064A064B1B78DBB243F00103DBB21370BD465DF8047B70471F
:406BC000A2430040B243004080B400AF094A094B1B78DBB223F00103DBB21370064A064B1B78DBB223F00103DBB21370BD465DF8047B7047A2430040B243004080B584B031
:406C000000AF03460A46FB8013467B7100F0B2F80346FB7300F0A2F80346BB81FA88BB899A4200F08780454B1B78DBB203F00103FB72FB7B002B20D1BB89002B02D0FB88E9
:406C4000002B1AD1BB89002B0BD13D4AFB8813803C4A3C4B1B78DBB223F04003DBB2137068E0384A374B1B78DBB243F04003DBB21370334AFB8813805CE0FB7A002B33D01F
:406C8000314B00221A70314B01221A70304B00221A70304A2F4B1B78DBB203F07F03DBB21370284B1B78DBB203F00803002B02D0FB88002B18D1284ABB891380224B0722BF
:406CC0001A7000BF204B1B78DBB203F00103002BF8D11A4A194B1B78DBB223F00103DBB21370194B00221A70144B1B78DBB203F00103002B13D0184AFB881380124A7B796A
:406D0000002B01D0032300E00123137000BF0E4B1B78DBB203F00103002BF8D10AE0084AFB8813800549054B1B78DAB2FB7A1343DBB20B701037BD4680BD00BFA24300403A
:406D40008040004082400040014000401040004014400040084000400240004080B400AF034B1B889BB21846BD465DF8047B70478040004080B400AF054B1B78DBB203F00F
:406D80000703DBB21846BD465DF8047B704700BF8240004080B485B000AF0346FB71094B1B78DBB203F07F03FB730649FB79DB01DAB2FB7B1343DBB20B701437BD465DF8C9
:406DC000047B70473051004081F0004102E000BF83F0004330B54FEA41044FEA430594EA050F08BF90EA020F1FBF54EA000C55EA020C7FEA645C7FEA655C00F0E2804FEA78
:406E00005454D4EB5555B8BF6D420CDD2C4480EA020281EA030382EA000083EA010180EA020281EA0303362D88BF30BD11F0004F4FEA01314FF4801C4CEA113102D040422C
:406E400061EB410113F0004F4FEA03334CEA133302D0524263EB430394EA050F00F0A780A4F10104D5F1200E0DDB02FA0EFC22FA05F2801841F1000103FA0EF2801843FA78
:406E800005F359410EE0A5F120050EF1200E012A03FA0EFC28BF4CF0020C43FA05F3C01851EBE37101F0004507D54FF0000EDCF1000C7EEB00006EEB0101B1F5801F1BD33B
:406EC000B1F5001F0CD349085FEA30004FEA3C0C04F101044FEA445212F5800F80F09A80BCF1004F08BF5FEA500C50F1000041EB045141EA050130BD5FEA4C0C404141EB24
:406F0000010111F4801FA4F10104E9D191F0000F04BF01460020B1FA81F308BF2033A3F10B03B3F120020CDA0C3208DD02F1140CC2F10C0201FA0CF021FA02F10CE002F13B
:406F40001402D8BFC2F1200C01FA02F120FA0CFCDCBF41EA0C019040E41AA2BF01EB0451294330BD6FEA04041F3C1CDA0C340EDC04F11404C4F1200220FA04F001FA02F31B
:406F800040EA030021FA04F345EA030130BDC4F10C04C4F1200220FA02F001FA04F340EA0300294630BD21FA04F0294630BD94F0000F83F4801306BF81F480110134013D09
:406FC0004EE77FEA645C18BF7FEA655C29D094EA050F08BF90EA020F05D054EA000C04BF1946104630BD91EA030F1EBF0021002030BD5FEA545C05D14000494128BF41F088
:40700000004130BD14F580043CBF01F5801130BD01F0004545F0FE4141F470014FF0000030BD7FEA645C1ABF194610467FEA655C1CBF0B46024650EA013406BF52EA0335AD
:4070400091EA030F41F4002130BD00BF90F0000F04BF0021704730B54FF4806404F132044FF000054FF0000150E700BF90F0000F04BF0021704730B54FF4806404F1320445
:4070800010F0004548BF40424FF000013EE700BF42004FEAE2014FEA31014FEA02701FBF12F07F4393F07F4F81F06051704792F0000F14BF93F07F4F704730B54FF4607436
:4070C00001F0004521F0004120E700BF50EA010208BF704730B54FF000050AE050EA010208BF704730B511F0004502D5404261EB41014FF4806404F132045FEA915C3FF4EC
:40710000DCAE4FF003025FEADC0C18BF03325FEADC0C18BF033202EBDC02C2F1200300FA03FC20FA02F001FA03FE40EA0E0021FA02F11444C1E600BF70B54FF0FF0C4CF4B2
:40714000E06C1CEA11541DBF1CEA135594EA0C0F95EA0C0F00F0DEF82C4481EA030621EA4C5123EA4C5350EA013518BF52EA033541F4801143F4801338D0A0FB02CE4FF0E0
:407180000005E1FB02E506F00042E0FB03E54FF00006E1FB03569CF0000F18BF4EF0010EA4F1FF04B6F5007F64F5407404D25FEA4E0E6D4146EB060642EAC62141EA5551BA
:4071C0004FEAC52040EA5E504FEACE2EB4F1FD0C88BFBCF5E06F1ED8BEF1004F08BF5FEA500E50F1000041EB045170BD06F0004646EA010140EA020081EA0301B4EB5C0416
:40720000C2BFD4EB0C0541EA045170BD41F480114FF0000E013C00F3AB8014F1360FDEBF002001F0004170BDC4F10004203C35DA0C341BDC04F11404C4F1200500FA05F348
