:400000000080002011000000AD070000AD07000080B500AF024A034B1B68136000F0D0FBBC760040FA46004010B5054C237833B9044B13B10448AFF300800123237010BDE4
:400040009881FF1F000000002C240000084B10B51BB108480849AFF300800848036803B910BD074B002BFBD0BDE81040184700BF000000002C2400009C81FF1F0881FF1F81
:400080000000000080B400AF104B01221A60104B00221A600F4B00221A600F4B00221A800E4B00221A700E4B00221A700D4B00221A700D4B01221A700C4B01221A700C4BF4
:4000C00000221A70BD465DF8047B70471081FF1FB481FF1FB881FF1FBC81FF1FBE81FF1FBF81FF1FC081FF1F1481FF1F1581FF1FC181FF1F80B400AF084B1B78084B1B7882
:40010000022B07D1074B01221A70074B1B680133054A1360BD465DF8047B7047034F00401481FF1FBE81FF1FB481FF1F98B500AF14E00E4B1C68631C0C4A136001F09AF9D4
:4001400003461A460A4B1A55084B1B68DA1E094B1B689A4202D1084B01221A6001F078F9034603F02003002BE3D198BD0482FF1FC481FF1F0C82FF1F0882FF1F000000007E
:4001800090B5A9B000AF012001F09CF8B84B07F13C040FCB07C423800023A7F89E300023C7F898300023C7F8943062B600F0C2FFB04801F001F8B04801F0A4F901F0EAF8E5
:4001C00000F0F2FD0023C7F890300023C7F88C304FF00003C7F888304FF00003C7F8843001F0C8F80346002B01D0FFF74BFF012000F0EAFD0346002B42D000F00DFE03467A
:40020000184601F0E9FE0346C7F880300020012100F082F9D7F8800001F06EFB02460B461046194690A3D3E9002301F0B9FB02460B461046194601F0C5FD0346C7F88830B4
:40024000D7F8880002F06CF80346C7F89030D7F8900001F0C1FE0346D7F88800194601F005FE0346C7F88430D7F88400834901F007FF0346184602F053F80346C7F88C308D
:400280007F4B1B68022B15D17E4B1B78303BC7F898307C4B5B78303BC7F89430D7F8982013469B0013445B001A46D7F894301344754A1360754B1B68002B14D0724B1B68CD
:4002C000734874491A4600F03FFA6D4B00221A606D4B00221A606B480021402202F07DF86A4B00221A606B4B1B78013B042B00F2088101A252F823F00D0300001F03000006
:400300002F040000B5040000E7040000624B1B78002B03D0604B00221A70F3E0F2E05F4B1B78002B74D05E4B1B680E2B07DCB7F97E205C4B1B6813445A4A136025E0584B2A
:400340001B680F2B13D1B7F97E20564B1B681344544A1360534B1B68534A82FB03121A44D210DB17D31A9AB2504B1A800DE04F4B1B881AB2B7F97E3010460F211A4600F0E8
:40038000BBF903461A46494B1A80484B1B881BB244F6206293421ADD002000F075FF012000F0AEFF3B4B03221A703B463C221846002102F012F83A4B00221A603C4B00228C
:4003C0001A60384B00221A60384B00221A80344B1B680133324A1360354B1B6841F28732934211DD002000F04FFF2A4B01221A702B4B00221A602E4B00221A60294B002211
:400400001A602A4B00221A80244B00221A700DE0214B1B78002B09D03B463C221846002101F0DBFF1C4B00221A706BE06AE041F2883000F085FC012000F00CFF3B463C22DE
:400440001846002101F0C9FF41F6583000F078FC002000F0FFFE41F2883000F071FC0D4B04221A704EE000BF8FC2F5285C8F4A3F40240000F50000002D01000000401C46CC
:400480000482FF1FC481FF1F0C82FF1F0882FF1FC781FF1F1481FF1FBF81FF1FBE81FF1F1081FF1FB881FF1F89888888BC81FF1FB481FF1F144B1B78002B02D0134800F0FE
:4004C000E3F8012000F038FF43F6982000F038FC002000F031FF41F2883000F031FC0C4B05221A700EE0012000F0CEFE012000F007FF43F6982000F023FC054B01221A7095
:4005000000E000BF6CE600BFC081FF1F302400001481FF1FAFF3008090B587B000AF03460A46FB711346BB71124B07F108040FCB84E80F00104B1B78BA799A4203D90E4BE6
:400540001B78013BBB71BB799B0007F11802134453F8103CDAB2FB791344DBB2DBB263F07F03DBB2DBB2184600F008F800BF1C37BD4690BD502400003A82FF1F80B582B0EC
:4005800000AF0346FB71FB791846002100F012F800BF0837BD4680BD80B582B000AF0346FB71FB791846012100F004F800BF0837BD4680BD80B584B000AF03460A46FB71A6
:4005C0001346BB71FB7923F00F03FB73FB791B01BB73FA7BBB791343DBB2184600F00CF8BA7BBB791343DBB2184600F005F800BF1037BD4680BD00BF80B582B000AF0346D8
:40060000FB71FB79184600F009F8FB79184600F01DF800BF0837BD4680BD00BF80B582B000AF0346FB71074B1978074B1A78FB791343DBB20846194600F046F800BF0837F5
:40064000BD4680BD3482FF1F3382FF1F80B582B000AF0346FB71FB7943F00403DBB21846FFF7DCFF012000F08DFBFB7923F00403DBB21846FFF7D2FF322000F083FB00BF06
:400680000837BD4680BD00BF80B584B000AF78600023FB60786801F0A8FE0346FB720023FB6009E07A68FB6813441B781846FFF773FFFB680133FB60FA7AFB689A42F1D897
:4006C00000BF1037BD4680BD80B582B000AF03460A46FB711346BB71FB791846002100F0EFFBBB79184600F075FC00F047FC00BF0837BD4680BD00BF80B483B000AF0346C5
:40070000FB800B46BB8013467B80FA88B7F90610B7F9043091FBF3F39BB2D31A9BB2FB80B7F90220B7F9043092FBF3F39AB2FB8813449BB2FB80FB881BB218460C37BD46B3
:400740005DF8047B704700BF80B586B000AFF860B9607A6000237B61FB681B7818461249052201F04AFE0346002B02D0BB6802221A7011E009E07B695A1C7A611A46FB68D3
:4007800013441B78184600F0A3FE00F095FE034603F00803002BEED17B68DA1C7B699A42E8DC1837BD4680BD7024000080B500AF01F0DCFD03461B680C2B00D1FEE7FEE7E0
:4007C00080B586B000AF224B7B61224B3B61204B7B6135E03B691B68FB603B695B68BB603B699B683B6000237B600CE0FB681A68BB681A60BB680433BB60FB680433FB6015
:400800007B6804337B607A683B689A42EED13B69DB683B6000237B6008E0BB6800221A60BB680433BB607B6804337B607A683B689A42F2D13B6910333B617B69013B7B616F
:400840007B69002BC6D101F097FDFFF799FCFEE701000000FC24000080B582B000AF174B174A1A60174A174B1B6843F40073136000237B600FE07B68032B04D8124A7B68ED
:4008800052F8233000E0114B11497A6841F822307B6801337B607B682F2BECD90D4B1B78DAB20D4B1A700D4B094A1A6000F06CF90B4B00221A600837BD4680BD0CED00E087
:4008C0000004FA0514ED00E000000000AD0700000080FF1FBC7600400481FF1F08ED00E00081FF1F80B582B000AF78603960786800213A6801F071FD0837BD4680BD00BF72
:4009000080B584B000AFF860B9607A60F868B9687A6801F057FD1037BD4680BD80B483B000AF0346FB71FEE780B487B000AF7860396000233B6100237B6127E07B699B00A6
:400940007A6813441B68BB60BB68FB73BB6823F0FF03BB6014E03B695B003A6813441B781A46BB68134419463B695B003A6813445B780B703B6901333B61FB7B013BFB732A
:40098000FB7B002BE7D17B6901337B617B69242BD4D91C37BD465DF8047B704780B582B000AF454B00221A80444B58221A70444B00221A80434B50221A70434B4D221A80C8
:4009C000424B18221A70424B40F65F121A80414B18221A70404841490422FFF791FF404B02221A704FF0402308221A703D4B03221A703D4B3D4A1278D2B21A703C4B0822AC
:400A00001A803C4B41F251221A800023FB7019237B6014E0FB785B00DAB2374B1B78DBB203F00103DBB21343DBB203F00303FB704FF4F07000F0D0FD7B68013B7B607B68B8
:400A4000002B02D0FB78032BE4D17B68002B02D10320FFF763FF294B4FF480721A80274B07221A70264B00221A70264B48221A70224B00221A70244B02221A70234B042213
:400A80001A70234A224B1B78DBB243F00F03DBB21370204A1F4B1B78DBB243F00103DBB213701D4A1C4B1B78DBB263F07F03DBB213700837BD4680BD8040004082400040CE
:400AC0008440004086400040884000408A4000408C4000408E40004000410040640A00480043004000420040A146004008010049224200402042004025420040044000409A
:400B00000640004008400040014000400B400040A2430040A1430040A043004080B483B000AF114B1B78FB71104AFB7903F00703DBB213700E4AFB791B09DBB213700D4B8B
:400B400044F204021A800C4B21221A700B4B04221A700B4B04221A700A4B44221A700C37BD465DF8047B7047CF0100496E5800406F5800401C510040DB5A0040005B004076
:400B8000585B00407658004080B586B000AF72B6534A534B1B78DBB243F00403DBB213700023FB7513E0FA7D13465B0013445B004C4A13443B613B691A683B699B889BB227
:400BC00010461946FFF78EFEFB7D0133FB75FB7D092BE8D90023FB751CE0FA7D13469B0013445B00404A1344FB60FB681B68BB60FB685B687B60FB681A7A5B7A1B0213430C
:400C00007B807B88B86879681A46FFF779FEFB7D0133FB75FB7D012BDFD94FF090403349FFF782FE324B0A221A70324B40F203321A80314A304B1B78DBB243F00203DBB2E3
:400C400013702E4A2D4B1B78DBB243F00203DBB213702B4A2A4B1B78DBB243F04003DBB21370284A274B1B78DBB243F01003DBB21370254825490822FFF742FE244825499A
:400C80000A22FFF73DFE244824490822FFF738FE234824490A22FFF733FE234823490822FFF72EFE224A224B1B78DBB243F00803DBB213701F4B00221A70FFF76FFE1D4B32
:400CC00080221A701C4B01221A70FFF727FF1B480B490E22FFF714FE1837BD4680BD00BFE846004084240000C024000094000048835800404E58004003500140135001404C
:400D0000A0430040C243004002510040340A0048C05100403C0A004812510040480A004820510040500A0048325100405C0A0048224300400048004004000840B0430040A6
:400D400080B582B000AF786008E00C4B1B68184600F042FC7B68A3F500437B607B68B3F5004FF2D8064B1B687A6802FB03F3184600F032FC0837BD4680BD00BF3081FF1FC8
:400D80002881FF1F80B582B000AF0346FB80FB88044A127802FB03F3184600F01DFC0837BD4680BD2C81FF1F80B400AF054A054B1B78DBB243F00103DBB21370BD465DF852
:400DC000047B7047004E004080B485B000AF0346FB710E4B1B78DBB2002B03D00C4B1B78FB7305E00B4B1B78DBB203F00103FB73FB7B012B02D0FB79002BEAD0FB7B184632
:400E00001437BD465DF8047B704700BF1D82FF1F1C82FF1F014E004080B483B000AF224B1B78DBB203F00303FB70FB78012B0BD81E4B1B889BB27B607B681B041C4A128853
:400E400092B213437B6020E0FB78022B12D1174B1B889BB27B607B681B04154A1278D2B213437B60134B1B78DBB21B027A6813437B600AE00E4B1B889BB27B600B4B1B88F8
:400E80009BB21B047A6813437B600B4B1B78DBB2002B02D0094B00221A707B6818460C37BD465DF8047B7047144E0040124E0040104E0040114E00401D82FF1F1C82FF1F36
:400EC00080B485B000AF03460A46FB711346BB710223FB73244B1B78DBB2102B3CD1234B1B78DBB203F00803002B33D1204B4FF400421A60FB795B00FB71BB79002B07D050
:400F0000FB7943F00103FB71174B49221A7002E0154B45221A70174AFB791370134B01221A7000BF144B1B78DBB203F00103002BF8D0114B1B78DBB203F00A03DBB20A2B47
:400F400005D1094B10221A700323FB7304E00023FB7301E00123FB73FB7B18461437BD465DF8047B704700BF3B82FF1FD949004080E100E0D8490040D749004080B483B0FD
:400F800000AF0223FB71104B1B78DBB203F00403002B12D00C4B10221A700C4B04221A700B4B10221A7000BF084B1B78DBB203F02103002BF8D00023FB71FB7918460C3763
:400FC000BD465DF8047B7047D9490040D74900403B82FF1F80B485B000AF0346FB710223FB73184B1B78DBB203F00403002B22D0154AFB791370154B04221A70144B46229F
:401000001A7000BF114B1B78DBB203F00103002BF8D00E4B1B78DBB203F00203002B05D10B4B60221A700023FB7304E0084B60221A700323FB73FB7B18461437BD465DF84E
:40104000047B7047D9490040D8490040D74900403B82FF1F80B500AF204A204B1B78DBB203F00103DBB213701D4A1D4B1B78DBB223F00303DBB213701A4A1A4B1B78DBB25B
:4010800023F03003DBB21370164A164B1B78DBB243F03003DBB21370124A124B1B78DBB223F00F03DBB213700E4A0E4B1B78DBB243F00F03DBB213700B4A0B4B1B78DBB284
:4010C00043F00103DBB21370132000F053F8132000F062F8082000F03DF880BD004F0040024F00400B4F0040014F004080B400AF0D4A0D4B1B78DBB243F00103DBB21370F1
:401100000A4A0A4B1B78DBB243F00103DBB21370074A074B1B78DBB243F00103DBB21370BD465DF8047B7047A3430040B3430040004F004080B500AF054B1B78002B04D155
:40114000FFF788FF024B01221A70FFF7CFFF80BD3082FF1F80B483B000AF0346FB71044AFB7913700C37BD465DF8047B704700BF034F004080B485B000AF0346FB80FB8896
:40118000FB81044AFB8913801437BD465DF8047B704700BF044F004080B483B000AF0346FB80044AFB8813800C37BD465DF8047B704700BF064F004080B582B000AF7860D2
:4011C00000F03CF8786800F009F8072000F018F800F028F80837BD4680BD00BF80B485B000AF7860054B1B68FB60FB6884337A681A601437BD465DF8047B704708ED00E043
:4012000080B483B000AF0346FB71054AFB795B01DBB213700C37BD465DF8047B704700BF11E400E080B400AF034B4FF400321A60BD465DF8047B704700E100E080B400AFFD
:40124000034B4FF400321A60BD465DF8047B704780E100E080B485B000AF0346FB71094B1B78DBB203F07F03FB730649FB79DB01DAB2FB7B1343DBB20B701437BD465DF89C
:40128000047B70471051004080B485B000AF0346FB710B4B1B78DBB223F00203FB730849FB795B00DBB203F00203DAB2FB7B1343DBB20B701437BD465DF8047B704700BFF1
:4012C0000051004080B485B000AF0346FB710B4B1B78DBB223F00203FB730849FB795B00DBB203F00203DAB2FB7B1343DBB20B701437BD465DF8047B704700BF2051004046
:4013000080B485B000AF0346FB710A4B1B78DBB223F00103FB730749FB7903F00103DAB2FB7B1343DBB20B701437BD465DF8047B704700BF0051004080B485B000AF034641
:40134000FB710B4B1B78DBB223F02003FB730849FB795B01DBB203F02003DAB2FB7B1343DBB20B701437BD465DF8047B704700BF1051004080B400AF054B1B78DBB203F044
:4013800004039B08DBB21846BD465DF8047B70472151004080B500AF054B1B78002B04D100F008F8024B01221A7000F023F880BD3182FF1F80B400AF094B72221A70094BE5
:4013C00020221A70084B06221A70084B47221A70074B00221A70BD465DF8047B704700BF896500408A65004021640040316400408264004080B582B000AF00F00CF903461A
:40140000FB71104A0F4B1B78DBB243F02003DBB213700D4A0C4B1B78DBB243F01003DBB213700A4A094B1B78DBB243F01003DBB2137000F0B5F8FB79184600F0F0F808373E
:40144000BD4680BD996500409A6500409264004080B483B000AF064B1B78DBB203F07F03FB71FB7918460C37BD465DF8047B70476A65004080B483B000AF0023FB710C4B63
:401480001B78BB71BB7903F02003002B09D0094B1B78FB71BB7903F01E03002B01D00023FB71FB7918460C37BD465DF8047B70476A6500404A65004080B400AF034B1B7894
:4014C000DBB21846BD465DF8047B70476264004080B483B000AF0346FB7100BF074B1B78DBB203F00403002BF8D1054AFB7913700C37BD465DF8047B704700BF62640040A7
:401500004264004080B582B000AF786000F03CF8786800F009F8072000F018F800F028F80837BD4680BD00BF80B485B000AF7860054B1B68FB60FB6848337A681A601437CA
:40154000BD465DF8047B704708ED00E080B483B000AF0346FB71054AFB795B01DBB213700C37BD465DF8047B704700BF02E400E080B400AF034B04221A60BD465DF8047B10
:40158000704700BF00E100E080B400AF034B04221A60BD465DF8047B704700BF80E100E080B400AF094A094B1B78DBB243F00403DBB21370064A064B1B78DBB243F00403A6
:4015C000DBB21370BD465DF8047B7047A2430040B243004000000000142816D902B4012114381049097811F0C001890904B40E4A515C04BC00BF00BF00BF8841FDD500BF62
:4016000000BF02BC704700BF00BF70F10400FCD570470B050709EFF3108072B6704780F3108870470048004012160000AFF3008081F0004102E000BF83F0004330B54FEADF
:4016400041044FEA430594EA050F08BF90EA020F1FBF54EA000C55EA020C7FEA645C7FEA655C00F0E2804FEA5454D4EB5555B8BF6D420CDD2C4480EA020281EA030382EA92
:40168000000083EA010180EA020281EA0303362D88BF30BD11F0004F4FEA01314FF4801C4CEA113102D0404261EB410113F0004F4FEA03334CEA133302D0524263EB43031A
:4016C00094EA050F00F0A780A4F10104D5F1200E0DDB02FA0EFC22FA05F2801841F1000103FA0EF2801843FA05F359410EE0A5F120050EF1200E012A03FA0EFC28BF4CF058
:40170000020C43FA05F3C01851EBE37101F0004507D54FF0000EDCF1000C7EEB00006EEB0101B1F5801F1BD3B1F5001F0CD349085FEA30004FEA3C0C04F101044FEA445217
:4017400012F5800F80F09A80BCF1004F08BF5FEA500C50F1000041EB045141EA050130BD5FEA4C0C404141EB010111F4801FA4F10104E9D191F0000F04BF01460020B1FA54
:4017800081F308BF2033A3F10B03B3F120020CDA0C3208DD02F1140CC2F10C0201FA0CF021FA02F10CE002F11402D8BFC2F1200C01FA02F120FA0CFCDCBF41EA0C01904033
:4017C000E41AA2BF01EB0451294330BD6FEA04041F3C1CDA0C340EDC04F11404C4F1200220FA04F001FA02F340EA030021FA04F345EA030130BDC4F10C04C4F1200220FA1D
:4018000002F001FA04F340EA0300294630BD21FA04F0294630BD94F0000F83F4801306BF81F480110134013D4EE77FEA645C18BF7FEA655C29D094EA050F08BF90EA020FB9
:4018400005D054EA000C04BF1946104630BD91EA030F1EBF0021002030BD5FEA545C05D14000494128BF41F0004130BD14F580043CBF01F5801130BD01F0004545F0FE41C7
:4018800041F470014FF0000030BD7FEA645C1ABF194610467FEA655C1CBF0B46024650EA013406BF52EA033591EA030F41F4002130BD00BF90F0000F04BF0021704730B5BB
:4018C0004FF4806404F132044FF000054FF0000150E700BF90F0000F04BF0021704730B54FF4806404F1320410F0004548BF40424FF000013EE700BF42004FEAE2014FEA32
:4019000031014FEA02701FBF12F07F4393F07F4F81F06051704792F0000F14BF93F07F4F704730B54FF4607401F0004521F0004120E700BF50EA010208BF704730B54FF069
:4019400000050AE050EA010208BF704730B511F0004502D5404261EB41014FF4806404F132045FEA915C3FF4DCAE4FF003025FEADC0C18BF03325FEADC0C18BF033202EBBB
:40198000DC02C2F1200300FA03FC20FA02F001FA03FE40EA0E0021FA02F11444C1E600BF70B54FF0FF0C4CF4E06C1CEA11541DBF1CEA135594EA0C0F95EA0C0F00F0DEF8C5
:4019C0002C4481EA030621EA4C5123EA4C5350EA013518BF52EA033541F4801143F4801338D0A0FB02CE4FF00005E1FB02E506F00042E0FB03E54FF00006E1FB03569CF0E9
:401A0000000F18BF4EF0010EA4F1FF04B6F5007F64F5407404D25FEA4E0E6D4146EB060642EAC62141EA55514FEAC52040EA5E504FEACE2EB4F1FD0C88BFBCF5E06F1ED844
:401A4000BEF1004F08BF5FEA500E50F1000041EB045170BD06F0004646EA010140EA020081EA0301B4EB5C04C2BFD4EB0C0541EA045170BD41F480114FF0000E013C00F3C2
:401A8000AB8014F1360FDEBF002001F0004170BDC4F10004203C35DA0C341BDC04F11404C4F1200500FA05F320FA04F001FA05F240EA020001F0004221F0004110EBD37072
:401AC00021FA04F642EB06015EEA430E08BF20EAD37070BDC4F10C04C4F1200500FA04F320FA05F001FA04F240EA020001F0004110EBD37041F100015EEA430E08BF20EAFA
:401B0000D37070BDC4F1200500FA05F24EEA020E20FA04F301FA05F243EA020321FA04F001F0004121FA04F220EA020000EBD3705EEA430E08BF20EAD37070BD94F0000FF4
:401B40000FD101F00046400041EB010111F4801F08BF013CF7D041EA060195F0000F18BF704703F00046520043EB030313F4801F08BF013DF7D043EA0603704794EA0C0F66
:401B80000CEA135518BF95EA0C0F0CD050EA410618BF52EA4306D1D181EA030101F000414FF0000070BD50EA410606BF1046194652EA430619D094EA0C0F02D150EA0136A8
:401BC00013D195EA0C0F05D152EA03361CBF104619460AD181EA030101F0004141F0FE4141F470014FF0000070BD41F0FE4141F4780170BD70B54FF0FF0C4CF4E06C1CEA42
:401C000011541DBF1CEA135594EA0C0F95EA0C0F00F0A7F8A4EB050481EA030E52EA03354FEA013100F088804FEA03334FF0805545EA131343EA12634FEA022245EA11151C
:401C400045EA10654FEA00260EF000419D4208BF964244F1FD0404F5407402D25B084FEA3202B61A65EB03055B084FEA32024FF480104FF4002CB6EB020E75EB030E22BFE0
:401C8000B61A754640EA0C005B084FEA3202B6EB020E75EB030E22BFB61A754640EA5C005B084FEA3202B6EB020E75EB030E22BFB61A754640EA9C005B084FEA3202B6EBEA
:401CC000020E75EB030E22BFB61A754640EADC0055EA060E18D04FEA051545EA16754FEA06164FEAC30343EA52734FEAC2025FEA1C1CC0D111F4801F0BD141EA00014FF069
:401D000000004FF0004CB6E711F4801F04BF01430020B4F1FD0C88BFBCF5E06F3FF6AFAEB5EB030C04BFB6EB020C5FEA500C50F1000041EB045170BD0EF0004E4EEA1131AE
:401D400014EB5C04C2BFD4EB0C0541EA045170BD41F480114FF0000E013C90E645EA060E8DE60CEA135594EA0C0F08BF95EA0C0F3FF43BAF94EA0C0F0AD150EA01347FF4BF
:401D800034AF95EA0C0F7FF425AF104619462CE795EA0C0F06D152EA03353FF4FDAE1046194622E750EA410618BF52EA43067FF4C5AE50EA41047FF40DAF52EA43057FF4AE
:401DC000EBAE12E74FEA4102B2F1E04324BFB3F5001CDCF1FE5C0DD901F0004C4FEAC0024CEA5070B2F1004F40EB830008BF20F00100704711F0804F21D113F13872BCBF13
:401E000001F00040704741F480114FEA5252C2F11802C2F1200C10FA0CF320FA02F018BF40F001004FEAC1234FEAD32303FA0CFC40EA0C0023FA02F34FEA4303CCE77FEA1A
:401E4000625307D150EA01331EBF4FF0FE4040F44000704701F0004040F0FE4040F40000704700BF80F0004002E000BF81F0004142001FBF5FEA410392EA030F7FEA226C64
:401E80007FEA236C6AD04FEA1262D2EB1363C1BFD218414048404140B8BF5B42192B88BF704710F0004F40F4000020F07F4018BF404211F0004F41F4000121F07F4118BFED
:401EC000494292EA030F3FD0A2F1010241FA03FC10EB0C00C3F1200301FA03F100F0004302D5494260EB4000B0F5000F13D3B0F1807F06D340084FEA310102F10102FE2A19
:401F000051D2B1F1004F40EBC25008BF20F0010040EA03007047490040EB000010F4000FA2F10102EDD1B0FA80FCACF1080CB2EB0C0200FA0CF0AABF00EBC25052421843EC
:401F4000BCBFD0401843704792F0000F81F4000106BF80F400000132013BB5E74FEA41037FEA226C18BF7FEA236C21D092EA030F04D092F0000F08BF0846704790EA010FFC
:401F80001CBF0020704712F07F4F04D1400028BF40F00040704712F100723CBF00F50000704700F0004343F0FE4040F4000070477FEA226216BF08467FEA23630146420247
:401FC00006BF5FEA412390EA010F40F4800070474FF0000304E000BF10F0004348BF40425FEA000C08BF704743F0964301464FF000001CE050EA010208BF70474FF000036B
:402000000AE000BF50EA010208BF704711F0004302D5404261EB41015FEA010C02BF84460146002043F0B64308BFA3F18053A3F50003BCFA8CF2083AA3EBC25310DB01FAD5
:4020400002FC634400FA02FCC2F12002BCF1004F20FA02F243EB020008BF20F00100704702F1200201FA02FCC2F1200250EA4C0021FA02F243EB020008BF20EADC707047A9
:402080004FF0FF0C1CEAD0521EBF1CEAD15392EA0C0F93EA0C0F6FD01A4480EA010C400218BF5FEA41211ED04FF0006343EA501043EA5111A0FB01310CF00040B1F5000F36
:4020C0003EBF490041EAD3715B0040EA010062F17F02FD2A1DD8B3F1004F40EBC25008BF20F00100704790F0000F0CF0004C08BF49024CEA502040EA51207F3AC2BFD2F1CF
:40210000FF0340EAC250704740F400004FF00003013A5DDC12F1190FDCBF00F000407047C2F10002410021FA02F1C2F1200200FA02FC5FEA310040F1000053EA4C0308BF44
:4021400020EADC70704792F0000F00F0004C02BF400010F4000F013AF9D040EA0C0093F0000F01F0004C02BF490011F4000F013BF9D041EA0C018FE70CEAD15392EA0C0FE6
:4021800018BF93EA0C0F0AD030F0004C18BF31F0004CD8D180EA010000F00040704790F0000F17BF90F0004F084691F0000F91F0004F14D092EA0C0F01D142020FD193EA5B
:4021C0000C0F03D14B0218BF084608D180EA010000F0004040F0FE4040F40000704740F0FE4040F4400070474FF0FF0C1CEAD0521EBF1CEAD15392EA0C0F93EA0C0F69D037
:40220000A2EB030280EA010C49024FEA402037D04FF0805343EA111143EA10130CF000408B4238BF5B0042F17D024FF4000C8B4224BF5B1A40EA0C00B3EB510F24BFA3EBD3
:40224000510340EA5C00B3EB910F24BFA3EB910340EA9C00B3EBD10F24BFA3EBD10340EADC001B0118BF5FEA1C1CE0D1FD2A3FF650AF8B4240EBC25008BF20F00100704799
:402280000CF0004C4CEA50207F32C2BFD2F1FF0340EAC250704740F400004FF00003013A37E792F0000F00F0004C02BF400010F4000F013AF9D040EA0C0093F0000F01F0D9
:4022C000004C02BF490011F4000F013BF9D041EA0C0195E70CEAD15392EA0C0F08D142027FF47DAF93EA0C0F7FF470AF084676E793EA0C0F04D14B023FF44CAF08466EE7EE
:4023000030F0004C18BF31F0004CCAD130F000427FF45CAF31F000437FF43CAF5FE700BF4FEA4002B2F1FE4F0FD34FF09E03B3EB12620DD94FEA002343F0004310F0004F65
:4023400023FA02F018BF404270474FF00000704712F1610F01D1420205D110F0004008BF6FF0004070474FF000007047014B1868704700BF9481FF1F0E4B70B51E460E4CE5
:402380000025E41AA410A54204D056F8253098470135F8E700F0A0F8084B094C1E46E41AA4100025A54204D056F8253098470135F8E770BDE4240000E4240000E4240000F2
:4023C000EC24000010B5431E0A44914204D011F8014B03F8014FF8E710BD03460244934202D003F8011BFAE77047034613F8012B002AFBD1181A0138704770B5A2B1451E0E
:4024000001396B7811F8014F6E1CA34206D16FF00104641B1444E04202D11C46181B70BD3546002BEDD1F8E7104670BD000000005741544552204445544543544544000043
:4024400053595354454D5F434845434B2020000000000000400000001400000054000000256420256420256420202020200000007374617274000000035B004024430040E4
:4024800040000000C84900401900004F00400C00405100403000F05100401000000001400010001401400006801A0140800100400140000A004C0140000200500140200072
:4024C00060520040AC0900480600001A0140B4090048800043000000F8B500BFF8BC08BC9E4670474D00000059080000F8B500BFF8BC08BC9E4670472900000010250000BA
:402500000881FF1F90000000A800000000000000000000003F0000000100000001010000746573745F312E747874000000366E01C05D0000180000000000E02E00000000B4
:4025400000000000000000000000000000000000000000000000000000000000D4240000000000000000000000000000000000000000000000000000000000000000000063
:40258000000000000000000000000000000000000000000000000000000000003481FF1F000000000000000000000000000000000000000000000000000000000000000048
:4025C00000000000000000000000000000000000000000000000000000000000000000000000000000000000000000000000000000000000000000000000000000000000DB
:40260000000000000000000000000000000000000000000000000000000000000000000000000000000000000000000000000000000000000000000000000000000000009A
:40264000000000000000000000000000000000000000000000000000000000000000000000000000000000000000000000000000000000000000000000000000000000005A
:40268000000000000000000000000000000000000000000000000000000000000000000000000000000000000000000000000000000000000000000000000000000000001A
:020000040003F7
:0200000480007A
:40000000024F004002520040015A004003640040036500404C0001402A0101404B020140440301404A040140420501400A0701404108014021090140380A0140190B01405C
:400040005D1401403C15014064160140371701402B1801402C190140371B014004400140034101400B4201400643014006440140044501400846014007470140094801406E
:400080000D490140124C01400A4D01400B5001400251014001300A4B18601940DF04820F830F8B0D870D89728A38000C010203010502060F070109010A0C0B020C080F0174
:4000C000100C140115011602180419031C011D011E0E2404260829012C0C2D01320F35033B20580459045F01830884018606880C8A038B058E0895039603971499039B0C2D
:40010000A51AA60CA704A801AA0EAB18B31CB40FB503B920BA20BB08BF10C002C740C9FFCA07CBFFCC40CD20CEF0CF05D008D804D904DA04DC22DD02DF01E040E1A8E24042
:40014000E3200080035405140601080109410A100B040F2011441620172018201A101D101F10211023042520272028092E202F143354350436043720382239403B043F22F0
:400180004520551056015711C0EFC22FC465CA6CCC6ECEAFD020042C0611081C0A220B250C090E1014301523160C170C19231B041D101E032414250A272428402B082C1023
:4001C0002D032F2431203260330F3510361F38083B083F114026410345E046B047C0482A49FF4AFF4BFF4EF04F44500C5401580459045A045B045C225D225F0166C06A40AC
:400200006B0281018404860389019401960699019C039E04A805AA02B407B701BA20BF40D602D724D804D904DB04DF01000405400608072009400A100C040E0212081510F8
:40024000161118041E021F0420012440260427082E082F16331034143684372038223D323E0244144D124E80561057025C405D025F186004694C6B4572027C087D0485403D
:40028000870490209120921093249402954497089A019B209C089F54A110A440A541A604C0E4C2A5C4E2CA70CC74CE25D060D220D6F0D804050106010A01130115011C0198
:4002C0001D012101310136013E403F015409580459045B045F0180018502880189078B088C018D049106970699019B0E9D099E019F06A106A201A401A502A704AD06B401E6
:40030000B70FB980BE10C056C103C240C402C50EC6FCC7DBC83DC9FFCAFFCBFFCC22CEF0CF08D004D440D804D904DA04DB04DF01E2C0E440E501E610E711E8C0E901EB11CE
:40034000EC40ED01EE40EF01001003100682074409400F031508170119401F10210222012402254026402A022D042E82334536403715383039043A203E203F8445224620CC
:400380004C014D084E0854405610574559485A025B2060016610672185209021912C930494029A029B459F10A440A540A608AA01AF12C0D6C281C430CAD1CCFBCE72D0E06B
:4003C000D230D60FD878E220E608EC019020912C9A029B459F10A240A344A608AC40AF20404549FF4AFF4BFF4F01501852805A045B045D995F0160406240644065406680B1
:4004000068806A806C806E80810283018401850789088D088E019201950799049B019D019F06A108A801A908B201B308B707B808BA20BF04C051C9FFCAFFCBFFCD83CE037F
:40044000CF01D018D804D904DA04DC22DD09DF01E040E240E440E540E680E880EA80EC80EE8000440A4013101804191422842301291132903304384039043A013B104180D9
:40048000464048014F80740176409E40A180A340A401B401C005C208C402CA05CC0ECE0FD088D218080136013E40405149FF4AFF4BFF4D834E034F01501858045A045D09F7
:4004C0005F016040624064406540668068806A806C806E8083018F01B701B920BF50C045C5ECC602C807C9FFCAFFCBFFCD83CE03CF01D018D401D604D904DA04DB04DD998B
:40050000DF01E040E240E440E540E680E880EA80EC80EE800120180226603C023F804180464048014F85558057405E805F05660286028A209920A920C002CE90D088D218F0
:40054000D6D0D880E220020C03380408060309090B02100411011203131419221A011B011D3E260228012A022B4033383540360F370739803F04404649FF4AFF4BFF4F01D7
:4005800050185280580459045A045B045D995F016040624064406540668068806A806C806E80800184228608870388078A188C01900892219701981099089C049F05A0010A
:4005C000A108A401A506A801B507B63FB708B880B980BE40C046C9FFCAFFCBFFCD83CE03CF01D018D804D904DA04DD09DF01E040E240E440E540E680E880EA80EC80EE8046
:40060000000103100420050806020750080109200C110D800E800F08101011101524170118011F8021202244258027082B042D082F80300132403310365037083821391070
:400640003E084240468048084C0872C087088A049020912496409A0A9B519E80A008A250A304A580C0FCC2DAC476CAC4CC7DCE45D081D224E282EA0100C00202047F050745
:400680000680081F0A200CC00E010F02110412FF14C0160417041A9F1B051D041E6020902104224024C025042608288029042D0332FF33073B0C3E04404649FF4AFF4BFF04
:4006C0004D834E034F015018580459045A045D095F016040624064406540668068806A806C806E808502870D89018B028D028F049201950D99029B089D0DA10DA90DAA01A7
:40070000AD0DB50FB601BB20BE40C046C5ECC702C813C9FFCAFFCBFFCD83CE03CF01D018D401D804D904DA04DB04DD99DF01E040E240E440E540E680E880EA80EC80EE80DE
:400740000420060A07500A400C050D840E800F48100815301640170519401E2020042608271028042A422C012D142E023354375538243B403E083F80424046804808490523
:400780004C08500859459020912C9A029B459F10A240A344A608C0F0C2F8C472CAFDCCFECE5ED081D224D60BE480EC10EE088124840E8518880289088A0C8C0C8D108E02BB
:4007C000900C92029363940C95679718980499409D609E02A008A17CA301A401A51CA762A801A97FAC01AF04B00EB11FB378B601BA02BB0AD602D712D804D904DB04DC2225
:40080000DD20DF0100680A561082111419811A4220602108231029512B203108329138A83A015A08680269146B0470D472148C408F209208930194409504966097109914CC
:400840009D019E019F04A280C007C20FC40FCA0FCC0FCE0FD602E480EC10EE08004A010208210A50100211141201130119411A34200421012209280129163080320133285F
:4008800038A83A024020410942044805499050805308590160046242864A88228A0290E8911492409301962099949D409E01A108A320A404C00DC20EC40FCA0FCC0FCE0F7C
:4008C000D007D20CD601D80DEA01310833803610CC70A508A610A7803E105A0287C08A01A508A610A780CE20D640E010E610200196109780A508A610C810110114207C4099
:400900007F10C40CDE05910194409720982046208B109101944097209820D001E0040320910198209E20B440C008E80223108B1096109780A508AE10B401C840EE100B8008
:400940005D01670885098B049780A508AA10C210D680D880E250EA80104013201480300879017C208A20910198209E20A008AF20B408C40ECC02DE03E401EC081080784007
:400980007C80888098C0AB20C408DC01DE04E6010005010108050A010C040D01100511011A011B011C04003B03C00000A03000007000000000010C060C060000000200007E
:4009C00000040C0000000C100A0021080C070000000000100C0010010300000803070000050662010C0703103008400000000000000010143506040002000C0E14FFFFFFA7
:400A000062A0F0410C00000018000400040404042222000100000000000040020010301000101012000000000000000000000000000000000003030000000000B00040B09C
:400A40008000B0000000000000ABAB000000440004000006020000000000000010E0E000600000004A0018010000000000000000000000000000000000000000000000000D
:400A80000000000000000000000000000000000000000000000000000000000000000000000000000000000000000000000000000000000000000000000000000000000036
:400AC00000000000000000000000000000000000000000000000000000000000000000000000000000000000000000000000000000000000000000000000000000000000F6
:400B000000000000000000000000000000000000000000000000000000000000000000000000000000000000000000000000000000000000000000000000000000000000B5
:400B40000000000000000000000000000000000000000000000000000000000000000000000000000000000000000000000000000000000000000000000000000000000075
:0200000490006A
:0400000000004005B7
:0200000490105A
:04000000BC90ACAF55
:0200000490303A
:0200000087FF78
:0200000490402A
:4000000000000000000000000000000000000000000000000000000000000000000000000000000000000000000000000000000000000000000000000000000000000000C0
:400040000000000000000000000000000000000000000000000000000000000000000000000000000000000000000000000000000000000000000000000000000000000080
:400080000000000000000000000000000000000000000000000000000000000000000000000000000000000000000000000000000000000000000000000000000000000040
:4000C0000000000000000000000000000000000000000000000000000000000000000000000000000000000000000000000000000000000000000000000000000000000000
:0200000490501A
:0C00000000012E12706900012E23F86828
:00000001FF