:400000000080002011000000091800000918000080B500AF024A034B1B68136001F026FCBC760040FA46004010B5054C237833B9044B13B10448AFF300800123237010BDB2
:40004000B081FF1F00000000A88B0000084B10B51BB108480849AFF300800848036803B910BD074B002BFBD0BDE81040184700BF00000000A88B0000B481FF1F0881FF1F8B
:400080000000000080B400AF084B1B78084B1B78022B07D1074B01221A70074B1B680133054A1360BD465DF8047B7047034F00401881FF1FDA81FF1FCC81FF1F80B400AF24
:4000C000184B1B78184B1B78022B07D0164B1B78032B03D0144B1B78042B02D1134B01221A70114B1B78052B07D00F4B1B78012B13D10F4B1B68002B0FD10E4B1B78013321
:40010000DAB20C4B1A700B4B1B78642B05D10A4B01221A60074B00221A70BD465DF8047B704700BF6D6400401881FF1FDB81FF1F2C82FF1FDE81FF1F3082FF1F98B500AF70
:4001400014E00E4B1C68631C0C4A136003F00AFD03461A460A4B1A55084B1B68DA1E094B1B689A4202DB084B01221A6003F0E8FC034603F02003002BE3D198BD2082FF1F87
:40018000E081FF1F2882FF1F2482FF1F80B400AF0F4B1B780F4B1B78012B03D10E4B1B68002B07D10B4B1B78032B03D0094B1B78042B08D1094B01221A70094B1B780133A3
:4001C000DAB2074B1A70BD465DF8047B704700BF676500401881FF1F3482FF1FDB81FF1FDD81FF1F00000000B0B5CCB002AF0023C7F818310023C7F814314FF00003C7F8D8
:4002000010314FF00003C7F80C314FF00003C7F808314FF00003C7F8243107F1B40300221A60043300221A60043300221A60043300221A60043300221A6004337C4B07F122
:40024000A4040FCB07C42370002387F8B130794B07F190041D460FCD0FC42B681A46228002341B0C2370744B07F180040FCB07C42380724B07F16C041D460FCD0FC42B68E7
:4002800023706F4B07F158041D460FCD0FC42B6823706C4B07F148040FCB84E80F000023C7F820310023A7F8063100237B640023C7F8003162B602F0CBFD01F0BBFF03F064
:4002C0007DF9614803F0BCF9604803F093FC03F0D9FB5F4B1B68DBB2184610210222002300F09EFD00F0CAFD01F00AFA01F014FA584800F011FF0020012100F03FFE5648D3
:4003000000F00AFF4FF47A7001F0BEFD00F022FE01F0A8FF514800F0EBFCC7F8FC00D7F8FC30002B09D04E4800F0F6FE4FF47A7001F0AAFD00F00EFE08E04A4800F0ECFE8A
:400340004FF47A7001F0A0FD00F004FE0020002100F014FE07F1A403184600F0DDFE424B01221A7003F028FA03F00CFB3F4803F085FA3F4803F0A6FC0023C7F81C31012017
:4003800001F080FF0346002B00F0D28001F0A2FF0346184607F0D4FD0346C7F80831D7F8080107F05DFA02460B46104619461EA3D3E9002307F0A8FA02460B4610461946DA
:4003C00007F0B4FC0346C7F810312A4B1B78002B00F0AE80284B1B680E2B0BDC274B1B681846D7F8101107F0F7FC03461A46234B1A6095E0204B1B680F2B43D11F4B1B684A
:400400001846D7F8101107F0E7FC03461A461B4B1A601A4B1B681846194907F099FE0346C7F824317CE000BF8FC2F5285C8F4A3F1C8D00002C8D0000408D0000508D00006F
:40044000648D0000788D0000850000003D0100000C81FF1FAC8B0000BC8B00001C81FF1FC88B0000D88B00001881FF1FBD0000008D010000DB81FF1F1481FF1FD481FF1F87
:4004800000007041D7F824010F21D7F8102100F08FFFC7F82401D7F8240107F0F5FE0346C7F81831D7F8180107F04AFD0346D7F82401194607F08EFC0346C7F80C31D7F87F
:4004C0000C01B74907F090FD0346184607F0DCFE0346C7F814313B1D1A463C23104600211A4607F02EFFD7F8080107F0CDFE03469BB21BB23A1D00931046AA49D7F818215C
:40050000D7F8143107F026FFA74B1C683B1D184607F044FF02463B1D2046194605F024FDA24B00221A70A24B1B680133A04A1360A04B1B68012B13DD9F4B1B78303B7B64BF
:400540009D4B5B78303BC7F800317A6C13469B0013445B001A46D7F800311344974A1360974B1B68002B2DD007F1B40392481946142201F0A7F8914B1A6807F1B403D91C91
:40058000904B009308469049904B00F03FFF02468F4B1A60874B00221A60884B00221A6085480021402207F0CCFE07F1B40318460021142207F0C5FE864B00221A70804BAD
:4005C00000221A6001F0E0F80346A7F8FA3001233B647D4B1B78013B042B00F26B8301A252F823F0F90500007F070000190A00005F0B0000810C0000724B1B68002B26D01C
:40060000754B01221A60754B00221A60744B00221A60744B00221A80734B00221A70634B00221A70714B00221A70714B01221A70674B00221A60674B00221A705D4B002220
:400640001A60624B00221A605E4B00221A60694B1B68002B0BD007F1B40207F14403104659490A2200F0C4FF624B00221A604F4B1B78002B00F082800020002100F07EFC33
:4006800000F068FC534B1B78C3F10A0307F1C802104659491A4607F05DFE07F1C803184600F03AFD0023C7F820314A4B1B78C3F10A0307F1C802104650491A4607F04AFED4
:4006C00019E011E0D7F820315A1CC7F8202107F59472134413F8603C184603F071FAD7F82031142B00DD06E003F05EFA034603F00803002BE6D1D7F82031142BE1DD354B8B
:400700001B780A2B36D1304B02221A700020002100F034FC00F01EFC394800F0FDFC0023C7F8203119E011E0D7F820315A1CC7F8202107F59472134413F8983C184603F0B0
:400740003FFAD7F82031122B00DD06E003F02CFA034603F00803002BE6D1D7F82031122BE1DD1D4B00221A601C4B00221A60194B00221A700D4B00221A709CE29BE21A4B48
:400780001B78002B00F04781134B1B680E2B39DCB7F9FA20124B1B681344114A136063E000401C46E48B00009092FF1FDB81FF1F1481FF1F2082FF1FE081FF1F2882FF1FFD
:4007C0002482FF1F3882FF1F1881FF1F2C82FF1F3482FF1FDD81FF1F1081FF1FCC81FF1FD081FF1FD881FF1FDA81FF1FDC81FF1F1981FF1F3082FF1FFC8B0000108C0000EB
:40080000288C0000BC4B1B680F2B13D1B7F9FA20BA4B1B681344B94A1360B84B1B68B84A82FB03121A44D210DB17D31A9AB2B54B1A8019E0B34B1B881BB2184607F080FBE7
:400840000446B7F9FA30184607F07AFB034620460F211A4600F0ACFD0346184607F014FD03469AB2A74B1A80A64B1B881BB244F62062934240F3A580A34B03221A700020DB
:40088000002100F07BFB00F065FBA04800F044FC3B1D1A463C23104600211A4607F051FD3B1D9B4A1C4615460FCD0FC495E8070003C422800234130C2370964B1C683B1DDB
:4008C000184607F06BFD02463B1D2046194605F04BFB0023C7F8203119E011E0D7F820315A1CC7F8202107F59472134413F8A83C184603F065F9D7F820310D2B00DD06E0D6
:4009000003F052F9034603F00803002BE6D1D7F820310D2BE1DD0020002100F02FFB00F019FB7D4800F0F8FB3B1D18460021282207F007FD3B1D794A1C4615460FCD0FC490
:4009400095E80F0007C42380724B1C683B1D184607F024FD02463B1D2046194605F004FB0023C7F8203119E011E0D7F820315A1CC7F8202107F59472134413F8BC3C1846A8
:4009800003F01EF9D7F82031102B00DD06E003F00BF9034603F00803002BE6D1D7F82031102BE1DD544B00221A605D4B00221A60524B00221A60534B00221A80594B0022FE
:4009C0001A704D4B1B6801334B4A1360544B1B6842F20F7293421ADD002002F099FE4A4B01221A700020002100F0C8FA00F0B2FA4D4800F091FB404B00221A60484B00220C
:400A00001A603E4B00221A603E4B00221A80474B00221A704FE14EE1424B1B78072B08D1404B00221A700123C7F81C31012002F055FE3C4B1B78052B0ED1D7F81C31002BCD
:400A40000AD0D7F81C310133C7F81C31002002F045FE344B00221A70324B1B78032B7DD1D7F81C31022B79D1274B04221A703B1D1A463C23104600211A4607F062FC00201C
:400A8000002100F07BFA00F065FA294800F044FB3B1D18460021282207F053FC3B1D254A1C4615460FCD0FC495E80F0084E80F00184B1C683B1D184607F070FC02463B1D80
:400AC0002046194605F050FA0023C7F820313AE032E0D7F820315A1CC7F8202107F59472134413F8D03C184603F06AF8D7F82031102B21DD27E000BF1081FF1FD081FF1F9D
:400B000089888888D881FF1F1881FF1F388C0000488C00009092FF1F648C0000708C0000CC81FF1FDD81FF1F908C0000DA81FF1F9C8C0000B08C000003F036F8034603F065
:400B40000803002BC5D1D7F82031102BC0DD0023C7F81C31594B00221A70ACE0ABE0584B1B78002B02D0574800F0D6FA012002F06BFF524B1B78032B0ED1002002F064FF5A
:400B80004FF47A7001F080F9D7F81C310133C7F81C314A4B00221A70D7F81C31022B6ED13B1D1A463C23104600211A4607F0C9FB454B05221A70454B1B68184604F0AEFF7D
:400BC000434B1B780133DAB2414B1A70404B1B78404841491A4607F0BDFB3E483F4905F063F80246394B1A600020002100F0C6F900F0B0F93A4800F08FFA3B1D18460021C0
:400C0000282207F09EFB3B1D364A1C4615460FCD0FC495E80F0007C423702C4B1C683B1D184607F0BBFB02463B1D2046194605F09BF90023C7F8203119E011E0D7F8203123
:400C40005A1CC7F8202107F59472134413F8E03C184602F0B5FFD7F820310F2B00DD06E002F0A2FF034603F00803002BE6D1D7F820310F2BE1DD114B00221A701BE01AE08C
:400C8000194B1B68002B0BD007F1B40207F1400310460D490A2200F0ABFC134B00221A60064B00221A700023C7F81C310F4B00221A6000E000BFFFF762BB00BFDD81FF1FE6
:400CC000DC81FF1FD08C00001881FF1F9092FF1F1981FF1F1C81FF1FE08C0000EC8C0000F08C0000FC8C00003082FF1F3482FF1F90B585B000AF78600123FB6004F0B2FE03
:400D00003A4805F008F900203849092205F02EF80346002B03D0364800F0FEF902E0354800F0FAF90023FB604FF4FA7001F0ACF800F010F92D4803F075F90346002B03D18F
:400D40002D4800F0E9F902E02C4800F0E5F90023FB604FF4FA7001F097F800F0FBF87868274904F0A1FF0246264B1A60254B1B68002B29D0244800F0CFF9244800F0CCF907
:400D80004FF4FA7001F080F800F0E4F81D4B1C68786807F003FB0346204679681A4605F0E3F80346002B03D0194800F0B5F902E0184800F0B1F90023FB6000F0CBF84FF43A
:400DC000FA7001F061F802E0134800F0A5F90023FB600C4B1B68184610490E2205F0C4F8FB6818461437BD4690BD00BF3C82FF1F8C8D00009C8D0000AC8D0000C08D0000C5
:400E0000EC8C00009092FF1FD08D0000D88D0000E48D0000F48D0000048E0000188E000090B482B000AF0446084611461A462346FB710346BB710B467B7113463B710A4ABA
:400E4000FB791370094ABB791370094A7B791370084A3B791370084B08221A7000BF0837BD4690BC704700BFAC92FF1FB192FF1FB292FF1FAE92FF1FAB92FF1F80B500AF98
:400E80002E4B00221A702E4B1B78012B06D92B4B1B7843F00803DAB2284B1A70294B1B78002B0AD0264B1B78012B06D1234B1B7843F00403DAB2214B1A70322000F0E4FF31
:400EC000214B1B78184600F0F1F84FF47A7000F0DBFF302000F0D8F841F2941000F0F6FF302000F0D1F841F2941000F0EFFF302000F0CAF8962000F0E9FF202000F0C4F8BF
:400F00000E4B1B7843F02003DBB2184600F07EF80E4B04221A7000F063F800F01BF80C4B02221A700A4B1B7843F00403DBB2184600F06CF800F018F800BF80BDB092FF1F05
:400F4000B292FF1FAE92FF1FAB92FF1FAD92FF1FAF92FF1F80B500AF012000F057F8022000F092FF00BF80BD80B500AF022000F04DF8022000F088FF00BF80BD90B587B06B
:400F800000AF03460A46FB711346BB71124B07F108040FCB84E80F00104B1B78BA799A4203D90E4B1B78013BBB71BB799B0007F11802134453F8103CDAB2FB791344DBB262
:400FC000DBB263F07F03DBB2DBB2184600F01EF800BF1C37BD4690BD288E0000B292FF1F80B500AF084B1B7843F00403DAB2064B1A70054B1B7843F00803DBB2184600F030
:4010000005F800BF80BD00BFAD92FF1F80B582B000AF0346FB71FB791846002100F012F800BF0837BD4680BD80B582B000AF0346FB71FB791846012100F004F800BF0837FC
:40104000BD4680BD80B584B000AF03460A46FB711346BB71FB7923F00F03FB73FB791B01BB73FA7BBB791343DBB2184600F00CF8BA7BBB791343DBB2184600F005F800BF95
:401080001037BD4680BD00BF80B582B000AF0346FB71FB79184600F009F8FB79184600F01DF800BF0837BD4680BD00BF80B582B000AF0346FB71074B1978074B1A78FB7982
:4010C0001343DBB20846194600F046F800BF0837BD4680BDAC92FF1FAB92FF1F80B582B000AF0346FB71FB7943F00403DBB21846FFF7DCFF012000F0E9FEFB7923F0040382
:40110000DBB21846FFF7D2FF322000F0DFFE00BF0837BD4680BD00BF80B584B000AF78600023FB60786807F039F90346FB720023FB6009E07A68FB6813441B781846FFF7CA
:4011400073FFFB680133FB60FA7AFB689A42F1D800BF1037BD4680BD80B582B000AF03460A46FB711346BB71FB791846002102F05BF8BB79184602F033F902F005F900BF12
:401180000837BD4680BD00BF90B585B000AF3B600346FB710B46BB7113467B710023FB73FB791846002102F03FF8BB79184602F017F9FB791846012102F094F807E03C6878
:4011C000631C3B60012002F04BF903462370FB7B5A1CFA731A467B79013B9A42EFDB002002F03EF903461A463B681A7002F0CCF81437BD4690BD00BF80B582B000AF034685
:401200003A60FB710B46BB71FA79BB791046194601223B68FFF7B8FF0837BD4680BD00BF80B584B000AF3B600346FB710B46BB7113467B710023FB73FB791846002101F07F
:40124000F3FFBB79184602F0CBF806E03B685A1C3A601B78184602F0C3F8FB7B5A1CFA737A799A42F2D802F08FF81037BD4680BD80B582B000AF0346FB710B46BB7113466B
:401280007B71F979BA797B1D084611460122FFF7C7FF0837BD4680BD90B585B000AF0446084611461A462346FB710346BB710B467B7113463B713B79012202FA03F35A1EBD
:4012C00079793B79CB1A013302FA03F3FB73F979BA7907F10E03084611461A46FFF78CFF97F8202079793B79CB1A013302FA03F387F8203097F82020FB7B134087F82030E5
:40130000FB7BDB43DAB2BB7BDBB21340DBB2DBB2BB73BA7B97F820301343DBB2BB73BB7BF979BA79084611461A46FFF7A1FF1437BD4690BD90B585B000AF044608461146E1
:401340001A462346FB710346BB710B467B7113463B71F979BA7907F10F03084611461A46FFF74AFF3B79002B0AD07B79012202FA03F3DAB2FB7BDBB21343DBB2DBB20BE0E2
:401380007B79012202FA03F3DBB2DB43DAB2FB7BDBB21340DBB2DBB2FB73FB7BF979BA79084611461A46FFF763FF1437BD4690BD80B584B000AFF8600B467A607B81B7F9B5
:4013C0000A30184606F0BCFD0346F868194606F0BFFE0346F868194606F0FCFC0346FB60B7F90A30184606F0ABFD03467868194606F0AEFE0346F868194606F0EDFC034611
:40140000FB60FB6818461037BD4680BDB0B59AB000AFF860B9607A603B6000237B6600233B660023FB650023BB656B4B07F128041D460FCD0FC40FCD0FC495E80F0007C445
:401440002380664B07F114041D460FCD0FC42B682360F8686249052206F0A8FF0346002B06D1BB6801221A70BB6F01221A6096E0BB681B78012B22D1F8685A49052206F0C4
:4014800095FF0346002B1AD13B6801221A6012E00AE07B6E5A1C7A6607F16802134413F8543C184602F08CFB02F07EFB034603F00803002BEDD17B6E132BE9DD6FE0BB68B9
:4014C0001B78012B42D1F8684749022206F06EFF0346002B3AD1FB6802331B78303BBB65FB6803331B78303BFB65FB6804331B78303B3B66BB6D002B0CD0FB6802331B78E4
:40150000184602F05DFBFB6803331B78184602F057FB08E0FB6D002B05D0FB6803331B78184602F04DFBFB6804331B78184602F047FBBB6D642202FB03F1FA6D13469B0068
:4015400013445B00CA183B6E134441E0BB681B78052B0BD1F8682549042206F027FF0346002B03D13B6801221A6018E012E00AE07B6E5A1C7A6607F16802134413F8403C09
:40158000184602F01DFB02F00FFB034603F00803002BEDD17B6E2D2BE9DD002318E011E009E07B6E5A1C7A661A46FB6813441B78184602F005FB02F0F7FA034603F0080335
:4015C000002BEED17B68DA1C7B6E9A42E8DC002318466837BD46B0BD648E0000948E0000488E0000508E0000588E00005C8E0000B0B590B000AFF860B9607A603B6000231A
:40160000FB632E4B07F124041D460FCD0FC495E8030020600434218002340B0C2370002387F83B30264B07F110041D460FCD0FC42B682380BB681B78012B17D112E00AE070
:40164000FB6B5A1CFA6307F14002134413F81C3C184602F0B5FA02F0A7FA034603F00803002BEDD1FB6B162BE9DD23E0BB681B78052B1FD13B681B68002B19D012E00AE01F
:40168000FB6B5A1CFA6307F14002134413F8303C184602F095FA02F087FA034603F00803002BEDD1FB6B102BE9DD3B6800221A600023FB634037BD46B0BD00BFAC8E000060
:4016C000C48E000080B487B000AFF860B9607A6000237B610AE07B69BA6813447A69F9680A4412781A707B6901337B617A697B689A42F0DB1C37BD465DF8047B704700BF46
:4017000080B400AF034B68221A70BD465DF8047B704700BFAA92FF1F80B500AF012000F05FF8002000F008F8002000F019F8002000F044F880BD00BF80B584B002AF034695
:40174000FB71064B1A78FB79009310461B2104220223FFF7A1FD0837BD4680BDAA92FF1F80B584B002AF0346FB71064B1A78FB79009310461C2104220223FFF78DFD083773
:40178000BD4680BDAA92FF1F80B500AF094B1B7818463F210222084BFFF7F6FC064B1B781B029AB2044B5B789BB213439BB21BB2184680BDAA92FF1F9492FF1F80B582B0DB
:4017C00000AF0346FB71054B1A78FB7910466B210622FFF7AFFD0837BD4680BDAA92FF1F80B584B002AF0346FB71064B1A78FB79009310466B2102220323FFF74DFD083746
:40180000BD4680BDAA92FF1F80B500AF06F062FD03461B680C2B00D1FEE7FEE780B584B000AF78600F4B1A687B6813441A460E4BD31A802B09DC0B4B1B68FB60094B1A68F1
:401840007B681344074A136007E006F043FD02460C2313604FF0FF33FB60FB6818461037BD4680BD2881FF1F6093FF1F80B586B000AF224B7B61224B3B61204B7B6135E0AF
:401880003B691B68FB603B695B68BB603B699B683B6000237B600CE0FB681A68BB681A60BB680433BB60FB680433FB607B6804337B607A683B689A42EED13B69DB683B6075
:4018C00000237B6008E0BB6800221A60BB680433BB607B6804337B607A683B689A42F2D13B6910333B617B69013B7B617B69002BC6D106F0F5FCFEF777FCFEE7010000005B
:401900000092000080B582B000AF174B174A1A60174A174B1B6843F40073136000237B600FE07B68032B04D8124A7B6852F8233000E0114B11497A6841F822307B6801338F
:401940007B607B682F2BECD90D4B1B78DAB20D4B1A700D4B094A1A6000F0AEF90B4B00221A600837BD4680BD0CED00E00004FA0514ED00E000000000091800000080FF1F88
:40198000BC7600400481FF1F08ED00E00081FF1F80B582B000AF78603960786800213A6806F0CFFC0837BD4680BD00BF80B584B000AFF860B9607A60F868B9687A6806F0B9
:4019C000B5FC1037BD4680BD80B483B000AF0346FB71FEE780B487B000AF7860396000233B6100237B6127E07B699B007A6813441B68BB60BB68FB73BB6823F0FF03BB6075
:401A000014E03B695B003A6813441B781A46BB68134419463B695B003A6813445B780B703B6901333B61FB7B013BFB73FB7B002BE7D17B6901337B617B69242BD4D91C3794
:401A4000BD465DF8047B704780B582B000AF454B00221A80444B58221A70444B00221A80434B50221A70434B4D221A80424B18221A70424B40F65F121A80414B18221A7008
:401A8000404841490422FFF791FF404B02221A704FF0402308221A703D4B03221A703D4B3D4A1278D2B21A703C4B08221A803C4B41F251221A800023FB7019237B6014E050
:401AC000FB785B00DAB2374B1B78DBB203F00103DBB21343DBB203F00303FB704FF4F07002F03EF97B68013B7B607B68002B02D0FB78032BE4D17B68002B02D10320FFF729
:401B000063FF294B4FF480721A80274B07221A70264B00221A70264B48221A70224B00221A70244B02221A70234B04221A70234A224B1B78DBB243F00F03DBB21370204A4C
:401B40001F4B1B78DBB243F00103DBB213701D4A1C4B1B78DBB263F07F03DBB213700837BD4680BD80400040824000408440004086400040884000408A4000408C40004018
:401B80008E40004000410040A40A00480043004000420040A146004008010049224200402042004025420040044000400640004008400040014000400B400040A243004072
:401BC000A1430040A043004080B483B000AF114B1B78FB71104AFB7903F00703DBB213700E4AFB791B09DBB213700D4B44F204021A800C4B21221A700B4B04221A700B4BA4
:401C000004221A700A4B44221A700C37BD465DF8047B7047CF0100496E5800406F5800401C510040DB5A0040005B0040585B00407658004080B483B000AF0346FB71FB79BB
:401C4000012B0ED8FB79094A52F82330FA79074951F822201178FA790548825C0A43D2B21A700C37BD465DF8047B7047D88E0000E08E000080B483B000AF0346FB71FB793A
:401C8000012B10D8FB790A4A52F82330FA79084951F822201178FA790648825CD243D2B20A40D2B21A700C37BD465DF8047B7047D88E0000E08E000080B586B000AF72B65C
:401CC000534A534B1B78DBB243F00403DBB213700023FB7513E0FA7D13465B0013445B004C4A13443B613B691A683B699B889BB210461946FFF74CFEFB7D0133FB75FB7D90
:401D0000092BE8D90023FB751CE0FA7D13469B0013445B00404A1344FB60FB681B68BB60FB685B687B60FB681A7A5B7A1B0213437B807B88B86879681A46FFF737FEFB7D83
:401D40000133FB75FB7D012BDFD94FF090403349FFF740FE324B0A221A70324B40F203321A80314A304B1B78DBB243F00203DBB213702E4A2D4B1B78DBB243F00203DBB2C0
:401D800013702B4A2A4B1B78DBB243F04003DBB21370284A274B1B78DBB243F01003DBB21370254825490822FFF700FE244825490A22FFF7FBFD244824490822FFF7F6FDDD
:401DC000234824490A22FFF7F1FD234823490822FFF7ECFD224A224B1B78DBB243F00803DBB213701F4B00221A70FFF72DFE1D4B80221A701C4B01221A70FFF7E5FE1B48B9
:401E00000B490E22FFF7D2FD1837BD4680BD00BFE8460040E48E0000208F000094000048835800404E5800400350014013500140A0430040C243004002510040740A0048A6
:401E4000C05100407C0A004812510040880A004820510040900A0048325100409C0A0048224300400048004004000840B043004080B483B000AF0346FB7101BE0C37BD4606
:401E80005DF8047B704700BF80B582B000AF786008E00C4B1B68184601F062FF7B68A3F500437B607B68B3F5004FF2D8064B1B687A6802FB03F3184601F052FF0837BD46B0
:401EC00080BD00BF3881FF1F3081FF1F80B582B000AF0346FB80FB88044A127802FB03F3184601F03DFF0837BD4680BD3481FF1F80B584B000AF03463960FB710F4B1B68F8
:401F0000FB60FB791F2B02D90020FFF7B1FFFB7903F01F0310339B00FA6813441B68BB60FB7903F01F0310339B00FA6813443A681A60BB6818461037BD4680BD08ED00E010
:401F400080B582B000AF03460A46FB711346BB71BB79072B02D90020FFF78AFFFB791F2B02D90020FFF784FFFB7903F01F0303F1604303F56443BA795201D2B21A7008371D
:401F8000BD4680BD80B582B002AF414B01221A70404B00221A70102000F0E8FD102000F0CBFE1D200721FFF7CBFF3B4B04221A703A4B00221A703A4B00221A70394A394BA7
:401FC0001B78DBB243F01803DBB21370364B00221A70364B00221A70354B00221A70354B0A221A70344B00221A70344B00221A70334B12221A70334B13221A70324B002239
:402000001A70324B14221A7001230093022048F66B514FF400420C2300F0B6FB02230093002049F2DA014FF40042102300F0ACFB03230093002049F2DA014FF400421023CD
:4020400000F0A2FB04230093002049F2DA014FF40042102300F098FB1D4A0D4B1B78DBB2013B1C499B000B449B7813701A4A084B1B78DBB2013B174931F823301380044BD7
:402080001B78DBB2184600F079F9BD4680BD00BF3C81FF1F4882FF1F96580040975800409E580040075B004093580040885B0040895B00408058004081580040835800408B
:4020C00088580040895800408D580040014E00400E4E00404C82FF1F0C4E004080B582B000AF01F05CFE0346FB71444B1B78BB71434A434B1B78DBB243F00103DBB21370E3
:402100003F4A3F4B1B78DBB243F01003DBB213703C4A3C4B1B78DBB243F00103DBB21370384A384B1B78DBB243F01003DBB21370354A354B1B78DBB243F00203DBB21370C0
:40214000324A324B1B78DBB243F00203DBB213702F4A2F4B1B78DBB243F00303DBB213700320FFF7B3FE284A274B1B78DBB223F00203DBB21370254A244B1B78DBB223F09B
:402180000203DBB21370234A224B1B78DBB243F00603DBB21370204B7A221A701F4A1F4B1B78DBB243F00103DBB213701C4A1C4B1B78DBB243F00103DBB21370194A194BFE
:4021C0001B78DBB243F00203DBB21370164A164B1B78DBB243F00203DBB21370134B4FF000521A60124B4FF000521A60FB79184601F0D9FD0837BD4680BD00BF3C81FF1FCB
:40220000AA430040BA430040F8460040F9460040915800407758004082580040A1430040B1430040A2430040B243004080E200E000E100E080B500AF084B1B78002B09D161
:40224000074B1B78DBB2002B01D1FFF79BFE034B01221A70FFF742FF80BD00BF4A82FF1F4B82FF1F80B400AF054A054B1B78DBB243F00103DBB21370BD465DF8047B7047E6
:40228000004E004080B485B000AF0346FB710E4B1B78DBB2002B03D00C4B1B78FB7305E00B4B1B78DBB203F00103FB73FB7B012B02D0FB79002BEAD0FB7B18461437BD4645
:4022C0005DF8047B704700BF4982FF1F4882FF1F014E004080B483B000AF224B1B78DBB203F00303FB70FB78012B0BD81E4B1B889BB27B607B681B041C4A128892B21343DB
:402300007B6020E0FB78022B12D1174B1B889BB27B607B681B04154A1278D2B213437B60134B1B78DBB21B027A6813437B600AE00E4B1B889BB27B600B4B1B889BB21B0451
:402340007A6813437B600B4B1B78DBB2002B02D0094B00221A707B6818460C37BD465DF8047B7047144E0040124E0040104E0040114E00404982FF1F4882FF1F80B582B00E
:4023800000AF0346FB71C34B00221A70FB79012B66D1C14B38221A70C04B06221A70C04B08221A70BF4B00221A70BF4B00221A70BE4B1F221A70BE4B00221A70BD4B00229D
:4023C0001A70BD4B00221A70BC4B01221A70BC4B14221A70BB4B05221A70BB4B16221A70BA4B00221A70BA4B44221A70B94B48221A70B94B01221A70B84B01221A70B84BA3
:4024000011221A70B74B19221A70B74B97221A70522000F06FFAB54B58221A70B44B00221A70B44B05221A70B34B02221A70B34B00221A70B24B00221A70002000F0C6FADA
:40244000B04B40F233321A601220012100F0D2FA4A20012100F0B4FB1D20AB49FFF748FDFB79022B66D18C4B38221A708B4B04221A708B4B06221A708A4B00221A708A4BB2
:4024800000221A70894B3F221A70894B00221A70884B00221A70884B00221A70874B01221A70874B50221A70864B27221A70864B2C221A70854B00221A70854B55221A704C
:4024C000844B5A221A70844B05221A70834B01221A70834B11221A70824B19221A70824B97221A70442000F005FA804B58221A707F4B00221A707F4B05221A707E4B0222DF
:402500001A707E4B00221A707D4B00221A70002000F05CFA7B4B4FF47A421A600820012100F068FA2520012100F04AFB1D207749FFF7DEFCFB79032B66D1574B38221A701F
:40254000564B04221A70564B06221A70554B00221A70554B00221A70544B3F221A70544B00221A70534B00221A70534B00221A70524B01221A70524B50221A70514B2722EE
:402580001A70514B2C221A70504B00221A70504B55221A704F4B5A221A704F4B05221A704E4B01221A704E4B11221A704D4B19221A704D4B97221A70442000F09BF94B4BFD
:4025C00058221A704A4B00221A704A4B05221A70494B02221A70494B00221A70484B00221A70002000F0F2F9464B4FF47A421A600820012100F0FEF92520012100F0E0FA28
:402600001D204349FFF774FCFB79042B40F0A980214B38221A70214B04221A70204B06221A70204B00221A701F4B00221A701F4B3F221A701E4B00221A701E4B00221A703A
:402640001D4B00221A701D4B01221A701C4B50221A701C4B27221A701B4B2C221A701B4B00221A701A4B55221A701A4B5A221A70194B05221A70194B01221A70184B1122B7
:402680001A70184B19221A70174B97221A70442040E000BF4982FF1F004E0040024E0040034E0040044E0040054E0040064E0040084E0040094E00400A4E0040144E0040C8
:4026C000845800408558004086580040875800408A5800408B5800408C5800408E5800408F580040905800409158004094580040955800409A5800409B5800409C5800406B
:402700009D580040B892FF1F6D290000792900008529000000F0EEF8134B58221A70134B00221A70124B05221A70124B02221A70114B00221A70114B00221A70002000F09B
:4027400045F90F4B4FF47A421A600820012100F051F92520012100F033FA1D200949FFF7C7FB0837BD4680BD94580040955800409A5800409B5800409C5800409D58004053
:40278000B892FF1F9129000090B587B000AF0446084611461A462346FB710346BB800B467B801346BB7197F82830002B00F08A8097F82830042B00F28580FB79013B092B56
:4027C0004AD801A252F823F0F12700005928000059280000F127000059280000592800000B28000025280000592800003F280000BB790F2B04D9364B1B78DBB2FB752EE0B1
:40280000344B1B78DBB2FB7529E0BB790F2B04D9314B1B78DBB2FB7521E0304B1B78DBB2FB751CE0BB790F2B04D92D4B1B78DBB2FB7514E02B4B1B78DBB2FB750FE0BB79B1
:402840000F2B04D9284B1B78DBB2FB7507E0274B1B78DBB2FB7502E00023FB7500BFBA8897F917305B0113443B617B883A6902FB03F3FB60FB68DB0BBB82BB790D2B11D8EA
:40288000BB8ABA79C2F10E021341BB8297F82830013BBA790132D1B2154A9B0013440A469A7007E097F82830013B114A9B0013440F229A7097F82830013B0D49BA8A21F82D
:4028C000232002E00020FFF7D3FA1C37BD4690BD180100491C010049190100491D0100491A0100491E0100491B0100491F0100494C82FF1F80B584B000AF0346FB7101F057
:402900004EFA0346FB73164A154B1B78DBB243F00303DBB21370134A124B1B78DBB243F00303DBB21370104AFB7913700320FFF7CDFA0B4A0A4B1B78DBB223F00303DBB2AB
:402940001370084A074B1B78DBB223F00303DBB21370FB7B184601F026FA1037BD4680BDF8460040F94600409258004080B400AFBD465DF8047B704780B400AFBD465DF8A8
:40298000047B704780B400AFBD465DF8047B704780B400AFBD465DF8047B704780B582B000AF0023FB7106E0FB791846FFF762F9FB790133FB71FB79012BF5D9024BFF2261
:4029C0001A700837BD4680BD3D81FF1F80B582B000AF0346FB71FFF7E1FFFB791846FFF729F9034AFB7913700837BD4680BD00BF3D81FF1F80B584B000AF03460A46FB80DD
:402A000013467B7100F0CCF80346FB7300F0A2F80346BB81FA88BB899A4200F08780454B1B78DBB203F00203FB72FB7B002B20D1BB89002B02D0FB88002B1AD1BB89002B4E
:402A40000BD13D4AFB8813803C4A3C4B1B78DBB223F04003DBB2137068E0384A374B1B78DBB243F04003DBB21370334AFB8813805CE0FB7A002B33D0314B00221A70314B42
:402A800002221A70304B00221A70304A2F4B1B78DBB203F07F03DBB21370284B1B78DBB203F00803002B02D0FB88002B18D1284ABB891380224B07221A7000BF204B1B785D
:402AC000DBB203F00103002BF8D11A4A194B1B78DBB223F00203DBB21370194B00221A70144B1B78DBB203F00203002B13D0184AFB881380124A7B79002B01D0032300E0EF
:402B00000123137000BF0E4B1B78DBB203F00103002BF8D10AE0084AFB8813800549054B1B78DAB2FB7A1343DBB20B701037BD4680BD00BFA2430040844000408640004074
:402B4000014000401040004014400040084000400240004080B400AF034B1B889BB21846BD465DF8047B70478440004080B483B000AF0346FB71094B084A1278D2B2D1B293
:402B8000FA7922F00702D2B20A43D2B2D2B21A700C37BD465DF8047B704700BF8640004080B400AF054B1B78DBB203F00703DBB21846BD465DF8047B704700BF8640004000
:402BC00080B584B000AF03460A46FB8013467B7100F0CCF80346FB7300F0A2F80346BB81FA88BB899A4200F08780454B1B78DBB203F00103FB72FB7B002B20D1BB89002B3C
:402C000002D0FB88002B1AD1BB89002B0BD13D4AFB8813803C4A3C4B1B78DBB223F04003DBB2137068E0384A374B1B78DBB243F04003DBB21370334AFB8813805CE0FB7A78
:402C4000002B33D0314B00221A70314B01221A70304B00221A70304A2F4B1B78DBB203F07F03DBB21370284B1B78DBB203F00803002B02D0FB88002B18D1284ABB891380A7
:402C8000224B07221A7000BF204B1B78DBB203F00103002BF8D11A4A194B1B78DBB223F00103DBB21370194B00221A70144B1B78DBB203F00103002B13D0184AFB881380A4
:402CC000124A7B79002B01D0032300E00123137000BF0E4B1B78DBB203F00103002BF8D10AE0084AFB8813800549054B1B78DAB2FB7A1343DBB20B701037BD4680BD00BF90
:402D0000A14300400041004002410040014000401440004010400040084000400240004080B400AF034B1B889BB21846BD465DF8047B70470041004080B483B000AF0346CF
:402D4000FB71094B084A1278D2B2D1B2FA7922F00702D2B20A43D2B2D2B21A700C37BD465DF8047B704700BF0241004080B400AF054B1B78DBB203F00703DBB21846BD466E
:402D80005DF8047B704700BF0241004080B500AF134B02221A70134B81221A70124B08221A70124B0F221A70114B00221A70114B4FF400421A600F200721FFF7C1F80F200A
:402DC0000D49FFF795F80D4B10221A700C4B00221A700C4B00221A700B4B00221A7080BDD6490040C8490040CA490040DB490040DC49004080E100E07D2E0000BC92FF1F7D
:402E0000CD92FF1FC092FF1FC192FF1F80B582B000AF00F0C4FF0346FB710B4A0A4B1B78DBB243F00403DBB21370084A074B1B78DBB243F00403DBB21370FB79184600F0D2
:402E4000B2FF0837BD4680BDA5430040B543004080B500AF074B1B78002B04D1FFF796FF044B01221A70FFF7D1FF034B4FF400421A6080BD5C82FF1F00E100E080B582B0FE
:402E800000AFA84B1B78FB71A74B1B78DBB203F04003DBB2002B00F0AC81FB7903F00103002B00F08381A04B1B78DBB2453B052B00F2788101A252F823F000BFD52E000062
:402EC000FD2F0000A5310000A5310000D52E0000EB300000FB7923F02003FB71FB7903F00A03DBB2082B46D18F4B1B78DBB2452B3AD18E4B1B78DBB2002B0FD08C4A8D4B55
:402F00001B681B78DBB21370864B04221A708A4B01221A70844B46221A706EE0874B1B78DBB203F00203002B0FD0854B1B78DBB243F00A03DAB2824B1A707B4B60221A7080
:402F4000804B4FF400421A6057E07F4A7E4B1B78DBB243F01003DBB213707C4B10221A70704B04221A7048E06E4B00221A706E4B4A221A701AE1FB7903F00A03DBB20A2BED
:402F800037D16F4B1B78DBB263F05F03DAB26C4B1A706A4B1B78DBB203F00203002B19D0614B1B78DBB203F00803002B01D0092300E00A23DAB2624B1B78DBB21343DAB292
:402FC0005F4B1A70584B60221A705E4B4FF400421A6012E05C4A5C4B1B78DBB243F01003DBB21370594B10221A704E4B04221A70DCE00020FEF73CFFD8E0D7E0FB7903F006
:403000000203002B42D14C4B1B78DAB2474B1B78DBB29A4214D2464A464B1B6846490978C9B20B441B78DBB213703E4B04221A70414B1B78DBB20133DAB23F4B1A7053E016
:403040003E4B1B78DBB203F00203002B0FD03C4B1B78DBB243F00A03DAB2394B1A70324B60221A70374B4FF400421A603CE0364A354B1B78DBB243F01003DBB21370334B0A
:4030800010221A70274B04221A708FE02B4B1B78DBB203F00203002B0FD0294B1B78DBB263F06503DAB2264B1A701F4B60221A70244B4FF400421A6016E0234A224B1B780E
:4030C000DBB243F01003DBB21370204B10221A70144B04221A701A4B1B78DBB263F06F03DAB2174B1A7061E060E0194B1B68194A1278D2B213440E4A1278D2B21A70154B75
:403100001B78DBB20133DAB2124B1A70114B1B78DAB2114B1B78DBB29A421FD2014B10221A703EE0D7490040BC92FF1FC292FF1FD8490040C492FF1FC192FF1FCC92FF1FDE
:40314000CD92FF1F80E100E0D6490040D9490040C892FF1FC092FF1FCE92FF1F2C4B1B78DBB203F00203002B0FD02A4B1B78DBB243F00903DAB2274B1A70274B60221A70F7
:40318000264B4FF400421A600BE0254A244B1B78DBB243F01003DBB21370224B00221A7004E003E00020FEF763FE00BFFB7903F02003002B28D0184B1B78DBB203F008031D
:4031C000002B01D0012300E00223DAB2114B1B78DBB21343DAB20F4B1A70114A104B1B78DBB223F01003DBB213700B4B10221A700AE0094B1B78DBB203F01003DBB2002BA2
:4032000002D1054B10221A700837BD4680BD00BFCC92FF1FCD92FF1FBC92FF1F80E100E0D6490040D749004080B485B000AF03460A46FB711346BB710223FB73244B1B78D5
:40324000DBB2102B3CD1234B1B78DBB203F00803002B33D1204B4FF400421A60FB795B00FB71BB79002B07D0FB7943F00103FB71174B49221A7002E0154B45221A70174AE1
:40328000FB791370134B01221A7000BF144B1B78DBB203F00103002BF8D0114B1B78DBB203F00A03DBB20A2B05D1094B10221A700323FB7304E00023FB7301E00123FB7344
:4032C000FB7B18461437BD465DF8047B704700BFBC92FF1FD949004080E100E0D8490040D749004080B485B000AF03460A46FB711346BB710223FB731F4B1B78DBB203F0E0
:403300000403002B31D0FB795B00FB71BB79002B07D0FB7943F00103FB71184B49221A7002E0164B45221A70154AFB791370124B12221A70134B04221A7000BF114B1B7819
:40334000DBB203F00103002BF8D00E4B1B78DBB203F00A03DBB20A2B05D1084B10221A700323FB7301E00023FB73FB7B18461437BD465DF8047B7047D9490040BC92FF1F35
:40338000D8490040D749004080B483B000AF0223FB71104B1B78DBB203F00403002B12D00C4B10221A700C4B04221A700B4B10221A7000BF084B1B78DBB203F02103002B83
:4033C000F8D00023FB71FB7918460C37BD465DF8047B7047D9490040D7490040BC92FF1F80B485B000AF0346FB710223FB73184B1B78DBB203F00403002B22D0154AFB79D8
:403400001370154B04221A70144B46221A7000BF114B1B78DBB203F00103002BF8D00E4B1B78DBB203F00203002B05D10B4B60221A700023FB7304E0084B60221A700323B5
:40344000FB73FB7B18461437BD465DF8047B7047D9490040D8490040D7490040BC92FF1F80B485B000AF0346FB710023FB73174B1B78DBB203F00403002B1FD0144B1B78BC
:40348000DBB2492B05D1134B00221A70104B4A221A7000BF0F4B1B78DBB203F00103002BF8D00D4B1B78FB73FB79002B03D0094B10221A7002E0064B60221A70FB7B1846C9
:4034C0001437BD465DF8047B704700BFD9490040BC92FF1FD7490040D849004080B500AF204A204B1B78DBB203F00103DBB213701D4A1D4B1B78DBB223F00303DBB21370AD
:403500001A4A1A4B1B78DBB223F03003DBB21370164A164B1B78DBB243F03003DBB21370124A124B1B78DBB223F00F03DBB213700E4A0E4B1B78DBB243F00F03DBB21370C1
:403540000B4A0B4B1B78DBB243F00103DBB21370132000F053F8132000F062F8082000F03DF880BD004F0040024F00400B4F0040014F004080B400AF0D4A0D4B1B78DBB2C8
:4035800043F00103DBB213700A4A0A4B1B78DBB243F00103DBB21370074A074B1B78DBB243F00103DBB21370BD465DF8047B7047A3430040B3430040004F004080B500AF4D
:4035C000054B1B78002B04D1FFF788FF024B01221A70FFF7CFFF80BD5D82FF1F80B483B000AF0346FB71044AFB7913700C37BD465DF8047B704700BF034F004080B485B0D8
:4036000000AF0346FB80FB88FB81044AFB8913801437BD465DF8047B704700BF044F004080B483B000AF0346FB80044AFB8813800C37BD465DF8047B704700BF064F004025
:4036400080B582B000AF786000F03CF8786800F009F8072000F018F800F028F80837BD4680BD00BF80B485B000AF7860054B1B68FB60FB6884337A681A601437BD465DF8BB
:40368000047B704708ED00E080B483B000AF0346FB71054AFB795B01DBB213700C37BD465DF8047B704700BF11E400E080B400AF034B4FF400321A60BD465DF8047B7047F2
:4036C00000E100E080B400AF034B4FF400321A60BD465DF8047B704780E100E080B485B000AF0346FB71094B1B78DBB203F07F03FB730649FB79DB01DAB2FB7B1343DBB272
:403700000B701437BD465DF8047B70471051004080B485B000AF0346FB710B4B1B78DBB223F00203FB730849FB795B00DBB203F00203DAB2FB7B1343DBB20B701437BD4678
:403740005DF8047B704700BF0051004080B582B000AF0F4800F05CF80D4800F073F800F01EFB0346FB710B4A0A4B1B78DBB243F01003DBB21370FB79184600F014FB00F06E
:403780006FF8012000F028F80837BD4680BD00BFFFA50E009D64004080B400AF054A054B1B78DBB263F07F03DBB21370BD465DF8047B70477B64004080B500AF054B1B7845
:4037C000002B04D1FFF7C2FF024B01221A70FFF7E3FF80BD5E82FF1F80B483B000AF0346FB71044AFB7913700C37BD465DF8047B704700BF8D64004080B400AF034B1B7870
:40380000DBB21846BD465DF8047B70476D64004080B483B000AF7860034A7B6813600C37BD465DF8047B70472A64004080B400AF034B1B681846BD465DF8047B704700BF6F
:403840004A64004080B483B000AF7860034A7B6813600C37BD465DF8047B70470A64004080B500AF01E0FFF7E1FFFFF7C5FF034603F00803002BF6D180BD00BF80B582B059
:4038800000AF786000F03CF8786800F009F8072000F018F800F028F80837BD4680BD00BF80B485B000AF7860054B1B68FB60FB6840337A681A601437BD465DF8047B7047EE
:4038C00008ED00E080B483B000AF0346FB71054AFB795B01DBB213700C37BD465DF8047B704700BF00E400E080B400AF034B01221A60BD465DF8047B704700BF00E100E0C9
:4039000080B400AF034B01221A60BD465DF8047B704700BF80E100E080B582B000AF0F4800F05CF80D4800F073F800F038FA0346FB710B4A0A4B1B78DBB243F01003DBB256
:403940001370FB79184600F02EFA00F06FF8012000F028F80837BD4680BD00BFFF356E019765004080B400AF054A054B1B78DBB263F07F03DBB21370BD465DF8047B704720
:403980007465004080B500AF054B1B78002B04D1FFF7C2FF024B01221A70FFF7E3FF80BD5F82FF1F80B483B000AF0346FB71044AFB7913700C37BD465DF8047B704700BFC2
:4039C0008765004080B400AF034B1B78DBB21846BD465DF8047B70476765004080B483B000AF7860034A7B6813600C37BD465DF8047B70472465004080B400AF034B1B6873
:403A00001846BD465DF8047B704700BF4465004080B483B000AF7860034A7B6813600C37BD465DF8047B70470465004080B500AF01E0FFF7E1FFFFF7C5FF034603F008034B
:403A4000002BF6D180BD00BF80B485B000AF0346FB710B4B1B78DBB223F02003FB730849FB795B01DBB203F02003DAB2FB7B1343DBB20B701437BD465DF8047B704700BFB5
:403A80001051004080B500AF054B1B78002B04D100F008F8024B01221A7000F023F880BD6082FF1F80B400AF094B72221A70094B20221A70084B06221A70084B47221A70AC
:403AC000074B00221A70BD465DF8047B704700BF886500408965004027640040376400408664004080B582B000AF00F058F90346FB71104A0F4B1B78DBB243F02003DBB28D
:403B000013700D4A0C4B1B78DBB243F01003DBB213700A4A094B1B78DBB243F01003DBB2137000F0B5F8FB79184600F03CF90837BD4680BD986500409965004096640040F8
:403B400080B483B000AF064B1B78DBB203F07F03FB71FB7918460C37BD465DF8047B70476965004080B483B000AF0023FB710C4B1B78BB71BB7903F02003002B09D0094BCF
:403B80001B78FB71BB7903F01E03002B01D00023FB71FB7918460C37BD465DF8047B7047696500404A65004080B400AF034B1B78DBB21846BD465DF8047B7047666400404C
:403BC00080B483B000AF0346FB7100BF074B1B78DBB203F00403002BF8D1054AFB7913700C37BD465DF8047B704700BF666400404664004080B582B000AF786000F03CF8FF
:403C0000786800F009F8072000F018F800F028F80837BD4680BD00BF80B485B000AF7860054B1B68FB60FB6848337A681A601437BD465DF8047B704708ED00E080B483B0D1
:403C400000AF0346FB71054AFB795B01DBB213700C37BD465DF8047B704700BF02E400E080B400AF034B04221A60BD465DF8047B704700BF00E100E080B400AF034B042225
:403C80001A60BD465DF8047B704700BF80E100E080B400AF094A094B1B78DBB243F00403DBB21370064A064B1B78DBB243F00403DBB21370BD465DF8047B7047A24300404A
:403CC000B243004080B582B000AF786000F03CF8786800F009F8072000F018F800F028F80837BD4680BD00BF80B485B000AF7860054B1B68FB60FB684C337A681A60143790
:403D0000BD465DF8047B704708ED00E080B483B000AF0346FB71054AFB795B01DBB213700C37BD465DF8047B704700BF03E400E080B400AF034B08221A60BD465DF8047B23
:403D4000704700BF00E100E080B400AF034B08221A60BD465DF8047B704700BF80E100E0142816D902B4012114381049097811F0C001890904B40E4A515C04BC00BF00BF31
:403D800000BF8841FDD500BF00BF02BC704700BF00BF70F10400FCD570470B050709EFF3108072B6704780F310887047004800409A3D0000AFF30080F0B505468DB0002842
:403DC00000F0248100210C22684601F093FB00210C2203A801F08EFB0021142206A801F089FB002328460B9301F0A9FC00286C46C0F20C81284601F0B5FC2846694601F0C8
:403E000051FD0028C0F20281824B019903F1480218681E46884202D80C339342F8D1B388019F0B96B7FBF3F7384600F039F9BDF808100446C900784301F0D8FB202C4FEA31
:403E40004000B3680CD021301A461446D218D11A8142FAD9241A5A1E22421DD0E4181BE01C4601301A460127D118824202D801370A46F9E70198B188C31A9A1AB2FBF1F09C
:403E8000BDF808104001C90001F0B0FBB36840005F433F1AADF81070019B47F6A7721B1B934201D801220EE0B3F5803F01D2042209E0B3F5800F01D2062204E0564A934259
:403EC00094BF0B220C228DF82020544A019E0693079402F1500017681146B74202D808328242F8D1621E0879D2184B79ADF8000000FB03F1B4FBF1FC01FB1C4EADF824C05D
:403F0000B2FBF1FC01FB1C21BEFBF3FEB1FBF3F18DF821E08DF82610B4FBF3FEB2FBF3F103FB1E4403FB1122013401328DF822408DF82720ADF828C0ADF8023001F056FDAE
:403F40000446002862D0364B00271A8A002101F0D1FA84F8BE719DF8212004F5DE7384F8BF21BDF824009DF8221000F4407001F03F01033341EA90015970BDF824105A1CBE
:403F80005170531C9DF820205E1C5A709DF82620731C7270BDF828109DF8272001F4407102F03F0242EA91025A70581CBDF8283043700799023001F03FFB06F10800069972
:403FC00001F03AFB04F5FF704AF6552101F03EFB2846394622463B4601F02EFCB84214BF4FF0FF363E46204601F016FD76B94FF40073ADF80E300B9B0CA99B88284621F866
:40400000243DCDF814D002F0EFF901E04FF0FF300DB0F0BD348F0000FF03FB007C8F0000D092FF1F10B5002101F0D0FEBDE81040FFF7C2BE0C2802D0102805D102E001EBA6
:40404000510070474800704788007047036840689B685B6AB0FBF3F0704710B5046D836CE4B199421AD3E318994217D2013B99420CBF4FF0FF31013172B190F836300C2BCE
:4040800002D0102B05D102E00905090D03E089B201E021F070411160012010BD002010BD40F6F473984201D80C2070474FF6F473984294BF102020207047027F8368023930
:4040C00002FB01307047431EDBB21F2B13D92F2811D007D826280ED002D8222809D10AE02A3804E03A2804D33F2804D95B38022801D90120704700207047034638B30B2A1A
:4041000001DD0B2200E0013A00201CE0082809D191F808C0BCF1200F0DD04FF02E0C03F801CB08E038B991F800C0BCF1050F02D1ACF1200C04E011F800C0BCF1200F01D010
:4041400003F801CB01309042E0DB00221A7070472DE9F04788B005AE04460D463046114600229A469DF84490BDF84C80BDF8507000F01EFD08B1002413E02046294652460C
:4041800000F00FFE044660B1129B31460093109A4B46CDF80480029700F0C6FF284601F04FFC204608B0BDE8F08710B59DF80C400394BDE8104000F0D9BD00002DE9F04F2D
:4041C000144E87B0109DDDF848809DF84440376800950194CDF8088005937F68934682468946B84732680C4BDDF814C09A420DD060B9504649465A46634610951194CDF8D6
:40420000488007B0BDE8F04FFFF7CFBF07B0BDE8F08F00BF4081FF1FCC8F000070B5C37A04460B7010300D4601F014FA064604F10E0001F00FFA40EA0640686004F1120082
:4042400001F008FA0004A86004F1180001F002FA064604F1160001F0FDF940EA0640E86004F11C0001F0DDF9286170BD2DE9F845038A04460E46924687692BB907F1180087
:404280002146626900F064FC38465146224600F0E7FC0546204600F065FCD5B12B78C3B1E52BF1D095F80B80B8F10F0FECD018F00808E9D170692946B269FFF71EFF28466B
:4042C0003146FFF7ABFF238A404601332382BDE8F8854FF0FF30BDE8F885022201F00ABD2DE9F04790F8366005460C46304611469146FFF79FFEB5F81E80AB6A20FA08F854
:404300009845824602D30020BDE8F0876B8E05F118079844204641463A46FFF7DEFF204601F007FD18B14FF0FF30BDE8F087AA8BA168013A0AEA020A1FFA8AFA92450AEB0D
:4043400001031AF8015001D0013309E0204608F101013A46FFF7C1FF204601F0EAFCA36818780C2E45EA002009D0202E0FD15D7840EA05409D7840EA0560BDE8F08719F0DC
:40438000010F02D00009BDE8F0870005000DBDE8F08700002DE9F34190F83630144603FB02F7828B8846D200511E0F40D71B0546B7FBF3F7002618E00E4B93F88030022B1C
:4043C00005D12846214601AAFFF747FE28B9284641462246FFF784FF0190019B0134A34205D10136B6B2013F1C46002FE4DC3046BDE8FC81D092FF1F2DE9F34105460E4627
:40440000144698461F681CE0114B93F88030022B05D12846214601AAFFF71FFE28B9284631462246FFF75CFF0190737B0BB100240BE0AA6B019B0132934204D81BB1013F2A
:404440001C46002FE0D1C8F800702046BDE8FC81D092FF1F73B504680E4623681BB9FFF7F5FD013039E0FFF7F1FD236998423CBF4FF0FF3323612369B3F1FF3F04D1226842
:40448000013323616261E3832169E28B451A954234BF2B4613463BB16069C918C018D21A60612161E283ED1A0DB9284615E002AB43F8045D31466269A068FFF79DFF606119
:4044C000019B21690246C91A4D19256123B9A0683146FFF75FFFE08301987CBD13B502AC44F8043D2346FFF787FF019B002B18BF00201CBD2DE9F0410746884615461E460B
:404500000024384641462A460123FFF7E7FF30B1BA6B0134944201D80546F2E7002406B134602846BDE8F0812DE9F74F04460D461E461746002A00F0B98090F836001146BF
:40454000FFF778FDB4F81EA0A36A20FA0AFA9A45814680F0AB80638E04F118089A44284651464246FFF7B9FE284601F0E2FB6B7B002B40F09B80A38BAA68013B09EA0309C9
:404580001FFA89F303EB020926B9216C8F4203D2276401E0791C216494F8361010290AD0202911D1484601F03CF831460746484601F042F84EE0484601F04CF8B1B20746F4
:4045C000484601F043F845E028460092019301F037FA009A019B17F0010F13F802B01BD00BF00F0141EA06119954A28B013A934202D009F1010309E028460AF1010142460E
:40460000FFF76BFE284601F094FBAB681F7832093F0147EA1B171CE09E54A28B013A934202D009F1010309E028460AF101014246FFF753FE284601F07CFBAB681A78310AD1
:4046400002F00F0701F00F0122F00F024BEA07270A431A70284601F0F3F994F83630202B18D1B4F84620AAB9B4F84410284601F041FB284601F05DFBA8684FF0FF3100F528
:40468000F47000F0D9FF284601F0DAF94FF00103A4F84630E36BB3F1FF3F09D00FB10133E3632EB1E36B013BE36301E0012000E00020BDE8FE8F6FF07043FFF735BF70B500
:4046C000036D04460E4693B1002506E0AA1820463146531CFFF728FF0135236DA26C013B9D42F3D320463146AA18FFF7E4FF0023A3642365E364636570BD70B506460D4653
:404700001C460AB1FFF710FF304629462246BDE87040FFF7D0BF00002DE9F84504460E4615461F46002B36D01C4B93F88030022B31D190F8368011464046FFF77BFCB4F849
:404740001CA00AF1FF3A2AEA000A4FEACA0ABAFBF8FAAA44A8460EE0204631464246FFF7BFFD50B9A36C0BB9C4F84880E36C08F101080133E364D045EED9E36C5BB1676567
:404780003B685A6922B1204631462B46FFF7CCFE236D01332365BDE8F88500BFD092FF1F2DE9F8459846274B054693F880300F46022B1646846B19D1436D984503D0C36C96
:4047C0000BB1FFF77CFFB8F1000F0FD06B6D43450CD12B6DEA6C9A4204D9AC6C1C1901332B652CE028463946FFF769FF012E04F1010A01D9564505D92E6C012E01D95645E9
:4048000000D902263446284639462246FFF768FD50B101345445F6D902240DE0284639462246FFF75DFD30B92846394622464346FFF772FF03E00134B442EFD3002420466F
:40484000BDE8F885D092FF1FF8B507460E461546FFF7A6FF044628B1384631462A462346FFF74BFF2046F8BDB2F1FF3F73B504460D4614D0561A013611D001F04BFA084B6B
:4048800000211A8AA06800F035FE022300936068A3682946324600F0C5FF0023E3737CBDD092FF1F2DE9F84F984690F8363004460C2B0D4616465AD04FF0FF3AD1463CE082
:4048C00094F836003146FFF7B5FBB4F81CB0678E0BF1FF3B10EA0B0BE38B1DD1D840013F3F1802222846394601F004FAA38BAA689B0852F80B1079B9013B0BF1040BF8D191
:404900003BE0494628465246FFF7AEFFB946BB46284601F098F8DA462946324601232046FFF7DCFD29460746324620460023FFF7FBFD2FB108F1FF383E46B8F1000FBFD14E
:40494000284649465246FFF78FFF13E02946324601232046FFF7C2FD29460746324620460023FFF7E1FD2FB108F1FF383E46B8F1000FEBD14046BDE8F88F0AF1010B5F450F
:40498000BFD1C5E72DE9F845054601F02FF8044608B90546D0E0284600F070FF684E338A834208D338B10021284622460B4600F0F8FE002804DA204601F02EF80025BBE0C5
:4049C00004F5FF7000F046FE4AF65523984240F0AD8004F10B0000F03DFE10F47E4F074600F0A480338A8342C0F0A080237C022B40F09C8094F80D80B8F1000F00F096808E
:404A00000021402205F1180000F074FD04F1130000F020FE064620B904F1200000F001FE064604F1160000F015FE824680B904F1280000F00FFE10F08F0F77D104F12400D1
:404A400000F0EFFD824604F12C0000F0EAFDE862022385F83530C5F828A0AE6185F8348004F10E0000F0F6FD688604F1110000F0F1FD95F835206B8E288602FB0A3A7A097F
:404A800092B2B0FBF2F25244AF832A62092301219940B94201D1EB8302E00133102BF6D108FB07F7B61AB6FBF8F6AE636F623046FFF7F6FA202818BFC5F82CA04FF0FF338E
:404AC000202885F83600EB6332D104F1300000F0C1FD00230146A5F844002246284600F060FE002822DB204600F09BFD804604F5F27000F096FD074604F5FE7000F091FD3F
:404B0000104B984514D1104B9F4211D10F4B98420ED104F5F67000F084FD286404F5F47000F07FFDB04203D8E86301E0002500E00125204600F070FF2846BDE8F88500BFCA
:404B4000D092FF1F5252614172724161000055AA00238B60837F202B01D102B942694A600A60704783680133836070472DE9F0410C46202105461F469DF818604FF00008F5
:404B800000F0B8FC10E014F8080036B9E52804D1B8F1000F01D1E03802E000F020FDC0B205F8080008F10108B845ECDBBDE8F0812DE9F74506460D4608462849002A14BFEB
:404BC00092464FF0FF3A00F0CBFC804650B930462946022200F079FEB01C2021092200F089FC37E04FF0FF34002715F80780B8F1000F01D0574505D1B4F1FF3F08BF3C4657
:404C000064B925E04046FFF75EFA08B3B8F12E0F08BF3C4601370D2FE7D119E0082C17DC3F1B042F14DC30462946082223464FF00008CDF80080FFF799FF0123611C009305
:404C400006F10800691803227B1EFFF78FFF01E04FF001084046BDE8FE8500BFDC8F00002DE9F74FD2F808B0436A4FEA4B18B8FBF3F8D368054698450E461446D2F8009041
:404C800001D20023D360B5F81EA0E368AAF1050A0BB9D4F804902BFA0AF7B9F1000F17D095F83420B8EB0303019206D04A4628463146FFF713FC814640B3494605F11800BD
:404CC000FFF7FBF9019B591E01EA0707C11906E02B8E43FA0AF39F4218D2E96A79183046C4F80090C4F80C80012201F003F8304601F01FF850B9013000FA0AFAB3680AF177
:404D0000FF3A0AEA0B0B03EB4B1000E00020BDE8FE8F2DE9FF4107460E4601A811461A460A9D9DF82C40FFF743FFC8B9384631462A46FFF795FF8046A0B1037883B101A99E
:404D40000B2200F0C7FB38B998F80B3004EA0302A24201D1082B05D12846FFF703FFE5E74FF00008404604B0BDE8F0812DE9F04587B002AF04460E46154698469DF83CA0A2
:404D800039460E9A1830FFF7E3FE204631462A4643460097CDF804A0FFF7BBFF07B0BDE8F0852DE9F04500F1180785B005460C46384669469246FFF7CBFE284621466A46E0
:404DC000FFF74EFF06466846E846FFF7CBFE002E37D1BAF1000F02D12B8E002B35D12146009A00232846FFF785FB2146024600232846FFF729FD8046204600F096FFB8F11E
:404E0000000F22D0AA8B0021A06800F073FB38464146FFF752F995F8347000257E1E361808E031462046012200F064FF204600F03DFF013E01357B1BB3F1FF3FF1D1A668A5
:404E400003E033780BB1E52BB7D1304605B0BDE8F08538B504461A3000F0FCFB054604F1140000F0F7FB45EA004038BD2DE9F0451D4685B007460E462A6010465C21904652
:404E800000F0B9FB4FF0000A0446A04508D108F10108C5F8008040465C2100F0ACFB044694B1C8EB0403002B0EDD10220192103A0292384631464246CDF800A0FFF77EF9D3
:404EC00070B1FFF7C6FF824628685C2100F093FBA04604460028D8D10C9B0130C3F800A005B0BDE8F085F8B505460C461E461746DAB16FF01A031370084600F0A1FD16B940
:404F00004FF47A7608E007F11C0000F08AFB6B6A5E1E3618B6FBF3F63846FFF79AFF2146024633462846FFF7BDFC607BF8BD00002DE9F04FD1F8008093B0D8F808700BADD1
:404F4000044608930E464FF0FF333946284609920F939DF870A000F0B1FD10AB009338462946224611ABFFF781FFD0B1F27A109B07920FAA00930292002338462946119A79
:404F80000193FFF71BF9044680B1C37A13F0100F07D10D9BDDF82CB0C3EB00094FEA691906E0284600F0B8FE0125A3E083468146099B002B3CD0002C33D0524B5D6912E044
:404FC0002B687BB1AA7A6AB19A8B4A450AD19A695A4507D19B68BB4204D14FF6F772328100257EE0ED68002DEAD10DF12C0C6146384622460123CDF818C0FFF774FFDDF8F2
:4050000018C018B14FF0FF3333816AE03E4B1B68DC6824B138466146109A0F9BA0472C4606E0BAF1000F03D1089A002A44D065E0089BEBB1CCB1E37A13F0010F0BD0079A28
:4050400012F0150F07D04FF6FA733381BAF1000F01D1012500E000252046FFF7FAFE074604F11C0000F0DDFA29E0BAF1000F45D0BAF1010F01D000251BE0ECB901F078FA11
:40508000214B20221B68019282B2000C03920490009402949D6838460BA9119A109BA84750B10D9ADDF82CB0C2EB00094FEA6919254628462F4602E00125002007464FF051
:4050C000FF33C8F81030C8F818B0A8F81C90079AC8F8040012F0010308BF1846C8F800707060B6F908300BA835EA230528BF012500F012FE284613B0BDE8F08F012550461B
:40510000DCE700BFD092FF1F4081FF1F70B505460C461A3089B200F099FA05F11400210CBDE8704000F092BA2DE9F0470446BDF824700D469146002120229A46BDF8286072
:40514000DDF8208000F0D6F90B222046294600F0BCFB04F10E00394684F80BA000F076FA04F11000314600F071FA04F11600394600F06CFA04F11800314600F067FA204657
:405180004946FFF7C3FF04F11C004146BDE8F04700F052BA07B5426803460AB910460AE081680020009048681968DB6800F018FB003818BF01200EBD2DE9F0470468054677
:4051C0000F46A668FFF746F981468246002841D0D4F80080B8F1000F1BD14246304639462B46FFF7DDFA0246D8B11C4B6061C4F8108093F880302060022B07D030463946AB
:40520000FFF759FA10B10120BDE8F087B9F1010A20D03046394662692B46FFF7C1FA804628B94FF6FE732B810130BDE8F0870B4B93F88030022B05D030463946626943466E
:40524000FFF75BFA2369C4F8148001332361BAF1010ADDE70020BDE8F08700BFD092FF1F2DE9F041836804460D4608460122A1699E8B00F03FFD2846B4F81C80AF6800F0FE
:4052800058FDF8B9013E06EA4816B6B2BE1906F11C00616800F0D0F921683046FFF736FF01F066F90446A1B206F1160000F0CEF906F11800210C00F0C9F92846BDE8F0417A
:4052C00000F033BDBDE8F0817FB50668B0F90830B568C3B9C37A13F0110F14D02946684600F0ECFB30466946FFF7BAFF064B6C4693F88030022B03D128466946FFF7DFF966
:40530000684600F009FD7FBDD092FF1F03682DE9F04F9F68038995B001339BB2012B04460E46059201D90025CEE0394610AD0CA800F0C4FB3946284600F0C0FB0396266888
:405340000023D6F808909A4609F118010791D9F82420059906924FF0FF32099308920A950291049320460CA9FFF726FF38B108A8FFF710FF5546002818BF00258FE03269C2
:40538000069901324A43B9F81CB063680BF1FF3BD21A0BEA030B029B0798934228BF134601937169FEF789FE99F83430B9F81C206768013BB7FBF2F703EA0707C719B9F8D2
:4053C0001C300199CBEB03058D4228BF0D469D4228D0BBF1000F03D1626873689A420FD00DF1400840463946002200F083FC404600F09FFC20B14FF6F9725546228154E05A
:405400001298039958442A460DF1400800F05DFA40463946002200F06DFC404600F046FC90B141E0099B089A9A1897420AD008A8FFF7B0FE002837D101230993039B0897C7
:405440000B9301E001330993029B03995B1B019A029363684919521BAA44ED186560736803919D42019207D91BB1194B93F880300BB9012104917560019A1AB101374FF053
:40548000000B9CE7029B002B7FF46CAF08A8FFF781FE04995546002818BF002529B1304610A9FFF7DDFE00E05546059A954205D0B4F9083013B94FF6F87323810CA800F03E
:4054C0002BFC10A800F028FC284615B0BDE8F08FD092FF1F10B5002308E0C45C11F803C0013A0133644501D0012010BD002AF4D1104610BD70B5034602E003F8011C013A9A
:405500001C4622B103F003050133002DF5D193081ED04FF001354D4308E044F8105C44F80C5C44F8085C44F8045C043B032BA44604F11004F1DC1C46002603E04CF80650E4
:40554000013B0436002BF9D102F003020CEB8404002302E0E154013A0133002AFAD170BD002310F803C0CA5C624501D0012070470133002AF5D110467047002300E00133B3
:40558000C25C002AFBD11846704710B500230BE0C45C11F803C0644501D0012010BDC4186478013314B1013A002AF1DC002010BD10B5002302E0C454013A013303EB000C80
:4055C0000AB9002308E0CC5C002CF4D1F9E700210CF80310013A0133002AF8D110BDA0F16103192B98BF00F0DF00704701384018B0FBF1F07047C9B203E00BB9184670475C
:40560000013003788B42F8D1704742780178431C42EA01205A789B7842EA002043EA002070478378C27803EB0222437803EB0222037803EB0220704703460A0A03F8011B93
:4056400042700A0C090E5A70997070470170090A417070474278037843EA022070470000094A0A4BC11C10B5146821F0030118680919814201D9002010BD11609A68586860
:40568000013220189A6010BD5493FF1F6482FF1F08B5FFF7E5FF00B9FEE708BDFFF7E0BF30B1044A9368013B93600BB9024A1360704700BF6482FF1F5493FF1F014B5860C1
:4056C000196070476482FF1F38B50546FFF7E0FF002104462A46FFF70DFF204638BD000010B5084CA37C0BB1002010BD4FF40073238200F02DFFA37C012043F00103A3744B
:4057000010BD00BFD092FF1F08B583680BB10020984708BD08B583680BB10120984708BD10B504680079A468A04710BD37B59DF81850046800790095E468A0473EBD08B554
:40574000036800799B69984708BD036810B55B69044623B10079984708B1002000E00120607110BD10B5437904460BB9FFF7EDFF607910BDF7B504461F460E461546FFF7A4
:40578000F1FF2046FFF7C6FF2A463146012320460097FFF7C5FF05462046FFF7B5FF2846FEBD10B504690919BDE81040FFF7E2BFF7B5044615461F460E46FFF7D3FF20467A
:4057C000FFF7A8FF0023009331462B463A462046FFF7ACFF05462046FFF796FF2846FEBD30B504699DF80C5009190395BDE83040FFF7DEBFF7B5044615461F460E46FFF7DD
:40580000B1FF2046FFF786FF0123009331462B463A462046FFF78AFF05462046FFF774FF2846FEBD30B504699DF80C5009190395BDE83040FFF7DEBF73B504460E461546CA
:40584000FFF790FF2046FFF765FF00232A460093314601332046FFF769FF05462046FFF753FF002D14BF4FF0FF3000207CBD10B504690919BDE81040FFF7DEBF30B5054682
:4058800085B0FFF76FFF2B6828791C694FF47B71002201ABA04708B1002001E0BDF80C0005B030BD70B506460D46FFF75BFF336830791C694FF47B7100222B46A0470028E7
:4058C00014BF4FF0FF30002070BD11F0030F70B584460B4632D110F0030F2FD195100446AC4611E053F8106CACF1040C44F8106C53F80C6C44F80C6C53F8086C44F8086CCE
:4059000053F8046C44F8046C10341033BCF1030FE8D8AB081B0100EB030CCB1815F003050AD0284600215C584CF8014004310138F9D1AD00AC445B1902F0030213F0010F4C
:4059400019462FD11CF0010F60462BD15410254610E031F8086C043D20F8086C31F8066C20F8066C31F8046C20F8046C31F8026C20F8026C08300831032DEAD8A108C900A9
:405980005B1814F003048C440AD0204600215D5A2CF8015002310138F9D16400A4441B1902F00102614610E013F8040C043A01F8040C13F8030C01F8030C13F8020C01F834
:4059C000020C13F8010C01F8010C18460433032A8C4601F10401E7DC32B10023C15C0CF8031001339342F9D170BD0000094B10B5D8689A68002308E0114652F8084B1CB9C4
:405A000001230B60486810BD01338342F4D3002010BD00BFD092FF1F084B30B50022DC689B6808E05D6819460833854202D100230B6030BD0132A242F4D330BDD092FF1F26
:405A400001230373704700230373704710B1002282720260704718B1027B0AB1013A02737047000038B5FFF73BFE20B3124C4200E2600001FFF728FE238AA060E0685843AF
:405A8000FFF722FEA568E168228A002304E005EBC3046060013380188B42F8D31020FFF713FE054C60612820FFF70EFEA37CA06143F00203A37438BDD092FF1F38B5102256
:405AC0000D4600210446FFF715FDFFF78FFF08B9013038BDA0604FF0FF33002065602360A07338BD38B5837A044643B10568FFF7EBFB2846FFF7AFFF2046FFF7A7FF0020EF
:405B000038BD08B50368827A03B19B6822B11BB1FFF7E8FF002008BD012008BD08B901307047FFF7EEBF000038B5104B9C69217B59B921606160A16004F110001422FFF793
:405B4000D9FC237B013323730DE0656A45B92820FFF7A4FD606218B129462822FFF7CAFC646A002CE3D1204638BD00BFD092FF1F38B50E4B5C69A17AE56839B9204610220A
:405B8000FFF7B8FC0123A372E5600CE045B91020FFF784FDE06018B129461022FFF7AAFCE468002CE7D1204638BD00BFD092FF1F2DE9F74F06460020884691469B469DF839
:405BC00030A09DF83470FFF7AFFF054608B9044610E0FFF7CDFF044660B180F80B900560AE604046214652463B46CDF800B0FFF79FF930B12046FFF729FF2846FFF72BFF13
:405C000000242046BDE8FE8F2DE9FF410C461F4604A9002341F8043D15469DF8286000F0D5F88046B8B1039B0BB11B789BB1404600F055F900280EDD14F0150F01D00328B9
:405C400009D1039939B1404622462B4600970196FFF7AEFF00E0002004B0BDE8F08100002DE9F3410646884600240E4D404655F83410E700FFF774FC10B9002C04DA0DE0C3
:405C800001340F2CF1D109E07D19A87929790090EA796B793046FFF7B7FF00E00020BDE8FC8100BFE08F0000FFF7DABF10B5437B04460BB1012010BD40682168A268A37BC8
:405CC000FFF7D5FD10B10120607310BD207310BD10B5437B044663B9037B53B140682168A268A37BFFF7C3FD08B1012363730023237310BD036870B5994204460D461646E3
:405D000007D0037B0BB1FFF7E3FF00232560A673E37370BDFFF7DCBF10B50446FFF7D8FFA068BDE81040FFF777BE01230373FFF7CFBF10B50446407B08B1012010BDE37BB4
:405D40005BB960682168A268A37BFFF72AFD10B10120607310BD0122E27310BD08B5436813B94FF0FF3008BD984708BDF8B50C4617460023144D01E0ED6D01338342FBDBBD
:405D80002B6828791B68984706460CB92046F8BDFFF7F3FB0530B84214DC22460020335C013223540130315C0029F8D113464FF03A0C03F801CB2C7903303034547083F88D
:405DC00001C09970F8BD00BFEC92FF1F2DE9F0470F463A210646FFF70EFC044610B93446174D27E00378C6EB000A5BB114F8013F43B162783A2A05D1A3F130085FFA88F84D
:405E0000023401E04FF000080D4D2B6828791B6898478146FFF7B1FB504508D1484631465246FFF7B2FB10B92B79434502D0ED6D002DEAD107B13C602846BDE8F08700BF57
:405E4000EC92FF1FF8B5174C064694F85B10E56D69B9602201272046FFF74CFB84F85B70E5653046FFF77AFF00280EDA18E045B96020FFF713FCE06518B129466022FFF77C
:405E800039FBE46D002CE0D10AE0074B2660DA6F0132DA670323207184F85B7084F85A302046F8BDEC92FF1FD092FF1FFFF7CABF38B504460D46FFF742FC08B9013838BD9A
:405EC0002046FFF74FFC204600F020FB2046FEF759FD08B184F8595094F8590038BD90F8593023B990F85A1009B1FFF7E1BF1846704710B590F8592004463AB931B1FFF702
:405F0000D7FF002802DC4FF0FF3010BD94F8590010BDFFF7EEBF10B50021FFF757FF08B9013010BD0321BDE81040FFF7F2BF30B51346BAB1B0B10268857A0AB1946804B95D
:405F400000247DB172B16CB1C27A12F0100204D14FF6FA730381104630BD1A46BDE83040FFF7D4B9002030BDFFF7E1BF2DE9F04F8FB08B469DF86010069207930991BDF86B
:405F80006420BDF86C309DF8701005460B92BDF868800C930D91FFF7D2FB0028C0F2DF81002385F85930FFF721FD0446002800F0D481AC4B1B8A4345C0F0CF81B8F1000F68
:405FC00000F0CB81079A06994FEAC803002A08BFFF220A93A44B0792002908BF3F2102220C9F144606912A4684461D460C996B698F422E7C00D13FB9202E03D0DDF82CA0BE
:40600000012708E0374604E0202E02D0DDF82CA001E04FF0000A41464FEA4A1003920593CDF810C0FFF7E2FAC7EB0B090999C0EB090999FBF1F070430A99FFF7D7FA0999FD
:406040004000C0EB090999FBF1F906FB09F00A99FFF7CCFA039A0890059BDDF810C02CB940F6F471894508DD894601E0994504DA013C083DB4F1FF3FB8D1644660460021D4
:4060800015464246FFF736FA6FF01603204600F8033B08227549FFF78BFA04F10B004146FFF7D4FA099A04F10E0062733946FFF7CDFA0223237404F111005146FFF7C6FA4F
:4060C000BBF5803F06D204F113001FFA8BF1FFF7BDFA04E004F120005946FFF7ADFA6FF00703637504F118000699FFF7AFFA04F11A000799FFF7AAFA04F11C002969FFF76C
:406100009BFA202E6FF07F031DD084F82430A93384F8263004F127005549FFF78DFA089B04F1160099B2FFF791FA524904F12B000B22FFF73DFA504B504904F136000C2ED1
:4061400018BF194624E084F84030A93384F8423004F124000899FFF76FFA04F12C000221FFF76AFA04F130000121FFF76FFA062384F8323004F143003D49FFF75DFA3D493A
:4061800004F147000B22FFF713FA3D4904F152000822FFF70DFA04F5FF71084607914AF65521FFF753FA0021284622460B46FFF75EFB0028C0F29F80202E08D10621002336
:4061C00028462246FFF753FB0028C0F29480002142462046FFF78EF9089A0223520000932846394623460692FFF71CFB0028C0F282806FF00703237007330C2E6370A37032
:406200000DD0202EE3700AD1201D6FF07041FFF713FA04F108006FF07041FFF70DFA0223284639462246FFF722FB002863DB089B2846D91922460223FFF719FB00285ADBC1
:40624000002142462046FFF755F9069AD119BAF1000F17D04FEA4A12012300932846B2FBF8F213E0D092FF1F889000001491000067452301A09000001D91000026910000BA
:406280002F9100000123099A009328462346FFF7C9FA00282FDB202E31D1424600212046FFF728F920462F49FFF7C6F904F5F2702D49FFF7C1F904F5F47009F1FF31FFF7FB
:4062C000BBF9032104F5F670FFF7B6F907984AF65521FFF7BBF90121002328462246FFF7C6FA002807DB0721002328462246FFF7BEFA002803DA2046FFF78EFB2DE02B698E
:4063000033B30D9B23B30021284622460B46FFF731FAE8B90C2E94F8C23102D0102E06D002E04FF0010B09E04FF00B0B06E0BBF5803F34BF4FF0040B4FF0060B5B4507D088
:40634000002184F8C2B1284622460B46FFF774FA2046FFF761FB002001E04FF0FF300FB0BDE8F08F5252614172724161F0B58BB007AD044600210C222846FFF7BBF8204602
:4063800000F0C4F820462946FFF78CFA23690BB163690893089911B94FF0FF3020E0BDF81E20BDF81C30BDF82460002000E001300C4D4FEAC00C05F1240757F83070B94291
:4063C000F5D80CEB050090F82850408D00950190002003900130049020460296FFF7C6FD0BB0F0BD8890000030B504468BB00D4600292FD0FFF7A3F9002802DA4FF0FF3049
:406400002AE0204600F082F8AA6807AB22B920461946FFF747FA02E007CA83E80700236923B16369089A9A4288BF08932978BDF81E2000916988BDF81C300191BDF82410A4
:4064400020460291A9880391A97904910899FFF78DFD01E0FFF78AFF0BB030BD0378E92B01D101207047EB2B01D0002070478078902814BF00200120704708B500F5FF70EB
:40648000FFF7E8F84AF65523984214BF0020012008BD01EB001000F5E370FFF7C2B8F0B50D4685B01446064658B352B300210B46FFF760F9002824DB2046FFF7DEFF00B330
:4064C0002046FFF7CBFF10B10024274616E02146FFF7DFFF074604F5E570FFF7A2F801A904463046FFF7DEF95CB157B1E219FF23120AB2FBF3F2029B9A4202D81DB12C6004
:4065000001E04FF0FF37384605B0F0BD73B50446FFF7B4F90646FFF769FA0C4B05461B8AB3420DD366B1204601A92A46FFF7B7FFB0F1FF3F04D02061019B6361002400E074
:40654000FF242846FFF768FA60B27CBDD092FF1F80B500AF04484FF48051FFF7AFF80348FFF7A4FC80BD00BF7082FF1F8091000080B485B000AF0023FB810023BB8100234F
:406580007B8101233B810123FB800023BB80FB895B089BB21A46BB895B011A447B89DB0213443B603A89FB885B011A44BB885B0213441B043A6813433B603B6818461437A8
:4065C000BD465DF8047B70474FF6FF7070470000014B1868704700BF7092FF1F00487047A091000000F096BD37B501220DF10701054600F0A7FD9DF80740FF2C14BF0A24D1
:406600000724284601220DF1070100F09BFD9DF80700FF2803D1013CE4B2002CF1D13EBD37B50469857828460DF10701012200F089FD9DF807300BB1002003E0013CF2D1CF
:406640004FF0FF303EBD37B54FF0FF3305460C468DF8073006E028460DF10701012200F08BFD013C002CF6DC3EBD000038B5094C2368032B02DD4FF0FF3509E0DDB20133D7
:4066800023601420FFF720F804EB850460608570284638BD7092FF1F08B5034B4FF400711B68984708BD00BF4481FF1F4FEAD20CACEBD103CCF10F0C10B5013360440024C2
:4066C00010F801CB013B4CEA0424F9D101F00703511A02228A40DC40013A04EA020010BD7FB5130E85788DF80530130C01F03F018DF80630130A41F040018DF80730002375
:406700008DF808208DF804101A4601A911F802C000215B00DBB283EA0C0E1EF0800F18BF83F009030131082904D04FEA4C0C5FFA8CFCEEE70132052AE7D15B0043F0010391
:406740008DF809308678C4680122304603A900F0F9FC9DF80C30FF2B04D00CB9FF2009E0013CF1E7284601A9062200F005FD2846FFF73AFF04B070BDF7B5847806460F465D
:4067800020460121FFF75FFF204600F00DFC304609210022FFF7A4FF8DF8070028BBF6680546012220460DF1060100F0CBFC9DF80630FE2B06D0FC2B04D00135ADB2B54295
:4067C000EFD112E00DF1070520463946102200F0B9FC29462046012200F0B4FC29462046012200F0AFFC002500E0FF25204600F0EFFB20460121FFF726FF2846FEBD0000C1
:406800002DE9F04F9B46494B89B003EB800305925C684A02029103924FF00309029AA578E678039B2846022E08BF13461E4600F0CFFB01212846FFF706FFBBF1010F0CBF27
:406840004FF0110A4FF0120A284600F0ADFB204651463246FFF744FF002851D1059F5E46A378E268B44604924FF000081E460FE0012230460DF11F01CDF804C000F062FC00
:406880009DF81F20DDF804C0FE2A05D008F10108049B9845ECD333E0284639464FF40072664600F04FFC0222284607A900F04AFC9DF81C30384601939DF81D80FFF7ECFE18
:4068C0004FF6FF729042019B0CD048EA0328404508D0BAF1120F13D120460C210022FFF7FFFE0DE0013E02D007F50077B8E7BAF1120F07D120460C213246FFF7F1FE01E001
:406900004FF0FF36284600F063FB28460121FFF79AFE3EB1B9F1000F02D009F1FF397DE74FF0FF36304609B0BDE8F08F7092FF1F2DE9F04F99464C4B87B0029203EB80030B
:406940009DF840205D68009103926B78002B40F085804B0201930327009BAC78EE78019A2046022E08BF1A46164600F031FB01212046FFF768FEB9F1010F0CBF4FF0180A2A
:406980004FF0190A204600F00FFB284651463246FFF7A6FE8DF81700002850D120460121FFF751FE029ECB46B8463046FFF774FE0DF11707BAF1180F0CBFFE23FC230122A3
:4069C0008DF817308DF81500030A394620468DF8143000F0D1FB204631464FF4007200F0CBFB0222204605A900F0C6FB01222046394600F0A7FB9DF8173003F01F03052BCE
:406A00001CD12846FFF70CFEC0B9039A0AB906F50076BBF1010BC8D1BAF1190F474611D106A96FF00203204601F8013D012200F0A3FB2846FFF7F4FD20B100E047464FF0EB
:406A4000FF3600E00026204600F0C2FA20460121FFF7F9FD26B10FB1013F7DE74FF0FF36304607B0BDE8F08F7092FF1F2DE9F04F877887B0044638460D4600F095FA2046AA
:406A80003A210022FFF72CFE064638B1384600F09FFA38460121FFF7D6FD58E00DF1140804224146384600F04DFB4046FEF7ADFD8046384600F08CFA01213846FFF7C3FDAA
:406AC000B8F1000F28F07F02B8BF4FEA987BD2B240F272634FEA1828B8BF0BF0010B1FFA88F8002A14BF1A460022012111EA080F05D10136F6B24900102E89B2F6D140F244
:406B00007260824233460DD06422724302F5FA6208E011EA080F07D049000133013689B2DBB2F6B20F2EF4D964214B434FF6FE7103F5FA6302EA01014FF6FC72384603EAB4
:406B4000020200F0B3FA10F0FF0F40F099804FF0FF3092E028467E217F22FFF7A7FD8246EB78DFF82C8103F0030203F0780308EBD30358F822101B7C3846594389B200F0B9
:406B800051FA0646002877D06B7803F00702DB1003F00F0308EB82024344126A93F810800292B8F1000F67D0A978284603911C221A21FFF77BFD0190BAF1000F1FD1502132
:406BC00053222846FFF772FD4FF0010909FA00F92F2131222846FFF769FD1FFA89F982463E21284649224FEA5929FFF75FFD0AF1020A09FA0AF9013000FB09F910E0BAF11D
:406C0000010F01D0012038E0284630214522FFF74DFD4FEA8029BBF1000F01D00223E37008FB06F2029B0399B2FBF3F2642303FB01225A437343D208DB089A4294BFE260FF
:406C4000E360FA235E43019BF6089A400C21B24294BF2261266128460D22FFF727FD0546384600F0C9F94FF4007128436070A180C4F80890002000E0FF2007B0BDE8F08F91
:406C8000E378A778012B3FF465AF4FF0000A67E738910000F0B5857887B004464FF4C871284600F0BFF9B0F5C87F00F2CC804CF25033E3600026284600F08AF90A21284604
:406CC000FFF7C1FC624B93E8030001902846ADF8081000F069F9062201A9284600F04CFA2846FFF781FC0746284600F071F901212846FFF7A8FC17F0010F03D10136052EBD
:406D0000D9D1A0E0284600F04FF9082120464FF4D572FFF7E5FC10F0040F52D0284600F057F9A5784FF4FA66284600F03DF9002237212046FFF7D4FC28460121FFF783FCB1
:406D4000292100222046FFF7CBFC0746284600F03FF928460121FFF776FC17B90123E3701EE017F0040F01D1013EDDD14FF4FA66284600F019F9012100222046FFF7B0FC2C
:406D80000746284600F024F928460121FFF75BFC0FB9E77004E0012F55D1013EE8D152E001AD20462946FFF7E7FC00284BD120462946FFF75BFEC0B2002844D10123237081
:406DC00043E00422A07805A900F0BCF9284600F0FFF89DF81730AA2B35D19DF8163003F00F03012B2FD1A5784FF4FA66284600F0DBF8002237212046FFF772FC2846012102
:406E0000FFF721FC29214FF080422046FFF768FC0746284600F0DCF828460121FFF713FC0FB1013EE2D101AE20463146FFF7A4FC48B90125E57020463146FFF717FEC0B276
:406E400008B9257001E04FF0FF3007B0F0BD00BF7891000010B5084B03EB80035C6823783BB9FFF7BFFB20B12046BDE81040FFF711BF4FF0FF3010BD7092FF1F38B51D4618
:406E8000154BA1F57B7103EB80035C68072918D8DFE801F00A17171704041719204600211422FEF727FB0CE0237833B92046FFF7F1FE10B14FF0FF3038BDA3882B81A368C4
:406EC0006B60002038BD2046FEF7EAFB024B00201A68013A1A6038BD7092FF1F80B582B000AF0346FB71FB79002B12D1134B1B78002B0DD1114B01221A7000F04DFA3B20D7
:406F0000012100F063FA00F02DFA00F097F912E011E00A4B1B78002B0CD1084B01221A7000F03AFA3B20012100F050FA00F01AFA00F084F900BF0837BD4680BD8492FF1FBA
:406F400080B584B000AF03460A46FB711346BB71FB79002B11D1BB79184600F0ABF900BF00F088F9034603F00103DBB2002BF7D000F0BAF90346FB7311E0BB79184600F00C
:406F800099F900BF00F076F9034603F00103DBB2002BF7D000F0A8F90346FB7300BFFB7B18461037BD4680BD80B582B000AF0346FB71FB79002B03D1002000F0D3FA03E002
:406FC000002000F0CFFA00BF0837BD4680BD00BF80B582B000AF0346FB71FB79002B03D1012000F0BFFA03E0012000F0BBFA00BF0837BD4680BD00BF80B485B000AF0346AC
:40700000FB71FB79002B02D10023FB6002E00023FB6000BFFB6818461437BD465DF8047B704700BF80B584B000AF03460A46FB711346BB80BB88B3F5C87F03D24FF4C87346
:40704000BB8006E0BB88B3F5FA5F02D94FF4FA53BB80BB885B00FB81FB8945F6C052B2FBF3F39BB2BB60FB79002B0CD100F094F9BB689BB2013B9BB21846012100F0A6F91E
:4070800000F070F90CE000F087F9BB689BB2013B9BB21846012100F099F900F063F900BFBB8818461037BD4680BD00BF80B485B000AF0346FB710B46BB8013467B80FB790D
:4070C0000033032B0FD8BB8840F6E442934207D87B8840F6E342934202D90123FB6012E00023FB600FE0BB8840F6E442934207D87B8840F6E342934202D90123FB6001E048
:407100000023FB6000BFFB6818461437BD465DF8047B704780B584B000AF0346FB71FB791846FFF7DBFEFB790033032B02D80223FB6002E00223FB6000BFFB6818461037B2
:40714000BD4680BD90B585B000AF0346B9607A60FB73BC68631CBB60FB7B1846FF21FFF7EFFE034623707B68013B7B607B68002BEFD11437BD4690BD80B584B000AF0346C7
:40718000B9607A60FB73BB685A1CBA601B78FA7B10461946FFF7D4FE7B68013B7B607B68002BF0D11037BD4680BD00BF80B500AF074B0F221A7000F0A7F800F05BF800F074
:4071C00069F8044B00221A70034B00221A7080BD8A640040886400408964004080B582B000AFFCF7DCFD0346FB71114A104B1B78DBB243F02003DBB213700E4A0D4B1B785F
:40720000DBB243F01003DBB213700B4A0A4B1B78DBB243F01003DBB21370FB791846FCF7C2FD00F01BF800F01FF80837BD4680BD9A640040986400409964004080B500AFA3
