:400000000080002011000000D5170000D517000080B500AF024A034B1B68136001F00CFCBC760040FA46004010B5054C237833B9044B13B10448AFF300800123237010BD36
:40004000A881FF1F0000000098530000084B10B51BB108480849AFF300800848036803B910BD074B002BFBD0BDE81040184700BF0000000098530000AC81FF1F0881FF1F2B
:400080000000000080B400AF0A4B1B780A4B1B78022B03D0084B1B78032B07D1074B01221A70074B1B680133054A1360BD465DF8047B7047034F00401881FF1FD681FF1F8B
:4000C000C481FF1F80B400AF184B1B78184B1B78022B07D0164B1B78032B03D0144B1B78042B02D1134B01221A70114B1B78052B07D00F4B1B78012B13D10F4B1B68002BDB
:400100000FD10E4B1B780133DAB20C4B1A700B4B1B78642B05D10A4B01221A60074B00221A70BD465DF8047B704700BF6D6400401881FF1FD781FF1F2882FF1FDA81FF1F48
:400140002C82FF1F98B500AF14E00E4B1C68631C0C4A136003F0ECFC03461A460A4B1A55084B1B68DA1E094B1B689A4202DB084B01221A6003F0CAFC034603F02003002BC5
:40018000E3D198BD1C82FF1FDC81FF1F2482FF1F2082FF1F80B400AF0F4B1B780F4B1B78012B03D10E4B1B68002B07D10B4B1B78032B03D0094B1B78042B08D1094B01228F
:4001C0001A70094B1B780133DAB2074B1A70BD465DF8047B704700BF676500401881FF1F3082FF1FD781FF1FD981FF1F00000000B0B5CCB002AF0023C7F818310023C7F885
:4002000014314FF00003C7F810314FF00003C7F80C314FF00003C7F808314FF00003C7F8243107F1B80300221A60043300221A60043300221A60043300221A600433002248
:400240001A600433BC4B07F1A8040FCB07C42370002387F8B530B94B07F194041D460FCD0FC42B681A46228002341B0C2370B44B07F184040FCB07C42380B24B07F1700408
:400280001D460FCD0FC42B682370AF4B07F15C041D460FCD0FC42B682370AC4B07F14C040FCB84E80F000023C7F820310023C7F81C310023A7F8063100233B640023C7F8E9
:4002C000003162B602F0AAFD01F09AFF03F05CF99F4803F09BF99F4803F072FC03F0B8FB9D4B1B68DBB2184610210222002300F023FD00F04FFD01F0B3F901F0BDF99748B1
:4003000000F096FE0020012100F0C4FD944800F08FFE4FF47A7001F09DFD00F0A7FD01F087FF0020002100F0B5FD07F1A803184600F07EFE8B4B01221A7003F023FA03F054
:4003400007FB894803F080FA884803F0A1FC012001F07EFF0346002B00F0858001F0A0FF0346184604F0E4F90346C7F80831D7F8080103F06DFE02460B46104619466CA309
:40038000D3E9002303F0B8FE02460B461046194604F0C4F80346C7F81031754B1B78002B61D0744B1B680E2B0BDC734B1B681846D7F8101104F008F903461A466E4B1A60FD
:4003C00049E06C4B1B680F2B14D16B4B1B681846D7F8101104F0F8F803461A46664B1A60654B1B681846654904F0AAFA0346C7F8243130E0D7F824010F21D7F8102100F0E4
:4004000063FFC7F82401D7F8240104F035FB0346C7F81831D7F8180104F08AF90346D7F82401194604F0CEF80346C7F80C31D7F80C01534904F0D0F90346184604F01CFB2C
:400440000346C7F814313B461A463C23104600211A4604F06EFB464B00221A70454B1B680133444A1360474B1B68012B13DD464B1B78303B3B64444B5B78303BC7F800311A
:400480003A6C13469B0013445B001A46D7F8003113443E4A13603E4B1B68002B2DD007F1B80339481946142201F0BCF8374B1A6807F1B803D91C374B009308462949364B9A
:4004C00000F030FF0246354B1A602E4B00221A602E4B00221A602C480021402204F029FB07F1B80318460021142204F022FB2C4B00221A70264B00221A6001F0F5F8034692
:40050000A7F8FE300123FB63164B1B78013B042B00F2F18301A252F823F000BFA50500001B070000F5090000490C0000BD0C00008FC2F5285C8F4A3F3454000044540000FE
:4005400058540000685400007C5400009054000085000000450100000C81FF1F9C530000AC5300001881FF1FC500000095010000D781FF1F1481FF1FD081FF1F00007041A0
:4005800000401C461C82FF1FDC81FF1F2482FF1F2082FF1F3482FF1F2882FF1F3082FF1FD981FF1FA34B1B68002B26D0A24B01221A60A24B00221A60A14B00221A60A14BE1
:4005C00000221A80A04B00221A70A04B00221A709F4B00221A709F4B01221A709E4B00221A609E4B00221A709D4B00221A609D4B00221A608F4B00221A609B4B1B68002BB8
:400600000BD007F1B80207F14003104697490A2200F09EFF944B00221A608C4B1B78002B7AD00023C7F820318C4B1B78C3F10A0307F1CC0210468E491A4604F083FA19E08E
:4006400011E0D7F820315A1CC7F8202107F59472134413F85C3C184603F098FAD7F82031142B00DD06E003F085FA034603F00803002BE6D1D7F82031142BE1DD774B1B78E5
:400680000A2B45D1744B1B687A4A82FB03129210DB17D31A03334FF47A7202FB03F3764A1360724B02221A700020002100F0F2FB00F0DCFB714800F0BBFC0023C7F8203168
:4006C00019E011E0D7F820315A1CC7F8202107F59472134413F8943C184603F057FAD7F82031122B00DD06E003F044FA034603F00803002BE6D1D7F82031122BE1DD4E4B76
:4007000000221A604D4B00221A60544B00221A704E4B00221A70EFE2EEE207F14A0107F1480207F14603084611461A4600F0F6FF454B1B78002B00F05C813F4B1B680E2BA7
:4007400029DCB7F9FE203E4B1B6813443C4A1360B7F84A301BB2184603F0EAFF0246484B1B681046194603F02FFF03461A46444B1A60B7F848301BB2184603F0D9FF0246CF
:40078000404B1B681046194603F01EFF03461A463C4B1A60D9E0284B1B680F2B7CD1B7F9FE20274B1B681344254A1360B7F84A301BB2184603F0BCFF0246314B1B681046EB
:4007C000194603F001FF03461A462D4B1A60B7F848301BB2184603F0ABFF0246294B1B681046194603F0F0FE03461A46254B1A60134B1B68244A82FB03121A44D210DB17A2
:40080000D31A9AB20F4B1A801D4B1B6818461F4904F096F803461A461D4B1A60194B1B6818461A4904F08CF803461A46194B1A608BE000BF3482FF1F1081FF1FC481FF1F16
:40084000CC81FF1FD481FF1FD681FF1FD781FF1FD881FF1F1981FF1F3082FF1FD981FF1F1C82FF1F2882FF1F2C82FF1F1881FF1FB85300004FECC44EC881FF1FD05300004F
:400880004082FF1F4482FF1F89888888000070413882FF1F3C82FF1F964B1B881BB2184603F046FF0446B7F9FE30184603F040FF034620460F211A4600F006FD0346184676
:4008C00004F0DAF803469AB28A4B1A808A4B1C68B7F84A301BB2184603F02AFF034620460F211A4600F0F0FC0246834B1A60834B1C68B7F848301BB2184603F019FF0346C2
:4009000020460F211A4600F0DFFC02467B4B1A60794B1B68184604F0AFF80346002BB8BF5B4242F2D23293420CDC744B1B68184604F0A2F80346002BB8BF5B4242F2D232C3
:40094000934202DD6E4B04221A706A4B1B881BB244F62062934222DD694B03221A700020002100F097FA00F081FA664800F060FB3B461A463C23104600211A4604F0D9F840
:40098000614B00221A60614B00221A60604B00221A60584B00221A805E4B00221A705A4B1B680133584A1360584B1A685A4B1B689A421ADB002002F091FE514B01221A7033
:4009C0000020002100F066FA00F050FA534800F02FFB4D4B00221A604C4B00221A604C4B00221A60434B00221A804D4B00221A7082E181E1474B1B78072B08D1454B0022A8
:400A00001A700123C7F81C31012002F04DFE07F14A0107F1480207F14603084611461A4600F07CFE3E4B1B78002B00F0D680364B1B680E2B22DCB7F84A301BB2184603F05A
:400A400077FE0246374B1B681046194603F0BCFD03461A46334B1A60B7F848301BB2184603F066FE0246304B1B681046194603F0ABFD03461A462C4B1A607BE0224B1B688E
:400A80000F2B55D1B7F84A301BB2184603F050FE0246244B1B681046194603F095FD03461A46204B1A60B7F848301BB2184603F03FFE02461C4B1B681046194603F084FD62
:400AC00003461A46184B1A60164B1B681846174903F036FF03461A46074B1A60124B1B681846124903F02CFF03461A46034B1A6040E000BFD481FF1F3882FF1F3C82FF1F03
:400B00001881FF1FE05300001081FF1FC481FF1FCC81FF1FD981FF1FC881FF1FF0530000D681FF1F4082FF1F4482FF1F00007041724B1C68B7F84A301BB2184603F0F8FDC5
:400B4000034620460F211A4600F0BEFB02466B4B1A606B4B1C68B7F848301BB2184603F0E7FD034620460F211A4600F0ADFB0246634B1A60614B1B68184603F07DFF034626
:400B8000002BB8BF5B4241F2077293420CDC5C4B1B68184603F070FF0346002BB8BF5B4241F20772934210DD564B04221A7000F05DF9554800F03CFA00F058F9534800F087
:400BC00037FA4FF4FA7001F045F9514B00221A70504B1B6801334F4A13604F4B1B78052B0ED1D7F81C31002B0AD0D7F81C310133C7F81C31002002F057FD474B00221A70E5
:400C0000454B1B78032B1ED1D7F81C31022B1AD13C4B04221A703B461A463C23104600211A4603F086FF0020002100F033F900F01DF9364800F0FCF90023C7F81C31364B04
:400C400000221A7058E057E0344B1B78002B02D0334800F0EDF9012002F0DCFE2E4B1B78032B0ED1002002F0D5FE4FF47A7001F0F1F8D7F81C310133C7F81C31264B002218
:400C80001A70D7F81C31022B17D13B461A463C23104600211A4603F04CFF1A4B05221A700020002100F0F6F800F0E0F81D4800F0BFF9194B00221A701EE01DE01A4B1B6827
:400CC000002B0BD007F1B80207F13C0310460D490A2200F03DFC144B00221A60134B00221A600D4B00221A700023C7F81C31104B00221A6000E000BFFFF729BB3882FF1F94
:400D00003C82FF1F1881FF1FFC53000004540000D681FF1F1081FF1FD981FF1FD881FF1F18540000285400002C82FF1FC481FF1F3082FF1FAFF3008090B482B000AF0446EE
:400D4000084611461A462346FB710346BB710B467B7113463B710A4AFB791370094ABB791370094A7B791370084A3B791370084B08221A7000BF0837BD4690BC704700BF70
:400D8000A082FF1FA582FF1FA682FF1FA282FF1F9F82FF1F80B500AF2E4B00221A702E4B1B78012B06D92B4B1B7843F00803DAB2284B1A70294B1B78002B0AD0264B1B78E7
:400DC000012B06D1234B1B7843F00403DAB2214B1A70322001F03EF8214B1B78184600F0F1F84FF47A7001F035F8302000F0D8F841F2941001F050F8302000F0D1F841F2DD
:400E0000941001F049F8302000F0CAF8962001F043F8202000F0C4F80E4B1B7843F02003DBB2184600F07EF80E4B04221A7000F063F800F01BF80C4B02221A700A4B1B7835
:400E400043F00403DBB2184600F06CF800F018F800BF80BDA482FF1FA682FF1FA282FF1F9F82FF1FA182FF1FA382FF1F80B500AF012000F057F8022000F0ECFF00BF80BD31
:400E800080B500AF022000F04DF8022000F0E2FF00BF80BD90B587B000AF03460A46FB711346BB71124B07F108040FCB84E80F00104B1B78BA799A4203D90E4B1B78013B9C
:400EC000BB71BB799B0007F11802134453F8103CDAB2FB791344DBB2DBB263F07F03DBB2DBB2184600F01EF800BF1C37BD4690BD44550000A682FF1F80B500AF084B1B7828
:400F000043F00403DAB2064B1A70054B1B7843F00803DBB2184600F005F800BF80BD00BFA182FF1F80B582B000AF0346FB71FB791846002100F012F800BF0837BD4680BD25
:400F400080B582B000AF0346FB71FB791846012100F004F800BF0837BD4680BD80B584B000AF03460A46FB711346BB71FB7923F00F03FB73FB791B01BB73FA7BBB79134322
:400F8000DBB2184600F00CF8BA7BBB791343DBB2184600F005F800BF1037BD4680BD00BF80B582B000AF0346FB71FB79184600F009F8FB79184600F01DF800BF0837BD4650
:400FC00080BD00BF80B582B000AF0346FB71074B1978074B1A78FB791343DBB20846194600F046F800BF0837BD4680BDA082FF1F9F82FF1F80B582B000AF0346FB71FB7935
:4010000043F00403DBB21846FFF7DCFF012000F043FFFB7923F00403DBB21846FFF7D2FF322000F039FF00BF0837BD4680BD00BF80B584B000AF78600023FB60786803F06F
:40104000A5FD0346FB720023FB6009E07A68FB6813441B781846FFF773FFFB680133FB60FA7AFB689A42F1D800BF1037BD4680BD80B582B000AF03460A46FB711346BB7168
:40108000FB791846002102F0B5F8BB79184602F08DF902F05FF900BF0837BD4680BD00BF90B585B000AF3B600346FB710B46BB7113467B710023FB73FB791846002102F09C
:4010C00099F8BB79184602F071F9FB791846012102F0EEF807E03C68631C3B60012002F0A5F903462370FB7B5A1CFA731A467B79013B9A42EFDB002002F098F903461A4698
:401100003B681A7002F026F91437BD4690BD00BF80B582B000AF03463A60FB710B46BB71FA79BB791046194601223B68FFF7B8FF0837BD4680BD00BF80B584B000AF3B6075
:401140000346FB710B46BB7113467B710023FB73FB791846002102F04DF8BB79184602F025F906E03B685A1C3A601B78184602F01DF9FB7B5A1CFA737A799A42F2D802F025
:40118000E9F81037BD4680BD80B582B000AF0346FB710B46BB7113467B71F979BA797B1D084611460122FFF7C7FF0837BD4680BD90B585B000AF0446084611461A46234619
:4011C000FB710346BB710B467B7113463B713B79012202FA03F35A1E79793B79CB1A013302FA03F3FB73F979BA7907F10E03084611461A46FFF78CFF97F8202079793B79C3
:40120000CB1A013302FA03F387F8203097F82020FB7B134087F82030FB7BDB43DAB2BB7BDBB21340DBB2DBB2BB73BA7B97F820301343DBB2BB73BB7BF979BA79084611464A
:401240001A46FFF7A1FF1437BD4690BD90B585B000AF0446084611461A462346FB710346BB710B467B7113463B71F979BA7907F10F03084611461A46FFF74AFF3B79002B07
:401280000AD07B79012202FA03F3DAB2FB7BDBB21343DBB2DBB20BE07B79012202FA03F3DBB2DB43DAB2FB7BDBB21340DBB2DBB2FB73FB7BF979BA79084611461A46FFF72D
:4012C00063FF1437BD4690BD80B584B000AFF8600B467A607B81B7F90A30184603F028FA0346F868194603F02BFB0346F868194603F068F90346FB60B7F90A30184603F0A1
:4013000017FA03467868194603F01AFB0346F868194603F059F90346FB60FB6818461037BD4680BDB0B596B000AFF860B9607A603B6000237B657D4B07F124041D460FCD69
:401340000FC40FCD0FC495E80F0007C42380784B07F110041D460FCD0FC42B682360F8687449052203F01AFC0346002B06D1BB6801221A70BB6E01221A60ACE0BB681B788A
:40138000012B22D1F8686C49052203F007FC0346002B1AD13B6801221A6012E00AE07B6D5A1C7A6507F15802134413F8483C184602F0ECFB02F0DEFB034603F00803002B78
:4013C000EDD17B6D132BE9DD85E0BB681B78012B4AD1F8685949022203F0E0FB0346002B42D1FB6802331B78303B554A1360FB6803331B78303B534A1360FB6804331B78EA
:40140000303B514A13604E4B1B68002B0CD0FB6802331B78184602F0B9FBFB6803331B78184602F0B3FB09E0464B1B68002B05D0FB6803331B78184602F0A8FBFB68043301
:401440001B78184602F0A2FB3D4B1B68642202FB03F13C4B1A6813469B0013445B00CA18394B1B6813445DE0BB681B78052B0BD1F8683649042203F091FB0346002B03D1B0
:401480003B6801221A6026E012E00AE07B6D5A1C7A6507F15802134413F8343C184602F075FB02F067FB034603F00803002BEDD17B6D2D2BE9DD224B1B68642202FB03F1F8
:4014C000204B1A6813469B0013445B00CA181E4B1B68134426E011E009E07B6D5A1C7A651A46FB6813441B78184602F04FFB02F041FB034603F00803002BEED17B68DA1C98
:401500007B6D9A42E8DC0E4B1B68642202FB03F10C4B1A6813469B0013445B00CA180A4B1B68134418465837BD46B0BD80550000B0550000645500006C55000074550000C6
:401540005482FF1F5882FF1F5C82FF1F78550000B0B590B000AFF860B9607A603B600023FB632E4B07F124041D460FCD0FC495E8030020600434218002340B0C2370002374
:4015800087F83B30264B07F110041D460FCD0FC42B682380BB681B78012B17D112E00AE0FB6B5A1CFA6307F14002134413F81C3C184602F0EBFA02F0DDFA034603F0080364
:4015C000002BEDD1FB6B162BE9DD23E0BB681B78052B1FD13B681B68002B19D012E00AE0FB6B5A1CFA6307F14002134413F8303C184602F0CBFA02F0BDFA034603F0080360
:40160000002BEDD1FB6B102BE9DD3B6800221A600023FB634037BD46B0BD00BFC8550000E055000080B487B000AFF860B9607A6000237B610AE07B69BA6813447A69F968B3
:401640000A4412781A707B6901337B617A697B689A42F0DB1C37BD465DF8047B704700BF80B400AF034B68221A70BD465DF8047B704700BF9E82FF1F80B500AF012000F042
:4016800095F8002000F008F8002000F019F8002000F07AF880BD00BF80B584B002AF0346FB71064B1A78FB79009310461B2104220223FFF77DFD0837BD4680BD9E82FF1F2B
:4016C00080B584B002AF0346FB71064B1A78FB79009310461C2104220223FFF769FD0837BD4680BD9E82FF1F80B500AF094B1B7818463F210222084BFFF7D2FC064B1B7892
:401700001B029AB2044B5B789BB213439BB21BB2184680BD9E82FF1F8882FF1F80B584B000AFF860B9607A60154B1B78184643210622144BFFF7B4FC124B1B781B029AB2C2
:40174000104B5B789BB213439AB2FB681A800D4B9B781B029AB20B4BDB789BB213439AB2BB681A80074B1B791B029AB2054B5B799BB213439AB27B681A801037BD4680BDC0
:401780009E82FF1F8882FF1F80B582B000AF0346FB71054B1A78FB7910466B210622FFF755FD0837BD4680BD9E82FF1F80B584B002AF0346FB71064B1A78FB790093104684
:4017C0006B2102220323FFF7F3FC0837BD4680BD9E82FF1F80B500AF03F074F903461B680C2B00D1FEE7FEE780B584B000AF78600F4B1A687B6813441A460E4BD31A802B38
:4018000009DC0B4B1B68FB60094B1A687B681344074A136007E003F055F902460C2313604FF0FF33FB60FB6818461037BD4680BD2881FF1FC882FF1F80B586B000AF224BDF
:401840007B61224B3B61204B7B6135E03B691B68FB603B695B68BB603B699B683B6000237B600CE0FB681A68BB681A60BB680433BB60FB680433FB607B6804337B607A6834
:401880003B689A42EED13B69DB683B6000237B6008E0BB6800221A60BB680433BB607B6804337B607A683B689A42F2D13B6910333B617B69013B7B617B69002BC6D103F01D
:4018C00007F9FEF795FCFEE701000000AC56000080B582B000AF174B174A1A60174A174B1B6843F40073136000237B600FE07B68032B04D8124A7B6852F8233000E0114BD2
:4019000011497A6841F822307B6801337B607B682F2BECD90D4B1B78DAB20D4B1A700D4B094A1A6000F0AEF90B4B00221A600837BD4680BD0CED00E00004FA0514ED00E0A9
:4019400000000000D51700000080FF1FBC7600400481FF1F08ED00E00081FF1F80B582B000AF78603960786800213A6803F0E1F80837BD4680BD00BF80B584B000AFF860B0
:40198000B9607A60F868B9687A6803F0C7F81037BD4680BD80B483B000AF0346FB71FEE780B487B000AF7860396000233B6100237B6127E07B699B007A6813441B68BB6042
:4019C000BB68FB73BB6823F0FF03BB6014E03B695B003A6813441B781A46BB68134419463B695B003A6813445B780B703B6901333B61FB7B013BFB73FB7B002BE7D17B6934
:401A000001337B617B69242BD4D91C37BD465DF8047B704780B582B000AF454B00221A80444B58221A70444B00221A80434B50221A70434B4D221A80424B18221A70424B96
:401A400040F65F121A80414B18221A70404841490422FFF791FF404B02221A704FF0402308221A703D4B03221A703D4B3D4A1278D2B21A703C4B08221A803C4B41F2512232
:401A80001A800023FB7019237B6014E0FB785B00DAB2374B1B78DBB203F00103DBB21343DBB203F00303FB704FF4F07002F040F97B68013B7B607B68002B02D0FB78032BE3
:401AC000E4D17B68002B02D10320FFF763FF294B4FF480721A80274B07221A70264B00221A70264B48221A70224B00221A70244B02221A70234B04221A70234A224B1B782A
:401B0000DBB243F00F03DBB21370204A1F4B1B78DBB243F00103DBB213701D4A1C4B1B78DBB263F07F03DBB213700837BD4680BD804000408240004084400040864000402A
:401B4000884000408A4000408C4000408E40004000410040A40A00480043004000420040A146004008010049224200402042004025420040044000400640004008400040C5
:401B8000014000400B400040A2430040A1430040A043004080B483B000AF114B1B78FB71104AFB7903F00703DBB213700E4AFB791B09DBB213700D4B44F204021A800C4BDC
:401BC00021221A700B4B04221A700B4B04221A700A4B44221A700C37BD465DF8047B7047CF0100496E5800406F5800401C510040DB5A0040005B0040585B00407658004012
:401C000080B483B000AF0346FB71FB79012B0ED8FB79094A52F82330FA79074951F822201178FA790548825C0A43D2B21A700C37BD465DF8047B7047F4550000FC550000B4
:401C400080B483B000AF0346FB71FB79012B10D8FB790A4A52F82330FA79084951F822201178FA790648825CD243D2B20A40D2B21A700C37BD465DF8047B7047F45500002A
:401C8000FC55000080B586B000AF72B6534A534B1B78DBB243F00403DBB213700023FB7513E0FA7D13465B0013445B004C4A13443B613B691A683B699B889BB21046194611
:401CC000FFF74CFEFB7D0133FB75FB7D092BE8D90023FB751CE0FA7D13469B0013445B00404A1344FB60FB681B68BB60FB685B687B60FB681A7A5B7A1B0213437B807B88F4
:401D0000B86879681A46FFF737FEFB7D0133FB75FB7D012BDFD94FF090403349FFF740FE324B0A221A70324B40F203321A80314A304B1B78DBB243F00203DBB213702E4A59
:401D40002D4B1B78DBB243F00203DBB213702B4A2A4B1B78DBB243F04003DBB21370284A274B1B78DBB243F01003DBB21370254825490822FFF700FE244825490A22FFF7A4
:401D8000FBFD244824490822FFF7F6FD234824490A22FFF7F1FD234823490822FFF7ECFD224A224B1B78DBB243F00803DBB213701F4B00221A70FFF72DFE1D4B80221A7065
:401DC0001C4B01221A70FFF7E5FE1B480B490E22FFF7D2FD1837BD4680BD00BFE8460040005600003C56000094000048835800404E5800400350014013500140A04300406E
:401E0000C243004002510040740A0048C05100407C0A004812510040880A004820510040900A0048325100409C0A0048224300400048004004000840B043004080B483B011
:401E400000AF0346FB7101BE0C37BD465DF8047B704700BF80B582B000AF786008E00C4B1B68184601F064FF7B68A3F500437B607B68B3F5004FF2D8064B1B687A6802FB5D
:401E800003F3184601F054FF0837BD4680BD00BF3881FF1F3081FF1F80B582B000AF0346FB80FB88044A127802FB03F3184601F03FFF0837BD4680BD3481FF1F80B584B036
:401EC00000AF03463960FB710F4B1B68FB60FB791F2B02D90020FFF7B1FFFB7903F01F0310339B00FA6813441B68BB60FB7903F01F0310339B00FA6813443A681A60BB6831
:401F000018461037BD4680BD08ED00E080B582B000AF03460A46FB711346BB71BB79072B02D90020FFF78AFFFB791F2B02D90020FFF784FFFB7903F01F0303F1604303F51D
:401F40006443BA795201D2B21A700837BD4680BD80B582B002AF414B01221A70404B00221A70102000F0E8FD102000F0CBFE1D200721FFF7CBFF3B4B04221A703A4B00222F
:401F80001A703A4B00221A70394A394B1B78DBB243F01803DBB21370364B00221A70364B00221A70354B00221A70354B0A221A70344B00221A70344B00221A70334B12221D
:401FC0001A70334B13221A70324B00221A70324B14221A7001230093022048F66B514FF400420C2300F0B6FB02230093002049F2DA014FF40042102300F0ACFB0323009396
:40200000002049F2DA014FF40042102300F0A2FB04230093002049F2DA014FF40042102300F098FB1D4A0D4B1B78DBB2013B1C499B000B449B7813701A4A084B1B78DBB223
:40204000013B174931F823301380044B1B78DBB2184600F079F9BD4680BD00BF3C81FF1F6082FF1F96580040975800409E580040075B004093580040885B0040895B004005
:4020800080580040815800408358004088580040895800408D580040014E00400E4E00406482FF1F0C4E004080B582B000AF01F05EFE0346FB71444B1B78BB71434A434B24
:4020C0001B78DBB243F00103DBB213703F4A3F4B1B78DBB243F01003DBB213703C4A3C4B1B78DBB243F00103DBB21370384A384B1B78DBB243F01003DBB21370354A354B02
:402100001B78DBB243F00203DBB21370324A324B1B78DBB243F00203DBB213702F4A2F4B1B78DBB243F00303DBB213700320FFF7B3FE284A274B1B78DBB223F00203DBB207
:402140001370254A244B1B78DBB223F00203DBB21370234A224B1B78DBB243F00603DBB21370204B7A221A701F4A1F4B1B78DBB243F00103DBB213701C4A1C4B1B78DBB2B8
:4021800043F00103DBB21370194A194B1B78DBB243F00203DBB21370164A164B1B78DBB243F00203DBB21370134B4FF000521A60124B4FF000521A60FB79184601F0DBFD14
:4021C0000837BD4680BD00BF3C81FF1FAA430040BA430040F8460040F9460040915800407758004082580040A1430040B1430040A2430040B243004080E200E000E100E058
:4022000080B500AF084B1B78002B09D1074B1B78DBB2002B01D1FFF79BFE034B01221A70FFF742FF80BD00BF6282FF1F6382FF1F80B400AF054A054B1B78DBB243F00103C5
:40224000DBB21370BD465DF8047B7047004E004080B485B000AF0346FB710E4B1B78DBB2002B03D00C4B1B78FB7305E00B4B1B78DBB203F00103FB73FB7B012B02D0FB79EE
:40228000002BEAD0FB7B18461437BD465DF8047B704700BF6182FF1F6082FF1F014E004080B483B000AF224B1B78DBB203F00303FB70FB78012B0BD81E4B1B889BB27B6080
:4022C0007B681B041C4A128892B213437B6020E0FB78022B12D1174B1B889BB27B607B681B04154A1278D2B213437B60134B1B78DBB21B027A6813437B600AE00E4B1B8883
:402300009BB27B600B4B1B889BB21B047A6813437B600B4B1B78DBB2002B02D0094B00221A707B6818460C37BD465DF8047B7047144E0040124E0040104E0040114E0040F9
:402340006182FF1F6082FF1F80B582B000AF0346FB71C34B00221A70FB79012B66D1C14B38221A70C04B06221A70C04B08221A70BF4B00221A70BF4B00221A70BE4B1F22DE
:402380001A70BE4B00221A70BD4B00221A70BD4B00221A70BC4B01221A70BC4B14221A70BB4B05221A70BB4B16221A70BA4B00221A70BA4B44221A70B94B48221A70B94BDA
:4023C00001221A70B84B01221A70B84B11221A70B74B19221A70B74B97221A70522000F06FFAB54B58221A70B44B00221A70B44B05221A70B34B02221A70B34B00221A7034
:40240000B24B00221A70002000F0C6FAB04B40F233321A601220012100F0D2FA4A20012100F0B4FB1D20AB49FFF748FDFB79022B66D18C4B38221A708B4B04221A708B4B81
:4024400006221A708A4B00221A708A4B00221A70894B3F221A70894B00221A70884B00221A70884B00221A70874B01221A70874B50221A70864B27221A70864B2C221A70D1
:40248000854B00221A70854B55221A70844B5A221A70844B05221A70834B01221A70834B11221A70824B19221A70824B97221A70442000F005FA804B58221A707F4B0022C4
:4024C0001A707F4B05221A707E4B02221A707E4B00221A707D4B00221A70002000F05CFA7B4B4FF47A421A600820012100F068FA2520012100F04AFB1D207749FFF7DEFCCD
:40250000FB79032B66D1574B38221A70564B04221A70564B06221A70554B00221A70554B00221A70544B3F221A70544B00221A70534B00221A70534B00221A70524B0122D7
:402540001A70524B50221A70514B27221A70514B2C221A70504B00221A70504B55221A704F4B5A221A704F4B05221A704E4B01221A704E4B11221A704D4B19221A704D4BF6
:4025800097221A70442000F09BF94B4B58221A704A4B00221A704A4B05221A70494B02221A70494B00221A70484B00221A70002000F0F2F9464B4FF47A421A6008200121BF
:4025C00000F0FEF92520012100F0E0FA1D204349FFF774FCFB79042B40F0A980214B38221A70214B04221A70204B06221A70204B00221A701F4B00221A701F4B3F221A708D
:402600001E4B00221A701E4B00221A701D4B00221A701D4B01221A701C4B50221A701C4B27221A701B4B2C221A701B4B00221A701A4B55221A701A4B5A221A70194B0522FE
:402640001A70194B01221A70184B11221A70184B19221A70174B97221A70442040E000BF6182FF1F004E0040024E0040034E0040044E0040054E0040064E0040084E004090
:40268000094E00400A4E0040144E0040845800408558004086580040875800408A5800408B5800408C5800408E5800408F5800409058004091580040945800409558004073
:4026C0009A5800409B5800409C5800409D580040AC82FF1F39290000452900005129000000F0EEF8134B58221A70134B00221A70124B05221A70124B02221A70114B00229D
:402700001A70114B00221A70002000F045F90F4B4FF47A421A600820012100F051F92520012100F033FA1D200949FFF7C7FB0837BD4680BD94580040955800409A5800408D
:402740009B5800409C5800409D580040AC82FF1F5D29000090B587B000AF0446084611461A462346FB710346BB800B467B801346BB7197F82830002B00F08A8097F8283054
:40278000042B00F28580FB79013B092B4AD801A252F823F0BD2700002528000025280000BD2700002528000025280000D7270000F1270000252800000B280000BB790F2BED
:4027C00004D9364B1B78DBB2FB752EE0344B1B78DBB2FB7529E0BB790F2B04D9314B1B78DBB2FB7521E0304B1B78DBB2FB751CE0BB790F2B04D92D4B1B78DBB2FB7514E01F
:402800002B4B1B78DBB2FB750FE0BB790F2B04D9284B1B78DBB2FB7507E0274B1B78DBB2FB7502E00023FB7500BFBA8897F917305B0113443B617B883A6902FB03F3FB60DC
:40284000FB68DB0BBB82BB790D2B11D8BB8ABA79C2F10E021341BB8297F82830013BBA790132D1B2154A9B0013440A469A7007E097F82830013B114A9B0013440F229A7068
:4028800097F82830013B0D49BA8A21F8232002E00020FFF7D3FA1C37BD4690BD180100491C010049190100491D0100491A0100491E0100491B0100491F0100496482FF1F67
:4028C00080B584B000AF0346FB7101F050FA0346FB73164A154B1B78DBB243F00303DBB21370134A124B1B78DBB243F00303DBB21370104AFB7913700320FFF7CDFA0B4A47
:402900000A4B1B78DBB223F00303DBB21370084A074B1B78DBB223F00303DBB21370FB7B184601F028FA1037BD4680BDF8460040F94600409258004080B400AFBD465DF83C
:40294000047B704780B400AFBD465DF8047B704780B400AFBD465DF8047B704780B400AFBD465DF8047B704780B582B000AF0023FB7106E0FB791846FFF762F9FB79013378
:40298000FB71FB79012BF5D9024BFF221A700837BD4680BD3D81FF1F80B582B000AF0346FB71FFF7E1FFFB791846FFF729F9034AFB7913700837BD4680BD00BF3D81FF1F01
:4029C00080B584B000AF03460A46FB8013467B7100F0CCF80346FB7300F0A2F80346BB81FA88BB899A4200F08780454B1B78DBB203F00203FB72FB7B002B20D1BB89002B3D
:402A000002D0FB88002B1AD1BB89002B0BD13D4AFB8813803C4A3C4B1B78DBB223F04003DBB2137068E0384A374B1B78DBB243F04003DBB21370334AFB8813805CE0FB7A7A
:402A4000002B33D0314B00221A70314B02221A70304B00221A70304A2F4B1B78DBB203F07F03DBB21370284B1B78DBB203F00803002B02D0FB88002B18D1284ABB891380A8
:402A8000224B07221A7000BF204B1B78DBB203F00103002BF8D11A4A194B1B78DBB223F00203DBB21370194B00221A70144B1B78DBB203F00203002B13D0184AFB881380A4
:402AC000124A7B79002B01D0032300E00123137000BF0E4B1B78DBB203F00103002BF8D10AE0084AFB8813800549054B1B78DAB2FB7A1343DBB20B701037BD4680BD00BF92
:402B0000A24300408440004086400040014000401040004014400040084000400240004080B400AF034B1B889BB21846BD465DF8047B70478440004080B483B000AF034647
:402B4000FB71094B084A1278D2B2D1B2FA7922F00702D2B20A43D2B2D2B21A700C37BD465DF8047B704700BF8640004080B400AF054B1B78DBB203F00703DBB21846BD46ED
:402B80005DF8047B704700BF8640004080B584B000AF03460A46FB8013467B7100F0CCF80346FB7300F0A2F80346BB81FA88BB899A4200F08780454B1B78DBB203F001039A
:402BC000FB72FB7B002B20D1BB89002B02D0FB88002B1AD1BB89002B0BD13D4AFB8813803C4A3C4B1B78DBB223F04003DBB2137068E0384A374B1B78DBB243F04003DBB212
:402C00001370334AFB8813805CE0FB7A002B33D0314B00221A70314B01221A70304B00221A70304A2F4B1B78DBB203F07F03DBB21370284B1B78DBB203F00803002B02D000
:402C4000FB88002B18D1284ABB891380224B07221A7000BF204B1B78DBB203F00103002BF8D11A4A194B1B78DBB223F00103DBB21370194B00221A70144B1B78DBB203F08E
:402C80000103002B13D0184AFB881380124A7B79002B01D0032300E00123137000BF0E4B1B78DBB203F00103002BF8D10AE0084AFB8813800549054B1B78DAB2FB7A134394
:402CC000DBB20B701037BD4680BD00BFA14300400041004002410040014000401440004010400040084000400240004080B400AF034B1B889BB21846BD465DF8047B7047A2
:402D00000041004080B483B000AF0346FB71094B084A1278D2B2D1B2FA7922F00702D2B20A43D2B2D2B21A700C37BD465DF8047B704700BF0241004080B400AF054B1B7846
:402D4000DBB203F00703DBB21846BD465DF8047B704700BF0241004080B500AF134B02221A70134B81221A70124B08221A70124B0F221A70114B00221A70114B4FF4004281
:402D80001A600F200721FFF7C1F80F200D49FFF795F80D4B10221A700C4B00221A700C4B00221A700B4B00221A7080BDD6490040C8490040CA490040DB490040DC49004066
:402DC00080E100E0492E0000B082FF1FC182FF1FB482FF1FB582FF1F80B582B000AF00F0C6FF0346FB710B4A0A4B1B78DBB243F00403DBB21370084A074B1B78DBB243F036
:402E00000403DBB21370FB79184600F0B4FF0837BD4680BDA5430040B543004080B500AF074B1B78002B04D1FFF796FF044B01221A70FFF7D1FF034B4FF400421A6080BD87
:402E40007482FF1F00E100E080B582B000AFA84B1B78FB71A74B1B78DBB203F04003DBB2002B00F0AC81FB7903F00103002B00F08381A04B1B78DBB2453B052B00F2788128
:402E800001A252F823F000BFA12E0000C92F00007131000071310000A12E0000B7300000FB7923F02003FB71FB7903F00A03DBB2082B46D18F4B1B78DBB2452B3AD18E4BE3
:402EC0001B78DBB2002B0FD08C4A8D4B1B681B78DBB21370864B04221A708A4B01221A70844B46221A706EE0874B1B78DBB203F00203002B0FD0854B1B78DBB243F00A039E
:402F0000DAB2824B1A707B4B60221A70804B4FF400421A6057E07F4A7E4B1B78DBB243F01003DBB213707C4B10221A70704B04221A7048E06E4B00221A706E4B4A221A70A9
:402F40001AE1FB7903F00A03DBB20A2B37D16F4B1B78DBB263F05F03DAB26C4B1A706A4B1B78DBB203F00203002B19D0614B1B78DBB203F00803002B01D0092300E00A23DC
:402F8000DAB2624B1B78DBB21343DAB25F4B1A70584B60221A705E4B4FF400421A6012E05C4A5C4B1B78DBB243F01003DBB21370594B10221A704E4B04221A70DCE0002011
:402FC000FEF73CFFD8E0D7E0FB7903F00203002B42D14C4B1B78DAB2474B1B78DBB29A4214D2464A464B1B6846490978C9B20B441B78DBB213703E4B04221A70414B1B78E5
:40300000DBB20133DAB23F4B1A7053E03E4B1B78DBB203F00203002B0FD03C4B1B78DBB243F00A03DAB2394B1A70324B60221A70374B4FF400421A603CE0364A354B1B7817
:40304000DBB243F01003DBB21370334B10221A70274B04221A708FE02B4B1B78DBB203F00203002B0FD0294B1B78DBB263F06503DAB2264B1A701F4B60221A70244B4FF40C
:4030800000421A6016E0234A224B1B78DBB243F01003DBB21370204B10221A70144B04221A701A4B1B78DBB263F06F03DAB2174B1A7061E060E0194B1B68194A1278D2B23D
:4030C00013440E4A1278D2B21A70154B1B78DBB20133DAB2124B1A70114B1B78DAB2114B1B78DBB29A421FD2014B10221A703EE0D7490040B082FF1FB682FF1FD849004011
:40310000B882FF1FB582FF1FC082FF1FC182FF1F80E100E0D6490040D9490040BC82FF1FB482FF1FC282FF1F2C4B1B78DBB203F00203002B0FD02A4B1B78DBB243F00903A0
:40314000DAB2274B1A70274B60221A70264B4FF400421A600BE0254A244B1B78DBB243F01003DBB21370224B00221A7004E003E00020FEF763FE00BFFB7903F02003002BD0
:4031800028D0184B1B78DBB203F00803002B01D0012300E00223DAB2114B1B78DBB21343DAB20F4B1A70114A104B1B78DBB223F01003DBB213700B4B10221A700AE0094B47
:4031C0001B78DBB203F01003DBB2002B02D1054B10221A700837BD4680BD00BFC082FF1FC182FF1FB082FF1F80E100E0D6490040D749004080B485B000AF03460A46FB71A6
:403200001346BB710223FB73244B1B78DBB2102B3CD1234B1B78DBB203F00803002B33D1204B4FF400421A60FB795B00FB71BB79002B07D0FB7943F00103FB71174B492225
:403240001A7002E0154B45221A70174AFB791370134B01221A7000BF144B1B78DBB203F00103002BF8D0114B1B78DBB203F00A03DBB20A2B05D1094B10221A700323FB734E
:4032800004E00023FB7301E00123FB73FB7B18461437BD465DF8047B704700BFB082FF1FD949004080E100E0D8490040D749004080B485B000AF03460A46FB711346BB7164
:4032C0000223FB731F4B1B78DBB203F00403002B31D0FB795B00FB71BB79002B07D0FB7943F00103FB71184B49221A7002E0164B45221A70154AFB791370124B12221A7006
:40330000134B04221A7000BF114B1B78DBB203F00103002BF8D00E4B1B78DBB203F00A03DBB20A2B05D1084B10221A700323FB7301E00023FB73FB7B18461437BD465DF8BD
:40334000047B7047D9490040B082FF1FD8490040D749004080B483B000AF0223FB71104B1B78DBB203F00403002B12D00C4B10221A700C4B04221A700B4B10221A7000BF90
:40338000084B1B78DBB203F02103002BF8D00023FB71FB7918460C37BD465DF8047B7047D9490040D7490040B082FF1F80B485B000AF0346FB710223FB73184B1B78DBB269
:4033C00003F00403002B22D0154AFB791370154B04221A70144B46221A7000BF114B1B78DBB203F00103002BF8D00E4B1B78DBB203F00203002B05D10B4B60221A700023E3
:40340000FB7304E0084B60221A700323FB73FB7B18461437BD465DF8047B7047D9490040D8490040D7490040B082FF1F80B485B000AF0346FB710023FB73174B1B78DBB247
:4034400003F00403002B1FD0144B1B78DBB2492B05D1134B00221A70104B4A221A7000BF0F4B1B78DBB203F00103002BF8D00D4B1B78FB73FB79002B03D0094B10221A7016
:4034800002E0064B60221A70FB7B18461437BD465DF8047B704700BFD9490040B082FF1FD7490040D849004080B500AF204A204B1B78DBB203F00103DBB213701D4A1D4B3F
:4034C0001B78DBB223F00303DBB213701A4A1A4B1B78DBB223F03003DBB21370164A164B1B78DBB243F03003DBB21370124A124B1B78DBB223F00F03DBB213700E4A0E4B2E
:403500001B78DBB243F00F03DBB213700B4A0B4B1B78DBB243F00103DBB21370132000F053F8132000F062F8082000F03DF880BD004F0040024F00400B4F0040014F004045
:4035400080B400AF0D4A0D4B1B78DBB243F00103DBB213700A4A0A4B1B78DBB243F00103DBB21370074A074B1B78DBB243F00103DBB21370BD465DF8047B7047A343004084
:40358000B3430040004F004080B500AF054B1B78002B04D1FFF788FF024B01221A70FFF7CFFF80BD7582FF1F80B483B000AF0346FB71044AFB7913700C37BD465DF8047BC8
:4035C000704700BF034F004080B485B000AF0346FB80FB88FB81044AFB8913801437BD465DF8047B704700BF044F004080B483B000AF0346FB80044AFB8813800C37BD46D4
:403600005DF8047B704700BF064F004080B582B000AF786000F03CF8786800F009F8072000F018F800F028F80837BD4680BD00BF80B485B000AF7860054B1B68FB60FB68D2
:4036400084337A681A601437BD465DF8047B704708ED00E080B483B000AF0346FB71054AFB795B01DBB213700C37BD465DF8047B704700BF11E400E080B400AF034B4FF4B6
:4036800000321A60BD465DF8047B704700E100E080B400AF034B4FF400321A60BD465DF8047B704780E100E080B485B000AF0346FB71094B1B78DBB203F07F03FB730649AD
:4036C000FB79DB01DAB2FB7B1343DBB20B701437BD465DF8047B70471051004080B485B000AF0346FB710B4B1B78DBB223F00203FB730849FB795B00DBB203F00203DAB2A6
:40370000FB7B1343DBB20B701437BD465DF8047B704700BF0051004080B582B000AF0F4800F05CF80D4800F073F800F020FB0346FB710B4A0A4B1B78DBB243F01003DBB2CE
:403740001370FB79184600F016FB00F06FF8012000F028F80837BD4680BD00BFFFA50E009D64004080B400AF054A054B1B78DBB263F07F03DBB21370BD465DF8047B704725
:403780007B64004080B500AF054B1B78002B04D1FFF7C2FF024B01221A70FFF7E3FF80BD7682FF1F80B483B000AF0346FB71044AFB7913700C37BD465DF8047B704700BFA7
:4037C0008D64004080B400AF034B1B78DBB21846BD465DF8047B70476D64004080B483B000AF7860034A7B6813600C37BD465DF8047B70472A64004080B400AF034B1B6866
:403800001846BD465DF8047B704700BF4A64004080B483B000AF7860034A7B6813600C37BD465DF8047B70470A64004080B500AF01E0FFF7E1FFFFF7C5FF034603F0080343
:40384000002BF6D180BD00BF80B582B000AF786000F03CF8786800F009F8072000F018F800F028F80837BD4680BD00BF80B485B000AF7860054B1B68FB60FB6840337A682C
:403880001A601437BD465DF8047B704708ED00E080B483B000AF0346FB71054AFB795B01DBB213700C37BD465DF8047B704700BF00E400E080B400AF034B01221A60BD46C1
:4038C0005DF8047B704700BF00E100E080B400AF034B01221A60BD465DF8047B704700BF80E100E080B582B000AF0F4800F05CF80D4800F073F800F03AFA0346FB710B4AD2
:403900000A4B1B78DBB243F01003DBB21370FB79184600F030FA00F06FF8012000F028F80837BD4680BD00BFFF356E019765004080B400AF054A054B1B78DBB263F07F03B4
:40394000DBB21370BD465DF8047B70477465004080B500AF054B1B78002B04D1FFF7C2FF024B01221A70FFF7E3FF80BD7782FF1F80B483B000AF0346FB71044AFB791370DC
:403980000C37BD465DF8047B704700BF8765004080B400AF034B1B78DBB21846BD465DF8047B70476765004080B483B000AF7860034A7B6813600C37BD465DF8047B7047A0
:4039C0002465004080B400AF034B1B681846BD465DF8047B704700BF4465004080B483B000AF7860034A7B6813600C37BD465DF8047B70470465004080B500AF01E0FFF7F0
:403A0000E1FFFFF7C5FF034603F00803002BF6D180BD00BF80B485B000AF0346FB710B4B1B78DBB223F02003FB730849FB795B01DBB203F02003DAB2FB7B1343DBB20B70AC
:403A40001437BD465DF8047B704700BF1051004080B500AF054B1B78002B04D100F008F8024B01221A7000F023F880BD7882FF1F80B400AF094B72221A70094B20221A7087
:403A8000084B06221A70084B47221A70074B00221A70BD465DF8047B704700BF886500408965004027640040376400408664004080B582B000AF00F05AF90346FB71104ADD
:403AC0000F4B1B78DBB243F02003DBB213700D4A0C4B1B78DBB243F01003DBB213700A4A094B1B78DBB243F01003DBB2137000F0B5F8FB79184600F03EF90837BD4680BD8F
:403B000098650040996500409664004080B483B000AF064B1B78DBB203F07F03FB71FB7918460C37BD465DF8047B70476965004080B483B000AF0023FB710C4B1B78BB71FC
:403B4000BB7903F02003002B09D0094B1B78FB71BB7903F01E03002B01D00023FB71FB7918460C37BD465DF8047B7047696500404A65004080B400AF034B1B78DBB2184682
:403B8000BD465DF8047B70476664004080B483B000AF0346FB7100BF074B1B78DBB203F00403002BF8D1054AFB7913700C37BD465DF8047B704700BF6664004046640040B9
:403BC00080B582B000AF786000F03CF8786800F009F8072000F018F800F028F80837BD4680BD00BF80B485B000AF7860054B1B68FB60FB6848337A681A601437BD465DF872
:403C0000047B704708ED00E080B483B000AF0346FB71054AFB795B01DBB213700C37BD465DF8047B704700BF02E400E080B400AF034B04221A60BD465DF8047B704700BF0B
:403C400000E100E080B400AF034B04221A60BD465DF8047B704700BF80E100E080B400AF094A094B1B78DBB243F00403DBB21370064A064B1B78DBB243F00403DBB2137025
:403C8000BD465DF8047B7047A2430040B243004080B582B000AF786000F03CF8786800F009F8072000F018F800F028F80837BD4680BD00BF80B485B000AF7860054B1B6801
:403CC000FB60FB684C337A681A601437BD465DF8047B704708ED00E080B483B000AF0346FB71054AFB795B01DBB213700C37BD465DF8047B704700BF03E400E080B400AF49
:403D0000034B08221A60BD465DF8047B704700BF00E100E080B400AF034B08221A60BD465DF8047B704700BF80E100E000000000142816D902B4012114381049097811F0F6
:403D4000C001890904B40E4A515C04BC00BF00BF00BF8841FDD500BF00BF02BC704700BF00BF70F10400FCD570470B050709EFF3108072B6704780F3108870470048004082
:403D80006A3D0000AFF3008081F0004102E000BF83F0004330B54FEA41044FEA430594EA050F08BF90EA020F1FBF54EA000C55EA020C7FEA645C7FEA655C00F0E2804FEA16
:403DC0005454D4EB5555B8BF6D420CDD2C4480EA020281EA030382EA000083EA010180EA020281EA0303362D88BF30BD11F0004F4FEA01314FF4801C4CEA113102D040429D
:403E000061EB410113F0004F4FEA03334CEA133302D0524263EB430394EA050F00F0A780A4F10104D5F1200E0DDB02FA0EFC22FA05F2801841F1000103FA0EF2801843FAE8
:403E400005F359410EE0A5F120050EF1200E012A03FA0EFC28BF4CF0020C43FA05F3C01851EBE37101F0004507D54FF0000EDCF1000C7EEB00006EEB0101B1F5801F1BD3AB
:403E8000B1F5001F0CD349085FEA30004FEA3C0C04F101044FEA445212F5800F80F09A80BCF1004F08BF5FEA500C50F1000041EB045141EA050130BD5FEA4C0C404141EB94
:403EC000010111F4801FA4F10104E9D191F0000F04BF01460020B1FA81F308BF2033A3F10B03B3F120020CDA0C3208DD02F1140CC2F10C0201FA0CF021FA02F10CE002F1AC
:403F00001402D8BFC2F1200C01FA02F120FA0CFCDCBF41EA0C019040E41AA2BF01EB0451294330BD6FEA04041F3C1CDA0C340EDC04F11404C4F1200220FA04F001FA02F38B
:403F400040EA030021FA04F345EA030130BDC4F10C04C4F1200220FA02F001FA04F340EA0300294630BD21FA04F0294630BD94F0000F83F4801306BF81F480110134013D79
:403F80004EE77FEA645C18BF7FEA655C29D094EA050F08BF90EA020F05D054EA000C04BF1946104630BD91EA030F1EBF0021002030BD5FEA545C05D14000494128BF41F0F8
:403FC000004130BD14F580043CBF01F5801130BD01F0004545F0FE4141F470014FF0000030BD7FEA645C1ABF194610467FEA655C1CBF0B46024650EA013406BF52EA03351E
:4040000091EA030F41F4002130BD00BF90F0000F04BF0021704730B54FF4806404F132044FF000054FF0000150E700BF90F0000F04BF0021704730B54FF4806404F13204B5
:4040400010F0004548BF40424FF000013EE700BF42004FEAE2014FEA31014FEA02701FBF12F07F4393F07F4F81F06051704792F0000F14BF93F07F4F704730B54FF46074A6
:4040800001F0004521F0004120E700BF50EA010208BF704730B54FF000050AE050EA010208BF704730B511F0004502D5404261EB41014FF4806404F132045FEA915C3FF45C
:4040C000DCAE4FF003025FEADC0C18BF03325FEADC0C18BF033202EBDC02C2F1200300FA03FC20FA02F001FA03FE40EA0E0021FA02F11444C1E600BF70B54FF0FF0C4CF423
:40410000E06C1CEA11541DBF1CEA135594EA0C0F95EA0C0F00F0DEF82C4481EA030621EA4C5123EA4C5350EA013518BF52EA033541F4801143F4801338D0A0FB02CE4FF050
:404140000005E1FB02E506F00042E0FB03E54FF00006E1FB03569CF0000F18BF4EF0010EA4F1FF04B6F5007F64F5407404D25FEA4E0E6D4146EB060642EAC62141EA55512A
:404180004FEAC52040EA5E504FEACE2EB4F1FD0C88BFBCF5E06F1ED8BEF1004F08BF5FEA500E50F1000041EB045170BD06F0004646EA010140EA020081EA0301B4EB5C0486
:4041C000C2BFD4EB0C0541EA045170BD41F480114FF0000E013C00F3AB8014F1360FDEBF002001F0004170BDC4F10004203C35DA0C341BDC04F11404C4F1200500FA05F3B9
:4042000020FA04F001FA05F240EA020001F0004221F0004110EBD37021FA04F642EB06015EEA430E08BF20EAD37070BDC4F10C04C4F1200500FA04F320FA05F001FA04F2DC
:4042400040EA020001F0004110EBD37041F100015EEA430E08BF20EAD37070BDC4F1200500FA05F24EEA020E20FA04F301FA05F243EA020321FA04F001F0004121FA04F2FB
:4042800020EA020000EBD3705EEA430E08BF20EAD37070BD94F0000F0FD101F00046400041EB010111F4801F08BF013CF7D041EA060195F0000F18BF704703F00046520084
:4042C00043EB030313F4801F08BF013DF7D043EA0603704794EA0C0F0CEA135518BF95EA0C0F0CD050EA410618BF52EA4306D1D181EA030101F000414FF0000070BD50EA21
:40430000410606BF1046194652EA430619D094EA0C0F02D150EA013613D195EA0C0F05D152EA03361CBF104619460AD181EA030101F0004141F0FE4141F470014FF0000047
:4043400070BD41F0FE4141F4780170BD70B54FF0FF0C4CF4E06C1CEA11541DBF1CEA135594EA0C0F95EA0C0F00F0A7F8A4EB050481EA030E52EA03354FEA013100F0888068
:404380004FEA03334FF0805545EA131343EA12634FEA022245EA111545EA10654FEA00260EF000419D4208BF964244F1FD0404F5407402D25B084FEA3202B61A65EB030562
:4043C0005B084FEA32024FF480104FF4002CB6EB020E75EB030E22BFB61A754640EA0C005B084FEA3202B6EB020E75EB030E22BFB61A754640EA5C005B084FEA3202B6EB92
:40440000020E75EB030E22BFB61A754640EA9C005B084FEA3202B6EB020E75EB030E22BFB61A754640EADC0055EA060E18D04FEA051545EA16754FEA06164FEAC30343EA9C
:4044400052734FEAC2025FEA1C1CC0D111F4801F0BD141EA00014FF000004FF0004CB6E711F4801F04BF01430020B4F1FD0C88BFBCF5E06F3FF6AFAEB5EB030C04BFB6EBF0
:40448000020C5FEA500C50F1000041EB045170BD0EF0004E4EEA113114EB5C04C2BFD4EB0C0541EA045170BD41F480114FF0000E013C90E645EA060E8DE60CEA135594EADF
:4044C0000C0F08BF95EA0C0F3FF43BAF94EA0C0F0AD150EA01347FF434AF95EA0C0F7FF425AF104619462CE795EA0C0F06D152EA03353FF4FDAE1046194622E750EA41063F
:4045000018BF52EA43067FF4C5AE50EA41047FF40DAF52EA43057FF4EBAE12E74FEA4102B2F1E04324BFB3F5001CDCF1FE5C0DD901F0004C4FEAC0024CEA5070B2F1004FEC
:4045400040EB830008BF20F00100704711F0804F21D113F13872BCBF01F00040704741F480114FEA5252C2F11802C2F1200C10FA0CF320FA02F018BF40F001004FEAC123A2
:404580004FEAD32303FA0CFC40EA0C0023FA02F34FEA4303CCE77FEA625307D150EA01331EBF4FF0FE4040F44000704701F0004040F0FE4040F40000704700BF80F000406B
:4045C00002E000BF81F0004142001FBF5FEA410392EA030F7FEA226C7FEA236C6AD04FEA1262D2EB1363C1BFD218414048404140B8BF5B42192B88BF704710F0004F40F457
:40460000000020F07F4018BF404211F0004F41F4000121F07F4118BF494292EA030F3FD0A2F1010241FA03FC10EB0C00C3F1200301FA03F100F0004302D5494260EB40003F
:40464000B0F5000F13D3B0F1807F06D340084FEA310102F10102FE2A51D2B1F1004F40EBC25008BF20F0010040EA03007047490040EB000010F4000FA2F10102EDD1B0FAC4
:4046800080FCACF1080CB2EB0C0200FA0CF0AABF00EBC25052421843BCBFD0401843704792F0000F81F4000106BF80F400000132013BB5E74FEA41037FEA226C18BF7FEA3B
:4046C000236C21D092EA030F04D092F0000F08BF0846704790EA010F1CBF0020704712F07F4F04D1400028BF40F00040704712F100723CBF00F50000704700F0004343F0CA
:40470000FE4040F4000070477FEA226216BF08467FEA23630146420206BF5FEA412390EA010F40F4800070474FF0000304E000BF10F0004348BF40425FEA000C08BF7047DB
:4047400043F0964301464FF000001CE050EA010208BF70474FF000030AE000BF50EA010208BF704711F0004302D5404261EB41015FEA010C02BF84460146002043F0B643AB
:4047800008BFA3F18053A3F50003BCFA8CF2083AA3EBC25310DB01FA02FC634400FA02FCC2F12002BCF1004F20FA02F243EB020008BF20F00100704702F1200201FA02FCE8
:4047C000C2F1200250EA4C0021FA02F243EB020008BF20EADC7070474FF0FF0C1CEAD0521EBF1CEAD15392EA0C0F93EA0C0F6FD01A4480EA010C400218BF5FEA41211ED0DD
:404800004FF0006343EA501043EA5111A0FB01310CF00040B1F5000F3EBF490041EAD3715B0040EA010062F17F02FD2A1DD8B3F1004F40EBC25008BF20F00100704790F092
:40484000000F0CF0004C08BF49024CEA502040EA51207F3AC2BFD2F1FF0340EAC250704740F400004FF00003013A5DDC12F1190FDCBF00F000407047C2F10002410021FAF4
:4048800002F1C2F1200200FA02FC5FEA310040F1000053EA4C0308BF20EADC70704792F0000F00F0004C02BF400010F4000F013AF9D040EA0C0093F0000F01F0004C02BF82
:4048C000490011F4000F013BF9D041EA0C018FE70CEAD15392EA0C0F18BF93EA0C0F0AD030F0004C18BF31F0004CD8D180EA010000F00040704790F0000F17BF90F0004FCF
:40490000084691F0000F91F0004F14D092EA0C0F01D142020FD193EA0C0F03D14B0218BF084608D180EA010000F0004040F0FE4040F40000704740F0FE4040F44000704714
:404940004FF0FF0C1CEAD0521EBF1CEAD15392EA0C0F93EA0C0F69D0A2EB030280EA010C49024FEA402037D04FF0805343EA111143EA10130CF000408B4238BF5B0042F123
:404980007D024FF4000C8B4224BF5B1A40EA0C00B3EB510F24BFA3EB510340EA5C00B3EB910F24BFA3EB910340EA9C00B3EBD10F24BFA3EBD10340EADC001B0118BF5FEA77
:4049C0001C1CE0D1FD2A3FF650AF8B4240EBC25008BF20F0010070470CF0004C4CEA50207F32C2BFD2F1FF0340EAC250704740F400004FF00003013A37E792F0000F00F0B2
:404A0000004C02BF400010F4000F013AF9D040EA0C0093F0000F01F0004C02BF490011F4000F013BF9D041EA0C0195E70CEAD15392EA0C0F08D142027FF47DAF93EA0C0F31
:404A40007FF470AF084676E793EA0C0F04D14B023FF44CAF08466EE730F0004C18BF31F0004CCAD130F000427FF45CAF31F000437FF43CAF5FE700BF4FEA4002B2F1FE4F11
:404A80000FD34FF09E03B3EB12620DD94FEA002343F0004310F0004F23FA02F018BF404270474FF00000704712F1610F01D1420205D110F0004008BF6FF0004070474FF00B
:404AC00000007047014B1868704700BFA081FF1F0E4B70B51E460E4C0025E41AA410A54204D056F8253098470135F8E700F0CCFD084B094C1E46E41AA4100025A54204D0C2
:404B000056F8253098470135F8E770BD9456000094560000945600009C56000010B5431E0A44914204D011F8014B03F8014FF8E710BD03460244934202D003F8011BFAE76C
:404B4000704700000EB400B54FF402719CB0ADF814106FF00041049107914FF6FF711DABADF81610084953F8042B02900690086802A9019300F084F8029B00221A701CB004
:404B80005DF804EB03B07047A081FF1F034613F8012B002AFBD1181A0138704770B5A2B1451E01396B7811F8014F6E1CA34206D16FF00104641B1444E04202D11C46181B14
:404BC00070BD3546002BEDD1F8E7104670BD2DE9F0478E688246B3420C469046994640D38A8912F4906F3AD02568096902236F1A656905EB450595FBF3F57B1C4B449D4254
:404C000038BF1D4653050FD5294600F02FFB064698B121693A46FFF781FFA38923F4906343F08003A38113E02A4600F075FB064670B95046216900F0D5FA0C23CAF80030F8
:404C4000A3894FF0FF3043F04003A381BDE8F08726613E4426604E466561ED1BA560B14500D24E4632462068414600F09FFAA36800209B1BA36023681E442660BDE8F0870F
:404C80002DE9F0439DB003938B8906461C060D4690460CD50B6953B9402100F0E7FA2860286110B90C233360CCE040236B610023099320238DF8293030238DF82A30434678
:404CC0001C4613F8012B1AB9B4EB08090FD002E0252AF5D1F8E73046294642464B46FFF776FF013000F0A980099B4B4409932378002B00F0A28000234FF0FF3204930793C5
:404D0000059206938DF853301A9304F101084446DFF8489121784846052200F039FA08F10108049B30B1C9EB00000122824013430493ECE7D80644BF20228DF853201907CF
:404D400044BF2B228DF8532022782A2A02D0079923460EE0039A0134111D12680391002ABBBF524243F0020307920792B8BF04930AE01C4622780133303A092A03D80A20BA
:404D800000FB0121F5E7079123782E2B1AD163782A2B0AD1039B02341A1D1B680392002BB8BF4FF0FF3305930CE0611C00220C4623780131303B092B03D80A2000FB02322D
:404DC000F5E70592DFF8988021784046032200F0DFF938B1049AC8EB00004023834013430493013421781A48062204F101088DF8281000F0CDF988B1164B33B9039B0733D1
:404E000023F007030833039313E003AB0093304604A92A46104BAFF3008007E003AB0093304604A92A460C4B00F092F8421C074603D0099B3B44099341E7AB895B0601D4E5
:404E4000099801E04FF0FF301DB0BDE8F08300BF5C56000000000000CF4B000052560000585600002DE9F84391461F468A680B6906469342B8BF1346C9F8003091F84320BB
:404E80000C46DDF8208012B10133C9F800302368990642BFD9F800300233C9F80030256815F006051CD094F843302268003318BF012392061FD5E118302081F843005A1CAA
:404EC00094F845102244023382F8431013E03046394604F119020123C047013007D00135E368D9F800209B1A9D42F0DBDBE74FF0FF30BDE8F8833046394604F14302C047E7
:404F00000130F4D02268D9F80050E36802F00602042A08BF5D1B2269A3680CBF25EAE57500259342C4BF9B1AED184FF00009A9450ADA3046394604F11A020123C0470130A2
:404F4000D5D009F10109F2E70020BDE8F88300002DE9FF410C461746227E98466E2A06460A9B01F1430100F0B08012D8632A23D00AD8002A00F0BD80582A40F0CC8084F8F0
:404F80004520DFF804E257E0642A1ED0692A1CD0C1E0732A00F0B18009D86F2A2ED0702A40F0B980226842F0200222603FE0752A24D0782A3BD0AEE01A6804F14205111D8A
:404FC0001960136884F84230A9E020681A6810F0800F02D0101D186008E010F0400F02F10400186002D0B2F9003000E01368002B3EDA2D225B4284F8432039E020681A6857
:4050000010F0800F02D0101D186007E010F0400F02F10400186001D0138800E01368227EDFF864E16F2A0CBF08220A221CE07822DFF858E184F845202268186812F0800F66
:4050400000F104051D6003D1550601D5038800E00368D00744BF42F0200222601BB9226822F0200222601022002084F8430002E0DFF814E10A226568002DA8BF2068A56041
:40508000A4BF20F00400206003B965B10D46B3FBF2F002FB10331EF8033005F8013D03460028F4D100E00D46082A0BD12368DA0708D5236962689A42DEBF302305F8013C64
:4050C00005F1FF35491B21612EE025681A6815F0800F606903D0151D1D60136808E015F0400F02F104051D60136801D0188000E01860002323610D4616E01A68111D19601F
:40510000156800212846626800F042F808B1401B6060636804E004F1420584F8422001232361002384F84330CDF800803046214603AA3B46FFF796FE013002D14FF0FF30CC
:405140001FE0304639462A462369C0470130F5D023689B0705D4E068039B9842B8BF18460FE00025E368039A9B1A9D42F3DA3046394604F119020123C0470130DED0013505
:40518000F0E704B0BDE8F081635600007456000010B5C9B202449042034605D01C7801308C42F8D1184610BD002010BD814210B501EB020301D3421E0BE09842FBD2811809
:4051C000D21AD34204D013F8014D01F8014DF8E710BD994204D011F8014B02F8014FF8E710BD000030B500293CD051F8042C0B1F1D49002AB8BF9B180A680C4612B95A60D4
:405200000B6030BD93420DD219685818904201BF5A5852181A60426823605A6030BD994203D80A4651680029F9D1146815199D420AD11B682344D0188842136012D10868FD
:40524000034413604B680CE002D90C23036030BD1C681819884201BF08684968001918605960536030BD00BF8082FF1F70B5CC1C24F0030408340C2C38BF0C24002C064617
:4052800003DA0C233360002070BD8C42F9D3204A136810461946A1B10A68121B0ED40B2A03D90A608B188C501FE08B420BBF5A684A6802605A6018BF0B4616E00B464968BB
:4052C000E9E7144D2B681BB9304600F04BF828603046214600F046F8421C0346D1D0C51C25F0030585420AD11C6003F10B001A1D20F00700821A0AD05142995070BD304694
:40530000E91A00F02FF80130BBD02B46ECE770BD8082FF1F7C82FF1FF8B5074615460E4621B91146BDE8F840FFF7A0BF1AB9FFF759FF2846F8BD00F025F8A8420ED2384645
:405340002946FFF793FF044650B131462A46FFF7E5FB38463146FFF745FF01E03046F8BD2046F8BD38B5064C0023054608462360FCF73AFA431C02D1236803B12B6038BD42
:40538000C482FF1F51F8040C0028BEBF091851F8043CC018043870470000000050536F4320354C503A204F2D5661630049324320576F726B696E67000A2564207365636FC4
:4053C0006E64732072656D61696E696E6700000053544154453A2044455343454E54000053544154453A204C414E44454400000053544154453A20574149540054696C747D
:405400006564000053544154453A205245535552464143494E470000574154455220444554454354454400005452414E534D49540000000053595354454D5F434845434B96
:40544000000000000A53544154453A2044455343454E44494E470A0053544154453A204C414E4445440A000053544154453A2056414355554D494E470A000000535441540C
:40548000453A205245535552464143450A00000053544154453A205452414E534D49540A00000000536420766F6C20737563636565640000536420766F6C206661696C65DF
:4054C00064000000666F726D61742053756363656564656400000000666F726D6174204661696C65640000007700000046696C6520000000776173206F70656E656400002F
:405500007772697474656E20746F2066696C65004661696C656420746F2077726974650066696C65206E6F742063726561746564000000000A2D2D2D2D2D2D2D2D2D2D2D06
:405540002D0A0000000000004000000014000000540000002564202564202564202020202000000072657365740000007374617274000000643A0000646174610000000048
:405580000A636F6D6D616E64733A200A30352C73746172740A30352C72657365740A30342C646174610A30352C64657074680000456E7465722064657369726564206465E3
:4055C0007074683A0000000053544154453A20574149545F544F5F4C41554E43480A00005472616E736D697474696E6720646174610A0000035B00402443004040000000A2
:40560000C84900401900004F00400C00405100403000F05100401000000001400010001401400006801A0140800100400140000A004C01400002005001402000605200400E
:40564000EC0900480600001A0140F409004880004300232D302B2000686C4C0065666745464700303132333435363738394142434445460030313233343536373839616223
:405680006364656600000000F8B500BFF8BC08BC9E4670474D000000D1180000F8B500BFF8BC08BC9E46704729000000C05600000881FF1FA000000020010000000000007D
:4056C000000000003F000000010000000100000001010000746573745F312E7478740000C882FF1F00366E01C05D0000180000000000E02E01FF0000000000000000000039
:4057000000000000000000000000000000000000000000000000000050560000000000000000000000000000000000000000000000000000000000000000000000000000C3
:405740000000000000000000000000000000000000000000000000004081FF1F0000000000000000000000000000000000000000000000000000000000000000000000004A
:4057800000000000000000000000000000000000000000000000000000000000000000000000000000000000000000000000000000000000000000000000000000000000E9
:4057C00000000000000000000000000000000000000000000000000000000000000000000000000000000000000000000000000000000000000000000000000000000000A9
:405800000000000000000000000000000000000000000000000000000000000000000000000000000000000000000000000000000000000000000000000000000000000068
:405840000000000000000000000000000000000000000000000000000000000000000000000000000000000000000000000000000000000000000000000000000000000028
:020000040003F7
:0200000480007A
:40000000024F004002520040015A00400364004003650040040301400605014048060140310701404D0801403A090140630A01403A0B0140600C0140350D014057140140EB
:400040003B15014054160140381701403F1801403B190140101A0140431B01400540014005410140054201400A430140064401400445014006460140074701401048014090
:400080000C490140144C01400B4D01400C5001400251014001300A2718601940DF04860F8A0F8D0D870D8872893881948204E205E602980899809A04A114A808EE040002F8
:4000C00008010E011E0120012E01300134023E114014410645B0460E47C0482649FF4AFF4BFF4EF04F44500C540158045A045B045D225F0166C06A406B0280108601881821
:400100008B058C189208960597189F02A510A603A706A806A908AB06AD02AF04B207B31EB418B701B820BE10C002C704C9FFCA07CBFFCC40CD20CEF0CF05D008D804D904C9
:40014000DA04DD02DF01E040E1A8E240E320000201280201034104800522068008080B800F021128174119081A041E882188280829802A0431883820420446414D215044BF
:4001800052405340568057015D125E888010810889108B01980899809A04A114C0DFC28CC496CA0ECC0ACE04D094D220D6F0E2040001040105010D0117021B021D012102F3
:4001C000240129012F013001310237013E013F41405241064240440345DE460C47BF483749FF4AFF4BFF4C224EF04F0850045409580459045A045B045F0162C064406501F8
:400200006610671168C069016B116C406D016E406F01800D8101840185018602880289018A088C0D8F019002920D9C029E049F01A00DA40DA80DAD01B00FB301BA02BF0455
:40024000D440D804D904DB04DF0100040141031404060A811114130217041A801F0121082441270129402D102E41328034083540371439553C803E044408462047014C05A1
:400280004D084E80568257465C415D085F2061086280630867028302900E9155924599409B069D019E02A040A742C03FC209C42ECAB8CC78CE5FD0E0D230D6F0D81E050182
:4002C00009010B021101150119021B011F01250329022B012D0135033B20401549FF4AFF4BFF4F0150185602572C59045A045B045D095F016040624064406540668068802C
:400300006A806C806E80811082FF8342841F85028620887F89018A808CC08D028E0190909102924094C095449608971098C099029A049D089E60A0C0A102A202A501A880AD
:40034000A90EAB30AD20AE9FB4FFB57EB701B9A0BE10BF10C015C9FFCAFFCBFFCD83CE03CF01D018D280D804D904DA04DB04DD99DF01E040E240E440E540E680E880EA8053
:40038000EC80EE80040E062007060D800E54152216021F10211022202590268029542D012E202F1230083261350436A0370639043A203D203E454340474048024C02610117
:4003C000684869576AD6714073027740900692019575964499109B049D409F42A002A408A620A740A801C0F0C2F0C4D0CAFECCFFCEF6D018D218D801010405040F0211048D
:4004000017051904210325072B042D0435073B30401549FF4AFF4BFF4D834E034F01501859045A045D095F016040624064406540668068806A806C806E80800681188402E0
:4004400085088710880189088A0E8C068D18930194079608971898029A049B1E9C099D189E06A006A110A502A704A902AA06AB1CAC04AF01B40FB51EB60FB701B8A0BF406F
:40048000C015C5ECC720C823C9FFCAFFCBFFCD83CE03CF01D018D401D604D804D904DA04DB04DD99DF01E040E240E440E540E680E880EA80EC80EE800141022003040A25FE
:4004C000111012011302180219101A012004225025202704280129102A092B402D102E49300A31603620370639653D013E043F8040044208434044014740480249054C029D
:40050000500259055A806340800483048740C00FC207C40BCAFFCCEFCEDFD018D218D60BD801011803060606071009010A030E050F0611021201130C20062201271829021C
:400540002A022B1C34073501371E3A203B803F10404649FF4AFF4BFF4F0150185280580459045A045B045C225D995F016040624064406540668068806A806C806E80810308
:40058000830488018C019103930C9E01A002A305A708A903AB04AD0AAF04B403B70FB820BB80C046C9FFCAFFCBFFCD83CE03CF01D018D804D904DA04DC22DD09DF01E040C9
:4005C000E240E440E540E680E880EA80EC80EE8001200321052007010B800F0112041301144019201F2020022305270129202B202C402D202F6133013701380839203A04E9
:400600003B833F024240468048084C0872C0900891209380964097049D209E809F01A008A301A401A720A804A904AA41AC10B001B108C0C7C288C41ACAF6CC81CE8FD081C9
:40064000D224E480EA0138023E01404649FF4AFF4BFF4D834E034F01501858045A045D095F016040624064406540668068806A806C806E8081A0840685048B188F07918067
:4006800092089360940195E09604971099489A089B809D80A101A401A507A602A802A960AA01AB88AF02B207B307B5F8B608B808BE40BF04C046C5ECC702C813C9FFCAFF7F
:4006C000CBFFCD83CE03CF01D018D401D604D804D904DA04DB04DC20DD99DF01E040E240E440E540E680E880EA80EC80EE800108080809080A400B08112819881F02202081
:400700002110280129282A013240332939A13A0442404680480849064C085008530459866340874490089181938098089A049D209F01A114A309A401A702A948AB48AF022A
:40074000C004C20EC406CA0FCC0FCE0FD081D224D60BD801E002E204E828EC10EE080002050108020901150116021A02240128012C012D0130013202330138083F0456023C
:400780005711580459045B045C025D205F018103840285DC860C880A89928A048B448F039008920695DC960199079B189C069D499E089FA4A103A703AB03AE01B00EB103CC
:4007C000B3C0B401B51CB720BA02BE10D418D604D804D904DB04DC20DD20DF01000403040680070809080A410F281002155419111A401C401D082211231527202A012B1499
:400800002E802F033008321033803708384039043B123C203D083F285A025F206110628063806C086D5474A076108340900492019B049D019E20AA80AB20C056C26DC4E1BE
:40084000CA17CC4ECE6FD621D80DE002E828EC10EE08850289068B018F0195079906A104A506A701AD01AF06B307BB28D904DC20DF01002202100302088A0B0410A01104C3
:40088000131019041A011B0A20202288241425042620270829242A502B802C902D802F0230803228330235203708385039043B013C603D0440CC420143084410450449803B
:4008C00050025240841288018A208B80904093159A109E209F08A0A0A412A504A680A782B601B708C00FC20FC40ECADFCC6FCE7FD00FD208E480EA013002322036103702A7
:40090000CCF086209F02A402A630E6403E109F02A402A610CE2020017308830196109F02A402A610C810DC20E6201101142076107E08C40CDE05910198209E10A6084480CD
:40094000910198209E10A608D0010320910198209C809E10A608C008220180028702930296129F02A402AE10AF08B201B401C840E220E640EA10EE100B80640467028B4075
:4009800093029804AA10AC04C210D680D880EA90104013201680300879017C208610910198209E10A008AE08AF20B080B408C40ECC02DE03E804EC081280768078408A80E9
:4009C00098409A80AB20C408DC01DE04E201000501010A050C010D010E010F01100511011A051B011C0500FB03C00000A030000070000000010040040C0800001C1C030166
:400A000013000C030F0710181F1C0002031F200000101300080400000400002002184000000000200F001C1F0000602000000208000040405402030001000CE024FFFFFF4F
:400A400062A0F0410C00000000000000040404002202000100000000000040020010301000101012000000000000000000000000000000000003030000000000B00040B09C
:400A80008000B0000000000000ABAB000000440004000006020000000000000010E0E000600000004A001801000000000000000000000000000000000000000000000000CD
:400AC00000000000000000000000000000000000000000000000000000000000000000000000000000000000000000000000000000000000000000000000000000000000F6
:400B000000000000000000000000000000000000000000000000000000000000000000000000000000000000000000000000000000000000000000000000000000000000B5
:400B40000000000000000000000000000000000000000000000000000000000000000000000000000000000000000000000000000000000000000000000000000000000075
:400B80000000000000000000000000000000000000000000000000000000000000000000000000000000000000000000000000000000000000000000000000000000000035
:0200000490006A
:0400000000004005B7
:0200000490105A
:04000000BC90ACAF55
:0200000490303A
:020000000E747C
:0200000490402A
:4000000000000000000000000000000000000000000000000000000000000000000000000000000000000000000000000000000000000000000000000000000000000000C0
:400040000000000000000000000000000000000000000000000000000000000000000000000000000000000000000000000000000000000000000000000000000000000080
:400080000000000000000000000000000000000000000000000000000000000000000000000000000000000000000000000000000000000000000000000000000000000040
:4000C0000000000000000000000000000000000000000000000000000000000000000000000000000000000000000000000000000000000000000000000000000000000000
:0200000490501A
:0C00000000012E12706900012E367EDD1A
:00000001FF