:400000000080002011000000710600007106000008B5044B1A6803F53F5302331A6000F047FB00BFFA46004010B5054C237833B9044B13B10448AFF300800123237010BD47
:40004000A881FF1F0000000068650000084B10B51BB108480849AFF300800848036803B910BD074B002BFBD0BDE81040184700BF0000000068650000AC81FF1F0881FF1F67
:4000800000000000024B1B780122024B1A707047034F0040C481FF1F38B50EE00A4C65686B1C636001F036F9254428726368033BA26C934201DB0122E26401F023F910F011
:4000C000200FEBD138BD00BFC481FF1F38B5054603F07EFB2F4C204603F0B1FD00202146092203F0D7FC70B12B4800F057FA4FF4FA7001F0DDFC00F02DFA264801F06AFE36
:40010000044650B104E00446244800F047FA3FE0234800F043FA00243AE04FF4FA7001F0C7FC00F017FA28461E4903F051FC1E4B186050B31D4800F031FA1D4800F02EFA5C
:400140004FF4FA7001F0B4FC00F004FA284605F005FE0246144B1868294603F099FD70B1144800F01BFA4FF4FA7001F0A1FC0E4B186811490E2203F08BFD012408E00F48BF
:4001800000F00CFA00F0E6F902E00D4800F006FA204638BD1482FF1F94650000A4650000B4650000C46500007092FF1FC8650000D0650000DC650000EC650000FC6500008B
:4001C0000C66000000000000F0B5A1B062B600241B941C941D941E941F9401F031F900F04FFF01F017F86A4801F042F8694801F0D3F801F079F8684D55F8040BC0B210212D
:400200000222234600F042F900F0D8F900F04CFF2846FFF75BFF30B9604800F0BFF94FF4FA6001F045FC11AC5D4D0FCD0FC40FCD0FC42B68236000231A930025594B1B684D
:400240005BB111A805F08AFD0246574B186811A903F01EFD0022534B1A60012000F02CFF00285FD000F040FF05F04AFB044604F0D7FF45A3D3E9002305F026F805F036FAC2
:4002800002464A4B1B78002B4CD0434B1B690E2B06DC464CE06D114605F07EFAE0653AE00F2B09D1414CE16D05F076FAE065404905F02EFC05462EE028460F2100F080F8B8
:4002C000054605F0C1FC064605F01AFB0146284605F060FA374905F067FB05F0B5FC074602A800213C2205F00CFD204605F0ACFC294B1A69009700B2019002A82E49334648
:4003000005F008FD02A805F029FD0246264B186802A903F0BDFC0022244B1A701E4A136901331361214B5B68012B09DD1F490B7A303B4A7A303A03EB83035B0013448B64EB
:400340001A4BDB6C002B3FF479AF184E06F1080738461BA9142200F08DF80DF16F00B16C104A00F045F8306600247460B46438462146402205F0C5FC1B941C941D941E947C
:400380001F94F4645AE700BF8FC2F5285C8F4A3F85000000990000000C81FF1F206600006C6500006C92FF1F7092FF1FC481FF1F0000704100401C462C660000AFF300808A
:4003C00070B505461646084605F09AFA04462846214605F09DFB0146284605F0DBF905463046214605F094FB294605F0D5F970BD2DE9F0418CB006460F4690466C461B4D11
:400400000FCD0FC40FCD0FC495E80F0007C4238030461749052205F0A9FC90B90123C8F8003000241BE0651C0CAB1C4414F8300C00F08CFF2C4600F083FF10F0080FF2D138
:4004400000E000242D2CF6DD0CE0651C305D00F07DFF2C4600F074FF10F0080FF5D1FB1CA342F7DC00200CB0BDE8F08148660000A466000010B4002302E0C45CCC5401337E
:400480009342FADB5DF8044B704700BF10B4074C20700748017007490A70074A13700822064B1A705DF8044B704700BF7592FF1F7A92FF1F7B92FF1F7792FF1F7492FF1F8F
:4004C00010B50C46002101F035F9204601F08EF901F070F910BD00BF08B5044B19780143034B1878FFF7ECFF08BD00BF7492FF1F7592FF1F10B5044640F00400FFF7ECFF50
:40050000012001F0EBFA04F0FB00FFF7E5FF322001F0E4FA10BD00BF10B50446FFF7DCFF2046FFF7E7FF10BD38B50D4600F0F0030401E4B243EA0100FFF7EEFF44EA05005D
:40054000FFF7EAFF38BD00BF08B50021FFF7ECFF08BD00BF08B50120FFF7F6FF022001F0A7FA08BD08B50220FFF7EEFF022001F09FFA08BD08B5054B187840F004001870D7
:4005800040F00800FFF7E0FF08BD00BF7692FF1F08B50121FFF7C8FF08BD00BF70B5064605F0DCFB0546002403E0305DFFF7F0FF0134EBB2A342F8D870BD00BF08B5002211
:4005C000254B1A70254B1B78012B02D90821224A1170234A127832B1012B04D11E4A137843F004031370322001F062FA1D4B1878FFF772FF4FF47A7001F05AFA3020FFF7A0
:400600008BFF41F2941001F069FA3020FFF784FF41F2941001F062FA3020FFF77DFF962001F05CFA2020FFF777FF0B4B187840F02000FFF789FF04220B4B1A70FFF79AFF64
:40064000FFF788FF0222094B1A700620FFF77CFFFFF788FF08BD00BF7992FF1F7B92FF1F7792FF1F7492FF1F7692FF1F7892FF1F08B505F00FFB03680C2B00D1FEE7FEE77D
:4006800008B5094B1A681044084BC31A802B02DC054B186005E005F0FDFA0C2303604FF0FF32104608BD00BF2481FF1F2893FF1F08B5104E104D16E029686B68AC68002281
:4006C00004E051F8040B43F8040B0432A242F8D1E868002203E0002143F8041B04328242F9D11035013E002EE6D105F0D9FAFFF76BFDFEE701000000F469000008B5124A12
:40070000124B1A60124A136843F40073136000230AE0032B03D80F4A52F8231000E00E490E4A42F8231001332F2BF2D90C4B1A780C4B1A70094A0C4B1A6000F0FFF80022B6
:400740000A4B1A6008BD00BF0004FA050CED00E014ED00E000000000710600000080FF1FBC7600400481FF1F08ED00E00081FF1FFEE700BFF0B40022174611E050F8276044
:40078000F3B226F0FF0608E001EB420511F812406D78A5550132013BDBB2002BF4D101371F2FEBD9F0BC70470A4B1B78DBB203F00701094A11701B09013213704022074BB9
:4007C0001A700423064A1370583213704422054B1A707047CF0100496E5800401D510040005B00407658004008B50A46002105F088FA08BD08B505F079FA08BD38B5002496
:40080000344B1C80582202331A7002331C80502202331A704D2202331A8018232E4A137040F65F1102321180023213702B482C490422FFF7DFFF02222A4B1A7008224FF05E
:4008400040231A70032103F500731970264B1B78DBB226490B70264B1A8041F25122023B1A8019250CE0234B1B7803F0010343EA440404F003044FF4F07001F065F9013DAE
:400880000DB1032CEFD115B90320FFF771FF1A4B4FF480721A8007221A70002217490A704820023108701A700222033B1A7004220A331A70124A137843F00F031370013AF1
:4008C000137843F001031370013A137843F08003137038BD804000408A40004000410040340700480043004008010049A14600402242004025420040044000400640004060
:40090000A2430040012807D8044B53F820201844017A13780B431370704700BFAC660000012808D8044B53F820201844017A137823EA010313707047AC66000070B572B606
:40094000354A137843F00403137000240AE0334963001A1952000A44D068118AFFF744FF0134E4B20C2CF2D9002410E02B49A3001A1952000A4452F85C0F23445B000B4452
:400980005168B3F86420FFF735FF0134E4B2022CECD94FF090402249FFF7ECFE0A22214B1A7021490B7843F002030B7010310B7843F002030B701D4C237843F040032370C7
:4009C000A1F5863151390B7843F010030B7018481849FFF70FFF184818490822FFF70AFF174818490822FFF705FF174A137843F008031370154E01253570FFF7FFFE8123D7
:400A00003370134B1D70FFF7CFFE124821460E22FFF7F0FE70BD00BFE8460040AC660000800000488358004003500140A0430040C0510040180700481251004024070048BC
:400A4000325100402C070048224300400048004004000840B043004038B59DF81040651EEDB2032D4AD80138092826D8DFE800F00525250525250D15251D0F2B02D92148A7
:400A800000781BE02048007818E00F2B02D91F48007813E01E48007810E00F2B02D91D4800780BE01C48007808E00F2B02D91B48007803E01A48007800E0002040B201EB0A
:400AC000401101FB02F2D20B91B20D2B0BD8C3F10E0192B20A4191B2124A02EB8402013302F8023C05E00F4B03EB84030F2203F8022C013C0B4B23F8241038BD002000F0B5
:400B0000D5FF38BD180100491C010049190100491D0100491A0100491E0100491B0100491F0100492882FF1FF8B5074601F014F806460D4D2B7843F003032B700B4C2378F2
:400B400043F0030323700A4B1F70032000F0C6FF2B7803F0FC032B70237803F0FC032370304600F0FDFFF8BDF8460040F946004092580040F8B504460022C14B1A74012883
:400B80005CD13822BF4B1A70062202331A70082201331A70002501331D7001331D701F2201331A7002331D7001331D7001331D7001260A331E70142203F527631A70052701
:400BC00001331F70162201331A7001331D70442203331A70482201331A7001331E7002331E70112201331A70192201331A70972201331A705220FFF797FF5822A24B1A7058
:400C000001331D7005331F70022201331A7001331D7001331D70284600F024FE40F233329A4B1A601220314600F040FE4A20314600F0C2FE1D20964900F05AFF022C5DD129
:400C40003822904B1A70042202331A70062201331A70002501331D7001331D703F2201331A7002331D7001331D7001331D7001260A331E70502203F527631A7027220133F3
:400C80001A702C2201331A7001331D70552203331A705A2201331A70052701331F7002331E70112201331A70192201331A70972201331A704420FFF737FF5822724B1A7008
:400CC00001331D7005331F70022201331A7001331D7001331D70284600F0C4FD4FF47A426A4B1A600820314600F0E0FD2520314600F062FE1D20674900F0FAFE032C5DD111
:400D00003822604B1A70042202331A70062201331A70002501331D7001331D703F2201331A7002331D7001331D7001331D7001260A331E70502203F527631A702722013362
:400D40001A702C2201331A7001331D70552203331A705A2201331A70052701331F7002331E70112201331A70192201331A70972201331A704420FFF7D7FE5822424B1A70D8
:400D800001331D7005331F70022201331A7001331D7001331D70284600F064FD4FF47A423A4B1A600820314600F080FD2520314600F002FE1D20384900F09AFE042C5DD12E
:400DC0003822304B1A70042202331A70062201331A70002401331C7001331C703F2201331A7002331C7001331C7001331C7001250A331D70502203F527631A7027220133DA
:400E00001A702C2201331A7001331C70552203331A705A2201331A70052601331E7002331D70112201331A70192201331A70972201331A704420FFF777FE5822124B1A70AB
:400E400001331C7005331E70022201331A7001331C7001331C70204600F004FD4FF47A420A4B1A600820294600F020FD2520294600F0A2FD1D20094900F03AFEF8BD00BF53
:400E80002882FF1F004E0040945800408092FF1F55110000591100005D110000611100002DE9F04182B0394D4FF0010885F80080374E00247474102000F0E6FC102000F0D9
:400EC00069FD1D20072100F027FE0427314B1F7001331C7007331C702F4A137843F0180313702E4B1C7003F2F5231C7001331C700A22A3F209331A7001331C7002331C701B
:400F0000122205331A70132201331A7004331C701422A3F68C231A70CDF80080022048F66B514FF400420C23FFF796FD02230093204649F2DA014FF400421023FFF78CFDF4
:400F400003230093204649F2DA014FF400421023FFF782FD0097204649F2DA014FF400421023FFF779FD2B7806EB830313F8022C0B4B1A702B78013B36F82320094B1A8067
:400F80002878FFF7F7FD02B0BDE8F0812881FF1F2882FF1F96580040075B0040935800400E4E00400C4E004070B500F0D5FD06462A4B1B782A4B1A7842F001021A701A788C
:400FC00042F010021A7010331A7842F001021A701A7842F010021A70224D2B7843F002032B70214C237843F0020323701F4A137843F003031370032000F070FD2B7803F0B1
:40100000FD032B70237803F0FD032370184A137843F0060313707A22164B1A70164A137843F0010313701032137843F0010313700F3A137843F0020313701032137843F006
:40104000020313704FF000530C4A1360A2F5C0721360304600F084FD70BD00BF2881FF1FAA430040F8460040F9460040915800407758004082580040A143004080E200E0D5
:4010800008B5084B9B7C4BB9064BDB7C13F0FF0F01D1FFF705FF0122024B9A74FFF784FF08BD00BF2882FF1F024A137843F0010313707047004E0040094B1B7C13F0FF0F6B
:4010C00003D0074B5B7CDBB203E0064B1B7803F00103012B01D00028EED01846704700BF2882FF1F014E0040154B1B7803F00303012B07D8134B1888023B1B889BB243EA4C
:40110000004013E0022B0AD10E4B1888023B1B7843EA00430C4A107843EA002006E00B4B188883B2074A108843EA0040084B1B7C13F0FF0F02D00022054B5A74704700BF26
:40114000144E0040124E0040114E0040104E00402882FF1F704700BF704700BF704700BF704700BF084A137843F0010313701032137843F00103137002F64D32137843F0FD
:4011800001031370704700BFA3430040014B1870704700BF034F0040014B1880704700BF044F0040014B1880704700BF064F004008B5154A137803F0010313700232137874
:4011C00003F0FC031370114B1A7802F0CF021A701A7842F030021A701A7802F0F0021A701A7842F00F021A70094A137843F0010313701320FFF7D0FF1320FFF7D3FF0820AD
:40120000FFF7C4FF08BD00BF004F00400B4F0040014F004008B5054B1B7823B9FFF7C8FF0122024B1A70FFF79DFF08BD3C82FF1F024B1B68C3F88400704700BF08ED00E0F8
:401240004001C0B2014B1870704700BF11E400E04FF40032014B1A60704700BF00E100E04FF40032014B1A60704700BF80E100E010B50446FFF7F4FF2046FFF7D9FF0720E5
:40128000FFF7DEFFFFF7E4FF10BD00BF7222074B1A70202202331A700622633B1A70472210331A700022B13B1A7070478965004010B500F051FC04460A4A137843F0200301
:4012C00013700232137843F010031370A2F58272137843F01003137000F0DAFB204600F03FFC10BD9965004008B5054B1B7823B9FFF7CCFF0122024B1A70FFF7D9FF08BDD9
:401300003D82FF1F024B187800F07F00704700BF6B650040084B1B78DBB213F0200F06D0064A1078C0B213F01E0F02D17047002070470020704700BF6B6500404A65004013
:40134000014B1878704700BF67640040034B1B7813F0040FFAD1024B187070476764004047640040014B1B681864704708ED00E04001C0B2014B1870704700BF00E400E034
:401380000122014B1A60704700E100E00122014B1A60704780E100E010B50446FFF7F6FF2046FFF7DFFF0720FFF7E2FFFFF7E8FF10BD00BF38B50222114B1A7081220E3B6D
:4013C0001A70082202331A700F2511331D70002401331C704FF400420A4B1A602846072100F09AFB2846084900F082FB1022074B1A70074B1C70074B1C70074B1C7038BD59
:40140000D649004080E100E0691400008492FF1F9592FF1F8892FF1F8992FF1F08B500F09BFB064A137843F0040313701032137843F00403137000F093FB08BDA5430040D5
:4014400008B5074B1B7823B9FFF7B4FF0122044B1A70FFF7E3FF4FF40042024B1A6008BD3F82FF1F00E100E038B5A44B1C78E4B2A34B1B7813F0400F00F0378114F0010F2B
:4014800000F01B819E4B1B78453B052B00F21281DFE813F006008200100110010600DE0004F0DF0504F00A04082C42D1944B1B78DBB2452B35D1934B1B7813F0FF0F10D09F
:4014C000914B1B681B78DBB2904A137004228B4B1A7001228E4B1A704622894B1A702C46EBE08C4B1B7813F0020F0DD08A4A137843F00A0313706022814B1A704FF4004227
:40150000864B1A602C46D8E0854A137843F0100313701022834B1A700422023B1A702C46CBE00022754B1A704A22754B1A702C46C3E00A2C2BD1784A137843F0A003137070
:40154000744B1B7813F0020F14D06D4B1B7813F0080F01D0092300E00A236F4A11780B4313706022664B1A704FF400426B4B1A602C46A2E06A4A137843F0100313701022FF
:40158000684B1A700422023B1A702C4695E0002000F08CFA2C4690E014F0020F35D15C4B1B78584A1278DBB2934210D2584A1378DBB255490968CB5CDBB254490B70042123
:4015C0004E4B197013780133DBB2137075E0514B1B7813F0020F0CD04F4A137843F00A0313706022464B1A704FF400424B4B1A6063E04B4A137843F0100313701022494B7B
:401600001A700422023B1A7057E0424B1B7813F0020F0CD0404A137843F09A0313706022374B1A704FF400423C4B1A6045E03C4A137843F01003137010223A4B1A7004220A
:40164000023B1A70344A137843F09003137034E0354A1378DBB2354908682C490978C9B2C15413780133DBB213701378304A1278DBB2934203D21022204B1A701DE0254B09
:401680001B7813F0020F0CD0234A137843F00903137060221A4B1A704FF400421F4B1A600BE01F4A137843F0100313700022134B1A7002E0002000F0F9F914F0200F1CD05E
:4016C0000F4B1B7813F0080F01D0012300E00223114A11780B431370114A137803F0EF0313701022064B1A7038BD054B1B7813F0100F02D11022024B1A7038BDD7490040AE
:401700008492FF1F8A92FF1F8C92FF1FD84900408992FF1F9492FF1F9592FF1F80E100E0D6490040D94900408892FF1F9092FF1F9692FF1F1A4B1B78DBB2102B29D1194BFE
:401740001B7813F0080F26D14FF40042164B1A604000C0B229B140F001004922104B1A7002E045220E4B1A70104B1870012201331A700F4B1B7813F0010FFAD00C4B1B78B4
:4017800003F00A030A2B08D11022054B1A700320704702207047012070470020704700BF8492FF1FD949004080E100E0D8490040D74900400A4B1B7813F0040F0ED0102347
:4017C000074A13700421023A1170064A1370064B1B7813F0210FFAD00020704702207047D94900408492FF1FD7490040114B1B7813F0040F1BD0104B18700422013B1A701A
:4018000046220E4B1A700E4B1B7813F0010FFAD00B4B1B7813F0020F04D16022074B1A70002070476022054B1A70032070470220704700BFD9490040D84900408492FF1FC8
:40184000D749004010B5002404E02046FFF768F80134E4B2012CF8D9FF22014B1A7010BD2981FF1F10B50446FFF7ECFF2046FFF749F8014B1C7010BD2981FF1F014B188844
:4018800080B2704784400040034B1A7800F0F80010431870704700BF86400040024B187800F00700704700BF8640004070B504460D46FFF7F3FF0646FFF7E0FF844257D014
:4018C0002C4B1B7803F00203DAB296B900B184B938B9294B1C80294A137803F0BF03137070BD264A137843F040031370224B1C8070BD22B3002322490B7002260F310E70CB
:4019000004310B700C390B7803F07F030B701B4B1B7813F0080F00D08CB91A4B18800721013B1970164B1B7813F0010FFAD111490B7803F0FD030B700021114B19700D4BB2
:401940001B7813F0020F0DD00E4B1C800DB1032200E001220A4B1A70094B1B7813F0010FFAD170BD044B1C8002490B7813430B7070BD00BFA2430040844000408640004092
:401980000140004002400040014B188880B2704700410040034B1A7800F0F80010431870704700BF02410040024B187800F00700704700BF0241004070B505460E46FFF7AB
:4019C000F3FF0446FFF7E0FF854256D02B4B1B7803F0010294B900B185B938B9284B1D80284A137803F0BF03137070BD254A137843F040031370224B1D8070BD22B3002329
:401A000021490B70012413310C7004390B7008390B7803F07F030B701A4B1B7813F0080F00D08DB9194B18800721013B1970164B1B7813F0010FFAD110490B7803F0FE03BD
:401A40000B700021104B19700C4B1B7813F0010F0DD00E4B1D800EB1032200E001220A4B1A70094B1B7813F0010FFAD170BD044B1D8002490B7813430B7070BDA143004082
:401A800000410040024100400140004002400040054A137843F0040313701032137843F004031370704700BFA243004001BE704710B5044605E0084B186800F045F8A4F560
:401AC0000044B4F5004FF6D8034B586800FB04F000F03AF810BD00BF2C81FF1F08B5034B1B7A03FB00F000F02FF808BD2C81FF1F70B504460E46074B1D681F2802D9002055
:401B0000FFF7D4FF04F01F04103455F8240045F8246070BD08ED00E038B504460D46072902D90020FFF7C2FF1F2C02D90020FFF7BDFF04F01F0000F1604000F564406D013E
:401B4000EDB2057038BD00BF0230800803D000BF01380046FCD17047EFF3108072B6704780F31088704700BFF0B505468DB0002800F0248100210C22684601F071FB002117
:401B80000C2203A801F06CFB0021142206A801F067FB002328460B9301F087FC00286C46C0F20C81284601F093FC2846694601F02FFD0028C0F20281824B019903F14802B6
:401BC00018681E46884202D80C339342F8D1B388019F0B96B7FBF3F7384600F039F9BDF808100446C900784301F0B6FB202C4FEA4000B3680CD021301A461446D218D11AEF
:401C00008142FAD9241A5A1E22421DD0E4181BE01C4601301A460127D118824202D801370A46F9E70198B188C31A9A1AB2FBF1F0BDF808104001C90001F08EFBB368400069
:401C40005F433F1AADF81070019B47F6A7721B1B934201D801220EE0B3F5803F01D2042209E0B3F5800F01D2062204E0564A934294BF0B220C228DF82020544A019E069340
:401C8000079402F1500017681146B74202D808328242F8D1621E0879D2184B79ADF8000000FB03F1B4FBF1FC01FB1C4EADF824C0B2FBF1FC01FB1C21BEFBF3FEB1FBF3F1FB
:401CC0008DF821E08DF82610B4FBF3FEB2FBF3F103FB1E4403FB1122013401328DF822408DF82720ADF828C0ADF8023001F034FD0446002862D0364B00271A8A002101F03E
:401D0000AFFA84F8BE719DF8212004F5DE7384F8BF21BDF824009DF8221000F4407001F03F01033341EA90015970BDF824105A1C5170531C9DF820205E1C5A709DF8262020
:401D4000731C7270BDF828109DF8272001F4407102F03F0242EA91025A70581CBDF8283043700799023001F01DFB06F10800069901F018FB04F5FF704AF6552101F01CFBF0
:401D80002846394622463B4601F00CFCB84214BF4FF0FF363E46204601F0F4FC76B94FF40073ADF80E300B9B0CA99B88284621F8243DCDF814D002F0ABF901E04FF0FF308C
:401DC0000DB0F0BD28670000FF03FB00706700009892FF1F10B5002101F08CFEBDE81040FFF7C2BE0C2802D0102805D102E001EB51007047480070478800704703684068C7
:401E00009B685B6AB0FBF3F0704710B5046D836CE4B199421AD3E318994217D2013B99420CBF4FF0FF31013172B190F836300C2B02D0102B05D102E00905090D03E089B282
:401E400001E021F070411160012010BD002010BD40F6F473984201D80C2070474FF6F473984294BF102020207047027F8368023902FB01307047431EDBB21F2B13D92F2839
:401E800011D007D826280ED002D8222809D10AE02A3804E03A2804D33F2804D95B38022801D90120704700207047034638B30B2A01DD0B2200E0013A00201CE0082809D190
:401EC00091F808C0BCF1200F0DD04FF02E0C03F801CB08E038B991F800C0BCF1050F02D1ACF1200C04E011F800C0BCF1200F01D003F801CB01309042E0DB00221A707047D7
:401F00002DE9F04788B005AE04460D463046114600229A469DF84490BDF84C80BDF8507000F01EFD08B1002413E020462946524600F00FFE044660B1129B31460093109A9D
:401F40004B46CDF80480029700F0C6FF284601F02DFC204608B0BDE8F08710B59DF80C400394BDE8104000F0D9BD00002DE9F04F144E87B0109DDDF848809DF844403768CF
:401F800000950194CDF8088005937F68934682468946B84732680C4BDDF814C09A420DD060B9504649465A46634610951194CDF8488007B0BDE8F04FFFF7CFBF07B0BDE890
:401FC000F08F00BF3C81FF1FC067000070B5C37A04460B7010300D4601F0F2F9064604F10E0001F0EDF940EA0640686004F1120001F0E6F90004A86004F1180001F0E0F9F3
:40200000064604F1160001F0DBF940EA0640E86004F11C0001F0BBF9286170BD2DE9F845038A04460E46924687692BB907F118002146626900F064FC38465146224600F037
:40204000E7FC0546204600F065FCD5B12B78C3B1E52BF1D095F80B80B8F10F0FECD018F00808E9D170692946B269FFF71EFF28463146FFF7ABFF238A404601332382BDE8F4
:40208000F8854FF0FF30BDE8F885022201F0C6BC2DE9F04790F8366005460C46304611469146FFF79FFEB5F81E80AB6A20FA08F89845824602D30020BDE8F0876B8E05F11E
:4020C00018079844204641463A46FFF7DEFF204601F0C3FC18B14FF0FF30BDE8F087AA8BA168013A0AEA020A1FFA8AFA92450AEB01031AF8015001D0013309E0204608F1A6
:4021000001013A46FFF7C1FF204601F0A6FCA36818780C2E45EA002009D0202E0FD15D7840EA05409D7840EA0560BDE8F08719F0010F02D00009BDE8F0870005000DBDE878
:40214000F08700002DE9F34190F83630144603FB02F7828B8846D200511E0F40D71B0546B7FBF3F7002618E00E4B93F88030022B05D12846214601AAFFF747FE28B928465C
:4021800041462246FFF784FF0190019B0134A34205D10136B6B2013F1C46002FE4DC3046BDE8FC819892FF1F2DE9F34105460E46144698461F681CE0114B93F88030022B22
:4021C00005D12846214601AAFFF71FFE28B9284631462246FFF75CFF0190737B0BB100240BE0AA6B019B0132934204D81BB1013F1C46002FE0D1C8F800702046BDE8FC8112
:402200009892FF1F73B504680E4623681BB9FFF7F5FD013039E0FFF7F1FD236998423CBF4FF0FF3323612369B3F1FF3F04D12268013323616261E3832169E28B451A9542C8
:4022400034BF2B4613463BB16069C918C018D21A60612161E283ED1A0DB9284615E002AB43F8045D31466269A068FFF79DFF6061019B21690246C91A4D19256123B9A06868
:402280003146FFF75FFFE08301987CBD13B502AC44F8043D2346FFF787FF019B002B18BF00201CBD2DE9F0410746884615461E460024384641462A460123FFF7E7FF30B114
:4022C000BA6B0134944201D80546F2E7002406B134602846BDE8F0812DE9F74F04460D461E461746002A00F0B98090F836001146FFF778FDB4F81EA0A36A20FA0AFA9A45BD
:40230000814680F0AB80638E04F118089A44284651464246FFF7B9FE284601F09EFB6B7B002B40F09B80A38BAA68013B09EA03091FFA89F303EB020926B9216C8F4203D2AE
:40234000276401E0791C216494F8361010290AD0202911D1484601F01AF831460746484601F020F84EE0484601F02AF8B1B20746484601F021F845E028460092019301F01A
:4023800015FA009A019B17F0010F13F802B01BD00BF00F0141EA06119954A28B013A934202D009F1010309E028460AF101014246FFF76BFE284601F050FBAB681F78320908
:4023C0003F0147EA1B171CE09E54A28B013A934202D009F1010309E028460AF101014246FFF753FE284601F038FBAB681A78310A02F00F0701F00F0122F00F024BEA07271B
:402400000A431A70284601F0D1F994F83630202B18D1B4F84620AAB9B4F84410284601F0FDFA284601F019FBA8684FF0FF3100F5F47000F0B7FF284601F0B8F94FF0010367
:40244000A4F84630E36BB3F1FF3F09D00FB10133E3632EB1E36B013BE36301E0012000E00020BDE8FE8F6FF07043FFF735BF70B5036D04460E4693B1002506E0AA1820467E
:402480003146531CFFF728FF0135236DA26C013B9D42F3D320463146AA18FFF7E4FF0023A3642365E364636570BD70B506460D461C460AB1FFF710FF304629462246BDE826
:4024C0007040FFF7D0BF00002DE9F84504460E4615461F46002B36D01C4B93F88030022B31D190F8368011464046FFF77BFCB4F81CA00AF1FF3A2AEA000A4FEACA0ABAFBF0
:40250000F8FAAA44A8460EE0204631464246FFF7BFFD50B9A36C0BB9C4F84880E36C08F101080133E364D045EED9E36C5BB167653B685A6922B1204631462B46FFF7CCFE52
:40254000236D01332365BDE8F88500BF9892FF1F2DE9F8459846274B054693F880300F46022B1646846B19D1436D984503D0C36C0BB1FFF77CFFB8F1000F0FD06B6D434553
:402580000CD12B6DEA6C9A4204D9AC6C1C1901332B652CE028463946FFF769FF012E04F1010A01D9564505D92E6C012E01D9564500D902263446284639462246FFF768FD44
:4025C00050B101345445F6D902240DE0284639462246FFF75DFD30B92846394622464346FFF772FF03E00134B442EFD300242046BDE8F8859892FF1FF8B507460E461546EA
:40260000FFF7A6FF044628B1384631462A462346FFF74BFF2046F8BDB2F1FF3F73B504460D4614D0561A013611D001F007FA084B00211A8AA06800F013FE0223009360680E
:40264000A3682946324600F0A3FF0023E3737CBD9892FF1F2DE9F84F984690F8363004460C2B0D4616465AD04FF0FF3AD1463CE094F836003146FFF7B5FBB4F81CB0678E62
:402680000BF1FF3B10EA0B0BE38B1DD1D840013F3F1802222846394601F0C0F9A38BAA689B0852F80B1079B9013B0BF1040BF8D13BE0494628465246FFF7AEFFB946BB4631
:4026C000284601F076F8DA462946324601232046FFF7DCFD29460746324620460023FFF7FBFD2FB108F1FF383E46B8F1000FBFD1284649465246FFF78FFF13E02946324633
:4027000001232046FFF7C2FD29460746324620460023FFF7E1FD2FB108F1FF383E46B8F1000FEBD14046BDE8F88F0AF1010B5F45BFD1C5E72DE9F845054601F00DF804464A
:4027400008B90546D0E0284600F04EFF684E338A834208D338B10021284622460B4600F0D6FE002804DA204601F00CF80025BBE004F5FF7000F024FE4AF65523984240F08D
:40278000AD8004F10B0000F01BFE10F47E4F074600F0A480338A8342C0F0A080237C022B40F09C8094F80D80B8F1000F00F096800021402205F1180000F052FD04F1130098
:4027C00000F0FEFD064620B904F1200000F0DFFD064604F1160000F0F3FD824680B904F1280000F0EDFD10F08F0F77D104F1240000F0CDFD824604F12C0000F0C8FDE86218
:40280000022385F83530C5F828A0AE6185F8348004F10E0000F0D4FD688604F1110000F0CFFD95F835206B8E288602FB0A3A7A0992B2B0FBF2F25244AF832A620923012196
:402840009940B94201D1EB8302E00133102BF6D108FB07F7B61AB6FBF8F6AE636F623046FFF7F6FA202818BFC5F82CA04FF0FF33202885F83600EB6332D104F1300000F004
:402880009FFD00230146A5F844002246284600F03EFE002822DB204600F079FD804604F5F27000F074FD074604F5FE7000F06FFD104B984514D1104B9F4211D10F4B98423D
:4028C0000ED104F5F67000F062FD286404F5F47000F05DFDB04203D8E86301E0002500E00125204600F04EFF2846BDE8F88500BF9892FF1F5252614172724161000055AAEF
:4029000000238B60837F202B01D102B942694A600A60704783680133836070472DE9F0410C46202105461F469DF818604FF0000800F096FC10E014F8080036B9E52804D14B
:40294000B8F1000F01D1E03802E000F0FEFCC0B205F8080008F10108B845ECDBBDE8F0812DE9F74506460D4608462849002A14BF92464FF0FF3A00F0A9FC804650B93046BF
:402980002946022200F057FEB01C2021092200F067FC37E04FF0FF34002715F80780B8F1000F01D0574505D1B4F1FF3F08BF3C4664B925E04046FFF75EFA08B3B8F12E0FB2
:4029C00008BF3C4601370D2FE7D119E0082C17DC3F1B042F14DC30462946082223464FF00008CDF80080FFF799FF0123611C009306F10800691803227B1EFFF78FFF01E05C
:402A00004FF001084046BDE8FE8500BFD06700002DE9F74FD2F808B0436A4FEA4B18B8FBF3F8D368054698450E461446D2F8009001D20023D360B5F81EA0E368AAF1050AF1
:402A40000BB9D4F804902BFA0AF7B9F1000F17D095F83420B8EB0303019206D04A4628463146FFF713FC814640B3494605F11800FFF7FBF9019B591E01EA0707C11906E0F2
:402A80002B8E43FA0AF39F4218D2E96A79183046C4F80090C4F80C80012200F0BFFF304600F0DBFF50B9013000FA0AFAB3680AF1FF3A0AEA0B0B03EB4B1000E00020BDE8DA
:402AC000FE8F2DE9FF4107460E4601A811461A460A9D9DF82C40FFF743FFC8B9384631462A46FFF795FF8046A0B1037883B101A90B2200F0A5FB38B998F80B3004EA0302C6
:402B0000A24201D1082B05D12846FFF703FFE5E74FF00008404604B0BDE8F0812DE9F04587B002AF04460E46154698469DF83CA039460E9A1830FFF7E3FE204631462A46FF
:402B400043460097CDF804A0FFF7BBFF07B0BDE8F0852DE9F04500F1180785B005460C46384669469246FFF7CBFE284621466A46FFF74EFF06466846E846FFF7CBFE002E7D
:402B800037D1BAF1000F02D12B8E002B35D12146009A00232846FFF785FB2146024600232846FFF729FD8046204600F052FFB8F1000F22D0AA8B0021A06800F051FB384603
:402BC0004146FFF752F995F8347000257E1E361808E031462046012200F020FF204600F0F9FE013E01357B1BB3F1FF3FF1D1A66803E033780BB1E52BB7D1304605B0BDE81A
:402C0000F08538B504461A3000F0DAFB054604F1140000F0D5FB45EA004038BD2DE9F0451D4685B007460E462A6010465C21904600F097FB4FF0000A0446A04508D108F1DE
:402C40000108C5F8008040465C2100F08AFB044694B1C8EB0403002B0EDD10220192103A0292384631464246CDF800A0FFF77EF970B1FFF7C6FF824628685C2100F071FB38
:402C8000A04604460028D8D10C9B0130C3F800A005B0BDE8F085F8B505460C461E461746DAB16FF01A031370084600F07FFD16B94FF47A7608E007F11C0000F068FB6B6A9C
:402CC0005E1E3618B6FBF3F63846FFF79AFF2146024633462846FFF7BDFC607BF8BD00002DE9F04FD1F8008093B0D8F808700BAD044608930E464FF0FF333946284609927B
:402D00000F939DF870A000F08FFD10AB009338462946224611ABFFF781FFD0B1F27A109B07920FAA00930292002338462946119A0193FFF71BF9044680B1C37A13F0100FB7
:402D400007D10D9BDDF82CB0C3EB00094FEA691906E0284600F074FE0125A3E083468146099B002B3CD0002C33D0524B5D6912E02B687BB1AA7A6AB19A8B4A450AD19A69D2
:402D80005A4507D19B68BB4204D14FF6F772328100257EE0ED68002DEAD10DF12C0C6146384622460123CDF818C0FFF774FFDDF818C018B14FF0FF3333816AE03E4B1B68C8
:402DC000DC6824B138466146109A0F9BA0472C4606E0BAF1000F03D1089A002A44D065E0089BEBB1CCB1E37A13F0010F0BD0079A12F0150F07D04FF6FA733381BAF1000F8A
:402E000001D1012500E000252046FFF7FAFE074604F11C0000F0BBFA29E0BAF1000F45D0BAF1010F01D000251BE0ECB901F032FA214B20221B68019282B2000C03920490CB
:402E4000009402949D6838460BA9119A109BA84750B10D9ADDF82CB0C2EB00094FEA6919254628462F4602E00125002007464FF0FF33C8F81030C8F818B0A8F81C90079A39
:402E8000C8F8040012F0010308BF1846C8F800707060B6F908300BA835EA230528BF012500F0CEFD284613B0BDE8F08F01255046DCE700BF9892FF1F3C81FF1F70B5054654
:402EC0000C461A3089B200F077FA05F11400210CBDE8704000F070BA2DE9F0470446BDF824700D469146002120229A46BDF82860DDF8208000F0B4F90B222046294600F066
:402F00009AFB04F10E00394684F80BA000F054FA04F11000314600F04FFA04F11600394600F04AFA04F11800314600F045FA20464946FFF7C3FF04F11C004146BDE8F047CE
:402F400000F030BA07B5426803460AB910460AE081680020009048681968DB6800F0F6FA003818BF01200EBD2DE9F047046805460F46A668FFF746F981468246002841D079
:402F8000D4F80080B8F1000F1BD14246304639462B46FFF7DDFA0246D8B11C4B6061C4F8108093F880302060022B07D030463946FFF759FA10B10120BDE8F087B9F1010A71
:402FC00020D03046394662692B46FFF7C1FA804628B94FF6FE732B810130BDE8F0870B4B93F88030022B05D03046394662694346FFF75BFA2369C4F8148001332361BAF143
:40300000010ADDE70020BDE8F08700BF9892FF1F2DE9F041836804460D4608460122A1699E8B00F0FBFC2846B4F81C80AF6800F014FDF8B9013E06EA4816B6B2BE1906F1E2
:403040001C00616800F0AEF921683046FFF736FF01F020F90446A1B206F1160000F0ACF906F11800210C00F0A7F92846BDE8F04100F0EFBCBDE8F08103682DE9F04F9F68D9
:40308000038995B001339BB2012B04460E46059201D90025CEE0394610AD0CA800F0C4FB3946284600F0C0FB039626680023D6F808909A4609F118010791D9F8242005998B
:4030C00006924FF0FF32099308920A950291049320460CA9FFF748FF38B108A8FFF732FF5546002818BF00258FE03269069901324A43B9F81CB063680BF1FF3BD21A0BEA2A
:40310000030B029B0798934228BF134601937169FEF7ABFE99F83430B9F81C206768013BB7FBF2F703EA0707C719B9F81C300199CBEB03058D4228BF0D469D4228D0BBF1E0
:40314000000F03D1626873689A420FD00DF1400840463946002200F061FC404600F07DFC20B14FF6F9725546228154E01298039958442A460DF1400800F05DFA404639468C
:40318000002200F04BFC404600F024FC90B141E0099B089A9A1897420AD008A8FFF7D2FE002837D101230993039B08970B9301E001330993029B03995B1B019A0293636877
:4031C0004919521BAA44ED186560736803919D42019207D91BB1194B93F880300BB9012104917560019A1AB101374FF0000B9CE7029B002B7FF46CAF08A8FFF7A3FE049927
:403200005546002818BF002529B1304610A9FFF7FFFE00E05546059A954205D0B4F9083013B94FF6F87323810CA800F009FC10A800F006FC284615B0BDE8F08F9892FF1F16
:4032400010B5002308E0C45C11F803C0013A0133644501D0012010BD002AF4D1104610BD70B5034602E003F8011C013A1C4622B103F003050133002DF5D193081ED04FF0E7
:4032800001354D4308E044F8105C44F80C5C44F8085C44F8045C043B032BA44604F11004F1DC1C46002603E04CF80650013B0436002BF9D102F003020CEB8404002302E0C0
:4032C000E154013A0133002AFAD170BD002310F803C0CA5C624501D0012070470133002AF5D110467047002300E00133C25C002AFBD11846704710B500230BE0C45C11F817
:4033000003C0644501D0012010BDC4186478013314B1013A002AF1DC002010BD10B5002302E0C454013A013303EB000C0AB9002308E0CC5C002CF4D1F9E700210CF8031048
:40334000013A0133002AF8D110BDA0F16103192B98BF00F0DF00704701384018B0FBF1F07047C9B203E00BB918467047013003788B42F8D1704742780178431C42EA012025
:403380005A789B7842EA002043EA002070478378C27803EB0222437803EB0222037803EB0220704703460A0A03F8011B42700A0C090E5A70997070470170090A41707047B9
:4033C0004278037843EA022070470000094A0A4BC11C10B5146821F0030118680919814201D9002010BD11609A685868013220189A6010BD1C93FF1F4082FF1F08B5FFF7C6
:40340000E5FF00B9FEE708BDFFF7E0BF30B1044A9368013B93600BB9024A1360704700BF4082FF1F1C93FF1F014B5860196070474082FF1F38B50546FFF7E0FF0021044625
:403440002A46FFF70DFF204638BD000010B5084CA37C0BB1002010BD4FF40073238200F00BFFA37C012043F00103A37410BD00BF9892FF1F08B583680BB10020984708BDBF
:4034800008B583680BB10120984708BD10B504680079A468A04710BD37B59DF81850046800790095E468A0473EBD08B5036800799B69984708BD036810B55B69044623B18D
:4034C0000079984708B1002000E00120607110BD10B5437904460BB9FFF7EDFF607910BDF7B504461F460E461546FFF7F1FF2046FFF7C6FF2A463146012320460097FFF7D6
:40350000C5FF05462046FFF7B5FF2846FEBD10B504690919BDE81040FFF7E2BFF7B5044615461F460E46FFF7D3FF2046FFF7A8FF0023009331462B463A462046FFF7ACFF69
:4035400005462046FFF796FF2846FEBD30B504699DF80C5009190395BDE83040FFF7DEBFF7B5044615461F460E46FFF7B1FF2046FFF786FF0123009331462B463A4620462B
:40358000FFF78AFF05462046FFF774FF2846FEBD30B504699DF80C5009190395BDE83040FFF7DEBF73B504460E461546FFF790FF2046FFF765FF00232A460093314601336D
:4035C0002046FFF769FF05462046FFF753FF002D14BF4FF0FF3000207CBD10B504690919BDE81040FFF7DEBF30B5054685B0FFF76FFF2B6828791C694FF47B71002201ABEC
:40360000A04708B1002001E0BDF80C0005B030BD70B506460D46FFF75BFF336830791C694FF47B7100222B46A047002814BF4FF0FF30002070BD11F0030F70B584460B46F7
:4036400032D110F0030F2FD195100446AC4611E053F8106CACF1040C44F8106C53F80C6C44F80C6C53F8086C44F8086C53F8046C44F8046C10341033BCF1030FE8D8AB0831
:403680001B0100EB030CCB1815F003050AD0284600215C584CF8014004310138F9D1AD00AC445B1902F0030213F0010F19462FD11CF0010F60462BD15410254610E031F80A
:4036C000086C043D20F8086C31F8066C20F8066C31F8046C20F8046C31F8026C20F8026C08300831032DEAD8A108C9005B1814F003048C440AD0204600215D5A2CF8015076
:4037000002310138F9D16400A4441B1902F00102614610E013F8040C043A01F8040C13F8030C01F8030C13F8020C01F8020C13F8010C01F8010C18460433032A8C4601F1FF
:403740000401E7DC32B10023C15C0CF8031001339342F9D170BD0000094B10B5D8689A68002308E0114652F8084B1CB901230B60486810BD01338342F4D3002010BD00BFA0
:403780009892FF1F084B30B50022DC689B6808E05D6819460833854202D100230B6030BD0132A242F4D330BD9892FF1F01230373704700230373704710B1002282720260D7
:4037C000704718B1027B0AB1013A02737047000038B5FFF73BFE20B3124C4200E2600001FFF728FE238AA060E0685843FFF722FEA568E168228A002304E005EBC304606096
:40380000013380188B42F8D31020FFF713FE054C60612820FFF70EFEA37CA06143F00203A37438BD9892FF1F38B510220D4600210446FFF715FDFFF78FFF08B9013038BD95
:40384000A0604FF0FF33002065602360A07338BD38B5104B9C69217B59B921606160A16004F110001422FFF7FBFC237B013323730DE0656A45B92820FFF7C6FD606218B153
:4038800029462822FFF7ECFC646A002CE3D1204638BD00BF9892FF1F38B50E4B5C69A17AE56839B920461022FFF7DAFC0123A372E5600CE045B91020FFF7A6FDE06018B15E
:4038C00029461022FFF7CCFCE468002CE7D1204638BD00BF9892FF1F2DE9F74F06460020884691469B469DF830A09DF83470FFF7AFFF054608B9044610E0FFF7CDFF0446F5
:4039000060B180F80B900560AE604046214652463B46CDF800B0FFF7E3F930B12046FFF74BFF2846FFF74DFF00242046BDE8FE8F2DE9FF410C461F4604A9002341F8043D59
:4039400015469DF8286000F0D5F88046B8B1039B0BB11B789BB1404600F055F900280EDD14F0150F01D0032809D1039939B1404622462B4600970196FFF7AEFF00E000201F
:4039800004B0BDE8F08100002DE9F3410646884600240E4D404655F83410E700FFF796FC10B9002C04DA0DE001340F2CF1D109E07D19A87929790090EA796B793046FFF75D
:4039C000B7FF00E00020BDE8FC8100BFD4670000FFF7DABF10B5437B04460BB1012010BD40682168A268A37BFFF7F7FD10B10120607310BD207310BD10B5437B044663B9E1
:403A0000037B53B140682168A268A37BFFF7E5FD08B1012363730023237310BD036870B5994204460D46164607D0037B0BB1FFF7E3FF00232560A673E37370BDFFF7DCBF78
:403A400010B50446FFF7D8FFA068BDE81040FFF799BE01230373FFF7CFBF10B50446407B08B1012010BDE37B5BB960682168A268A37BFFF74CFD10B10120607310BD0122C2
:403A8000E27310BD08B5436813B94FF0FF3008BD984708BDF8B50C4617460023144D01E0ED6D01338342FBDB2B6828791B68984706460CB92046F8BDFFF715FC0530B842F7
:403AC00014DC22460020335C013223540130315C0029F8D113464FF03A0C03F801CB2C7903303034547083F801C09970F8BD00BFB492FF1F2DE9F0470F463A210646FFF764
:403B000030FC044610B93446174D27E00378C6EB000A5BB114F8013F43B162783A2A05D1A3F130085FFA88F8023401E04FF000080D4D2B6828791B6898478146FFF7D3FB4D
:403B4000504508D1484631465246FFF7D4FB10B92B79434502D0ED6D002DEAD107B13C602846BDE8F08700BFB492FF1FF8B5174C064694F85B10E56D69B960220127204694
:403B8000FFF76EFB84F85B70E5653046FFF77AFF00280EDA18E045B96020FFF735FCE06518B129466022FFF75BFBE46D002CE0D10AE0074B2660DA6F0132DA6703232071D4
:403BC00084F85B7084F85A302046F8BDB492FF1F9892FF1FFFF7CABF38B504460D46FFF764FC08B9013838BD2046FFF771FC204600F020FB2046FEF79DFD08B184F8595056
:403C000094F8590038BD90F8593023B990F85A1009B1FFF7E1BF1846704710B590F8592004463AB931B1FFF7D7FF002802DC4FF0FF3010BD94F8590010BDFFF7EEBF10B55A
:403C40000021FFF757FF08B9013010BD0321BDE81040FFF7F2BF30B51346BAB1B0B10268857A0AB1946804B900247DB172B16CB1C27A12F0100204D14FF6FA73038110462E
:403C800030BD1A46BDE83040FFF7F6B9002030BDFFF7E1BF2DE9F04F8FB08B469DF86010069207930991BDF86420BDF86C309DF8701005460B92BDF868800C930D91FFF7CD
:403CC000F4FB0028C0F2DF81002385F85930FFF743FD0446002800F0D481AC4B1B8A4345C0F0CF81B8F1000F00F0CB81079A06994FEAC803002A08BFFF220A93A44B0792F2
:403D0000002908BF3F2102220C9F144606912A4684461D460C996B698F422E7C00D13FB9202E03D0DDF82CA0012708E0374604E0202E02D0DDF82CA001E04FF0000A414674
:403D40004FEA4A1003920593CDF810C0FFF704FBC7EB0B090999C0EB090999FBF1F070430A99FFF7F9FA09994000C0EB090999FBF1F906FB09F00A99FFF7EEFA039A089053
:403D8000059BDDF810C02CB940F6F471894508DD894601E0994504DA013C083DB4F1FF3FB8D164466046002115464246FFF758FA6FF01603204600F8033B08227549FFF7A3
:403DC000ADFA04F10B004146FFF7F6FA099A04F10E0062733946FFF7EFFA0223237404F111005146FFF7E8FABBF5803F06D204F113001FFA8BF1FFF7DFFA04E004F12000F9
:403E00005946FFF7CFFA6FF00703637504F118000699FFF7D1FA04F11A000799FFF7CCFA04F11C002969FFF7BDFA202E6FF07F031DD084F82430A93384F8263004F1270005
:403E40005549FFF7AFFA089B04F1160099B2FFF7B3FA524904F12B000B22FFF75FFA504B504904F136000C2E18BF194624E084F84030A93384F8423004F124000899FFF7F9
:403E800091FA04F12C000221FFF78CFA04F130000121FFF791FA062384F8323004F143003D49FFF77FFA3D4904F147000B22FFF735FA3D4904F152000822FFF72FFA04F598
:403EC000FF71084607914AF65521FFF775FA0021284622460B46FFF780FB0028C0F29F80202E08D10621002328462246FFF775FB0028C0F29480002142462046FFF7B0F956
:403F0000089A0223520000932846394623460692FFF73EFB0028C0F282806FF00703237007330C2E6370A3700DD0202EE3700AD1201D6FF07041FFF735FA04F108006FF05F
:403F40007041FFF72FFA0223284639462246FFF744FB002863DB089B2846D91922460223FFF73BFB00285ADB002142462046FFF777F9069AD119BAF1000F17D04FEA4A120E
:403F8000012300932846B2FBF8F213E09892FF1F7C680000086900006745230194680000116900001A690000236900000123099A009328462346FFF7EBFA00282FDB202ED4
:403FC00031D1424600212046FFF74AF920462F49FFF7E8F904F5F2702D49FFF7E3F904F5F47009F1FF31FFF7DDF9032104F5F670FFF7D8F907984AF65521FFF7DDF901213F
:40400000002328462246FFF7E8FA002807DB0721002328462246FFF7E0FA002803DA2046FFF7B0FB2DE02B6933B30D9B23B30021284622460B46FFF753FAE8B90C2E94F8B1
:40404000C23102D0102E06D002E04FF0010B09E04FF00B0B06E0BBF5803F34BF4FF0040B4FF0060B5B4507D0002184F8C2B1284622460B46FFF796FA2046FFF783FB0020E8
:4040800001E04FF0FF300FB0BDE8F08F5252614172724161F0B58BB007AD044600210C222846FFF7DDF8204600F0C4F820462946FFF7AEFA23690BB163690893089911B9FD
:4040C0004FF0FF3020E0BDF81E20BDF81C30BDF82460002000E001300C4D4FEAC00C05F1240757F83070B942F5D80CEB050090F82850408D00950190002003900130049057
:4041000020460296FFF7C6FD0BB0F0BD7C68000030B504468BB00D4600292FD0FFF7C5F9002802DA4FF0FF302AE0204600F082F8AA6807AB22B920461946FFF769FA02E0F8
:4041400007CA83E80700236923B16369089A9A4288BF08932978BDF81E2000916988BDF81C300191BDF8241020460291A9880391A97904910899FFF78DFD01E0FFF78AFFE8
:404180000BB030BD0378E92B01D101207047EB2B01D0002070478078902814BF00200120704708B500F5FF70FFF70AF94AF65523984214BF0020012008BD01EB001000F56F
:4041C000E370FFF7E4B8F0B50D4685B01446064658B352B300210B46FFF782F9002824DB2046FFF7DEFF00B32046FFF7CBFF10B10024274616E02146FFF7DFFF074604F512
:40420000E570FFF7C4F801A904463046FFF700FA5CB157B1E219FF23120AB2FBF3F2029B9A4202D81DB12C6001E04FF0FF37384605B0F0BD73B50446FFF7D6F90646FFF7E1
:404240008BFA0C4B05461B8AB3420DD366B1204601A92A46FFF7B7FFB0F1FF3F04D02061019B6361002400E0FF242846FFF78AFA60B27CBD9892FF1F08B504484FF4805107
:40428000FFF7D2F80248FFF7A5FC08BD4C82FF1F746900004FF40410704700BF4FF6FF7070470000014B1868704700BF4C92FF1F004870479469000000F016BD37B501228B
:4042C0000DF10701054600F015FD9DF80740FF2C14BF0A240724284601220DF1070100F009FD9DF80700FF2803D1013CE4B2002CF1D13EBD37B50469857828460DF107018E
:40430000012200F0F7FC9DF807300BB1002003E0013CF2D14FF0FF303EBD37B54FF0FF3305460C468DF8073006E028460DF10701012200F0EDFC013C002CF6DC3EBD000041
:4043400038B5094C2368032B02DD4FF0FF3509E0DDB2013323601420FFF76CF804EB850460608570284638BD4C92FF1F08B5034B4FF400711B68984708BD00BF4081FF1F23
:404380004FEAD20CACEBD103CCF10F0C10B501336044002410F801CB013B4CEA0424F9D101F00703511A02228A40DC40013A04EA020010BD7FB5130E85788DF80530130C17
:4043C00001F03F018DF80630130A41F040018DF8073000238DF808208DF804101A4601A911F802C000215B00DBB283EA0C0E1EF0800F18BF83F009030131082904D04FEA55
:404400004C0C5FFA8CFCEEE70132052AE7D15B0043F001038DF809308678C4680122304603A900F067FC9DF80C30FF2B04D00CB9FF2009E0013CF1E7284601A9062200F061
:4044400067FC2846FFF73AFF04B070BDF7B5847806460F4620460121FFF75FFF204600F0E5FB304609210022FFF7A4FF8DF8070028BBF6680546012220460DF1060100F00F
:4044800039FC9DF80630FE2B06D0FC2B04D00135ADB2B542EFD112E00DF1070520463946102200F027FC29462046012200F022FC29462046012200F01DFC002500E0FF2560
:4044C000204600F0BDFB20460121FFF726FF2846FEBD00002DE9F04F9B46494B89B003EB800305925C684A02029103924FF00309029AA578E678039B2846022E08BF1346E1
:404500001E4600F09DFB01212846FFF706FFBBF1010F0CBF4FF0110A4FF0120A284600F085FB204651463246FFF744FF002851D1059F5E46A378E268B44604924FF000086E
:404540001E460FE0012230460DF11F01CDF804C000F0D0FB9DF81F20DDF804C0FE2A05D008F10108049B9845ECD333E0284639464FF40072664600F0BDFB0222284607A9FB
:4045800000F0B8FB9DF81C30384601939DF81D80FFF7ECFE4FF6FF729042019B0CD048EA0328404508D0BAF1120F13D120460C210022FFF7FFFE0DE0013E02D007F50077D0
:4045C000B8E7BAF1120F07D120460C213246FFF7F1FE01E04FF0FF36284600F031FB28460121FFF79AFE3EB1B9F1000F02D009F1FF397DE74FF0FF36304609B0BDE8F08FB4
:404600004C92FF1F2DE9F04F99464C4B87B0029203EB80039DF840205D68009103926B78002B40F085804B0201930327009BAC78EE78019A2046022E08BF1A46164600F080
:40464000FFFA01212046FFF768FEB9F1010F0CBF4FF0180A4FF0190A204600F0E7FA284651463246FFF7A6FE8DF81700002850D120460121FFF751FE029ECB46B8463046F0
:40468000FFF774FE0DF11707BAF1180F0CBFFE23FC2301228DF817308DF81500030A394620468DF8143000F033FB204631464FF4007200F02DFB0222204605A900F028FB42
:4046C00001222046394600F015FB9DF8173003F01F03052B1CD12846FFF70CFEC0B9039A0AB906F50076BBF1010BC8D1BAF1190F474611D106A96FF00203204601F8013DA9
:40470000012200F005FB2846FFF7F4FD20B100E047464FF0FF3600E00026204600F090FA20460121FFF7F9FD26B10FB1013F7DE74FF0FF36304607B0BDE8F08F4C92FF1F09
:404740002DE9F04F877887B0044638460D4600F06DFA20463A210022FFF72CFE064638B1384600F06DFA38460121FFF7D6FD58E00DF1140804224146384600F0BBFA40461E
:40478000FEF7F9FD8046384600F05AFA01213846FFF7C3FDB8F1000F28F07F02B8BF4FEA987BD2B240F272634FEA1828B8BF0BF0010B1FFA88F8002A14BF1A460022012160
:4047C00011EA080F05D10136F6B24900102E89B2F6D140F27260824233460DD06422724302F5FA6208E011EA080F07D049000133013689B2DBB2F6B20F2EF4D964214B43AB
:404800004FF6FE7103F5FA6302EA01014FF6FC72384603EA020200F049FA10F0FF0F40F099804FF0FF3092E028467E217F22FFF7A7FD8246EB78DFF82C8103F0030203F013
:40484000780308EBD30358F822101B7C3846594389B200F001FA0646002877D06B7803F00702DB1003F00F0308EB82024344126A93F810800292B8F1000F67D0A97828466A
:4048800003911C221A21FFF77BFD0190BAF1000F1FD1502153222846FFF772FD4FF0010909FA00F92F2131222846FFF769FD1FFA89F982463E21284649224FEA5929FFF78B
:4048C0005FFD0AF1020A09FA0AF9013000FB09F910E0BAF1010F01D0012038E0284630214522FFF74DFD4FEA8029BBF1000F01D00223E37008FB06F2029B0399B2FBF3F25A
:40490000642303FB01225A437343D208DB089A4294BFE260E360FA235E43019BF6089A400C21B24294BF2261266128460D22FFF727FD0546384600F08DF94FF40071284346
:404940006070A180C4F80890002000E0FF2007B0BDE8F08FE378A778012B3FF465AF4FF0000A67E72C690000F0B5857887B004464FF4C871284600F06FF9B0F5C87F00F29C
:40498000CC804CF25033E3600026284600F058F90A212846FFF7C1FC624B93E8030001902846ADF8081000F041F9062201A9284600F0AEF92846FFF781FC0746284600F012
:4049C0003FF901212846FFF7A8FC17F0010F03D10136052ED9D1A0E0284600F027F9082120464FF4D572FFF7E5FC10F0040F52D0284600F025F9A5784FF4FA66284600F099
:404A000015F9002237212046FFF7D4FC28460121FFF783FC292100222046FFF7CBFC0746284600F00DF928460121FFF776FC17B90123E3701EE017F0040F01D1013EDDD167
:404A40004FF4FA66284600F0F1F8012100222046FFF7B0FC0746284600F0F2F828460121FFF75BFC0FB9E77004E0012F55D1013EE8D152E001AD20462946FFF7E7FC002887
:404A80004BD120462946FFF75BFEC0B2002844D10123237043E00422A07805A900F02AF9284600F0CDF89DF81730AA2B35D19DF8163003F00F03012B2FD1A5784FF4FA6688
:404AC000284600F0B3F8002237212046FFF772FC28460121FFF721FC29214FF080422046FFF768FC0746284600F0AAF828460121FFF713FC0FB1013EE2D101AE204631469B
:404B0000FFF7A4FC48B90125E57020463146FFF717FEC0B208B9257001E04FF0FF3007B0F0BD00BF6C69000010B5084B03EB80035C6823783BB9FFF7BFFB20B12046BDE804
:404B40001040FFF711BF4FF0FF3010BD4C92FF1F38B51D46154BA1F57B7103EB80035C68072918D8DFE801F00A17171704041719204600211422FEF773FB0CE0237833B98F
:404B80002046FFF7F1FE10B14FF0FF3038BDA3882B81A3686B60002038BD2046FEF736FC024B00201A68013A1A6038BD4C92FF1F10B580B9104B1B78EBB901240E4B1C7008
:404BC00000F036F93B20214600F04EF900F022F900F012F910BD084B1B7863B90124064B1C7000F025F93B20214600F03DF900F011F900F001F910BD6092FF1F08B550B949
:404C0000084600F0B5F800F0A7F810F0010FFAD000F0BAF808BD084600F0AAF800F09CF810F0010FFAD000F0AFF808BD08B510B900F086F908BD002000F082F908BD00BF56
:404C400008B518B9012000F07BF908BD012000F077F908BD0020704738B50D46B1F5C87F03D3B1F5FA5F03D804E04FF4C87501E04FF4FA556C00A4B245F6C053B3FBF4F4E5
:404C800048B900F0D5F8601E80B2012100F0ECF800F0C0F808E000F0CBF8601E80B2012100F0E2F800F0B6F8284638BD032809D840F6E44399420FD840F6E3439A420DD868
:404CC0000020704740F6E443994209D840F6E3439A4207D8002070470020704701207047002070470120704708B5FFF761FF022008BD00BFF8B507460D4614466E1C384610
:404D0000FF21FFF77BFF28703546013CF6D1F8BD70B5064614464D1C30460978FFF76EFF2946013CF7D170BD08B5FCF715FF094A137843F0200313700132137843F0100369
:404D400013700132137843F010031370FCF708FF08BD00BF95650040014B1878704700BF66650040014B1878704700BF67650040034B1B7813F0040FFAD0024B1870704769
:404D80006665004045650040014B1878704700BF5565004008B501E00A4B1B780A4B1B7813F0200FF8D1FCF7D7FE084B1A7842F001021A701A7802F0FE021A70FCF7D0FE0E
:404DC00008BD00BF55650040676500409565004008B50F22064B1A70FFF7DCFFFFF7BCFFFFF7C0FF0023034A13700132137008BD856500408665004008B5054B1B7823B9B0
:404E0000FFF7E6FF0122024B1A70FFF78DFF08BD6192FF1F054A137843F0010313701032137843F001031370704700BFA2430040054A137803F0FE0313701032137803F07E
:404E4000FE031370704700BFA2430040014B188880B2704780400040024B187800F00700704700BF8240004070B505460E46FFF7F3FF0446FFF7EAFF854256D02B4B1B7827
:404E800003F0010294B900B185B938B9284B1D80284A137803F0BF03137070BD254A137843F040031370224B1D8070BD22B3002321490B7001240F310C7004310B700C3980
:404EC0000B7803F07F030B701A4B1B7813F0080F00D08DB9194B18800721013B1970164B1B7813F0010FFAD110490B7803F0FE030B700021104B19700C4B1B7813F0010F0F
:404F00000DD00E4B1D800EB1032200E001220A4B1A70094B1B7813F0010FFAD170BD044B1D8002490B7813430B7070BDA24300408040004082400040014000400240004004
:404F4000044A137803F07F03C001C0B203431370704700BF3051004081F0004102E000BF83F0004330B54FEA41044FEA430594EA050F08BF90EA020F1FBF54EA000C55EA78
:404F8000020C7FEA645C7FEA655C00F0E2804FEA5454D4EB5555B8BF6D420CDD2C4480EA020281EA030382EA000083EA010180EA020281EA0303362D88BF30BD11F0004FF5
:404FC0004FEA01314FF4801C4CEA113102D0404261EB410113F0004F4FEA03334CEA133302D0524263EB430394EA050F00F0A780A4F10104D5F1200E0DDB02FA0EFC22FA95
:4050000005F2801841F1000103FA0EF2801843FA05F359410EE0A5F120050EF1200E012A03FA0EFC28BF4CF0020C43FA05F3C01851EBE37101F0004507D54FF0000EDCF148
:40504000000C7EEB00006EEB0101B1F5801F1BD3B1F5001F0CD349085FEA30004FEA3C0C04F101044FEA445212F5800F80F09A80BCF1004F08BF5FEA500C50F1000041EB80
:40508000045141EA050130BD5FEA4C0C404141EB010111F4801FA4F10104E9D191F0000F04BF01460020B1FA81F308BF2033A3F10B03B3F120020CDA0C3208DD02F1140CBE
:4050C000C2F10C0201FA0CF021FA02F10CE002F11402D8BFC2F1200C01FA02F120FA0CFCDCBF41EA0C019040E41AA2BF01EB0451294330BD6FEA04041F3C1CDA0C340EDCF7
:4051000004F11404C4F1200220FA04F001FA02F340EA030021FA04F345EA030130BDC4F10C04C4F1200220FA02F001FA04F340EA0300294630BD21FA04F0294630BD94F01C
:40514000000F83F4801306BF81F480110134013D4EE77FEA645C18BF7FEA655C29D094EA050F08BF90EA020F05D054EA000C04BF1946104630BD91EA030F1EBF002100206D
:4051800030BD5FEA545C05D14000494128BF41F0004130BD14F580043CBF01F5801130BD01F0004545F0FE4141F470014FF0000030BD7FEA645C1ABF194610467FEA655CCA
:4051C0001CBF0B46024650EA013406BF52EA033591EA030F41F4002130BD00BF90F0000F04BF0021704730B54FF4806404F132044FF000054FF0000150E700BF90F0000F9A
:4052000004BF0021704730B54FF4806404F1320410F0004548BF40424FF000013EE700BF42004FEAE2014FEA31014FEA02701FBF12F07F4393F07F4F81F06051704792F0E8
:40524000000F14BF93F07F4F704730B54FF4607401F0004521F0004120E700BF50EA010208BF704730B54FF000050AE050EA010208BF704730B511F0004502D5404261EBA1
:4052800041014FF4806404F132045FEA915C3FF4DCAE4FF003025FEADC0C18BF03325FEADC0C18BF033202EBDC02C2F1200300FA03FC20FA02F001FA03FE40EA0E0021FAB4
:4052C00002F11444C1E600BF70B54FF0FF0C4CF4E06C1CEA11541DBF1CEA135594EA0C0F95EA0C0F00F0DEF82C4481EA030621EA4C5123EA4C5350EA013518BF52EA033561
:4053000041F4801143F4801338D0A0FB02CE4FF00005E1FB02E506F00042E0FB03E54FF00006E1FB03569CF0000F18BF4EF0010EA4F1FF04B6F5007F64F5407404D25FEA41
:405340004E0E6D4146EB060642EAC62141EA55514FEAC52040EA5E504FEACE2EB4F1FD0C88BFBCF5E06F1ED8BEF1004F08BF5FEA500E50F1000041EB045170BD06F0004655
:4053800046EA010140EA020081EA0301B4EB5C04C2BFD4EB0C0541EA045170BD41F480114FF0000E013C00F3AB8014F1360FDEBF002001F0004170BDC4F10004203C35DA2B
:4053C0000C341BDC04F11404C4F1200500FA05F320FA04F001FA05F240EA020001F0004221F0004110EBD37021FA04F642EB06015EEA430E08BF20EAD37070BDC4F10C04C6
:40540000C4F1200500FA04F320FA05F001FA04F240EA020001F0004110EBD37041F100015EEA430E08BF20EAD37070BDC4F1200500FA05F24EEA020E20FA04F301FA05F2E2
:4054400043EA020321FA04F001F0004121FA04F220EA020000EBD3705EEA430E08BF20EAD37070BD94F0000F0FD101F00046400041EB010111F4801F08BF013CF7D041EAE2
:40548000060195F0000F18BF704703F00046520043EB030313F4801F08BF013DF7D043EA0603704794EA0C0F0CEA135518BF95EA0C0F0CD050EA410618BF52EA4306D1D1E2
:4054C00081EA030101F000414FF0000070BD50EA410606BF1046194652EA430619D094EA0C0F02D150EA013613D195EA0C0F05D152EA03361CBF104619460AD181EA0301B6
:4055000001F0004141F0FE4141F470014FF0000070BD41F0FE4141F4780170BD70B54FF0FF0C4CF4E06C1CEA11541DBF1CEA135594EA0C0F95EA0C0F00F0A7F8A4EB050462
:4055400081EA030E52EA03354FEA013100F088804FEA03334FF0805545EA131343EA12634FEA022245EA111545EA10654FEA00260EF000419D4208BF964244F1FD0404F5BD
:40558000407402D25B084FEA3202B61A65EB03055B084FEA32024FF480104FF4002CB6EB020E75EB030E22BFB61A754640EA0C005B084FEA3202B6EB020E75EB030E22BFC2
:4055C000B61A754640EA5C005B084FEA3202B6EB020E75EB030E22BFB61A754640EA9C005B084FEA3202B6EB020E75EB030E22BFB61A754640EADC0055EA060E18D04FEA9E
:40560000051545EA16754FEA06164FEAC30343EA52734FEAC2025FEA1C1CC0D111F4801F0BD141EA00014FF000004FF0004CB6E711F4801F04BF01430020B4F1FD0C88BF6E
:40564000BCF5E06F3FF6AFAEB5EB030C04BFB6EB020C5FEA500C50F1000041EB045170BD0EF0004E4EEA113114EB5C04C2BFD4EB0C0541EA045170BD41F480114FF0000EAD
:40568000013C90E645EA060E8DE60CEA135594EA0C0F08BF95EA0C0F3FF43BAF94EA0C0F0AD150EA01347FF434AF95EA0C0F7FF425AF104619462CE795EA0C0F06D152EA7D
:4056C00003353FF4FDAE1046194622E750EA410618BF52EA43067FF4C5AE50EA41047FF40DAF52EA43057FF4EBAE12E74FEA4102B2F1E04324BFB3F5001CDCF1FE5C0DD9E6
:4057000001F0004C4FEAC0024CEA5070B2F1004F40EB830008BF20F00100704711F0804F21D113F13872BCBF01F00040704741F480114FEA5252C2F11802C2F1200C10FAE0
:405740000CF320FA02F018BF40F001004FEAC1234FEAD32303FA0CFC40EA0C0023FA02F34FEA4303CCE77FEA625307D150EA01331EBF4FF0FE4040F44000704701F0004031
:4057800040F0FE4040F40000704700BF80F0004002E000BF81F0004142001FBF5FEA410392EA030F7FEA226C7FEA236C6AD04FEA1262D2EB1363C1BFD21841404840414096
:4057C000B8BF5B42192B88BF704710F0004F40F4000020F07F4018BF404211F0004F41F4000121F07F4118BF494292EA030F3FD0A2F1010241FA03FC10EB0C00C3F12003A4
:4058000001FA03F100F0004302D5494260EB4000B0F5000F13D3B0F1807F06D340084FEA310102F10102FE2A51D2B1F1004F40EBC25008BF20F0010040EA0300704749001F
:4058400040EB000010F4000FA2F10102EDD1B0FA80FCACF1080CB2EB0C0200FA0CF0AABF00EBC25052421843BCBFD0401843704792F0000F81F4000106BF80F400000132B9
:40588000013BB5E74FEA41037FEA226C18BF7FEA236C21D092EA030F04D092F0000F08BF0846704790EA010F1CBF0020704712F07F4F04D1400028BF40F00040704712F1EB
:4058C00000723CBF00F50000704700F0004343F0FE4040F4000070477FEA226216BF08467FEA23630146420206BF5FEA412390EA010F40F4800070474FF0000304E000BF2A
:4059000010F0004348BF40425FEA000C08BF704743F0964301464FF000001CE050EA010208BF70474FF000030AE000BF50EA010208BF704711F0004302D5404261EB4101AE
:405940005FEA010C02BF84460146002043F0B64308BFA3F18053A3F50003BCFA8CF2083AA3EBC25310DB01FA02FC634400FA02FCC2F12002BCF1004F20FA02F243EB02003F
:4059800008BF20F00100704702F1200201FA02FCC2F1200250EA4C0021FA02F243EB020008BF20EADC7070474FF0FF0C1CEAD0521EBF1CEAD15392EA0C0F93EA0C0F6FD0F5
:4059C0001A4480EA010C400218BF5FEA41211ED04FF0006343EA501043EA5111A0FB01310CF00040B1F5000F3EBF490041EAD3715B0040EA010062F17F02FD2A1DD8B3F1D5
:405A0000004F40EBC25008BF20F00100704790F0000F0CF0004C08BF49024CEA502040EA51207F3AC2BFD2F1FF0340EAC250704740F400004FF00003013A5DDC12F1190F1A
:405A4000DCBF00F000407047C2F10002410021FA02F1C2F1200200FA02FC5FEA310040F1000053EA4C0308BF20EADC70704792F0000F00F0004C02BF400010F4000F013AAC
:405A8000F9D040EA0C0093F0000F01F0004C02BF490011F4000F013BF9D041EA0C018FE70CEAD15392EA0C0F18BF93EA0C0F0AD030F0004C18BF31F0004CD8D180EA010089
:405AC00000F00040704790F0000F17BF90F0004F084691F0000F91F0004F14D092EA0C0F01D142020FD193EA0C0F03D14B0218BF084608D180EA010000F0004040F0FE40AC
:405B000040F40000704740F0FE4040F4400070474FF0FF0C1CEAD0521EBF1CEAD15392EA0C0F93EA0C0F69D0A2EB030280EA010C49024FEA402037D04FF0805343EA1111AB
:405B400043EA10130CF000408B4238BF5B0042F17D024FF4000C8B4224BF5B1A40EA0C00B3EB510F24BFA3EB510340EA5C00B3EB910F24BFA3EB910340EA9C00B3EBD10F4E
:405B800024BFA3EBD10340EADC001B0118BF5FEA1C1CE0D1FD2A3FF650AF8B4240EBC25008BF20F0010070470CF0004C4CEA50207F32C2BFD2F1FF0340EAC250704740F475
:405BC00000004FF00003013A37E792F0000F00F0004C02BF400010F4000F013AF9D040EA0C0093F0000F01F0004C02BF490011F4000F013BF9D041EA0C0195E70CEAD1532F
:405C000092EA0C0F08D142027FF47DAF93EA0C0F7FF470AF084676E793EA0C0F04D14B023FF44CAF08466EE730F0004C18BF31F0004CCAD130F000427FF45CAF31F0004322
:405C40007FF43CAF5FE700BF4FEA4002B2F1FE4F0FD34FF09E03B3EB12620DD94FEA002343F0004310F0004F23FA02F018BF404270474FF00000704712F1610F01D14202DD
:405C800005D110F0004008BF6FF0004070474FF000007047014B1868704700BFA481FF1F0E4B70B51E460E4C0025E41AA410A54204D056F8253098470135F8E700F088FE5B
:405CC000084B094C1E46E41AA4100025A54204D056F8253098470135F8E770BDDC690000DC690000DC690000E469000010B5431E0A44914204D011F8014B03F8014FF8E78C
:405D000010BD03460244934202D003F8011BFAE7704700000EB400B54FF402719CB0ADF814106FF00041049107914FF6FF711DABADF81610084953F8042B029006900868F7
:405D400002A9019300F084F8029B00221A701CB05DF804EB03B07047A481FF1F034613F8012B002AFBD1181A0138704770B5A2B1451E01396B7811F8014F6E1CA34206D143
:405D80006FF00104641B1444E04202D11C46181B70BD3546002BEDD1F8E7104670BD2DE9F0478E688246B3420C469046994640D38A8912F4906F3AD02568096902236F1A42
:405DC000656905EB450595FBF3F57B1C4B449D4238BF1D4653050FD5294600F02FFB064698B121693A46FFF781FFA38923F4906343F08003A38113E02A4600F075FB0646CB
:405E000070B95046216900F0D5FA0C23CAF80030A3894FF0FF3043F04003A381BDE8F08726613E4426604E466561ED1BA560B14500D24E4632462068414600F09FFAA3687C
:405E400000209B1BA36023681E442660BDE8F0872DE9F0439DB003938B8906461C060D4690460CD50B6953B9402100F0E7FA2860286110B90C233360CCE040236B610023B6
:405E8000099320238DF8293030238DF82A3043461C4613F8012B1AB9B4EB08090FD002E0252AF5D1F8E73046294642464B46FFF776FF013000F0A980099B4B44099323787C
:405EC000002B00F0A28000234FF0FF3204930793059206938DF853301A9304F101084446DFF8489121784846052200F039FA08F10108049B30B1C9EB0000012282401343A2
:405F00000493ECE7D80644BF20228DF85320190744BF2B228DF8532022782A2A02D0079923460EE0039A0134111D12680391002ABBBF524243F0020307920792B8BF0493FF
:405F40000AE01C4622780133303A092A03D80A2000FB0121F5E7079123782E2B1AD163782A2B0AD1039B02341A1D1B680392002BB8BF4FF0FF3305930CE0611C00220C463F
:405F800023780131303B092B03D80A2000FB0232F5E70592DFF8988021784046032200F0DFF938B1049AC8EB00004023834013430493013421781A48062204F101088DF8AB
:405FC000281000F0CDF988B1164B33B9039B073323F007030833039313E003AB0093304604A92A46104BAFF3008007E003AB0093304604A92A460C4B00F092F8421C0746EC
:4060000003D0099B3B44099341E7AB895B0601D4099801E04FF0FF301DB0BDE8F08300BFA4690000000000009F5D00009A690000A06900002DE9F84391461F468A680B69A0
:4060400006469342B8BF1346C9F8003091F843200C46DDF8208012B10133C9F800302368990642BFD9F800300233C9F80030256815F006051CD094F843302268003318BF35
:40608000012392061FD5E118302081F843005A1C94F845102244023382F8431013E03046394604F119020123C047013007D00135E368D9F800209B1A9D42F0DBDBE74FF06F
:4060C000FF30BDE8F8833046394604F14302C0470130F4D02268D9F80050E36802F00602042A08BF5D1B2269A3680CBF25EAE57500259342C4BF9B1AED184FF00009A94592
:406100000ADA3046394604F11A020123C0470130D5D009F10109F2E70020BDE8F88300002DE9FF410C461746227E98466E2A06460A9B01F1430100F0B08012D8632A23D08B
:406140000AD8002A00F0BD80582A40F0CC8084F84520DFF804E257E0642A1ED0692A1CD0C1E0732A00F0B18009D86F2A2ED0702A40F0B980226842F0200222603FE0752A20
:4061800024D0782A3BD0AEE01A6804F14205111D1960136884F84230A9E020681A6810F0800F02D0101D186008E010F0400F02F10400186002D0B2F9003000E01368002B70
:4061C0003EDA2D225B4284F8432039E020681A6810F0800F02D0101D186007E010F0400F02F10400186001D0138800E01368227EDFF864E16F2A0CBF08220A221CE078221B
:40620000DFF858E184F845202268186812F0800F00F104051D6003D1550601D5038800E00368D00744BF42F0200222601BB9226822F0200222601022002084F8430002E0C9
:40624000DFF814E10A226568002DA8BF2068A560A4BF20F00400206003B965B10D46B3FBF2F002FB10331EF8033005F8013D03460028F4D100E00D46082A0BD12368DA07E5
:4062800008D5236962689A42DEBF302305F8013C05F1FF35491B21612EE025681A6815F0800F606903D0151D1D60136808E015F0400F02F104051D60136801D0188000E0A5
:4062C0001860002323610D4616E01A68111D1960156800212846626800F042F808B1401B6060636804E004F1420584F8422001232361002384F84330CDF800803046214694
:4063000003AA3B46FFF796FE013002D14FF0FF301FE0304639462A462369C0470130F5D023689B0705D4E068039B9842B8BF18460FE00025E368039A9B1A9D42F3DA3046D8
:40634000394604F119020123C0470130DED00135F0E704B0BDE8F081AB690000BC69000010B5C9B202449042034605D01C7801308C42F8D1184610BD002010BD814210B502
:4063800001EB020301D3421E0BE09842FBD28118D21AD34204D013F8014D01F8014DF8E710BD994204D011F8014B02F8014FF8E710BD000030B500293CD051F8042C0B1FB5
:4063C0001D49002AB8BF9B180A680C4612B95A600B6030BD93420DD219685818904201BF5A5852181A60426823605A6030BD994203D80A4651680029F9D1146815199D4266
:406400000AD11B682344D0188842136012D10868034413604B680CE002D90C23036030BD1C681819884201BF08684968001918605960536030BD00BF6892FF1F70B5CC1C3E
:4064400024F0030408340C2C38BF0C24002C064603DA0C233360002070BD8C42F9D3204A136810461946A1B10A68121B0ED40B2A03D90A608B188C501FE08B420BBF5A68A9
:406480004A6802605A6018BF0B4616E00B464968E9E7144D2B681BB9304600F04BF828603046214600F046F8421C0346D1D0C51C25F0030585420AD11C6003F10B001A1D80
:4064C00020F00700821A0AD05142995070BD3046E91A00F02FF80130BBD02B46ECE770BD6892FF1F6492FF1FF8B5074615460E4621B91146BDE8F840FFF7A0BF1AB9FFF7A8
:4065000059FF2846F8BD00F025F8A8420ED238462946FFF793FF044650B131462A46FFF7E5FB38463146FFF745FF01E03046F8BD2046F8BD38B5064C0023054608462360B8
:40654000FAF79EF8431C02D1236803B12B6038BD2093FF1F51F8040C0028BEBF091851F8043CC018043870470000000052554E20434F4D504C455445440A2A0A2A0A2A0A07
:406580004E4558542052554E2053544152540A0000000000536420766F6C20737563636565640000536420766F6C206661696C6564000000666F726D6174204661696C6574
:4065C000640000007700000046696C6520000000776173206F70656E656400007772697474656E20746F2066696C65000A2D2D2D2D2D2D2D2D2D2D2D2D0A00004661696CBE
:40660000656420746F2077726974650066696C65206E6F7420637265617465640000000053445F6661696C656400000028256C642970726573737572653A2025642E2530BA
:4066400034642C2025640A000A636F6D6D616E64733A200A30352C73746172740A30352C72657365740A30342C646174610A30352C6465707468000053544154453A205750
:406680004149545F544F5F4C41554E43480A00005472616E736D697474696E6720646174610A00007265736574000000035B00402443004040000000C84900401900004FAD
:4066C00000400C00005100401000205100401000405100403000F05100401000000001400010001401408000001501400005801A0140800100400140000A004C0140000263
:4067000000500140200000006052004010060048060080140140180600488000001A01409806004880000000FF3F00001000000010000000FFFF0100200000002000000039
:40674000FFFF07002000000040000000FFFF1F002000000080000000FFFF3F004000000080000000FFFFFF034000000000200000FF0F000002100000FF7F000002200000DA
:40678000FFFF000004200000FFFF030008200000FFFF070010200000FFBF0F00103F0000FF7F1F00203F0000FFFF3E00403F0000FFFF7D00803F0000FFFF7D00FF3F000093
:4067C0001D2000005B1F0000011F0000000000002E2E00004C680000080001004E6800000A00010051680000140100015368000016010001566800001500010158680000B1
:40680000170001015B680000180001005E6800001A000100626800001A000100666800001C010001696800001E0100016D6800001E010001716800001D00010174680000F7
:406840001F000101786800001F000101720072620077007762006100616200722B00722B620072622B00772B00772B620077622B00612B00612B620061622B000C00000083
:406880000000000010000000F50F000020000000F5FF00004E4F204E414D452020202000000100000100200000020000010040000008000001008000001000000100000152
:4068C0000040000002000001008000000200000100000400040000020000080008000002000010001000000200000001080000000000000210000000000000042000000055
:40690000FFFFFFFF400000004D5357494E342E31004641543136202020004641543132202020004641543332202020000A00000064000000E803000010270000000A0C0D67
:406940000F14191E23282D32373C41508096980040420F00A086010010270000E8030000640000000A000000010000004000000000950000B142000041430000D5440000B3
:4069800005460000514B0000294B0000B9420000A54200006D6D63004300232D302B2000686C4C0065666745464700303132333435363738394142434445460030313233C3
:4069C00034353637383961626364656600000000F8B500BFF8BC08BC9E4670474D000000FD060000F8B500BFF8BC08BC9E46704729000000086A00000881FF1FA0000000CB
:406A00008011000000000000000000003F000000746573745F312E747874000001000000010000002893FF1F01FF00000000E02EC05D00001800000000366E01C0670000BE
:406A40009D42000000000000000000000000000000000000000000000000000000000000000000009869000000000000000000000000000000000000000000000000000036
:406A80000000000000000000000000000000000000000000000000000000000000000000000000004481FF1F000000000000000000000000000000000000000000000000F3
:406AC0000000000000000000000000000000000000000000000000000000000000000000000000000000000000000000000000000000000000000000000000000000000096
:406B00000000000000000000000000000000000000000000000000000000000000000000000000000000000000000000000000000000000000000000000000000000000055
:406B40000000000000000000000000000000000000000000000000000000000000000000000000000000000000000000000000000000000000000000000000000000000015
:406B800000000000000000000000000000000000000000000000000000000000000000000000000000000000000000000000000000000000000000000000000000000000D5
:020000040003F7
:0200000480007A
:40000000024F00400252004001640040036500400400014002010140020301405706014032070140010D014007140140561501404716014045170140541801403C19014092
:40004000111A01404D1B01400240014004410140064201400243014006440140054501400546014004470140074801400C4901400C4C01400E4D01400550014002510140A0
:4000800001300A4B18201920870F850F89728B3839823F4159045F0120012102A902B401000C010D0450050D062F080409110A080B020D020F0D1008141116621840191268
:4000C0001A301B081C0C1D0D200424312512264E2704290D2A0C2C0C2D0D310F320F3470360F37103A203B023F40580459045F01840286018710880689208D078F18940189
:4001000095079602970898019A049B0B9D069F09AD14AF09B11EB207B320B701B808BB02BF44C042C106C50BC6ECC80DC9FFCAFFCBFFCEF0CF44D00CD401D804D904DA0424
:40014000DB04DC20DD22DF01E6C0EA40EB0200140426060808100A100C020E2912801301141416021701181019081C021E381F1020802101224423402440268028022C145C
:400180002F0230A83120376039083A103B403C403E1A4121481C5080521058015A885B10C076C2F6C4F0CA78CC3ECEFED005D204D60FEC101A0130013B02580459045C20D2
:4001C0005F0104260508060209200C020D800E281510174118401C041D80208024102502268527292C0C2D082E423510368437023D803E043F224502461047204D024E01C7
:400200004F245402552057655A405B406004621067206C196D906E056F52758076027C807D8084408A018D80932094769601970499109B029C849D829E029F59A210A31049
:40024000A40AA560A605A767AC14AD20AE04B110B301C0F0C2F2C4D0CAF0CCF0CEF0D0E0D230D840E022E210E808EA01EE02011F020103200448057F0602078008050BFFED
:400280000C040D900F4010201180141C16221760180219C01A441B041C051DC01F02200422012410279F280129C02B082C052DC02F0130023201347E37FF38203E153F40C8
:4002C0005409580459045B045F01801181018202847088048A238E01927C99029A02A848A901AA03AF01B00FB303B470B908BE10D440D804D904DB04DC20DF01005201088F
:40030000042405020640072109200A800C100E290FA013201484160217081A841D181E40202021042702280229202C082D802F203020375939023C163D805D105E425F046D
:400340006108624063086701802084029102932194269508960199089C169E029F61A001A210A426A702A880AB10AC01AE10B050C0FFC2FAC4F2CA7CCCF4CEF1D6F0D81E8B
:40038000E281E602E8200216032005700602070C081609140A0914081613170319101E09255C27022808296C2A152B112D092F1032073360341B351F39083A283F0440022C
:4003C000464049FF4A074BFF4C404D204EF04F055008580459045A045C225D025F01604061A862406320810484028709880889028A048C028D098F069402950E9701980227
:4004000099069B099C049E09A40CA506A80CA90FB002B10EB40CB507B601BB20BE01D602D713D804D904DB04DC22DD20DF01004001200210051006600710088009280A1020
:400440000E200F011114160819211A011B201D101E201F1820802120272429042A102F1A3128371438643A023E083F1547204F015620590169346A80709071047202730865
:4004800083018710884089218C028D049314B314C077C2A7C446CA76CC66CEEFD020D601E280E820ECA0860288018F019301A602B202B401B701BE14BF40D418D604D8041B
:4004C000D904DB04DD20DF0100400121024003200408070408120A110B04108112081308150818481A101B081E041F042004210122082306270128902A402B0830013248AB
:4005000033203602384039243C803F4040044109468047014A044B40510452025F0264406680670880408204840185088610888089208A04912592819444961098029B0CF3
:400540009CC09E10A0C0A320AE40AF0AC06FC20FC42FCA0FCC8FCE1ED007D20CD680D8B0EA013040CC109B049C40AB04EA803E105B049B049C40CE20D64096109C40110176
:4005800014207C017D80C40CDE0591019820A540B401EC08448091019820A540D001910198209C80A54023408840961097409C40B340C8400B20580166088B108E089801B8
:4005C000AA10AC01C210D640D880EAC010401320168079017C2091019820A540B080C40EDE03E8041010768078408810894098409A80A540AB20C408DC01DE04E204E40453
:4006000000050A0510051A051C04000303C00000A03000007000000004040000306205040447008804060060001002000789184603102800008208400466000000C1000E2E
